:020000040800F2
:10000000B09A0524B102000857460008A341000831
:1000100055460008750900083182000800000000FC
:100020000000000000000000000000004D64000817
:100030007709000800000000D34700085964000851
:10004000CB020008CB020008CB020008CB0200085C
:10005000CB020008CB020008CB020008CB0200084C
:10006000CB020008CB020008CB020008CB0200083C
:10007000CB020008CB020008CB020008CB0200082C
:10008000CB020008CB020008CB020008CB0200081C
:10009000CB020008CB020008CB020008CB0200080C
:1000A000CB020008CB020008CB020008CB020008FC
:1000B000CB020008CB020008CB020008CB020008EC
:1000C000CB020008CB020008CB020008CB020008DC
:1000D000CB020008CB020008CB020008CB020008CC
:1000E000CB020008CB02000800000000CB02000891
:1000F000CB020008CB020008CB020008CB020008AC
:10010000CB020008CB020008CB020008CB0200089B
:10011000CB020008CB020008CB020008CB0200088B
:10012000CB020008CB020008CB020008CB0200087B
:10013000CB020008CB020008CB020008CB0200086B
:1001400000000000000000000000000000000000AF
:10015000CB020008CB020008CB020008CB0200084B
:10016000CB020008CB020008CB020008CB0200083B
:10017000CB020008CB020008CB020008CB0200082B
:10018000CB020008CB020008CB020008CB0200081B
:10019000CB020008CB020008CB020008CB0200080B
:1001A000CB020008CB020008CB020008CB020008FB
:1001B000CB020008CB020008CB020008CB020008EB
:1001C000CB020008CB020008CB020008CB020008DB
:1001D000CB02000859460008CB020008CB020008F9
:1001E000CB020008CB020008CB020008CB020008BB
:1001F000CB020008CB020008CB020008CB020008AB
:10020000CB020008CB020008CB020008CB0200089A
:10021000CB020008CB020008CB020008CB0200088A
:10022000CB020008CB020008CB020008000000004F
:10023000CB020008CB02000800000000CB0200083F
:10024000CB020008CB020008CB020008CB0200085A
:10025000CB020008CB020008CB020008CB0200084A
:10026000CB020008CB020008CB020008CB0200083A
:10027000CB020008CB020008CB02000800000000FF
:10028000CB020008CB020008CB02000800000000EF
:1002900000000000CB020008DFF810D000F05CFA8C
:1002A00000480047719B0008AFF30080B09A052416
:1002B0000648804706480047FEE7FEE7FEE7FEE700
:1002C000FEE7FEE7FEE7FEE7FEE7FEE76D650008F6
:1002D000990200082DE9F05F0546002092469B46F2
:1002E00088460646814640241BE02846414647464C
:1002F000224600F069F853465A46C01A914110D37D
:1003000011461846224600F050F82D1A67EB0108F6
:100310004F4622460120002100F047F817EB000964
:100320004E41201EA4F10104DFDC484631462A4636
:100330004346BDE8F09F40EA01039B0703D009E074
:1003400008C9121F08C0042AFAD203E011F8013BC1
:1003500000F8013B521EF9D27047D2B201E000F81A
:10036000012B491EFBD270470022F6E710B5134659
:100370000A4604461946FFF7F0FF204610BD30B587
:100380000B46014600202022012409E021FA02F553
:100390009D4205D303FA02F5491B04FA02F52844ED
:1003A000151EA2F10102F1DC30BD202A04DB203A47
:1003B00000FA02F1002070479140C2F1200320FAB8
:1003C00003F3194390407047202A04DB203A21FAB6
:1003D00002F00021704721FA02F3D040C2F120025E
:1003E00091400843194670472DE9FE4F804681EA47
:1003F0000300C00F0C46009021F0004123F000459F
:10040000B8EB0200A94105D24046214690461C4661
:100410000B46024623F00040104347D0270DC7F398
:100420000A00C3F30A510290401A019040286BDA87
:10043000C3F3130040F4801B0098924620B10023C0
:10044000D2EB030A63EB0B0B01985946C0F1400253
:100450005046FFF7AAFF06460D4650465946019AF8
:1004600000F08CF910EB08006141002487EA11527A
:1004700084EAE7731A4340D0009A62B3019A012AD2
:100480004FEA075215DC001B61EB02014FF00042FE
:1004900002EA0752CDE90042001C41F580113246C4
:1004A0002B4600F08CF903B0BDE8F08F40462146A2
:1004B000F9E7001B61EB0201001C41F580130018F5
:1004C0005B412018A2F5001747EB030140EAD57005
:1004D000B6196D4111E06D084FEA360645EAC07560
:1004E0004FEA0752001B61EB0201001C41F580112D
:1004F00049084FEA30000019514132462B4603B0FB
:10050000BDE8F04F00F04CB90098012240000023F4
:10051000D0EB020263EBE073009821464FEAE074EF
:10052000B8EB000061EB0401E9E783F000435BE70F
:1005300081F0004158E72DE9FE4F81EA030404F001
:10054000004421F0004100944FF0000B23F00043E1
:1005500050EA01045ED052EA03045BD0C3F30A54AC
:10056000C1F30A552C44A4F2F3340194A0FB0254C5
:10057000C1F3130141F48011C3F3130343F4801357
:1005800001FB024400FB034E840A970A44EA8154AB
:1005900047EA8357A4FB076802958D0A05FB078588
:1005A0004FEA932C04FB0C542705029D4FEA065892
:1005B00047EA1637B5EB08056EEB070C870E920E6F
:1005C00047EA811742EA8312A7FB0201B6EB0B014F
:1005D00064EB00042B0D43EA0C335E1844EB1C5013
:1005E000DA465146E7FB0201C5F313044FEA0B3329
:1005F00043EA14534FEA0432019C43EA0603A4F190
:100600000C040294009CCDE900B400F0D8F803B0CB
:10061000BDE8F08F00200146F9E72DE9F04D81EAB1
:10062000030404F0004B21F0004514464FF0000A8B
:1006300023F0004150EA050220D054EA01021DD007
:10064000C5F30A570246C5F31303C1F31300C1F300
:100650000A5640F4801543F48013A7EB0608101BDC
:10066000D64608F2FD3873EB050002D308F1010805
:1006700001E092185B41B8F1000F03DA0020014657
:10068000BDE8F08D00204FF48011064684460EE050
:10069000171B73EB050705D3121B63EB050306431A
:1006A0004CEA010C49084FEA300092185B4150EACD
:1006B0000107EDD152EA030012D082EA040083EA76
:1006C0000501084305D0101BAB4106D201220023CF
:1006D00006E000224FF0004302E06FF001025310E9
:1006E0001AEB06004CEB085110EB0A0041EB0B0132
:1006F000BDE8F04D00F054B8C1F30A52C1F3130144
:1007000040F2FF3341F480119A4202DA00200146A0
:10071000704740F233439A42A2F2334202DC524223
:10072000FFF752BEFFF741BE30B5041E71F1000461
:1007300004DB4FF00044404264EB0101141E73F1EE
:10074000000405DB1C464FF00043524263EB0403F8
:10075000994208BF904230BD064C074D06E0E06864
:1007600040F0010394E8070098471034AC42F6D3F8
:10077000FFF796FD88A20008A8A20008202A06DB41
:10078000CB17203A41FA02F043EAE07306E041FA5F
:1007900002F3D040C2F1200291400843194670474D
:1007A00010B5141E73F1000408DA401C41F1000179
:1007B00092185B411A4301D120F0010010BD2DE9D0
:1007C000F04D92469B4611B1B1FA81F202E0B0FAC7
:1007D00080F220329046FFF7E8FD04460F4640EADB
:1007E0000A0041EA0B0153465A46084313D011460A
:1007F00053EA010019D0C8F140025046FFF7E4FD6A
:1008000005460E46504659464246FFF7CEFD084380
:1008100005D0012004E020463946BDE8F08D0020D7
:10082000054346EAE0762C4337430A986305E40A19
:10083000A0EB08000022FD0A44EA47540A3002D522
:1008400000200146E9E7010510196941DDE9084585
:1008500000196941BDE8F04DA2E770B58C1810F899
:10086000015B15F0070301D110F8013B2A1106D1F5
:1008700010F8012B03E010F8016B01F8016B5B1E0F
:10088000F9D12B0705D40023521E0DD401F8013BEA
:10089000FAE710F8013BCB1A921C03E013F8015B56
:1008A00001F8015B521EF9D5A142D8D3002070BDDA
:1008B00003484FF4004110B500F066FA012010BD66
:1008C000001002580146014802F0E4BF90010024E4
:1008D000044810B502F0F0FF042801D0012010BD3B
:1008E000002010BD9001002410B500F015F801287B
:1008F00001D0022010BD074803F052F8040006D1D1
:1009000004484FF4804102F04DFE00B1012420461E
:1009100010BD00009001002408B501208DF80000F2
:10092000FFF7C6FF10B900208DF800009DF8000009
:1009300008BD000038B50024009313460A4601465E
:10094000034803F017F900B10124204638BD000028
:100950009001002438B50024009313460A4601464E
:10096000034803F0E9F900B10124204638BD000036
:1009700090010024FEE7704772B6FEE7002200F007
:1009800001B800000E4B70B505465C7A0120002CC2
:1009900014D15E7A03F108009C555E7A03EB86065B
:1009A00075605D7A2A54587A421C5A723A232F2273
:1009B000303008704B7020468A70CC7070BD0000DB
:1009C000F40F002470B5044600F0F6F90546601CEB
:1009D00002D004480078044400F0EEF9401BA04225
:1009E000FAD370BD7C0000242DE9F04F4F4D00225A
:1009F0004FF0010A4FF00F0B92E000BF0AFA02F924
:100A000019EA01037ED022F0030606F1B0469407EE
:100A1000D6F808C4270FDFF818810BFA07FE404507
:100A20000EEA0C0402D14FF0000C40E0DFF804C1E4
:100A3000604502D14FF0010C39E0DFF8FCC06045A1
:100A400002D14FF0020C32E0DFF8F0C0604502D175
:100A50004FF0030C2BE0DFF8E8C0604502D14FF007
:100A6000040C24E0DFF8DCC0604502D14FF0050C37
:100A70001DE0DFF8D4C0604502D14FF0060C16E04F
:100A8000DFF8C8C0604502D14FF0070C0FE0DFF877
:100A9000C0C0604502D14FF0080C08E0DFF8B4C0D8
:100AA000604502D14FF0090C01E04FF00A0C0CFA3E
:100AB00007FCA44513D12C689C432C606F684FF051
:100AC000B0449F436F6027689F43276067689F43D8
:100AD0006760D6F8084424EA0E04C6F8084407689C
:100AE0000323D4084FEA42084FEA427C03FA08F392
:100AF0004FEADC6C1F4307600BFA0CF600EB840432
:100B0000276A00E00BE0B7432762C4689C43C460D7
:100B1000446824EA0904446084689C438460521C4D
:100B200031FA02F37FF46AAFBDE8F08F800000581D
:100B3000000002580004025800080258000C025835
:100B4000001002580014025800180258001C0258E5
:100B500000200258002402582DE9FC4F01257E4C4C
:100B600000234FF0030A4FF0B04E4FF00F0BEBE0B5
:100B700005FA03F637403A0077D04F68012F05D0C9
:100B8000022F03D0112F01D0122F1AD187684FEAFC
:100B90004308D1F80CC00AFA08F927EA09070CFA49
:100BA00008FC4CEA070CC0F808C0476891F804C07C
:100BB000B743CCF3001C0CFA03FC4CEA070CC0F85A
:100BC00004C0C6684FEA430CD1F80880E1460AFA2F
:100BD0000CF7BE43019708FA09F848EA0608C0F87E
:100BE0000C804E68022E01D0122E12D1DE084FEA80
:100BF000437C00EB860600960F69366A4FEADC6C90
:100C00000BFA0CF807FA0CF726EA08063743009EA1
:100C100037620E790768DDF804C006F0030606FAAD
:100C200009F627EA0C073E4306604E68F6001CD51D
:100C30004A4E376847F00207376036689F0706F06C
:100C40000206009623F0030606F1B046B1463F0FB8
:100C5000D6F80864DFF808810BFA07FC404526EA5D
:100C60000C0603D14FF0000C41E06CE0DFF8F4C05B
:100C7000604502D14FF0010C39E0DFF8ECC060456F
:100C800002D14FF0020C32E0DFF8E0C0604502D143
:100C90004FF0030C2BE0DFF8D8C0604502D14FF0D5
:100CA000040C24E0DFF8CCC0604502D14FF0050C05
:100CB0001DE0DFF8C4C0604502D14FF0060C16E01D
:100CC000DFF8B8C0604502D14FF0070C0FE0DFF845
:100CD000B0C0604502D14FF0080C08E0DFF8A4C0B6
:100CE000604502D14FF0090C01E04FF00A0C0CFAFC
:100CF00007FC4CEA060CC9F808C426684F6826EAC7
:100D00000206FF0300D51643266066684F6826EA90
:100D10000206BF0300D516436660D1F804C07646CC
:100D2000DEF800705FEACC2C27EA020700D51743F3
:100D30003760D1F804C077685FEA8C2C27EA020795
:100D400000D5174377605B1C0A681746DA407FF4CA
:100D50000FAFBDE8FC8F000080000058F44402583B
:100D6000000002580004025800080258000C025803
:100D7000001002580014025800180258001C0258B3
:100D800000200258002402580069084000D00120C9
:100D90007047426931EA020200D10904816170475B
:100DA0000AB1816170470904FBE70000014800684F
:100DB000000C70470010005C01488068704700001C
:100DC0007C000024024881680278114481607047E9
:100DD0007C000024032010B500F096F802F0C2F861
:100DE0000F4A104914681368C4F3032203F00F0379
:100DF0008A5CC95C02F01F0201F01F01D0400A4A60
:100E000020FA01F1116009490860002000F010F893
:100E100008B1012010BD00F02BF8002010BD00002B
:100E200018440258DCA100088C000024880000242B
:100E300070B50D4D04462878A0B14FF47A71B1FB1E
:100E4000F0F00A490968B1FBF0F003F063F848B923
:100E5000102C07D200222146501E00F035F8002049
:100E60006C6070BD012070BD7C00002488000024EF
:100E7000054808B5016841F002010160006800F012
:100E80000200009008BD0000F444025800280DDB69
:100E9000410900F01F028900012001F1E02190408A
:100EA000C1F88001BFF34F8FBFF36F8F70470028E9
:100EB00009DB410900F01F028900012001F1E02156
:100EC0009040C1F8000170470E4BF0B41B680D460E
:100ED000C3F30223C3F10706042E00D90426191D0B
:100EE000072901D2002300E0DB1E012404FA06F1E9
:100EF0009C40491E2940641E994014402143F0BC87
:100F000007F0A8B90CED00E0064900F0070210B5A3
:100F10004FF6FF040868044B204040EA02201843C3
:100F2000086010BD0CED00E00000FA050168012327
:100F3000C0F8FC33002280F8F4238869044A40F0AA
:100F400000608861486D10434865002070470000CC
:100F50000300001070470068416200207047F0B540
:100F600003685D6A39B19F6A4C1E00204FF4827697
:100F700005EB17450BE045EA0240986210E0471C7C
:100F800006EB800053F800C0F8B205EB1C45A04208
:100F9000F5D34FF4807000EB810045EA02421A500D
:100FA0000020F0BDD0F8040406F058B8C1EBC1022F
:100FB00000EB8202D0F80404926C05F0C3BFC1EBD1
:100FC000C10200EB8202D0F80404D2F8082206F035
:100FD0000EB8D0F8040406F043B801F00F020B0677
:100FE00070B5C2EBC20104464FF001004FF000059E
:100FF00004EB810103D581F83D003C3103E081F829
:10100000FD5101F5FE710A7094F8BC23012A08D045
:1010100084F8BC03206806F0A3FC002084F8BC53CD
:1010200070BD022070BD70B54268044601F00F002B
:10103000904201D9012070BD01F00F024FF0000570
:101040000B06C2EBC2014FF0010204EB810103D594
:1010500081F83D203C3103E081F8FD5101F5FE713E
:101060008D70087094F8BC03012808D084F8BC2364
:10107000206806F06FFE002084F8BC5370BD02208B
:1010800070BD10B5044690F8BC0301280AD00120B9
:1010900084F8BC0320680A0606D501F00F0106F0AB
:1010A000BBFF03E0022010BD06F0A6FF002084F87D
:1010B000BC0310BD01F00F01C1EBC10100EB8100C9
:1010C000D0F8140270472DE9F04101F00F060446F4
:1010D0000D064FF00100C6EBC6014FF0000504EB12
:1010E000810103D581F83D003C3103E081F8FD51D9
:1010F00001F5FE714F788A60CB700E7007B1CE801B
:10110000022B00D10D7194F8BC23012A09D084F878
:10111000BC03206806F07EFB284684F8BC53BDE87B
:10112000F0810220FBE770B501F00F050C460026A8
:10113000C5EBC50100EB8101C1F80822C1E9843685
:1011400081F8FD6181F8FC5101F5FE710369012B05
:1011500000D10A612207027C006803D006F052FE2B
:10116000002070BD06F03CFDFAE770B50D46416801
:10117000044605F00F00884201D9012070BD290600
:101180004FF000064FF0010207D5C0EBC00104EBA1
:10119000810181F83D203C3107E0C5EBC50104EB3E
:1011A000810181F8FD6101F5FE718A70087094F883
:1011B000BC03012807D084F8BC23206806F0F6FDA4
:1011C000280702D007E0022070BD217C04F571726F
:1011D000206806F093FD002084F8BC6370BD2DE903
:1011E000F04101F00F050C460026C5EBC5010127B3
:1011F00000EB81018A64C1E9143681F83D7001F881
:101200003C5F0369012B00D10A612207027C006860
:1012100004D006F0F7FD0020BDE8F08106F0E0FC08
:10122000F9E700002DE9FC5F05680446284606F052
:1012300012FF00287ED1206806F039FF002879D0FF
:10124000206806F034FF800704D52068416901F06A
:1012500002014161206806F02AFFC10604F57170A1
:10126000009034D52068816921F0100181612F6AD6
:1012700007F00F01C7F34340C1EBC101022804EBA3
:10128000810606F5FE7602D0062811D01AE047F650
:10129000F070074216D0C7F30A12F16817462846C5
:1012A00006F009FFF168B0693944F160384408E09C
:1012B00000990822284606F0FEFEB069C7F30A111D
:1012C0000844B0612068816941F0100181612068A3
:1012D00006F0EDFE00034FF001094FF0080B5BD55F
:1012E0002068002606F0C2FEDFF8A8A3074651E0FA
:1012F000F8074DD02068F1B206F0D1FE8046C00755
:1013000007D005EB4611C1F8089B3146204603F093
:10131000A9F95FEA087022D505EB4611C1F808BBB0
:101320002068016C00EB461001915145D0F8081B74
:1013300007D900E0ABE1090403D54FF40041C0F840
:10134000081B204600F0B4FA0198504507D92069DF
:10135000012804D120680121009A06F0CFFC5FEA41
:10136000C86004D505EB46111020C1F8080B5FEAF0
:10137000886004D505EB46102021C0F8081B5FEA01
:10138000884005D505EB46114FF40050C1F8080B15
:101390007F08761C002FABD1206806F088FE400342
:1013A0004FF0000A5CD5206806F059FE002607467B
:1013B00054E0F80750D02068F1B206F05EFE804697
:1013C000C00723D0D5F8342806F00F0C05EB4613E0
:1013D00009FA0CF08243C5F83428C3F8089920694B
:1013E00001280FD1C6EBC60004EB8000D0E9111232
:1013F0001144816436B9206D20B920680121009A1A
:1014000006F07CFC2046F1B2FFF7D0FD5FEA0870E1
:1014100003D505EB4611C1F808B95FEAC86004D5E9
:1014200005EB46111020C1F808095FEA486004D5B1
:1014300005EB46114020C1F808095FEA887004D521
:1014400005EB46110220C1F808095FEA086003D5E0
:101450003146204603F06CF97F08761C002FA8D196
:10146000206806F024FE002811DAD5F8040820F0E0
:101470000100C5F8040894F8F403012839D0204687
:1014800000F0FAF92068416901F0004141612068EB
:1014900006F00DFE00050BD5D5F80808C00702D0F0
:1014A000204600F02DFA2068416901F40061416195
:1014B000206806F0FCFD00010AD52068416901F0B2
:1014C0000061416194F8F403D0B1204600F018FAAD
:1014D000206806F0ECFDC00476D5D5F8040820F0AD
:1014E0000100C5F804082068102106F095FD0021D0
:1014F00035E00021204684F8F4A3FFF72BFDC1E777
:1015000084F8F4932068406D0121C0F38300C4F88F
:10151000F8032046FFF71EFDDAE700BF05EB411098
:101520004FF67F32C0F80829D0F8003923F40013B1
:10153000C0F80039D0F8003943F00063C0F8003932
:10154000C0F8082BD0F8002B22F40012C0F8002BB2
:10155000D0F8002B42F00062C0F8002B491C6068F4
:101560008842DBD8D5F81C0840F00110C5F81C08EB
:10157000206B60B1D5F8840840F00B00C5F88408F2
:10158000D5F8440840F00B00C5F844080CE0D5F845
:10159000140842F22B010843C5F81408D5F81008C6
:1015A00040F00B00C5F81008D5F8000820F4FE60E4
:1015B000C5F80008217C2068009A06F09FFB20688F
:1015C000416901F480514161206806F070FD80049A
:1015D00017D5206806F05EF9206806F02FFDE06060
:1015E00001F07AFC0146207B2368C2B2184606F05F
:1015F00099FD204600F02AF92068416901F4005164
:101600004161206806F053FD000707D5204600F031
:1016100037F92068416901F008014161206806F04E
:1016200046FDC00208D50021204600F035F82068AC
:10163000416901F480114161206806F038FD8002A3
:1016400008D50021204600F02BF82068416901F4FC
:1016500000114161206806F02AFD400007D52046B0
:10166000FFF7A0FC2068416901F0804141612068DA
:1016700006F01DFD40070AD520684568680702D5B9
:101680002046FFF7A6FC2168486828434860BDE86B
:10169000FC9F00000A30544FD0F8040405F03CBD14
:1016A000D0F8040405F03ABD2DE9F04104008AB0F9
:1016B00005D094F8BD030025266820B108E001207C
:1016C0000AB0BDE8F081204684F8BC5300F082F8EF
:1016D000032084F8BD03F06BC00500D425612068A9
:1016E00006F078FA04F11001684628228846FEF7D1
:1016F00022FE94E80F0006F0DBF80227D8BB206832
:10170000002106F0E6FC0020012610E0C0EBC0013D
:10171000421C04EB810181F83D6081F83F504D642B
:101720008D640D6581F83C00A1F84200D0B261687B
:101730008142EBD8002011E0C0EBC001421C04EB59
:10174000810181F8FD5181F8FF51C1F80452C1F8BF
:101750000852C1F8105281F8FC01D0B26168814290
:10176000EAD8282241466846FEF7E5FD94E80F00D6
:1017700006F074F910B184F8BD73A0E7606A84F8CC
:10178000385084F8BD63012802D12046FFF7CEFB14
:10179000206806F057F9002092E7000010B50068B5
:1017A000094988420ED10948016821F000610160B1
:1017B00007484FF4C051FFF717F9BDE81040652006
:1017C000FFF764BB10BD000000000840D844025879
:1017D0000000025810B586B0044614216846FEF792
:1017E000C3FD17492068884228D11648016841F096
:1017F0000101016000680A23022200F00100059047
:1018000000204FF4C05100916946CDE90120CDE997
:1018100003030D48FFF7A0F90A480838016841F0B2
:101820000061016000680022114600F00060059030
:101830006520FFF749FB6520FFF739FB06B010BDB7
:1018400000000840E04402580000025870B5044609
:10185000C068012570B1022801D0FFF78DF8D4F8D7
:101860000404294605F0B0FCD4F80404BDE8704037
:1018700005F06BBC0025F2E7D0F8040405F08EBC3F
:10188000D0F8040405F094BC10B5044690F8BC03ED
:1018900001280BD0012084F8381084F8BC0320689C
:1018A00006F02EFC002084F8BC0310BD022010BD01
:1018B000D0F8042400F57171104605F091BC10B504
:1018C00090F8BC1304460068012906D0A26A0121E1
:1018D00084F8BC13012A02D008E0022010BDA169DF
:1018E000012903D0816B41F480318163206806F0C7
:1018F0009DF8206806F07AFB002084F8BC0310BD38
:1019000010B50446D0F8040405F0AAFC2068D0F80D
:10191000001E41F00101C0F8001E206A002804D01A
:101920000248016841F00601016010BD10ED00E0C1
:10193000134970B50A68D243520705D5096801F00A
:101940000701814213D118E00A6822F0070202431E
:101950000A60FFF731FA0A4D4FF47A760446083DE3
:1019600007E000BFFFF728FA001BB04201D90120B1
:1019700070BD2868C0438004F4D4002070BD00000E
:101980000C4802580248016841F0807101607047BC
:101990000C4802582DE9F84F1E4615468A46044663
:1019A000FFF70AFA814694F8400001280ED001277B
:1019B0004FF0000884F8407094F84100012807D0E7
:1019C0005FF0020084F84080BDE8F88F0220FBE75A
:1019D0004221C4F8448084F84110002220214B4663
:1019E0002046009603F034F90028EBD121682868DE
:1019F00088622168686848622168A868C8622068AF
:101A00002969026822F4400242F480021143016015
:101A1000E9684FF000622046CAF82810514602F0EB
:101A2000D9FE01224B4608212046009603F010F90A
:101A30000028C7D122680821D16084F84170C1E72D
:101A40002DE9F84F17468B460446FFF7B5F9824655
:101A500094F8400001280ED001264FF0000884F8C9
:101A6000406094F84100012807D0022584F84080A6
:101A70002846BDE8F88F0220FBE74FF00209C4F8C2
:101A8000448084F84190002220215346204600974C
:101A900003F0DEF80500E9D100225946204602F0A5
:101AA00099FEDBF8240058B9012253460221204652
:101AB000009703F0CDF80500D8D12168C1F80C904B
:101AC00084F84160D2E70000F8B50446FFF774F9E6
:101AD00005461CB194F8410010B107E00120F8BDA3
:101AE000204600F047F841F28830A06420686FF08B
:101AF000FF02A168036802EB012223F47061114325
:101B00000160A06C002220212B460090204603F0AB
:101B10009FF80028E3D12268D4E907352679E168E7
:101B2000176845EA0665DFF844C01943104B29439E
:101B30000025012607EA0C07394311602268D4E921
:101B40000517B4F810C0D2F804E039430EEA030ECA
:101B50004EEA0C431943516021680A6842F00102C1
:101B60000A60656484F84160F8BD00002FFFFF0043
:101B7000FEF8E0FF70B586B0044614216846FEF713
:101B8000F3FB3949206888426CD13848016841F438
:101B900080410160006800F48040059033480C30BB
:101BA000016841F002010160016801F00201059144
:101BB000016841F002010160016801F00201059134
:101BC000016841F008010160016801F00801059118
:101BD000016841F008010160016801F00801059108
:101BE000016841F010010160016801F010010591E8
:101BF000016841F008010160006801AB04251C4E3A
:101C000000F008000590092400950220002103221D
:101C100083E8170069463046FEF79EFF402000909B
:101C20000A21304604916946FEF796FF114E68027C
:101C30006946049400903046FEF78EFFA80269467C
:101C4000049400903046FEF787FF0B4869460095E4
:101C50000494FEF781FFE802694604940090304640
:101C6000FEF77AFF06B070BD00500052D44402580F
:101C700000040258000C0258001002582DE9F84FD9
:101C800015460E460446FFF797F88246206881699C
:101C900094F8403000F12009012B0DD001274FF0BE
:101CA000000884F8407094F84120012A06D00220F0
:101CB00084F84080BDE8F88F0220FBE7C4F8448038
:101CC000A6B3222284F841200269521CA263026951
:101CD000521C62632663426922F0406242F08062D5
:101CE0004261206881610EE00621204602F0B0FFCB
:101CF000C8B999F80000216B0870206B401C206364
:101D0000A06B401EA063A06B53464FF001020095EC
:101D10000028E9D14FF00201204602F099FF10B9E6
:101D200022680221D16084F84170C1E7FFE7616C4D
:101D3000012041F008016164BAE700002DE9F84F85
:101D400015460E460446FFF737F894F840108246D1
:101D50002068012900F120090ED001274FF000086A
:101D600084F8407094F84110012907D05FF0020018
:101D700084F84080BDE8F88F0220FBE7C4F8448077
:101D800086B3122184F841100169491CE16201699E
:101D9000491CA1626662416921F0406141610EE027
:101DA0000421204602F054FFC8B9606A017889F81E
:101DB0000010606A401C6062E06A401EE062E06AF7
:101DC00053464FF0010200950028E9D14FF002017F
:101DD000204602F03DFF10B922680221D16084F84C
:101DE0004170C5E7FFE7616C012041F008016164C3
:101DF000BEE7000010B501F06FF805490968054A13
:101E0000C1F30211515C01F01F01C84010BD000078
:101E100020440258DCA10008494930B5484C0B1D4C
:101E20000A680C3409681D68246802F0030305F091
:101E30000102C1F30511C4F3CC04002914FB02F222
:101E400000EE102AF8EE400A75D03F4A9FED3D1A89
:101E5000B7EE000A6BB1DFED3D1A012B01D0022B6A
:101E600064D002EE101A1168F8EE422A81EEA22A1E
:101E700021E0334C283C23689B0612D5344B246860
:101E800001EE901A1168C4F3C104F8EE612AE34030
:101E900001EE903AC1F30801F8EE611A81EEA22A30
:101EA0000BE001EE901ADFED2B2A00BFF8EE611A6D
:101EB000116882EEA12AC1F3080101EE901A11689F
:101EC000F8EE611A40EE811A71EE800A62EE200A85
:101ED000C1F3462101EE101AB8EE411A31EE001A94
:101EE000C0EE811ABCEEE11A80ED001A1168C1F350
:101EF000064101EE101AB8EE411A31EE001AC0EE9A
:101F0000811ABCEEE11A80ED011A1168C1F3066175
:101F100001EE101AB8EE411A31EE000A80EE801A76
:101F2000BCEEC10A80ED020A30BD04E001EE901A59
:101F3000DFED092ABAE70021016041608160F3E723
:101F40002844025800000039304402580024744AE2
:101F50000090D0030024744C20BCBE4B494930B5DE
:101F6000484C0B1D0A68143409681D68246802F087
:101F70000303C5F30012C1F30531C4F3CC040029F7
:101F800014FB02F200EE102AF8EE400A75D03F4A28
:101F90009FED3D1AB7EE000A6BB1DFED3D1A012B44
:101FA00001D0022B64D002EE101A1168F8EE422A1A
:101FB00081EEA22A21E0334C283C23689B0612D5EF
:101FC000344B246801EE901A1168C4F3C104F8EE92
:101FD000612AE34001EE903AC1F30801F8EE611A7C
:101FE00081EEA22A0BE001EE901ADFED2B2A00BF52
:101FF000F8EE611A116882EEA12AC1F3080101EE20
:10200000901A1168F8EE611A40EE811A71EE800A9A
:1020100062EE200AC1F3462101EE101AB8EE411A11
:1020200031EE001AC0EE811ABCEEE11A80ED001A02
:102030001168C1F3064101EE101AB8EE411A31EEF3
:10204000001AC0EE811ABCEEE11A80ED011A116887
:10205000C1F3066101EE101AB8EE411A31EE000A22
:1020600080EE801ABCEEC10A80ED020A30BD04E0A9
:1020700001EE901ADFED092ABAE700210160416004
:102080008160F3E7284402580000003938440258C0
:102090000024744A0090D0030024744C20BCBE4B32
:1020A000494930B5484C0B1D0A681C3409681D6845
:1020B000246802F00303C5F30022C1F30551C4F301
:1020C000CC04002914FB02F200EE102AF8EE400ABC
:1020D00075D03F4A9FED3D1AB7EE000A6BB1DFEDB8
:1020E0003D1A012B01D0022B64D002EE101A1168A8
:1020F000F8EE422A81EEA22A21E0334C283C2368E4
:102100009B0612D5344B246801EE901A1168C4F373
:10211000C104F8EE612AE34001EE903AC1F30801F0
:10212000F8EE611A81EEA22A0BE001EE901ADFEDC3
:102130002B2A00BFF8EE611A116882EEA12AC1F3C2
:10214000080101EE901A1168F8EE611A40EE811A4A
:1021500071EE800A62EE200AC1F3462101EE101AE8
:10216000B8EE411A31EE001AC0EE811ABCEEE11A47
:1021700080ED001A1168C1F3064101EE101AB8EEA5
:10218000411A31EE001AC0EE811ABCEEE11A80ED60
:10219000011A1168C1F3066101EE101AB8EE411A76
:1021A00031EE000A80EE801ABCEEC10A80ED020A10
:1021B00030BD04E001EE901ADFED092ABAE70021F4
:1021C000016041608160F3E7284402580000003953
:1021D000404402580024744A0090D0030024744CF8
:1021E00020BCBE4B2DE9F0474FF480760146B0424B
:1021F0006F48DFF8B8818AB06E4B4FF080576E4D54
:10220000A8F104044FEA20124FF0005C29D1D8F85D
:10221000001001F0070105291FD2DFE801F0030AD1
:102220000F20140006A8FFF7F7FD07980AB0BDE8D5
:10223000F0876846FFF792FE0098F7E703A8FFF7DC
:102240002FFF0398F2E7216811F04051EED0B94218
:1022500075D11046EAE71846E8E70020E6E7284689
:10226000E4E7B1F5007F19D0544EB1F5806F26D068
:10227000B1F5006F37D04FF4805949454FF4804A8B
:102280004BD1D8F8001001F4E041B1F5005FD5D092
:102290003DDC0029C6D04945DFD1CAE7D8F8001097
:1022A00001F4E0718029C9D004DC0029BAD04029AA
:1022B000D3D1BEE7C029D2D0B142CED1C3E7316875
:1022C00001F46001B1F5800FB8D005DC0029A9D078
:1022D000B1F5001FC1D1ACE7B1F5C00FBFD0B1F56A
:1022E000000FBAD1AFE7316801F0E061B1F1007FD2
:1022F000A4D005DC002995D0B1F1807FADD198E75D
:10230000B1F1407FABD0B1F1806FA6D19BE7B1F5C1
:10231000405FA4D05145A0D195E7B1F5002F4FF40F
:1023200080350DD0A9421DD1206810F48030B1D085
:10233000A84292D16846FFF711FE029876E70EE0B8
:10234000316811F44031A8D0A94203D0B1F5003F63
:1023500083D178E703A8FFF7A3FE059866E76145F8
:102360009AD178E7514597D1316801F0E041B1F158
:10237000405FE3D009DC81B1B94211D061458BD116
:1023800003A8FFF78DFE049850E7B1F1804F3FF4AA
:1023900060AFB1F1A04F8BD15DE7FFF72BFD45E7B3
:1023A0006846FFF7DBFD019840E700005044025803
:1023B0000090D00340787D010080BB005844025853
:1023C0002DE9FC5F044650F8241B002500902E46A2
:1023D0000801FE4FDFF8F8831DD5606E50B1B0F5EF
:1023E000801F0CD0B0F5001F0ED0B0F5401F1DD0DF
:1023F00001250FE0386840F40030386016E0022113
:10240000201D02F049FC03E00098022102F0D4FCF8
:1024100005000BD02E462088C00523D5606D052809
:102420001ED2DFE800F00C11161B1B00626ED8F8FC
:10243000001021F440111143C8F80010EBE7386890
:1024400040F40030386009E00021201D02F024FC37
:1024500003E00098002102F0AFFC05466DB100E0FA
:1024600001252E462088800528D5A06D80281ED005
:102470000CDC90B140280ED114E0626DD8F8001049
:1024800021F007011143C8F80010EBE7C02813D072
:10249000B0F5807F10D001250FE0386840F400309F
:1024A000386009E00021201D02F0F6FB03E00098EF
:1024B000002102F081FC054695B12E462088DFF808
:1024C0001093400509F108092CD5D4F8A400B0F503
:1024D000800F20D00DDCA0B1B0F5001F0FD115E0AA
:1024E000A26DD8F8001021F4E0711143C8F8001073
:1024F000E4E7B0F5C00F13D0B0F5000F10D0012500
:102500000FE0386840F40030386009E00021201DF9
:1025100002F0C2FB03E00098002102F04DFC0546EA
:1025200075B12E46208800052DD5D4F8A800B0F14D
:10253000007F21D00EDCA8B1B0F1807F10D116E071
:10254000D4F8A420D9F8001021F460011143C9F88F
:102550000010E7E7B0F1407F13D0B0F1806F10D0EA
:1025600001250FE0386840F40030386009E00021B0
:10257000201D02F091FB03E00098002102F01CFCFA
:1025800005466DB12E46206880011FD5A06CD8B1DC
:1025900010280FD0202812D0302815D0012514E0A3
:1025A000D4F8A820D9F8001021F0E0611143C9F84F
:1025B0000010E8E7386840F40030386004E0022199
:1025C000201D02F069FB05466DB12E462088C0042F
:1025D0002BD5E06DB0F5005F20D00DDCA0B1B0F5DB
:1025E000805F0FD115E07A48A26C001F016821F0CE
:1025F000300111430160E9E7B0F5405F13D0B0F559
:10260000804F10D001250FE0386840F4003038606A
:1026100009E00021201D02F03FFB03E000980021AB
:1026200002F0CAFB054685B12E462088800429D5D4
:10263000206EB0F5403F23D010DC08B3B0F5803FEA
:1026400014D0B0F5003F0FD115E0E26DD8F80010BE
:1026500021F4E0411143C8F80010E6E7B0F5802FFF
:102660000ED0B0F5A02F0BD001250AE00121201DCE
:1026700002F012FB03E00098012102F09DFB0546E9
:102680008DB12E46208840042AD5D4F8AC00B0F194
:10269000405F23D010DC08B3B0F1805F14D0B0F1FC
:1026A000005F0FD115E0226ED8F8001021F4E02170
:1026B0001143C8F80010E5E7B0F1804F0ED0B0F13B
:1026C000A04F0BD001250AE00121201D02F0E4FA01
:1026D00003E00098012102F06FFB05466DB12E4624
:1026E000208800041FD5E06ED8B1B0F1805F0ED015
:1026F000B0F1005F10D0012514E0D4F8AC20D9F877
:10270000001021F0E0411143C9F80010E8E73868F3
:1027100040F40030386004E00121201D02F0BCFAD2
:1027200005466DB12E462068C0011ED5606CD0B143
:1027300001280ED0022811D0032814D0012513E05F
:10274000E26ED8F8001021F040511143C8F8001093
:10275000E9E7386840F40030386004E00221201DC9
:1027600002F09AFA054685B12E462068DFF85CB083
:102770004002ABF11C0B57D51648016841F480713B
:102780000160FEF719FB82460EE01148626C001FE3
:10279000016821F0030111430160E6E7FEF70CFB3D
:1027A000A0EB0A0064283DD80A480068C005F5D5AA
:1027B0007DBBDFF81CA0B4F8B0100AF1200ADAF8EB
:1027C000000001F4407100F4407005E02C44025810
:1027D0005044025800480258884211D0DAF80010DC
:1027E000DAF8002021F4407142F48032CAF8002067
:1027F000DAF8002022F48032CAF80020CAF800106B
:10280000D4F8B000B0F5807F21D1FEF7D5FA019061
:1028100019E008E0FEF7D0FA0199411A41F2883038
:10282000814210D903252E462078DFF830A4C00756
:102830003DD0A06F182838D026DC80B3082829D0D6
:10284000102825D12CE0DAF800008007E2D5D4F872
:10285000B010C1F30120032858460DD0016821F4BF
:102860007C510160B4F8B020DAF80010C2F30B021A
:102870001143CAF80010D7E7F94A036802EA1112B7
:1028800023F47C511143ECE720280ED028280CD0EB
:1028900001250BE00121201D02F0FEF904E004E017
:1028A0000098012102F088FA05465DB12E46207895
:1028B00080071ED5606F062819D2DFE800F0160CDD
:1028C00011161616A26FDAF8001021F03801114324
:1028D000CAF80010EBE70121201D02F0DDF903E04A
:1028E0000098012102F068FA054675B100E0012563
:1028F0002E46207840071FD5D4F89000062819D21C
:10290000DFE800F0160C11161616626FDAF80010E8
:1029100021F007011143CAF80010EAE70121201D48
:1029200002F0BAF903E00098012102F045FA0546E9
:102930009DB100E001252E46207880062BD5D4F8E5
:102940008C00B0F1405F24D011DC10B3B0F1805F97
:1029500015D0B0F1005F10D116E0D4F89020D9F86E
:10296000001021F007011143C9F80010E4E7B0F1AD
:10297000804F0ED0B0F1A04F0BD001250AE000210E
:10298000201D02F089F903E00098022102F014FAF8
:1029900005468DB12E46207840062BD5D4F89800F8
:1029A000B0F5406F24D011DC10B3B0F5806F15D0B6
:1029B000B0F5006F10D116E0D4F88C20DAF80010D2
:1029C00021F0E0411143CAF80010E4E7B0F5805F60
:1029D0000ED0B0F5A05F0BD001250AE00021201D2C
:1029E00002F05AF903E00098022102F0E5F90546E9
:1029F0008DB12E46207800062BD5D4F89C00B0F57A
:102A0000C04F24D011DC10B3B0F5005F15D0B0F585
:102A1000804F10D116E0D4F89820D9F8001021F496
:102A2000E0511143C9F80010E4E7B0F5004F0ED0B3
:102A3000B0F5204F0BD001250AE00021201D02F047
:102A40002BF903E00098022102F0B6F905464DB1DA
:102A50002E46207800071ED5D4F88000B0F5805FA0
:102A60000AD00FE0D4F89C20D9F8001021F460417E
:102A70001143C9F80010ECE70098022102F09CF91C
:102A800000B10126D4F88020DAF8001021F440517A
:102A90001143CAF800102078C00613D5D4F894006A
:102AA000B0F5807F05D10098022102F085F900B1D0
:102AB0000126D4F89420D9F8001021F44071114374
:102AC000C9F800102068000316D5D4F8A00038B16A
:102AD000B0F5803F09D0B0F5003F0BD001250AE0EA
:102AE0000021201D02F0D8F803E00098022102F036
:102AF00063F9054685B12E462068400322D5D4F8F7
:102B00008400B0F5801F11D0B0F5001F13D0B0F5D0
:102B1000401F15D0012514E0D4F8A020D9F80010EA
:102B200021F440311143C9F80010E5E7386840F45A
:102B30000030386004E00098012102F03DF90546BC
:102B400055B12E462068C0031CD5E06C70B1B0F5BD
:102B5000803F10D0012514E0D4F88420DAF800106A
:102B600021F440111143CAF80010EBE7386840F433
:102B70000030386004E00221201D02F08DF8054687
:102B8000CDB12E462068800005D50098022102F0C4
:102B900013F900B10126206880031BD5E06FB8B19E
:102BA000B0F5807F10D0B0F5007F11D0B0F5407F38
:102BB0000ED001250DE02948E26C0838016821F4A7
:102BC000803111430160DDE7386840F4003038603F
:102BD000F5B32E462068C00207D5226FD8F8001042
:102BE00021F000411143C8F800102068C00008D54A
:102BF000D4F8B420DBF8001021F480411143CBF865
:102C000000102068800207D5A26ED8F8001021F0CD
:102C100080711143C8F80010206840000CD5DBF823
:102C2000001021F40041CBF80010DBF80010D4F8BC
:102C3000B8201143CBF800102068002807DA0748B5
:102C4000226D0838016821F040511143016000E015
:102C500008E086B10120BDE8FC9F00005444025802
:102C6000CFFFFF00E26FDAF8001021F4407111434A
:102C7000CAF80010AEE70020EDE700002DE9F05F94
:102C800004000F467ED0DFF83882D8F8000000F04C
:102C90000F00B8420CD2D8F8001021F00F013943D0
:102CA000C8F80010D8F8000000F00F00B84269D151
:102CB0002078844D40070AD52069296801F0700109
:102CC000884204D9296821F07001014329602078E5
:102CD0007C4E361D00070AD56069316801F070012D
:102CE000884204D9316821F07001014331602078B5
:102CF000C0060AD5A069316801F4E061884204D9B0
:102D0000316821F4E061014331602078DFF8B4B12B
:102D100080060BF1080B0CD5E1695846DBF8002062
:102D200002F07002914204D9026822F070020A4354
:102D30000260207880070AD5E068296801F00F0159
:102D4000884204D9296821F00F01014329602078C5
:102D5000C0073ED05B49A2682868183920F470602B
:102D6000104328606068022818D0032819D0096829
:102D7000012819D0490700294ADADFF848A1AAF149
:102D8000080A00E044E0DAF8002022F007020243DB
:102D9000CAF80020FEF710F8814612E0096889039E
:102DA000E9E709688901E6E7C905E4E7FEF704F801
:102DB000A0EB090141F28830814202D90320BDE82D
:102DC000F09F6168DAF8000000F03800B0EBC10F46
:102DD000ECD1207880070AD5E068296801F00F015E
:102DE000884204D2296821F00F0101432960D8F8F4
:102DF0000010404601F00F01B9420BD9016821F0E3
:102E00000F0139430160006800F00F00B84201D0A3
:102E10000120D4E7207840070AD52069296801F00D
:102E20007001884204D2296821F0700101432960B1
:102E3000207800070AD56069316801F07001884286
:102E400004D2316821F07001014331602078C0065E
:102E50000AD5A069316801F4E061884204D2316882
:102E600021F4E06101433160207880060CD5E169EE
:102E70005846DBF8002002F07002914204D202684A
:102E800022F070020A43026000F06CF80E492A68D2
:102E90002B68C2F3032203F00F038A5CC95C02F0C3
:102EA0001F0201F01F01D040084A20FA01F1116011
:102EB0000749086007480068BDE8F05FFDF7B8BF44
:102EC0000020005218440258DCA100088C000024A5
:102ED000880000248000002430B500F043F80B4A3D
:102EE0000B490C4B15681468C5F3032204F00F045A
:102EF0008A5C095D02F01F0201F01F01D040064A02
:102F000020FA01F119601060084630BD18440258DB
:102F1000DCA100088C0000248800002400B5FFF725
:102F2000DBFF05490968054AC1F30211515C01F054
:102F30001F01C84000BD00001C440258DCA100086D
:102F400000B5FFF7C9FF05490968054AC1F3022129
:102F5000515C01F01F01C84000BD00001C44025834
:102F6000DCA10008454970B545480968434B103B52
:102F700011F0380208D00111082A03D0102A0BD012
:102F8000182A0BD0084670BD19688906FBD5196848
:102F9000C1F3C101C84070BD3A4870BD3749374DD3
:102FA00018310C1D24350A68096826682D6802F05E
:102FB000030406F00102C1F30511C5F3CC0515FBAE
:102FC00002F200EE102AB8EE400AE9B32F4ADFED14
:102FD0002E0AB7EE001A6CB1DFED2D1A012C01D0CC
:102FE000022C43D002EE101A1068F8EE422A81EE4D
:102FF000A22A1EE01C68A40611D51B6801EE901AD7
:103000001168C3F3C103F8EE612AD84001EE900ABB
:10301000C1F30800F8EE611A81EEA22A0BE001EE7E
:10302000901ADFED1C2A00BFF8EE611A106882EEDC
:10303000A12AC0F3080001EE900AF8EE611A40EEF2
:10304000201A31EE810A00E015E022EE000A106835
:10305000C0F34620401C00EE900AF8EE600A80EEB5
:10306000201ABCEEC10A10EE100A70BD01EE901AD3
:10307000DFED092AD8E7002070BD00001044025897
:103080000090D00340787D010000003930440258A0
:103090000024744A0024744C20BCBE4B2DE9F05F20
:1030A00004007CD0FF4F2078FE4D1837DFF8F493F2
:1030B000103DC00748D0D9F80000396800F038004A
:1030C000102815D0182803D101F0030002280FD0D2
:1030D0006068B0F5803F12D010B1B0F5A02F18D0C5
:1030E000286820F480302860286820F4802009E0D7
:1030F0002868800328D560680028D2D024E028689A
:1031000040F480302860606888B1FDF755FE0646BF
:1031100009E0286840F480202860F0E7FDF74CFEC5
:10312000801B64287ED828688003F7D50CE0FDF763
:1031300043FE064605E000BFFDF73EFE801B642807
:10314000F0D828688003F7D4207841F20308D54EE0
:103150000C3E800753D5D9F80000396810F03800CC
:103160000ED0182801D188070AD0E068A8B32968D2
:1031700021F0190101432960FDF71EFE82461BE084
:103180002868400702D5E06800288AD0FDF70EFEC7
:1031900040451BD82069402812D0316800E0CCE0BF
:1031A00021F47C3141EA0030306028E0FDF704FE74
:1031B000A0EB0A000228B5D828684007F6D5E5E755
:1031C000306820F47C3040F40030EDE7207C31683A
:1031D00021F0FE4141EA0060E6E7FFE7286820F0C1
:1031E00001002860FDF7E8FD824605E0FDF7E4FDFB
:1031F000A0EB0A00022895D828684007F6D420786A
:10320000C0065FD5D9F80000DFF898B2396800F041
:103210003800ABF1040B082812D0182805D101F0B2
:10322000030000E0EAE001280AD0E06900282868ED
:1032300038D040F080002860FDF7BEFD824623E0D4
:103240002868C00523D5E069802876D11FE0206A70
:10325000202821D0316821F0F84141EA80603060B7
:1032600030E000BF94F82010DBF8002022F07C5200
:1032700042EA0161CBF8001024E000BFFDF79CFD9D
:10328000A0EB0A00022896D82868C005F6D5FDF7FD
:103290008DFD4045E6D8DAE7306820F0F84040F090
:1032A0008040DCE720F080002860FDF785FD0646C1
:1032B00005E000BFFDF780FD801B02289BD8286831
:1032C000C005F7D42078000729D5764861696430B5
:1032D00000298046016811D041F001010160FDF72D
:1032E0006BFD064605E000BFFDF766FD801B02286A
:1032F000C9D8D8F800008007F6D510E021F0010108
:103300000160FDF759FD064605E000BFFDF754FDDD
:10331000801B022872D8D8F800008007F6D42078E5
:10332000800623D5A0690028286810D040F480507A
:103330002860FDF741FD064605E02CE1FDF73CFD68
:10334000801B02285AD828688004F7D50EE020F4A4
:1033500080502860FDF730FD064604E0FDF72CFDA7
:10336000801B02284AD828688004F7D420784007B8
:103370004FD5DFF83481D8F8001041F48071C8F8D7
:103380000010FDF719FD064605E000BFFDF714FD2E
:10339000801B642832D8D8F80000C005F6D5414E0D
:1033A000A068603601280AD008B1052813D030681B
:1033B00020F001003060306820F0040002E0306846
:1033C00040F001003060A06841F2883A90B1FDF70A
:1033D000F3FC80460AE0306840F004003060EEE71D
:1033E000FDF7EAFCA0EB0801514507D830688007DB
:1033F000F6D50EE0FDF7E0FC804607E084E000BF74
:10340000FDF7DAFCA0EB080151457DD83068800754
:10341000F6D4606AF0B3DFF88C80D9F8001008F1B8
:103420002008C1F3C20103296FD00228286820F0C8
:103430008070286003D0FDF7BFFC044680E0FDF7F4
:10344000BBFC064605E000BFFDF7B6FC801B02286A
:1034500073D828688001F7D4E26A40F2F331386803
:1034600054F8283F884340EA021018433860217B13
:103470004FF4FE0C22894FF0FE47208A4902267D38
:10348000521E401EA1F5007189B20CEA0040C2F341
:10349000080200E081E01143761E0143014807EA7B
:1034A000066203E010440258004802581C301143E1
:1034B0003B4AC8F80010016821F001010160116861
:1034C0004FF6F876236AB14341EAC30111600168FF
:1034D000A26921F00C01114301600168E26921F049
:1034E000020111430160016841F48031016001680B
:1034F00041F400310160016841F4802101600168FC
:1035000041F00101016001E017E01DE0286840F092
:1035100080702860FDF750FC044604E0FDF74CFC89
:10352000001B022809D828688001F7D535E000BFC4
:10353000FDF742FC001B022802D90320BDE8F09FE2
:1035400028688001F4D428E039680128D8F8000000
:1035500021D0A26A01F0030393421CD1E26AC1F3B5
:1035600005118A4217D1216BC0F30802491E8A4215
:1035700011D1616BC0F34622491E91420BD1A16B60
:10358000C0F30642491E914205D1E16BC0F30660CB
:10359000491E814201D00120D0E70020CEE7000083
:1035A000344402582DE9FE430446C06B0E46032105
:1035B00084F83410002703285ED0B6F5004F5BD0A6
:1035C000B6F5804F4FF000004FF400654FF0806873
:1035D00004D01EB3A06B40F0006043E000900021D7
:1035E00001908146206802F061FC800113D4694695
:1035F000204602F0A3FC05000DD1019840032FD511
:10360000B4F848102068090402F0F4F8050002D16B
:10361000206802211EE0A06B284323E000900021D7
:1036200001908146206802F041FC8001F3D4694694
:10363000204602F083FC0500EDD10198C0030FD5B0
:10364000B4F848102068090402F0D4F80500E2D16B
:103650002068002102F018F90500DCD14D46DAE7B8
:103660004546D8E7A063A06B4FF40078184D38B1F9
:1036700020680127856318E0A06B40F08050F1E7D7
:10368000D4E904C0D4E901123346042806D2E66D19
:10369000464503D0B6F5807F18D00420CDF800C091
:1036A000CDE9010A206802F005FC2068414602F0DD
:1036B000D2F828B1216801278D63A16B0143A16372
:1036C000012084F834003846BDE8FE830220E5E797
:1036D000FF0FE01F70470000F0B5026E920F0A70F6
:1036E000026EC2F383624A70026EC2F301628A7094
:1036F000026E120CCA70B0F86020120A0A7190F8BB
:1037000060204A71426E120DCA80426EC2F30342BB
:103710000A72B0F86420C2F3C0324A72B0F8642072
:10372000C2F380328A72B0F86420C2F34032CA72A7
:10373000B0F864200026C2F300320A734E730122EF
:10374000C36B4FF4007463B1012B3AD00368504946
:103750009963816B41F08051816380F834200120AE
:10376000F0BDB0F86430856E9B051B0D43EA957380
:103770000B61836EC3F3C2630B75836EC3F3026385
:103780004B75836EC3F342538B75836EC3F38243D1
:10379000CB75836EC3F3C2330B760D696D1CC564A4
:1037A0000B7E03F007039B1C9D40C5640B7A846568
:1037B00003F00F0302FA03F35F0A7D43C0E91435F7
:1037C0000EE090F86450836EAD06AD0A45EA1343EF
:1037D0000B610B695B1C9B02C364C0E914438465E5
:1037E000B0F86830C3F380334B76B0F86830C3F379
:1037F000C6138B7690F8683003F07F03CB76C36EE8
:10380000DB0F0B77C36EC3F341734B77C36EC3F308
:1038100082638B77C36EC3F38353CB77C36EC3F3DB
:10382000405381F8203081F82160C36EC3F3004318
:1038300081F82230B0F86C30C3F3C03381F8233004
:10384000B0F86C30C3F3803381F82430B0F86C30BA
:10385000C3F3403381F82530B0F86C30C3F3003344
:1038600081F82630B0F86C30C3F3812381F827301B
:10387000B0F86C30C3F3012381F8283090F86C0065
:10388000C0F3460081F8290081F82A200020F0BD0D
:10389000FF0FE01FC26B0A60026C4A60426C8A60D4
:1038A000826CCA60C26C0A61026D4A61426D8A61B3
:1038B000806DC8610020704770B5B0F848100025D1
:1038C00004460068090402F0F1F818B1A16B014345
:1038D000A16304E02068002102F0E8FA0546C5F380
:1038E000432070BD2DE9F04190B00C4600260546FE
:1038F000694602F0A1FC294F4FF0010840B12A6847
:1039000001269763AA6B0243AA6385F8348035E0E9
:1039100000994FF47F40C1F3811121700099C1F3E8
:1039200040116170009900EA112242EA1161618040
:10393000019909BA6160029921720299090A6172BA
:103940000299C1F30351A172DDE9022100EA12409C
:10395000C9B20843A0810398C0F38520A0730398DF
:10396000C0F30120E0730398C0F3031020740398A0
:1039700000F00F0060740498000EA07428684FF4E3
:10398000007101F068FF28B12A6801269763A863D7
:1039900085F8348010B03046BDE8F081FF0FE01F9D
:1039A000F0B5040085B024D094F83400002538B96F
:1039B000A069257708B90220A061204600F096F89A
:1039C000032084F83400204600F03CF888B96946AA
:1039D0002046FFF787FF60B99DF81010E26B9DF855
:1039E0001100012A08D0E5652046E168FFF7DAFDFD
:1039F00058B1012005B0F0BD014302D04FF4007072
:103A000001E04FF48070E065EEE7FDF7D5F901279E
:103A1000064604E0FDF7D0F9801B401C0AD0204682
:103A2000FFF74AFF0428F5D1A563256384F83470B5
:103A30000020DFE74FF00040A06384F834700320DB
:103A4000D8E70000FEB5002504464FF48030FEF7AD
:103A5000C9FB234A0646A169B0FBF2F7022904D14B
:103A60002068016841F01001016000952B46CDE906
:103A7000017420682A46294602F01CFA206802F0E8
:103A800029FA7800B6FBF0F020B11649B1FBF0F04E
:103A9000401C00E00220FCF795FF204602F02AFBC4
:103AA0004FF0010530B100BF84F83450A16B0143E1
:103AB000A16313E0204602F0B3FA0028F4D1206895
:103AC0004FF4007101F0C7FE002808D022680649B3
:103AD0009163A16B0143A16384F834500120FEBDC2
:103AE00000350C0010210100FF0FE01FF0B587B07A
:103AF000044614216846FCF737FC1A4920688842BE
:103B00002DD11948016841F480310160006800F44A
:103B10008030059014480C30016841F004010160C8
:103B2000016801F004010591016841F0080101609C
:103B3000006802240025694600F00800059003266D
:103B40000C274FF4F8508DE8F1000848FDF704F811
:103B5000042069468DE8F1000548FCF7FDFF07B039
:103B6000F0BD000000700052D44402580008025812
:103B7000000C02582DE9F04F87B0994617460D46C4
:103B80000446FDF719F906903DB194F83400012878
:103B900007D0A06B40F000500DE0A06B40F000603B
:103BA00009E0626D002007EB0901A063914204D98E
:103BB000A06B40F00070A063A8E0032184F83410EB
:103BC0002168C862E16B012900D07F024FF0020A30
:103BD000CDE903A090264FF0FF324FEA492305902C
:103BE0008DE84C0080462068694602F022F8206883
:103BF000B9F1010F4FF00106C16841F04001C16009
:103C000006D9C4F830A03946206801F0BBFE04E0B4
:103C100026633946206801F0CFFEDFF814A150B1C9
:103C20002368C3F838A0A16B0143A16384F8346012
:103C3000C4F830806AE0DDF804B01FE0406B000497
:103C400014D5BBF1200F11D30027206802F048F9EA
:103C5000020A2870010C6A70030EA9707F1CEB70B9
:103C6000082F05F10405F0D3ABF1200BFDF7A4F804
:103C70000699411A1098814221D200B32068416B05
:103C800011F4957FDAD0C16821F04001C16020684D
:103C9000416BC90522D5B9F1010F1FD9E16B032989
:103CA0001CD001F04FFFC8B12368C3F838A0A26B45
:103CB0000243A26384F83460C4F8308026E02268AE
:103CC000C2F838A0A06B40F00040A06384F83460D4
:103CD000C4F83080032007B0BDE8F08F2068416B46
:103CE000090706D5C0F838A0A16B404641F008018D
:103CF00008E0416B89070BD5C0F838A0A16B40469E
:103D000041F00201A16384F8346020630120E2E7FE
:103D1000416B890606D5C0F838A0A16B404641F03A
:103D20002001EFE70349816384F834600020D2E783
:103D3000FF0FE01F3A0F00182DE9F04F89B09A46A7
:103D400016460D460446FDF737F806903DB194F847
:103D50003400012807D0A06B40F000500DE0A06BAC
:103D600040F0006009E0626D002006EB0A01A063EC
:103D7000914204D9A06B40F00070A063B2E003212F
:103D800084F834102168C862E16B012900D0760202
:103D90004FF0FF314FEA4A22059090230490CDE97D
:103DA0000230CDE9001280462068694601F041FFEB
:103DB0002068C168BAF1010F41F04002C26006D923
:103DC000202020632068314601F0FFFE05E010202E
:103DD00020632068314601F012FFDFF830B10600A1
:103DE0004FF001090AD02368C3F838B0A06B304304
:103DF000A06384F83490C4F8308073E00198089090
:103E000027E0406B40041CD50898202819D30027D0
:103E100028780790697840EA01200790A97840EA5D
:103E200001400790E9782D1D40EA01600790206865
:103E300007A902F06DF87F1C082FE9D308982038F5
:103E40000890FCF7B9FF0699411A1298814221D2D5
:103E500000B32068416B11F48D7FD2D0C16821F08E
:103E60004001C1602068416BC90521D5BAF1010F3D
:103E70001ED9E16B03291BD001F064FEC0B1256897
:103E8000C5F838B0A16B0143A16384F83490C4F83D
:103E9000308027E02368C3F838B0A26B3243A263B6
:103EA00084F83490C4F83080032009B0BDE8F08F66
:103EB0002068416B090707D54946C0F838B0A26BA6
:103EC000404642F0080209E0416B89070CD549469B
:103ED000C0F838B0A26B404642F00202A26384F8F8
:103EE000341020630120E0E7416BC90607D549463D
:103EF000C0F838B0A26B404642F01002EEE7044A28
:103F0000826384F834900020CFE70000FF0FE01FA9
:103F10003A0F0018401EB0F1807F10B501D3012088
:103F200010BD4FF0E02460610F21601704F092F99A
:103F30000020A0610721216110BD30B590F87C10F0
:103F4000012918D0012280F87C202421C0F880109B
:103F50000022202450F8601B0B680D6823F00053EA
:103F600025F001050D60426050F8601C0B60046292
:103F70000277104630BD022030BD70B5044690F87F
:103F80007C0001281DD0012284F87C202420C4F864
:103F9000800020680568026822F001020260206843
:103FA000826822F060620A438260204602F050FB81
:103FB0002268202100201560C4F8801084F87C005D
:103FC00070BD022070BD70B5044690F87C000128D9
:103FD0001DD0012284F87C202420C4F880002068B1
:103FE0000568026822F0010202602068826822F0FF
:103FF00060420A438260204602F02AFB22682021A8
:1040000000201560C4F8801084F87C0070BD022088
:1040100070BD10B5040003D0D4F8800010B107E0E3
:10402000012010BD002084F87C00204600F026F816
:104030002420C4F880002068016821F0010101609B
:10404000204602F0CBFB0128EBD0A06A10B120463D
:1040500002F030FB2068416821F490414160206803
:10406000816821F02A0181602068016841F0010126
:1040700001602046BDE8104002F080BB10B586B05C
:10408000044614216846FCF76FF9134920688842FA
:1040900020D11248016841F010010160006800F071
:1040A000100005900D481038016841F001010160D1
:1040B00000680723022200F00100059000204FF461
:1040C000C06100916946CDE90120CDE903030448B0
:1040D000FCF742FD06B010BD00100140F04402584C
:1040E000000002582DE9F8430446D0F880001F462E
:1040F00016460D46202852D1DDB1D6B194F87C0089
:1041000001284CD0012084F87C0021224FF00008C7
:10411000C4F88880C4F880201834FCF74DFE81462E
:1041200054F8100CA687E687183CB0F5805F03D0E2
:1041300004E00120BDE8F883206920B12E46002567
:1041400084F87C8010E00026FAE78021204602F007
:104150001DFDB8B9C6B116F8010B21688862B4F824
:104160005600401EA4F85600B4F856004B464FF0D7
:10417000000200970028E8D14FF04001204602F0ED
:1041800005FD38B10320D5E735F8020B2168C0F3EF
:104190000800E3E72020C4F880000020CAE70220DE
:1041A000C8E7FEE7F0B500230A251C46302637276E
:1041B00011E000BFB5EB107F02D906EB107C01E0E7
:1041C00007EB107C01F813C001EB430C00015B1CF2
:1041D0008CF80140DBB29342ECD3F0BD70B5D0F85F
:1041E000BC42054694F81C0240B9D4F8180228B124
:1041F000607A18B90121284603F020F88121284669
:1042000003F01CF8607A022809D18121284603F0C6
:1042100015F82846BDE87040012103F00FB870BDC5
:104220002DE9F041D0F8BC4205460121D4F8140232
:10423000C4F83402D4F81802C4F83802284602F050
:1042400025FF1F280DD12949D4F81002884208D132
:1042500094F81D12012904D894F81E0208B1102800
:1042600009D994F81D1220230522284601F0C6F929
:104270000220607209E004F21F22284600F0B8FE16
:104280000028207A08DA052804D02846BDE8F04145
:10429000FFF7A4BF012121E0022824D0012822D069
:1042A000032820D0E668C6B1D5F8BC1204F110028C
:1042B0002846D1F81832B34200D33346D1F83852E9
:1042C000002781F83C7204240C72AD1BC1F83852EF
:1042D000BDE8F041812102F0CCBF00212846BDE8B5
:1042E000F04100F09DB8BDE8F08100005553424315
:1042F00010B50446D0F8BC02407A022809D009065D
:1043000011D501280FD02046BDE81040012100F052
:1043100087B88121204602F091FF2046BDE8104079
:10432000012102F08BBF10BD10B5D0F8BC220446AD
:10433000107A022805D0032801D0042810D10021CA
:1043400009E092F81D1202F21F22204600F050FEF2
:10435000002805DA01212046BDE8104000F060B8D1
:1043600010BD10B5D0F8BC220446107A80B10128E7
:1043700013D192F81D1202F21F22204600F038FEDF
:1043800000280ADA2046BDE81040012100F048B8B4
:104390002046BDE81040FFF743BF10BDD0F8BC0277
:1043A00000210172704770B5D0F8BC42002105466B
:1043B0002172617284F8611284F8601284F86212CA
:1043C000D0F8C0020168002088470121284602F089
:1043D00054FE8121284602F050FE04F5047228465E
:1043E000BDE870401F23012102F0A6BE70B505464E
:1043F00000210120D5F8BC4221728121607228463B
:1044000002F08EFD0121284602F08AFD04F50472B7
:104410002846BDE870401F23012102F08DBE000038
:1044200070B505460C4A00200D23D5F8BC42C4F8EF
:10443000302204F50C7284F83C1281212072284647
:1044400002F017FF04F504722846BDE870401F23F0
:10445000012102F071BE0000555342530449054842
:1044600010B5FCF78BFA0249891E487010BD000098
:10447000070000248CA10008F0B587B0142168461D
:10448000FBF772FF2A48016841F0040101600168EE
:1044900001F004010591016841F0800101600168AB
:1044A00001F080010591016841F00201016001689D
:1044B00001F002010591016841F0100101600168FD
:1044C00001F010010591016841F0080101600168E7
:1044D00001F008010591016841F0010101600068E7
:1044E0004FF40056134F002200F0010031460590B2
:1044F0003846FCF755FC00240096012569463846ED
:10450000CDE901540394FCF727FBEE030096CDE9B7
:104510000145094869460394FCF71EFB02200096FA
:104520006946CDE901400548FCF716FB07B0F0BD30
:10453000E0440258000802580000025800100258D7
:104540000A480122F0B4084E2023102440C016254A
:10455000002180E83C00C0E904128161C161001FB4
:10456000F0BCFDF7B1BA000000500052001000246A
:10457000084800214FF4804210B5054C0123C0E9E2
:104580000041C0E902120161C0E9051310BD00003D
:1045900000700052900100241848002110B5164CFC
:1045A0000C224FF4E1330460C0E90131C160C0E97D
:1045B00004128161C161016241628162FFF729FDDC
:1045C00008B1FCF7D9F90D480021FFF7FCFC08B150
:1045D000FCF7D2F909480021FFF7CFFC08B1FCF73E
:1045E000CBF90648FFF7A9FC002803D0BDE810402E
:1045F000FCF7C2B910BD00000010014010020024F9
:1046000010490022104810B502F070FC08B1FCF708
:10461000B3F90E490C4802F026FF08B1FCF7ACF9DB
:104620000B49094802F09BFE08B1FCF7A5F90648C2
:1046300002F092FF08B1FCF79FF9BDE81040FDF7CA
:10464000A1B900000C000024FC0600249C000024FA
:104650005C000024FEE7FEE70148FCF7E3BD000034
:10466000CC0B00242DE9F041044600690D462027BB
:10467000236801284FF4004604F5717203EB4511DD
:10468000D3F840C0D1F8080B09D0DFF89CE0F4451E
:104690003AD1020433D500BFC1F8086B40E0234B88
:1046A0005FEA007E04D59C453AD90004F4D437E093
:1046B0005FEA806E02D5C1F8087B31E010F0280F68
:1046C0002ED19C4501D90004E6D4D1F8103BC5EBAE
:1046D000C50004EB8000C3F31203D0F80412A1EB71
:1046E0000303C0F81432D0F808321944C0F8081295
:1046F00095B9D4F8100278B9206801210AE0800643
:104700000AD5C1F8087B07E035B9D4F8100218B90A
:104710000021184603F0F2FA2046E9B2FCF74FFCFC
:104720000020BDE8F08100000A31544F0A30544F98
:104730002DE9F84F0E4605688146C1EBC60100EB36
:104740008104D4E914203C34904202D90120BDE810
:10475000F88FA168101A814200D20846C01C05EBF0
:10476000461887081BE000BFA268A0EB010A52456B
:1047700000D2924699F810100AF1030000911FFA36
:104780008AF3E16887082846F2B203F03FFDE1684A
:1047900001EB0A00E060A16901EB0A00A061D8F812
:1047A000180980B2B84205D3D4E90501814201D28B
:1047B0000028D9D1D4E90501884208D8D5F83418A1
:1047C000012006F00F0290408143C5F83418002004
:1047D000BDE770472DE9F0434B6A4FF040652BB1C0
:1047E000AA4203D004688B6A5B1E23618B69002B8D
:1047F00068D00C6AB4B303688C68DC61CC69FCB126
:10480000D1E90B38D1F824C04E6B8F8A43EA0803F4
:1048100046EA0C0633430E6A43EA8743D1E9037C38
:1048200043EA0C0333438E693B430F682343046818
:1048300033433B4365E0006849688161BDE8F0832C
:10484000D1E90B364F6A4C6B8D8A33433C430E697A
:1048500023430C6A43EA85438D6933430968234344
:104860002B4362E0FFE7CC69B4F1000918D0D1E92D
:104870000B484F6A4E6BB1F814C044EA08043E433B
:104880000F683443CE6844EA8C44344344EA090454
:104890001C4303683C431443AA425C61CBD1CDE77F
:1048A000D1E90B464F6A4D6BB1F814C034433D4318
:1048B00000682C43096844EA8C441C430C431443AD
:1048C0004461BBE70B6AABB303688C68DC61CC69FD
:1048D000E4B1D1E90B38D1F824C04E6B8F8A43EA9A
:1048E000080346EA0C0633430E6A43EA8743D1E9DC
:1048F000037C43EA0C0333438E693B432343046840
:1049000033431343AA42636195D197E7D1E90B364C
:104910004F6A4C6B8D8A33433C430E6923430C6AC8
:1049200043EA854389693343234300680B431343B8
:10493000436183E7FFE7CC6984B1D1E90B384F6A63
:104940004E6BB1F814C043EA08033E433343CE68CC
:1049500043EA8C43334323430468D2E74C6A002C78
:104960009DD0D1E90B368F8A4D6B016833432543C7
:104970002B4343EA8740104348615FE730B595B069
:104980000020012110240C900B020D9305230E90A2
:104990000A0610928D050190CDE906530F9001AAE9
:1049A000129041F2883313901490CDE90410CDE9B0
:1049B0000214054807A9FCF7EDFF002801D06FF0AD
:1049C000020015B030BD00000010002410B58EB0FC
:1049D00000214FF48074069462010891D8240B9151
:1049E0000C91D3100D910591CDE9004009910793E9
:1049F000039200F0BDF818B16FF001000EB010BDC9
:104A0000084841F288326946FDF71AF810B16FF094
:104A10000300F3E7FFF7B2FF0028EFD06FF00200CA
:104A2000ECE700000010002410B5FFF789FD00F04E
:104A30003BF800F00BF80449884201D1002010BD7A
:104A40004FF0FF3010BD00001740EF0010B590B0E0
:104A50004FF4807300205C01069319040394032231
:104A600008909F230C90009341F288340B900D9096
:104A700007900590CDE909120A4822466946FCF7DD
:104A8000DFFF08480EA92246FDF7F8F89DF8382008
:104A90009DF839009DF83A1010B0120442EA002047
:104AA000084310BD0010002470B58EB041F2883468
:104AB00000204FF4807166220890CDE90610009224
:104AC00022460B9069460C900D90099005900E4877
:104AD000FCF7B6FF4FF0FF3560B9FFF74FFF6FF0FF
:104AE000020670B999200090074822466946FCF7F3
:104AF000A7FF10B128460EB070BDFFF73FFF00289A
:104B0000F9D03046F7E70000001000242DE9F0410D
:104B1000CBB2C3F58074944200D914460D468F1869
:104B200006464FF4807800BF00F022F818B16FF00D
:104B30000100BDE8F081A2B22946304600F04EF8EF
:104B400010B16FF00400F4E7FFF718FF10B16FF039
:104B50000200EEE7254405F58070B842264401D9ED
:104B60007C1B00E04446BD42DED30020E1E70000AC
:104B7000F0B595B041F2883500242A464FF4807094
:104B800006210E94CDE90C040B9413481194129451
:104B900013940F94069106A9FCF752FF10B1A01EC2
:104BA00015B0F0BD0220009001214305102205261A
:104BB0000696CDE90221CDE90443C7050190CDE970
:104BC0000F71054806A92B466A46FCF7E3FE00284C
:104BD000E6D06FF00200E3E70010002470B58EB05D
:104BE00004464FF48070002345010395860006902B
:104BF00008934FF040700C9332250B930D9307965A
:104C00000593CDE90902CDE90051FFF7B1FF18B1D5
:104C10006FF001000EB070BD41F288360B4832468D
:104C20006946FCF70DFF6FF0040528B907483246C6
:104C30002146FDF783F808B12846EBE7FFF79EFE13
:104C40000028E7D06FF00200E4E700000010002425
:104C50002DE9F041984616460F460446069D08E0A9
:104C6000681C06D0FCF7A8F8A0EB0800A8420AD8F8
:104C70004DB120688068384000D00120B042EFD1AB
:104C80000020BDE8F081042084F84100606C40F011
:104C9000010060640120F4E72DE9F047454D04462A
:104CA00089464FF0000A2868C04380070AD0414E69
:104CB000283E306820F080603060FCF77DF80746C1
:104CC000B04608E00120BDE8F08700BFFCF774F8AB
:104CD000C01B022867D8D8F800000001F6D420686D
:104CE00029684FF4FE0721F47C313E0241EA00308E
:104CF0002860207AA389B4F804C040022D4D2D49C4
:104D00005B1E227CACF1010C1035091DA0F5007072
:104D100080B2521ECCF3080C07EA034340EA0C00B1
:104D2000184306EA0262104328600868626920F0AE
:104D3000C000104308600A68A06922F02002024304
:104D40000A60281D0A6822F010020A6002684FF605
:104D5000F873E4699A4342EAC40202600868B9F150
:104D6000000F40F010020A6011D00868B9F1010F7D
:104D700011D040F400100860D8F80000444640F01C
:104D80008060C8F80000FCF717F805460DE00868D9
:104D900040F40020EFE740F48010ECE7FCF70CF85B
:104DA000401B022801D903208DE720680001F5D5BA
:104DB000504688E7284402582DE9F047454D0446FF
:104DC00089464FF0000A2868C04380070AD0414E48
:104DD000283E306820F080503060FBF7EDFF07463A
:104DE000B04608E00120BDE8F08700BFFBF7E4FF14
:104DF000C01B022867D8D8F800008000F6D42088AD
:104E000029684FF4FE0721F07C713E0241EA005010
:104E10002860207AA389B4F804C040022D4D2D49A2
:104E20005B1E227CACF1010C1835091DA0F5007049
:104E300080B2521ECCF3080C07EA034340EA0C0090
:104E4000184306EA0262104328600868626920F489
:104E50004060104308600A68A06922F400720243AF
:104E60000A60281D0A6822F480720A6002684FF600
:104E7000F873E4699A4342EAC40202600868B9F12F
:104E8000000F40F480720A6011D00868B9F1010F78
:104E900011D040F080700860D8F80000444640F01F
:104EA0008050C8F80000FBF787FF05460DE0086852
:104EB00040F48000EFE740F40000ECE7FBF77CFFF4
:104EC000401B022801D903208DE720688000F5D51A
:104ED000504688E7284402581349002070B50860FE
:104EE000BFF34F8F10487038016821F480310160A2
:104EF000BFF34F8F0C4843F6FF73001F00680B4D44
:104F0000C0F34E31C0F3C90203EA4114104600BF9A
:104F100044EA80762E60401EFAD2491EF4D2BFF3D6
:104F20004F8FBFF36F8F70BD84ED00E074EF00E032
:104F3000BFF34F8FBFF36F8F064800210368064A07
:104F400023F4003303601160BFF34F8FBFF36F8F03
:104F50007047000014ED00E050EF00E000B513448E
:104F6000D0F8BC22D2F86822934206D92123052228
:104F700000F044FB4FF0FF3000BD002000BD0000FA
:104F800070B50446D0F8BC024FF0FF35D0F81832A7
:104F90007BB15378DB0716D0917871B180290FD09F
:104FA00090F81D1224230522204600F027FB2846F6
:104FB00070BD90F81D122023F5E70B4906220FE083
:104FC0000A4908220CE0D4F8C04201EBC101137970
:104FD000E26902EB81010A79521D934200D81A4618
:104FE00000F02DFB002070BD3E0100244401002490
:104FF0002DE9F04713780025D0F8BC424FF0FF367A
:10500000252B4FF002086FD00FDC1A2B7AD005DC6D
:1050100023B3032B46D0122B17D147E01B2B49D0CB
:105020001E2B66D0232B10D185E05A2B78D006DCBE
:10503000282B70D02A2B6FD02F2B06D197E09E2BD8
:105040006BD0A82B6AD0AA2B69D02023052200F0B0
:10505000D5FA304684F80980BDE8F0870746D4F8D1
:105060001802884628B1202394F81D1205223846DC
:1050700034E094F862024FF0050902280FD0D7F807
:10508000C00281684046884738B33A23414602222D
:10509000384600F0B3FA304684F80890DCE73A234B
:1050A0000222F5E7BDE8F04700F06ABABDE8F04734
:1050B000FFF766BF94F86232012B04D1137903F035
:1050C0000303022B56D0117901F0030001280DD003
:1050D000022806D0C843800708D010E000F08EFAFE
:1050E00051E084F862820AE029E00BE084F8625221
:1050F00005E010790028F9D0012084F862022846E2
:10510000E560A9E7117917222046172900D80A4639
:105110001E490CE004E01AE021E014E01BE022E06C
:10512000117A1B2220461B2900D80A46184900F094
:1051300086FA284690E7BDE8F04700F0EAB9BDE8F6
:10514000F04700F06CB9BDE8F04700F097B9BDE852
:10515000F04700F0B5B8BDE8F04700F006B9BDE88B
:10516000F04700F078BABDE8F04700F0D7BA5278BF
:10517000920702D524230522B0E7D4E99B23FFF749
:10518000EDFE0028BBDA304666E700004C01002443
:10519000630100242DE9F041D0F8BC4206460F46D9
:1051A0004FF40071B4F86402D4F8705245438D4254
:1051B00000D30D46D4F86C22B5FBF0F004F11001D9
:1051C000884683B2D6F8C002D0F810C03846E0470F
:1051D000002809DA112339460422304600F00EFA7D
:1051E0004FF0FF30BDE8F08181212B46424630462A
:1051F00002F03FF8B4F86402D4F83832B5FBF0F6A8
:10520000B5FBF0F0D4E99B125B1BC4F83832314493
:10521000101AC4E99B1001D1032020720020E1E79D
:105220002DE9F047D0F8BC4207464FF40075884698
:10523000B4F86402D4F870624643AE4200D32E46FE
:10524000D4F86C22B6FBF0F004F11001894683B269
:10525000D7F8C002D0F814C04046E047002809DA69
:10526000032341460422384600F0C8F94FF0FF30CE
:10527000BDE8F087B4F86402D4F83812B6FBF0F257
:10528000B6FBF0F8D4E99B3CA1EB0601C4F8381258
:1052900004F50E741A44BCEB0803C4E90D230AD0CC
:1052A0004343AB4200D32B464A460121384601F026
:1052B00043FF0020DCE700213846FFF7B1F8F8E7AC
:1052C0002DE9F041D0F8BC42064615468846207AC2
:1052D00088BB94F81C024FF0FF37000635D594F8D0
:1052E0006202022809D0D6F8C00281684046884789
:1052F00048B13A234146022201E03A2302223046D5
:1053000000F07CF914E0688829796B7940BA0004D0
:1053100040EA012241461A43C4F86C22B5F807005E
:1053200043BA3046C4F87032FFF718FE002803DA9B
:105330003846BDE8F0810FE0B4F86412D4F870028A
:10534000D4F818224843904204D0202394F81D1228
:105350000522D4E7022020724FF400704146E0603D
:105360003046BDE8F041FFF715BF2DE9F041D0F818
:10537000BC42064615468846207AB0BB94F81C020B
:105380004FF0FF3700063AD594F86202022809D0A0
:10539000D6F8C00281684046884748B13A23414662
:1053A000022201E03A230222304600F027F919E0F8
:1053B00068882A79697940BA000440EA02220A43DF
:1053C000C4F86C22E888297A6D7A40BA000440EA71
:1053D000012341462B433046C4F87032FFF7BEFD2F
:1053E000002803DA3846BDE8F0810FE0B4F8641213
:1053F000D4F87002D4F818224843904204D02023F5
:1054000094F81D120522CFE7022020724FF400709D
:105410004146E0603046BDE8F041FFF7BBBE70B5E5
:1054200005460E46D5E9AF4004F51972111D4368D3
:1054300030469847C8B994F86202022815D0B4F8EB
:1054400064120823D4F868020022E36022750B0A74
:105450006275401EA375E175020E2274010C617421
:10546000030AA374E074002070BD3A23314602227F
:10547000284600F0C3F84FF0FF3070BD2DE9F04131
:10548000064615460F46D6E9AF4004F51972111DC0
:1054900043683846984778B994F8620202280BD0DE
:1054A0006A8900212B7B08466E7B52BA120442EABD
:1054B00003223243E2600EE03A23394602223046AC
:1054C00000F09CF84FF0FF30BDE8F081421C204412
:1054D0000174D0B2E2688242F8D8D4F86802401E63
:1054E000020E2275030C6375060AA675E075217617
:1054F0006176B4F86402010AA176E0766989287BB6
:105500006A7B49BA090441EA00201043E0600020A8
:10551000DAE77CB505460E4601A96A46D5E9AF40F3
:1055200043683046984710BB94F8620202281ED0A8
:10553000002001462318421C90B20C281974F9D39C
:105540000820E074019802222276401E6176020E45
:105550002275030C6375010AA175E0750C22BDF874
:105560000000E260010AA176E07600207CBD3A23CB
:1055700031460222284600F041F84FF0FF307CBD52
:1055800070B5D0F8BC12D1F8183223B3002004460D
:105590000D18431CD8B212282C74F9D391F860026C
:1055A000702691F861520C230E74A842CB751DD061
:1055B00001EBC003401CC0B293F8405204288D7424
:1055C00093F8445203F510730D775B794B7781F8AC
:1055D000600209D00AE091F81D122023052200F094
:1055E0000DF84FF0FF3070BD81F860421220C860A6
:1055F0001079122800D8C860002070BD10B5D0F80E
:10560000BC02002190F8614200EBC40484F84022FF
:1056100090F8612200EBC20282F8443290F86122D5
:1056200000EBC20282F8451290F86122521CD2B2FD
:1056300080F86122042A01D180F8611210BD10B5F2
:10564000C26004E0521E92B284188B5C2374002A5C
:10565000F8D1002010BD2DE9F041D0F8BC4206463B
:1056600015468846207A20B13046BDE8F041FFF764
:10567000D7BDD4F818024FF0FF3788B394F81C0256
:10568000000637D4D6F8C00281684046884728B162
:105690003A230AE03046FFF7B1FF1EE0D6F8C00219
:1056A000C1684046884718B1272341460222F1E7E6
:1056B00069882A79687949BA090441EA022241468F
:1056C0000243C4F86C22B5F8070043BA3046C4F868
:1056D0007032FFF743FC002803DA3846BDE8F0815A
:1056E00008E0B4F86412D4F87032D4F818024B43CE
:1056F000984204D0202394F81D120522CAE74FF4E3
:105700000070834200D303460120207204F110028E
:105710000146304601F010FD0020DFE72DE9F0479B
:10572000D0F8BC42064615468946207A20B130465C
:10573000BDE8F047FFF774BDD4F818024FF0FF380A
:1057400018B194F81C02000607D594F81D12202306
:1057500005223046FFF752FF31E0D6F8C0028168DB
:10576000484688474FF0050708B13A2306E0D6F8C7
:10577000C002C1684846884738B1272349460222FB
:105780003046FFF73BFF277219E06A88287969796C
:1057900052BA120442EA00220A43C4F86C22E98891
:1057A000287A6D7A49BA090441EA002349462B4315
:1057B0003046C4F87032FFF7D1FB002802DA4046C9
:1057C000BDE8F087B4F86412D4F87032D4F8180247
:1057D0004B439842B9D14FF40070834200D3034643
:1057E0000120207204F110020146304601F0A4FCB1
:1057F0000020E5E730B585B0044637204FF48072CD
:105800000DF1080CCDE90010002369461501204672
:105810008CE82C0000F068FB372141F288322046EA
:1058200000F01AFA05B030BD30B585B00446292025
:105830004FF480720DF1080CCDE900100023694689
:10584000150120468CE82C0000F04EFB204600F0AD
:10585000BFFA05B030BD30B50446102085B00DF15B
:10586000080C02010502CDE90010002369468CE80E
:105870002C00204600F038FB102141F288322046EF
:1058800000F0EAF905B030BD30B585B00446062019
:105890004FF480720DF1080CCDE900100023694629
:1058A000150120468CE82C0000F01EFB062141F279
:1058B0008832204600F0D0F905B030BD30B585B053
:1058C0000546002469464FF48050009401940294E8
:1058D000CDE90340284600F007FB0B4A4FF4FA508D
:1058E00041F288311268B2FBF0F04843401E03D207
:1058F0004FF0004005B030BD696B0906F6D503498D
:105900002046A963F6E7000088000024C5002000B7
:1059100030B50821044685B04FF4D57000254A0102
:105920004B0204938DE827006946204600F0DCFA1C
:10593000134A4FF4FA5041F288311268B2FBF0F08A
:105940004843401E03D24FF0004005B030BD616BAC
:1059500011F0450FF5D08904F3D4606B400701D5F1
:10596000042003E0606BC00702D00120A063ECE7D5
:10597000606B400601D54020A0632846E5E70000A3
:105980008800002430B585B0044612204FF48072A0
:105990000DF1080CCDE900100023694615012046E1
:1059A0008CE82C0000F0A0FA122141F28832204647
:1059B00000F052F905B030BD30B585B00446112075
:1059C0004FF480720DF1080CCDE9001000236946F8
:1059D000150120468CE82C0000F086FA112141F2D6
:1059E0008832204600F038F905B030BD30B585B0BA
:1059F00004464FF480710DF1040C0720009200233F
:105A00000D018CE82B006946204600F06DFA072155
:105A100041F28832204600F01FF905B030BD10B5C4
:105A200086B00446002102204FF44072C302049362
:105A3000CDE90010CDE902216946204600F054FA74
:105A4000204600F09BF906B010BD30B585B0044685
:105A500009200DF1080C0023CDE900104FF440722D
:105A600069464FF4805520468CE82C0000F03CFA43
:105A7000204600F083F905B030BD10B586B004466D
:105A8000002133204FF48072CDE90221CDE90010CE
:105A9000130169462046049300F026FA332141F2AF
:105AA0008832204600F0D8F806B010BD30B585B079
:105AB00004460D204FF480720DF1080CCDE9001062
:105AC00000236946150120468CE82C0000F00CFAF2
:105AD0000D2141F28832204600F0BEF805B030BDFD
