:020000040800F2
:100000004875042441030008E73C0008513B000800
:10001000E53C000879080008D167000800000000EE
:100020000000000000000000000000005B5100081C
:100030007B08000800000000633E000867510008CC
:100040005B0300085B0300085B0300085B03000818
:100050005B0300085B0300085B0300085B03000808
:100060005B0300085B0300085B0300085B030008F8
:100070005B0300085B0300085B0300085B030008E8
:100080005B0300085B0300085B0300085B030008D8
:100090005B0300085B0300085B0300085B030008C8
:1000A0005B0300085B0300085B0300085B030008B8
:1000B0005B0300085B0300085B0300085B030008A8
:1000C0005B0300085B0300085B0300085B03000898
:1000D0005B0300085B0300085B0300085B03000888
:1000E0005B0300085B030008000000005B030008DE
:1000F0005B0300085B0300085B0300085B03000868
:100100005B0300085B0300085B0300085B03000857
:100110005B0300085B0300085B0300085B03000847
:100120005B0300085B0300085B0300085B03000837
:100130005B0300085B0300085B0300085B03000827
:1001400000000000000000000000000000000000AF
:100150005B0300085B0300085B0300085B03000807
:100160005B0300085B0300085B0300085B030008F7
:100170005B0300085B0300085B0300085B030008E7
:100180005B0300085B0300085B0300085B030008D7
:100190005B0300085B0300085B0300085B030008C7
:1001A0005B0300085B0300085B0300085B030008B7
:1001B0005B0300085B0300085B0300085B030008A7
:1001C0005B0300085B0300085B0300085B03000897
:1001D0005B030008E93C00085B0300085B030008C0
:1001E0005B0300085B0300085B0300085B03000877
:1001F0005B0300085B0300085B0300085B03000867
:100200005B0300085B0300085B0300085B03000856
:100210005B0300085B0300085B0300085B03000846
:100220005B0300085B0300085B030008000000009C
:100230005B0300085B030008000000005B0300088C
:100240005B0300085B0300085B0300085B03000816
:100250005B0300085B0300085B0300085B03000806
:100260005B0300085B0300085B0300085B030008F6
:100270005B0300085B0300085B030008000000004C
:100280005B0300085B0300085B030008000000003C
:10029000000000005B03000800F002F800F041F8E5
:1002A0000AA090E8000C82448344AAF10107DA45D1
:1002B00001D100F036F8AFF2090EBAE80F0013F0E2
:1002C000010F18BFFB1A43F0010318470881000013
:1002D00028810000103A24BF78C878C1FAD85207A4
:1002E00024BF30C830C144BF04680C6070470000B0
:1002F0000023002400250026103A28BF78C1FBD82F
:10030000520728BF30C148BF0B607047782900F002
:10031000C380002070471FB507F0D7FD1FBD10B583
:1003200010BD00F012FA1146FFF7F5FF07F038FB99
:1003300000F030FA03B4FFF7F2FF03BC00F034FA28
:100340000948804709480047FEE7FEE7FEE7FEE769
:10035000FEE7FEE7FEE7FEE7FEE7FEE704480549A5
:10036000054A064B704700007D52000899020008BC
:10037000482F042448750424485104244851042477
:1003800053EA020C00F069802DE9F04B4FF00006B3
:10039000002B1FBFB3FA83F503FA05F424FA05F620
:1003A0005E4012BF1643B2FA82F502FA05F4C5F1B7
:1003B00020051EBF22FA05FC44EA0C04203556EA4B
:1003C000044C4FEA144418BF641C4FF000084FF06F
:1003D0000009904271EB030C39D3002919BFB1FA1F
:1003E00081F701FA07F6B0FA80F700FA07F6C7F1CD
:1003F00020071EBF20FA07FC46EA0C062037B6FB92
:10040000F4FCA7EB0507103F07F01F0BCBF120060C
:100410000CFA0BFB2CFA06F644BFB3460026202F3D
:10042000A4BF5E464FF0000B5BEA060C08BF4FF01E
:10043000010B19EB0B09ABFB027C48EB0608C01B58
:1004400006FB02CC0BFB03CC71EB0C01C1E70B46A6
:10045000024641464846BDE8F08B13B54FF0000018
:100460004FF00001AFF30080BDE81C407047000072
:100470000FB41CB5074B06AA7B446946009005984B
:1004800000F045F90020694600F054F91CBC5DF805
:1004900014FB0000B902000070B504460D46214669
:1004A0001068AFF300802188090502D50F4A7A440D
:1004B00002E00E4A7A440E32002104F1240305E0E2
:1004C00000F00F060009965D5E54491C0028F7D124
:1004D00020780023000704D5702D02D009B1022333
:1004E00011322046BDE8704000F0B3B8FA7E00003B
:1004F0002DE9F0474FF0000A89460446C0F820A0D5
:100500002046E1688847002876D0252806D0D4E91F
:1005100001219047206A401C2062F1E7E1682046F3
:1005200000258847C4F81CA006460027C4F818A078
:100530002A2E09D0304606F05DF938B304EB87085F
:10054000303EC8F8186019E059F8041B204604EB47
:1005500087029161E1688847012F064618D1E0695A
:10056000002820DA25F020051DE0D8F8180000EB5F
:10057000800006EB40003038C8F818002046E168DB
:100580008847064606F036F90028EED1012F0AD03A
:100590002E2E08D12046E16888477F1C0646022F90
:1005A00045F02005C4DBA069002803DA404245F08D
:1005B0000105A061E80701D025F01005B6B1A6F14C
:1005C0004100192802D8203645F400654A463146D4
:1005D000204625604D46FFF799FE58B1012806D008
:1005E000ED1D25F0070000F1080989E704E005F199
:1005F000040985E730468AE7206ABDE8F0874FF0B6
:10060000000200B5134694469646203922BFA0E862
:100610000C50A0E80C50B1F12001BFF4F7AF09076E
:1006200028BFA0E80C5048BF0CC05DF804EB89005F
:1006300028BF40F8042B08BF704748BF20F8022BA2
:1006400011F0804F18BF00F8012B704770477047BA
:1006500070472DE9F0470D4699469246044600F151
:1006600024080168880604D5E06921F010012160A2
:1006700000E00120A84201DD471B00E00027A1693E
:100680007A1902EB0900081AA0612078C00602D48A
:100690002046AFF30080002608E0D4E901211AF8D3
:1006A00006009047206A401C761C20624E45F4DB11
:1006B0002078C0060AD52046AFF3008006E0D4E9D2
:1006C000012130209047206A401C2062381EA7F18B
:1006D0000107F4DC07E0D4E9012118F80500904790
:1006E000206A401C2062281EA5F10105F3DC20468B
:1006F000AFF300802078000602D50220BDE8F08725
:100700000120FBE701694A1C02610878704700B5C7
:100710008FB0CDE901310021059105497944CDE93A
:10072000031011466846FFF7E3FE0FB000BD00005E
:10073000E5FFFFFF0A6802F8010B0A60704700003E
:1007400000487047E42E042470477546FFF7F8FF11
:10075000AE4605006946534620F00700854618B0AE
:1007600020B5FFF7FBFDBDE820404FF000064FF03D
:1007700000074FF000084FF0000B21F00701AC46D6
:10078000ACE8C009ACE8C009ACE8C009ACE8C009F5
:100790008D46704710B50446AFF300802046BDE893
:1007A0001040FFF7C7BD000001491820ABBEFEE7AF
:1007B0002600020003484FF4004110B500F0AEF9E6
:1007C000012010BD001002580146014802F098BDFA
:1007D00034000024044810B502F0A4FD042801D020
:1007E000012010BD002010BD3400002410B500F021
:1007F00015F8012801D0022010BD074802F006FEBE
:10080000040006D104484FF4804102F001FC00B11D
:100810000124204610BD00003400002408B501204A
:100820008DF80000FFF7C6FF10B900208DF800001A
:100830009DF8000008BD000038B500240093134661
:100840000A460146034802F0CBFE00B101242046CF
:1008500038BD00003400002438B50024009313464E
:100860000A460146034802F09DFF00B101242046DC
:1008700038BD000034000024FEE7704772B6FEE782
:10088000002200F001B800000E4B70B505465C7AFE
:100890000120002C14D15E7A03F108009C555E7A89
:1008A00003EB860675605D7A2A54587A421C5A72A8
:1008B0003A232F22303008704B7020468A70CC705B
:1008C00070BD0000C809002470B5044600F03EF970
:1008D0000546601C02D004480078044400F036F954
:1008E000401BA042FAD370BD0C0000242DE9FC4F40
:1008F00001257E4C00234FF0030A4FF0B04E4FF01D
:100900000F0BEBE005FA03F637403A0077D04F685B
:10091000012F05D0022F03D0112F01D0122F1AD191
:1009200087684FEA4308D1F80CC00AFA08F927EAA9
:1009300009070CFA08FC4CEA070CC0F808C0476825
:1009400091F804C0B743CCF3001C0CFA03FC4CEA4A
:10095000070CC0F804C0C6684FEA430CD1F8088001
:10096000E1460AFA0CF7BE43019708FA09F848EA8B
:100970000608C0F80C804E68022E01D0122E12D14B
:10098000DE084FEA437C00EB860600960F69366A64
:100990004FEADC6C0BFA0CF807FA0CF726EA0806AB
:1009A0003743009E37620E790768DDF804C006F011
:1009B000030606FA09F627EA0C073E4306604E686E
:1009C000F6001CD54A4E376847F002073760366894
:1009D0009F0706F00206009623F0030606F1B046D4
:1009E000B1463F0FD6F80864DFF808810BFA07FC20
:1009F000404526EA0C0603D14FF0000C41E06CE0C4
:100A0000DFF8F4C0604502D14FF0010C39E0DFF8A7
:100A1000ECC0604502D14FF0020C32E0DFF8E0C0DC
:100A2000604502D14FF0030C2BE0DFF8D8C06045E1
:100A300002D14FF0040C24E0DFF8CCC0604502D1B5
:100A40004FF0050C1DE0DFF8C4C0604502D14FF047
:100A5000060C16E0DFF8B8C0604502D14FF0070C75
:100A60000FE0DFF8B0C0604502D14FF0080C08E09D
:100A7000DFF8A4C0604502D14FF0090C01E04FF04F
:100A80000A0C0CFA07FC4CEA060CC9F808C42668E4
:100A90004F6826EA0206FF0300D516432660666803
:100AA0004F6826EA0206BF0300D516436660D1F8F8
:100AB00004C07646DEF800705FEACC2C27EA020715
:100AC00000D517433760D1F804C077685FEA8C2CF3
:100AD00027EA020700D5174377605B1C0A681746B0
:100AE000DA407FF40FAFBDE8FC8F000080000058B3
:100AF000F44402580000025800040258000802584A
:100B0000000C025800100258001402580018025835
:100B1000001C0258002002580024025800690840B6
:100B200000D001207047426931EA020200D1090475
:100B3000816170470AB1816170470904FBE70000D9
:100B400001480068000C70470010005C0148806894
:100B5000704700000C0000240248816802781144AC
:100B6000816070470C000024032010B500F078F875
:100B700001F02EFF0F4A104914681368C4F30322D2
:100B800003F00F038A5CC95C02F01F0201F01F0131
:100B9000D0400A4A20FA01F111600949086000209A
:100BA00000F010F808B1012010BD00F02BF8002073
:100BB00010BD000018440258007F00081C000024EB
:100BC0001800002470B50D4D04462878A0B14FF4EC
:100BD0007A71B1FBF0F00A490968B1FBF0F002F05C
:100BE000CFFE48B9102C07D200222146501E00F03B
:100BF00017F800206C6070BD012070BD0C0000244F
:100C000018000024054808B5016841F002010160A0
:100C1000006800F00200009008BD0000F444025893
:100C20000E4BF0B41B680D46C3F30223C3F1070655
:100C3000042E00D90426191D072901D2002300E043
:100C4000DB1E012404FA06F19C40491E2940641E63
:100C5000994014402143F0BC05F0BBBD0CED00E011
:100C6000064900F0070210B54FF6FF040868044B70
:100C7000204040EA02201843086010BD0CED00E05F
:100C80000000FA057047D0F8040404F0B3BFC1EBCC
:100C9000C10200EB8202D0F80404926C04F01EBF83
:100CA000C1EBC10200EB8202D0F80404D2F80822A2
:100CB00004F069BFD0F8040404F09EBF70B5426828
:100CC000044601F00F00904201D9012070BD01F0EF
:100CD0000F024FF000050B06C2EBC2014FF00102FC
:100CE00004EB810103D581F83D203C3103E081F81C
:100CF000FD5101F5FE718D70087094F8BC03012858
:100D000008D084F8BC23206805F022FB002084F87A
:100D1000BC5370BD022070BD2DE9F04101F00F06FB
:100D200004460D064FF00100C6EBC6014FF000056A
:100D300004EB810103D581F83D003C3103E081F8EB
:100D4000FD5101F5FE714F788A60CB700E7007B1CE
:100D5000CE80022B00D10D7194F8BC23012A09D05A
:100D600084F8BC03206805F0EBF9284684F8BC53EE
:100D7000BDE8F0810220FBE770B501F00F050C46DD
:100D80000026C5EBC50100EB8101C1F80822C1E9CD
:100D9000843681F8FD6181F8FC5101F5FE7103692B
:100DA000012B00D10A612207027C006803D005F004
:100DB00027FB002070BD05F011FAFAE770B50D466B
:100DC0004168044605F00F00884201D9012070BD3A
:100DD00029064FF000064FF0010207D5C0EBC00115
:100DE00004EB810181F83D203C3107E0C5EBC501F2
:100DF00004EB810181F8FD6101F5FE718A700870D4
:100E000094F8BC03012807D084F8BC23206805F0BF
:100E1000CBFA280702D007E0022070BD217C04F540
:100E20007172206805F068FA002084F8BC6370BD18
:100E30002DE9F04101F00F050C460026C5EBC50178
:100E4000012700EB81018A64C1E9143681F83D7005
:100E500001F83C5F0369012B00D10A612207027C83
:100E6000006804D005F0CCFA0020BDE8F08105F060
:100E7000B5F9F9E72DE9FC5F05680446284605F059
:100E8000D2FB00287ED1206805F0F9FB002879D03C
:100E9000206805F0F4FB800704D52068416901F063
:100EA00002014161206805F0EAFBC10604F571709A
:100EB000009034D52068816921F0100181612F6A8A
:100EC00007F00F01C7F34340C1EBC101022804EB57
:100ED000810606F5FE7602D0062811D01AE047F604
:100EE000F070074216D0C7F30A12F1681746284679
:100EF00005F0C9FBF168B0693944F160384408E095
:100F000000990822284605F0BEFBB069C7F30A1114
:100F10000844B0612068816941F010018161206856
:100F200005F0ADFB00034FF001094FF0080B5BD556
:100F30002068002605F082FBDFF8A8A3074651E0F1
:100F4000F8074DD02068F1B205F091FB8046C0074C
:100F500007D005EB4611C1F8089B3146204602F048
:100F6000C9FE5FEA087022D505EB4611C1F808BB3F
:100F70002068016C00EB461001915145D0F8081B28
:100F800007D900E0ABE1090403D54FF40041C0F8F4
:100F9000081B204600F0E2F90198504507D9206966
:100FA000012804D120680121009A05F0A5F95FEA23
:100FB000C86004D505EB46111020C1F8080B5FEAA4
:100FC000886004D505EB46102021C0F8081B5FEAB5
:100FD000884005D505EB46114FF40050C1F8080BC9
:100FE0007F08761C002FABD1206805F048FB40033A
:100FF0004FF0000A5CD5206805F019FB0026074673
:1010000054E0F80750D02068F1B205F01EFB80468E
:10101000C00723D0D5F8342806F00F0C05EB461393
:1010200009FA0CF08243C5F83428C3F808992069FE
:1010300001280FD1C6EBC60004EB8000D0E91112E5
:101040001144816436B9206D20B920680121009ACD
:1010500005F052F92046F1B2FFF719FE5FEA087079
:1010600003D505EB4611C1F808B95FEAC86004D59D
:1010700005EB46111020C1F808095FEA486004D565
:1010800005EB46114020C1F808095FEA887004D5D5
:1010900005EB46110220C1F808095FEA086003D594
:1010A0003146204602F08CFE7F08761C002FA8D126
:1010B000206805F0E4FA002811DAD5F8040820F0D9
:1010C0000100C5F8040894F8F403012839D020463B
:1010D00000F028F92068416901F000414161206871
:1010E00005F0CDFA00050BD5D5F80808C00702D0E9
:1010F000204600F03BF92068416901F4006141613C
:10110000206805F0BCFA00010AD52068416901F0A9
:101110000061416194F8F403D0B1204600F026F953
:10112000206805F0ACFAC00476D5D5F8040820F0A4
:101130000100C5F804082068102105F055FA0021C7
:1011400035E00021204684F8F4A3FFF79BFDC1E7BA
:1011500084F8F4932068406D0121C0F38300C4F843
:10116000F8032046FFF78EFDDAE700BF05EB4110DC
:101170004FF67F32C0F80829D0F8003923F4001365
:10118000C0F80039D0F8003943F00063C0F80039E6
:10119000C0F8082BD0F8002B22F40012C0F8002B66
:1011A000D0F8002B42F00062C0F8002B491C6068A8
:1011B0008842DBD8D5F81C0840F00110C5F81C089F
:1011C000206B60B1D5F8840840F00B00C5F88408A6
:1011D000D5F8440840F00B00C5F844080CE0D5F8F9
:1011E000140842F22B010843C5F81408D5F810087A
:1011F00040F00B00C5F81008D5F8000820F4FE6098
:10120000C5F80008217C2068009A05F075F8206870
:10121000416901F480514161206805F030FA800491
:1012200017D5206804F0CCFF206805F0EFF9E060E6
:1012300001F088FB0146207B2368C2B2184605F006
:1012400041FA204600F058F82068416901F4005145
:101250004161206805F013FA000707D5204600F029
:1012600065F82068416901F008014161206805F0D6
:1012700006FAC00208D50021204600F035F82068A3
:10128000416901F480114161206805F0F8F980029C
:1012900008D50021204600F02BF82068416901F4B0
:1012A00000114161206805F0EAF9400007D52046A9
:1012B000FFF7E9FC2068416901F080414161206845
:1012C00005F0DDF940070AD520684568680702D5B2
:1012D0002046FFF7EFFC2168486828434860BDE8D6
:1012E000FC9F00000A30544FD0F8040404F0A1BC65
:1012F000D0F8040404F09FBC70B50446C068012512
:1013000070B1022801D0FFF7B9FAD4F804042946D5
:1013100004F0E7FCD4F80404BDE8704004F0A2BC7B
:101320000025F2E7D0F8040404F0C5BCD0F80404AA
:1013300004F0CBBC10B5044690F8BC0301280BD0D8
:10134000012084F8381084F8BC03206805F0A9F95E
:10135000002084F8BC0310BD022010BDD0F8042486
:1013600000F57171104604F0C8BC000010B50446C9
:10137000D0F8040404F0F8FC2068D0F8001E41F016
:101380000101C0F8001E206A002804D0024801684C
:1013900041F00601016010BD10ED00E0134970B589
:1013A0000A68D243520705D5096801F00701814256
:1013B00013D118E00A6822F0070202430A60FFF71F
:1013C000C5FB0A4D4FF47A760446083D07E000BF9E
:1013D000FFF7BCFB001BB04201D9012070BD28689B
:1013E000C0438004F4D4002070BD00000C480258B3
:1013F0000248016841F08071016070470C48025852
:101400002DE9F84F1E4615468A460446FFF79EFB17
:10141000814694F8400001280ED001274FF00008C3
:1014200084F8407094F84100012807D05FF0020072
:1014300084F84080BDE8F88F0220FBE74221C4F821
:10144000448084F84110002220214B46204600961B
:1014500002F046FF0028EBD12168286888622168E5
:10146000686848622168A868C862206829690268BB
:1014700022F4400242F4800211430160E9684FF017
:1014800000622046CAF82810514602F0EBFC012207
:101490004B4608212046009602F022FF0028C7D1C3
:1014A00022680821D16084F84170C1E72DE9F84F26
:1014B00017468B460446FFF749FB824694F84000E6
:1014C00001280ED001264FF0000884F8406094F8FF
:1014D0004100012807D0022584F840802846BDE855
:1014E000F88F0220FBE74FF00209C4F8448084F82B
:1014F00041900022202153462046009702F0F0FE42
:101500000500E9D100225946204602F0ABFCDBF889
:10151000240058B90122534602212046009702F0C8
:10152000DFFE0500D8D12168C1F80C9084F8416035
:10153000D2E70000F8B50446FFF708FB05461CB1EA
:1015400094F8410010B107E00120F8BD204600F0FA
:1015500047F841F28830A06420686FF0FF02A1686C
:10156000036802EB012223F4706111430160A06C57
:10157000002220212B460090204602F0B1FE0028D8
:10158000E3D12268D4E907352679E168176845EA8E
:101590000665DFF844C01943104B29430025012696
:1015A00007EA0C07394311602268D4E90517B4F83B
:1015B00010C0D2F804E039430EEA030E4EEA0C43A1
:1015C0001943516021680A6842F001020A606564AB
:1015D00084F84160F8BD00002FFFFF00FEF8E0FF37
:1015E00070B586B0044614216846FFF708F83949FB
:1015F000206888426CD13848016841F4804101601C
:10160000006800F48040059033480C30016841F0D8
:1016100002010160016801F002010591016841F0D9
:1016200002010160016801F002010591016841F0C9
:1016300008010160016801F008010591016841F0AD
:1016400008010160016801F008010591016841F09D
:1016500010010160016801F010010591016841F07D
:1016600008010160006801AB04251C4E00F0080071
:1016700005900924009502200021032283E8170029
:1016800069463046FFF732F9402000900A21304683
:1016900004916946FFF72AF9114E680269460494DD
:1016A00000903046FFF722F9A802694604940090A2
:1016B0003046FFF71BF90B48694600950494FFF785
:1016C00015F9E8026946049400903046FFF70EF9D8
:1016D00006B070BD00500052D444025800040258B5
:1016E000000C0258001002582DE9F84F15460E461E
:1016F0000446FFF72BFA82462068816994F840304F
:1017000000F12009012B0DD001274FF0000884F8CB
:10171000407094F84120012A06D0022084F84080CD
:10172000BDE8F88F0220FBE7C4F84480A6B322226C
:1017300084F841200269521CA2630269521C626350
:101740002663426922F0406242F080624261206872
:1017500081610EE00621204602F0C2FDC8B999F869
:101760000000216B0870206B401C2063A06B401EA2
:10177000A063A06B53464FF0010200950028E9D109
:101780004FF00201204602F0ABFD10B922680221A1
:10179000D16084F84170C1E7FFE7616C012041F03E
:1017A00008016164BAE700002DE9F84F15460E46BE
:1017B0000446FFF7CBF994F84010824620680129CF
:1017C00000F120090ED001274FF0000884F8407086
:1017D00094F84110012907D05FF0020084F840809E
:1017E000BDE8F88F0220FBE7C4F8448086B31221DD
:1017F00084F841100169491CE1620169491CA16238
:101800006662416921F0406141610EE00421204699
:1018100002F066FDC8B9606A017889F80010606A54
:10182000401C6062E06A401EE062E06A53464FF08E
:10183000010200950028E9D14FF00201204602F094
:101840004FFD10B922680221D16084F84170C5E7CC
:10185000FFE7616C012041F008016164BEE7000010
:1018600010B501F06FF805490968054AC1F3021186
:10187000515C01F01F01C84010BD00002044025817
:10188000007F0008494930B5484C0B1D0A680C34EC
:1018900009681D68246802F0030305F00102C1F322
:1018A0000511C4F3CC04002914FB02F200EE102A47
:1018B000F8EE400A75D03F4A9FED3D1AB7EE000A98
:1018C0006BB1DFED3D1A012B01D0022B64D002EE8B
:1018D000101A1168F8EE422A81EEA22A21E0334C58
:1018E000283C23689B0612D5344B246801EE901ADD
:1018F0001168C4F3C104F8EE612AE34001EE903AA6
:10190000C1F30801F8EE611A81EEA22A0BE001EEA4
:10191000901ADFED2B2A00BFF8EE611A116882EEF3
:10192000A12AC1F3080101EE901A1168F8EE611ABC
:1019300040EE811A71EE800A62EE200AC1F3462160
:1019400001EE101AB8EE411A31EE001AC0EE811AFB
:10195000BCEEE11A80ED001A1168C1F3064101EEF8
:10196000101AB8EE411A31EE001AC0EE811ABCEE20
:10197000E11A80ED011A1168C1F3066101EE101A37
:10198000B8EE411A31EE000A80EE801ABCEEC10AB0
:1019900080ED020A30BD04E001EE901ADFED092A65
:1019A000BAE70021016041608160F3E728440258F2
:1019B00000000039304402580024744A0090D003DB
:1019C0000024744C20BCBE4B494930B5484C0B1D1B
:1019D0000A68143409681D68246802F00303C5F31B
:1019E0000012C1F30531C4F3CC04002914FB02F248
:1019F00000EE102AF8EE400A75D03F4A9FED3D1ADE
:101A0000B7EE000A6BB1DFED3D1A012B01D0022BBE
:101A100064D002EE101A1168F8EE422A81EEA22A72
:101A200021E0334C283C23689B0612D5344B2468B4
:101A300001EE901A1168C4F3C104F8EE612AE34084
:101A400001EE903AC1F30801F8EE611A81EEA22A84
:101A50000BE001EE901ADFED2B2A00BFF8EE611AC1
:101A6000116882EEA12AC1F3080101EE901A1168F3
:101A7000F8EE611A40EE811A71EE800A62EE200AD9
:101A8000C1F3462101EE101AB8EE411A31EE001AE8
:101A9000C0EE811ABCEEE11A80ED001A1168C1F3A4
:101AA000064101EE101AB8EE411A31EE001AC0EEEE
:101AB000811ABCEEE11A80ED011A1168C1F30661CA
:101AC00001EE101AB8EE411A31EE000A80EE801ACB
:101AD000BCEEC10A80ED020A30BD04E001EE901AAE
:101AE000DFED092ABAE70021016041608160F3E778
:101AF0002844025800000039384402580024744A2F
:101B00000090D0030024744C20BCBE4B494930B532
:101B1000484C0B1D0A681C3409681D68246802F0D3
:101B20000303C5F30022C1F30551C4F3CC0400291B
:101B300014FB02F200EE102AF8EE400A75D03F4A7C
:101B40009FED3D1AB7EE000A6BB1DFED3D1A012B98
:101B500001D0022B64D002EE101A1168F8EE422A6E
:101B600081EEA22A21E0334C283C23689B0612D543
:101B7000344B246801EE901A1168C4F3C104F8EEE6
:101B8000612AE34001EE903AC1F30801F8EE611AD0
:101B900081EEA22A0BE001EE901ADFED2B2A00BFA6
:101BA000F8EE611A116882EEA12AC1F3080101EE74
:101BB000901A1168F8EE611A40EE811A71EE800AEF
:101BC00062EE200AC1F3462101EE101AB8EE411A66
:101BD00031EE001AC0EE811ABCEEE11A80ED001A57
:101BE0001168C1F3064101EE101AB8EE411A31EE48
:101BF000001AC0EE811ABCEEE11A80ED011A1168DC
:101C0000C1F3066101EE101AB8EE411A31EE000A76
:101C100080EE801ABCEEC10A80ED020A30BD04E0FD
:101C200001EE901ADFED092ABAE700210160416058
:101C30008160F3E72844025800000039404402580C
:101C40000024744A0090D0030024744C20BCBE4B86
:101C50002DE9F0474FF480760146B0426F48DFF837
:101C6000B8818AB06E4B4FF080576E4DA8F10404D6
:101C70004FEA20124FF0005C29D1D8F8001001F093
:101C8000070105291FD2DFE801F0030A0F20140025
:101C900006A8FFF7F7FD07980AB0BDE8F087684689
:101CA000FFF792FE0098F7E703A8FFF72FFF0398CE
:101CB000F2E7216811F04051EED0B94275D11046DB
:101CC000EAE71846E8E70020E6E72846E4E7B1F54A
:101CD000007F19D0544EB1F5806F26D0B1F5006F5A
:101CE00037D04FF4805949454FF4804A4BD1D8F84A
:101CF000001001F4E041B1F5005FD5D03DDC0029D2
:101D0000C6D04945DFD1CAE7D8F8001001F4E07128
:101D10008029C9D004DC0029BAD04029D3D1BEE73C
:101D2000C029D2D0B142CED1C3E7316801F46001FD
:101D3000B1F5800FB8D005DC0029A9D0B1F5001F9E
:101D4000C1D1ACE7B1F5C00FBFD0B1F5000FBAD12A
:101D5000AFE7316801F0E061B1F1007FA4D005DCAC
:101D6000002995D0B1F1807FADD198E7B1F1407FE6
:101D7000ABD0B1F1806FA6D19BE7B1F5405FA4D0A5
:101D80005145A0D195E7B1F5002F4FF480350DD026
:101D9000A9421DD1206810F48030B1D0A84292D160
:101DA0006846FFF711FE029876E70EE0316811F4FD
:101DB0004031A8D0A94203D0B1F5003F83D178E7E4
:101DC00003A8FFF7A3FE059866E761459AD178E777
:101DD000514597D1316801F0E041B1F1405FE3D066
:101DE00009DC81B1B94211D061458BD103A8FFF75D
:101DF0008DFE049850E7B1F1804F3FF460AFB1F130
:101E0000A04F8BD15DE7FFF72BFD45E76846FFF755
:101E1000DBFD019840E70000504402580090D003D9
:101E200040787D010080BB00584402582DE9FC5FDA
:101E3000044650F8241B002500902E460801FE4F52
:101E4000DFF8F8831DD5606E50B1B0F5801F0CD05F
:101E5000B0F5001F0ED0B0F5401F1DD001250FE0DA
:101E6000386840F40030386016E00221201D02F08E
:101E70005BFA03E00098022102F0E6FA05000BD0BD
:101E80002E462088C00523D5606D05281ED2DFE8C8
:101E900000F00C11161B1B00626ED8F8001021F424
:101EA00040111143C8F80010EBE7386840F40030E7
:101EB000386009E00021201D02F036FA03E00098A6
:101EC000002102F0C1FA05466DB100E001252E4661
:101ED0002088800528D5A06D80281ED00CDC90B10C
:101EE00040280ED114E0626DD8F8001021F00701EF
:101EF0001143C8F80010EBE7C02813D0B0F5807F7D
:101F000010D001250FE0386840F40030386009E057
:101F10000021201D02F008FA03E00098002102F0E1
:101F200093FA054695B12E462088DFF810934005B8
:101F300009F108092CD5D4F8A400B0F5800F20D001
:101F40000DDCA0B1B0F5001F0FD115E0A26DD8F8DF
:101F5000001021F4E0711143C8F80010E4E7B0F577
:101F6000C00F13D0B0F5000F10D001250FE0386876
:101F700040F40030386009E00021201D02F0D4F95F
:101F800003E00098002102F05FFA054675B12E4685
:101F9000208800052DD5D4F8A800B0F1007F21D00D
:101FA0000EDCA8B1B0F1807F10D116E0D4F8A420E7
:101FB000D9F8001021F460011143C9F80010E7E7D7
:101FC000B0F1407F13D0B0F1806F10D001250FE049
:101FD000386840F40030386009E00021201D02F02C
:101FE000A3F903E00098002102F02EFA05466DB136
:101FF0002E46206880011FD5A06CD8B110280FD0C4
:10200000202812D0302815D0012514E0D4F8A820BB
:10201000D9F8001021F0E0611143C9F80010E8E799
:10202000386840F40030386004E00221201D02F0DE
:102030007BF905466DB12E462088C0042BD5E06D96
:10204000B0F5005F20D00DDCA0B1B0F5805F0FD1FE
:1020500015E07A48A26C001F016821F0300111439D
:102060000160E9E7B0F5405F13D0B0F5804F10D0C4
:1020700001250FE0386840F40030386009E00021A5
:10208000201D02F051F903E00098002102F0DCF974
:10209000054685B12E462088800429D5206EB0F5EE
:1020A000403F23D010DC08B3B0F5803F14D0B0F52A
:1020B000003F0FD115E0E26DD8F8001021F4E041A7
:1020C0001143C8F80010E6E7B0F5802F0ED0B0F548
:1020D000A02F0BD001250AE00121201D02F024F9D8
:1020E00003E00098012102F0AFF905468DB12E46BC
:1020F000208840042AD5D4F8AC00B0F1405F23D04A
:1021000010DC08B3B0F1805F14D0B0F1005F0FD1E4
:1021100015E0226ED8F8001021F4E0211143C8F830
:102120000010E5E7B0F1804F0ED0B0F1A04F0BD01A
:1021300001250AE00121201D02F0F6F803E00098D5
:10214000012102F081F905466DB12E462088000478
:102150001FD5E06ED8B1B0F1805F0ED0B0F1005F56
:1021600010D0012514E0D4F8AC20D9F8001021F0EB
:10217000E0411143C9F80010E8E7386840F4003046
:10218000386004E00121201D02F0CEF805466DB153
:102190002E462068C0011ED5606CD0B101280ED03B
:1021A000022811D0032814D0012513E0E26ED8F8DC
:1021B000001021F040511143C8F80010E9E73868D9
:1021C00040F40030386004E00221201D02F0ACF839
:1021D000054685B12E462068DFF85CB04002ABF1C1
:1021E0001C0B57D51648016841F480710160FEF759
:1021F000ADFC82460EE01148626C001F016821F0C0
:10220000030111430160E6E7FEF7A0FCA0EB0A0022
:1022100064283DD80A480068C005F5D57DBBDFF8C5
:102220001CA0B4F8B0100AF1200ADAF8000001F49A
:10223000407100F4407005E02C44025850440258AC
:1022400000480258884211D0DAF80010DAF800206D
:1022500021F4407142F48032CAF80020DAF80020FC
:1022600022F48032CAF80020CAF80010D4F8B00076
:10227000B0F5807F21D1FEF769FC019019E008E0FC
:10228000FEF764FC0199411A41F28830814210D96D
:1022900003252E462078DFF830A4C0073DD0A06F7C
:1022A000182838D026DC80B3082829D0102825D15A
:1022B0002CE0DAF800008007E2D5D4F8B010C1F3C2
:1022C0000120032858460DD0016821F47C5101609B
:1022D000B4F8B020DAF80010C2F30B021143CAF8C8
:1022E0000010D7E7F94A036802EA111223F47C517F
:1022F0001143ECE720280ED028280CD001250BE054
:102300000121201D02F010F804E004E000980121F2
:1023100002F09AF805465DB12E46207880071ED55A
:10232000606F062819D2DFE800F0160C1116161699
:10233000A26FDAF8001021F038011143CAF800103A
:10234000EBE70121201D01F0EFFF03E000980121E0
:1023500002F07AF8054675B100E001252E46207896
:1023600040071FD5D4F89000062819D2DFE800F006
:10237000160C11161616626FDAF8001021F007011C
:102380001143CAF80010EAE70121201D01F0CCFF3B
:1023900003E00098012102F057F805469DB100E0E6
:1023A00001252E46207880062BD5D4F88C00B0F17C
:1023B000405F24D011DC10B3B0F1805F15D0B0F1D4
:1023C000005F10D116E0D4F89020D9F8001021F069
:1023D00007011143C9F80010E4E7B0F1804F0ED0B7
:1023E000B0F1A04F0BD001250AE00021201D01F023
:1023F0009BFF03E00098022102F026F805468DB10C
:102400002E46207840062BD5D4F89800B0F5406FC2
:1024100024D011DC10B3B0F5806F15D0B0F5006F8B
:1024200010D116E0D4F88C20DAF8001021F0E04149
:102430001143CAF80010E4E7B0F5805F0ED0B0F5A4
:10244000A05F0BD001250AE00021201D01F06CFFE8
:1024500003E00098022101F0F7FF05468DB12E46FA
:10246000207800062BD5D4F89C00B0F5C04F24D0BE
:1024700011DC10B3B0F5005F15D0B0F5804F10D16E
:1024800016E0D4F89820D9F8001021F4E051114357
:10249000C9F80010E4E7B0F5004F0ED0B0F5204FBA
:1024A0000BD001250AE00021201D01F03DFF03E0D3
:1024B0000098022101F0C8FF05464DB12E46207854
:1024C00000071ED5D4F88000B0F5805F0AD00FE079
:1024D000D4F89C20D9F8001021F460411143C9F8C8
:1024E0000010ECE70098022101F0AEFF00B10126D8
:1024F000D4F88020DAF8001021F440511143CAF8D2
:1025000000102078C00613D5D4F89400B0F5807F71
:1025100005D10098022101F097FF00B10126D4F8FF
:102520009420D9F8001021F440711143C9F800102B
:102530002068000316D5D4F8A00038B1B0F5803F6C
:1025400009D0B0F5003F0BD001250AE00021201D85
:1025500001F0EAFE03E00098022101F075FF054654
:1025600085B12E462068400322D5D4F88400B0F50A
:10257000801F11D0B0F5001F13D0B0F5401F15D04B
:10258000012514E0D4F8A020D9F8001021F440313E
:102590001143C9F80010E5E7386840F400303860AE
:1025A00004E00098012101F04FFF054655B12E4689
:1025B0002068C0031CD5E06C70B1B0F5803F10D02E
:1025C000012514E0D4F88420DAF8001021F4401139
:1025D0001143CAF80010EBE7386840F40030386067
:1025E00004E00221201D01F09FFE0546CDB12E46DC
:1025F0002068800005D50098022101F025FF00B178
:102600000126206880031BD5E06FB8B1B0F5807F4C
:1026100010D0B0F5007F11D0B0F5407F0ED001256D
:102620000DE02948E26C0838016821F4803111433B
:102630000160DDE7386840F400303860F5B32E46BD
:102640002068C00207D5226FD8F8001021F00041A1
:102650001143C8F800102068C00008D5D4F8B42091
:10266000DBF8001021F480411143CBF80010206802
:10267000800207D5A26ED8F8001021F080711143B6
:10268000C8F80010206840000CD5DBF8001021F4D9
:102690000041CBF80010DBF80010D4F8B82011434B
:1026A000CBF800102068002807DA0748226D0838A8
:1026B000016821F040511143016000E008E086B15B
:1026C0000120BDE8FC9F000054440258CFFFFF00EA
:1026D000E26FDAF8001021F440711143CAF80010DB
:1026E000AEE70020EDE700002DE9F05F04000F46A3
:1026F0007ED0DFF83882D8F8000000F00F00B84232
:102700000CD2D8F8001021F00F013943C8F800109E
:10271000D8F8000000F00F00B84269D12078844D4D
:1027200040070AD52069296801F07001884204D960
:10273000296821F070010143296020787C4E361D04
:1027400000070AD56069316801F07001884204D938
:10275000316821F07001014331602078C0060AD54C
:10276000A069316801F4E061884204D9316821F43C
:10277000E061014331602078DFF8B4B180060BF1ED
:10278000080B0CD5E1695846DBF8002002F0700216
:10279000914204D9026822F070020A430260207854
:1027A00080070AD5E068296801F00F01884204D942
:1027B000296821F00F01014329602078C0073ED02D
:1027C0005B49A2682868183920F4706010432860BB
:1027D0006068022818D0032819D00968012819D088
:1027E000490700294ADADFF848A1AAF1080A00E0FF
:1027F00044E0DAF8002022F007020243CAF8002081
:10280000FEF7A4F9814612E009688903E9E709683F
:102810008901E6E7C905E4E7FEF798F9A0EB0901AD
:1028200041F28830814202D90320BDE8F09F6168FF
:10283000DAF8000000F03800B0EBC10FECD12078DE
:1028400080070AD5E068296801F00F01884204D2A8
:10285000296821F00F0101432960D8F80010404693
:1028600001F00F01B9420BD9016821F00F01394382
:102870000160006800F00F00B84201D00120D4E7E9
:10288000207840070AD52069296801F07001884244
:1028900004D2296821F070010143296020780007E3
:1028A0000AD56069316801F07001884204D231684C
:1028B00021F07001014331602078C0060AD5A0697B
:1028C000316801F4E061884204D2316821F4E061AA
:1028D00001433160207880060CD5E1695846DBF869
:1028E000002002F07002914204D2026822F07002CD
:1028F0000A43026000F06CF80E492A682B68C2F3A4
:10290000032203F00F038A5CC95C02F01F0201F08E
:102910001F01D040084A20FA01F111600749086000
:1029200007480068BDE8F05FFEF74CB90020005290
:1029300018440258007F00081C00002418000024DE
:102940001000002430B500F043F80B4A0B490C4B43
:1029500015681468C5F3032204F00F048A5C095D4E
:1029600002F01F0201F01F01D040064A20FA01F1D7
:1029700019601060084630BD18440258007F0008F6
:102980001C0000241800002400B5FFF7DBFF0549F8
:102990000968054AC1F30211515C01F01F01C840EA
:1029A00000BD00001C440258007F000800B5FFF77E
:1029B000C9FF05490968054AC1F30221515C01F0CC
:1029C0001F01C84000BD00001C440258007F0008E1
:1029D000454970B545480968434B103B11F0380232
:1029E00008D00111082A03D0102A0BD0182A0BD0C6
:1029F000084670BD19688906FBD51968C1F3C10185
:102A0000C84070BD3A4870BD3749374D18310C1D6C
:102A100024350A68096826682D6802F0030406F068
:102A20000102C1F30511C5F3CC0515FB02F200EE5E
:102A3000102AB8EE400AE9B32F4ADFED2E0AB7EEAE
:102A4000001A6CB1DFED2D1A012C01D0022C43D0FD
:102A500002EE101A1068F8EE422A81EEA22A1EE059
:102A60001C68A40611D51B6801EE901A1168C3F307
:102A7000C103F8EE612AD84001EE900AC1F30800C4
:102A8000F8EE611A81EEA22A0BE001EE901ADFED5A
:102A90001C2A00BFF8EE611A106882EEA12AC0F36A
:102AA000080001EE900AF8EE611A40EE201A31EEAD
:102AB000810A00E015E022EE000A1068C0F346200B
:102AC000401C00EE900AF8EE600A80EE201ABCEE80
:102AD000C10A10EE100A70BD01EE901ADFED092A4E
:102AE000D8E7002070BD0000104402580090D003C9
:102AF00040787D0100000039304402580024744AB7
:102B00000024744C20BCBE4B2DE9F05F04007CD047
:102B1000FF4F2078FE4D1837DFF8F493103DC007C3
:102B200048D0D9F80000396800F03800102815D0D6
:102B3000182803D101F0030002280FD06068B0F517
:102B4000803F12D010B1B0F5A02F18D0286820F423
:102B500080302860286820F4802009E028688003FD
:102B600028D560680028D2D024E0286840F480305E
:102B70002860606888B1FDF7E9FF064609E028682B
:102B800040F480202860F0E7FDF7E0FF801B642818
:102B90007ED828688003F7D50CE0FDF7D7FF0646FE
:102BA00005E000BFFDF7D2FF801B6428F0D828683D
:102BB0008003F7D4207841F20308D54E0C3E8007FD
:102BC00053D5D9F80000396810F038000ED0182815
:102BD00001D188070AD0E068A8B3296821F019015B
:102BE00001432960FDF7B2FF82461BE028684007D9
:102BF00002D5E06800288AD0FDF7A2FF40451BD827
:102C00002069402812D0316800E0CCE021F47C310A
:102C100041EA0030306028E0FDF798FFA0EB0A00A1
:102C20000228B5D828684007F6D5E5E7306820F4D3
:102C30007C3040F40030EDE7207C316821F0FE412B
:102C400041EA0060E6E7FFE7286820F0010028601D
:102C5000FDF77CFF824605E0FDF778FFA0EB0A0058
:102C6000022895D828684007F6D42078C0065FD59A
:102C7000D9F80000DFF898B2396800F03800ABF1FD
:102C8000040B082812D0182805D101F0030000E039
:102C9000EAE001280AD0E0690028286838D040F02E
:102CA00080002860FDF752FF824623E02868C005B7
:102CB00023D5E069802876D11FE0206A202821D022
:102CC000316821F0F84141EA8060306030E000BFB7
:102CD00094F82010DBF8002022F07C5242EA0161D7
:102CE000CBF8001024E000BFFDF730FFA0EB0A0096
:102CF000022896D82868C005F6D5FDF721FF404583
:102D0000E6D8DAE7306820F0F84040F08040DCE7B1
:102D100020F080002860FDF719FF064605E000BF9F
:102D2000FDF714FF801B02289BD82868C005F7D444
:102D30002078000729D576486169643000298046EB
:102D4000016811D041F001010160FDF7FFFE064668
:102D500005E000BFFDF7FAFE801B0228C9D8D8F8AD
:102D600000008007F6D510E021F001010160FDF7B9
:102D7000EDFE064605E000BFFDF7E8FE801B0228D9
:102D800072D8D8F800008007F6D42078800623D5C2
:102D9000A0690028286810D040F480502860FDF712
:102DA000D5FE064605E02CE1FDF7D0FE801B02288B
:102DB0005AD828688004F7D50EE020F480502860A7
:102DC000FDF7C4FE064604E0FDF7C0FE801B0228A6
:102DD0004AD828688004F7D4207840074FD5DFF818
:102DE0003481D8F8001041F48071C8F80010FDF764
:102DF000ADFE064605E000BFFDF7A8FE801B642877
:102E000032D8D8F80000C005F6D5414EA06860362B
:102E100001280AD008B1052813D0306820F001003D
:102E20003060306820F0040002E0306840F00100BB
:102E30003060A06841F2883A90B1FDF787FE804685
:102E40000AE0306840F004003060EEE7FDF77EFEF7
:102E5000A0EB0801514507D830688007F6D50EE091
:102E6000FDF774FE804607E084E000BFFDF76EFECC
:102E7000A0EB080151457DD830688007F6D4606A20
:102E8000F0B3DFF88C80D9F8001008F12008C1F306
:102E9000C20103296FD00228286820F080702860C2
:102EA00003D0FDF753FE044680E0FDF74FFE0646D3
:102EB00005E000BFFDF74AFE801B022873D8286892
:102EC0008001F7D4E26A40F2F331386854F8283FC1
:102ED000884340EA021018433860217B4FF4FE0C0F
:102EE00022894FF0FE47208A4902267D521E401E4D
:102EF000A1F5007189B20CEA0040C2F3080200E0BB
:102F000081E01143761E0143014807EA066203E0AF
:102F100010440258004802581C3011433B4AC8F87C
:102F20000010016821F00101016011684FF6F87688
:102F3000236AB14341EAC30111600168A26921F02B
:102F40000C01114301600168E26921F002011143A3
:102F50000160016841F480310160016841F4003191
:102F60000160016841F480210160016841F00101C4
:102F7000016001E017E01DE0286840F080702860E3
:102F8000FDF7E4FD044604E0FDF7E0FD001B022828
:102F900009D828688001F7D535E000BFFDF7D6FDD8
:102FA000001B022802D90320BDE8F09F2868800199
:102FB000F4D428E039680128D8F8000021D0A26AAA
:102FC00001F0030393421CD1E26AC1F305118A4266
:102FD00017D1216BC0F30802491E8A4211D1616BDF
:102FE000C0F34622491E91420BD1A16BC0F30642A9
:102FF000491E914205D1E16BC0F30660491E814232
:1030000001D00120D0E70020CEE700003444025870
:103010002DE9FE430446C06B0E46032184F83410AC
:10302000002703285ED0B6F5004F5BD0B6F5804F81
:103030004FF000004FF400654FF0806804D01EB3DD
:10304000A06B40F0006043E00090002101908146B9
:10305000206801F0E5FD800113D46946204601F0A7
:1030600027FE05000DD1019840032FD5B4F8481074
:103070002068090401F078FA050002D120680221D5
:103080001EE0A06B284323E00090002101908146C0
:10309000206801F0C5FD8001F3D46946204601F0A7
:1030A00007FE0500EDD10198C0030FD5B4F8481014
:1030B0002068090401F058FA0500E2D120680021D7
:1030C00001F09CFA0500DCD14D46DAE74546D8E729
:1030D000A063A06B4FF40078184D38B12068012729
:1030E000856318E0A06B40F08050F1E7D4E904C09C
:1030F000D4E901123346042806D2E66D464503D0D2
:10310000B6F5807F18D00420CDF800C0CDE9010AC3
:10311000206801F089FD2068414601F056FA28B187
:10312000216801278D63A16B0143A163012084F80D
:1031300034003846BDE8FE830220E5E7FF0FE01FBC
:1031400070470000F0B5026E920F0A70026EC2F373
:1031500083624A70026EC2F301628A70026E120CC0
:10316000CA70B0F86020120A0A7190F860204A71A3
:10317000426E120DCA80426EC2F303420A72B0F868
:103180006420C2F3C0324A72B0F86420C2F38032C5
:103190008A72B0F86420C2F34032CA72B0F8642078
:1031A0000026C2F300320A734E730122C36B4FF440
:1031B000007463B1012B3AD0036850499963816B65
:1031C00041F08051816380F834200120F0BDB0F8D7
:1031D0006430856E9B051B0D43EA95730B61836E0E
:1031E000C3F3C2630B75836EC3F302634B75836EC7
:1031F000C3F342538B75836EC3F38243CB75836EE7
:10320000C3F3C2330B760D696D1CC5640B7E03F0EE
:1032100007039B1C9D40C5640B7A846503F00F0374
:1032200002FA03F35F0A7D43C0E914350EE090F81B
:103230006450836EAD06AD0A45EA13430B610B691A
:103240005B1C9B02C364C0E914438465B0F868301A
:10325000C3F380334B76B0F86830C3F3C6138B7674
:1032600090F8683003F07F03CB76C36EDB0F0B77EB
:10327000C36EC3F341734B77C36EC3F382638B7723
:10328000C36EC3F38353CB77C36EC3F3405381F84C
:10329000203081F82160C36EC3F3004381F82230EF
:1032A000B0F86C30C3F3C03381F82330B0F86C3021
:1032B000C3F3803381F82430B0F86C30C3F340336B
:1032C00081F82530B0F86C30C3F3003381F8263034
:1032D000B0F86C30C3F3812381F82730B0F86C303C
:1032E000C3F3012381F8283090F86C00C0F3460046
:1032F00081F8290081F82A200020F0BDFF0FE01F8F
:10330000C26B0A60026C4A60426C8A60826CCA605E
:10331000C26C0A61026D4A61426D8A61806DC8614A
:103320000020704770B5B0F84810002504460068CA
:10333000090401F075FA18B1A16B0143A16304E01F
:103340002068002101F06CFC0546C5F3432070BDE8
:103350002DE9F04190B00C4600260546694601F083
:1033600025FE294F4FF0010840B12A6801269763D6
:10337000AA6B0243AA6385F8348035E000994FF4C4
:103380007F40C1F3811121700099C1F34011617038
:10339000009900EA112242EA11616180019909BA9B
:1033A0006160029921720299090A61720299C1F35E
:1033B0000351A172DDE9022100EA1240C9B20843BB
:1033C000A0810398C0F38520A0730398C0F3012067
:1033D000E0730398C0F303102074039800F00F000B
:1033E00060740498000EA07428684FF4007101F016
:1033F000ECF828B12A6801269763A86385F8348021
:1034000010B03046BDE8F081FF0FE01FF0B50400BA
:1034100085B024D094F83400002538B9A069257708
:1034200008B90220A061204600F096F8032084F835
:103430003400204600F03CF888B969462046FFF782
:1034400087FF60B99DF81010E26B9DF81100012A0A
:1034500008D0E5652046E168FFF7DAFD58B10120A4
:1034600005B0F0BD014302D04FF4007001E04FF40D
:103470008070E065EEE7FDF769FB0127064604E092
:10348000FDF764FB801B401C0AD02046FFF74AFF73
:103490000428F5D1A563256384F834700020DFE7A4
:1034A0004FF00040A06384F834700320D8E7000098
:1034B000FEB5002504464FF48030FEF7C9FB234AD1
:1034C0000646A169B0FBF2F7022904D12068016821
:1034D00041F01001016000952B46CDE90174206890
:1034E0002A46294601F0A0FB206801F0ADFB7800D8
:1034F000B6FBF0F020B11649B1FBF0F0401C00E043
:103500000220FDF7E1F9204601F0AEFC4FF0010585
:1035100030B100BF84F83450A16B0143A16313E0C4
:10352000204601F037FC0028F4D120684FF40071E8
:1035300001F04BF8002808D0226806499163A16B7E
:103540000143A16384F834500120FEBD00350C0016
:1035500010210100FF0FE01FF0B587B004461421D1
:103560006846FDF74CF81A49206888422DD1194861
:10357000016841F480310160006800F480300590FA
:1035800014480C30016841F004010160016801F049
:1035900004010591016841F00801016000680224FE
:1035A0000025694600F00800059003260C274FF41B
:1035B000F8508DE8F1000848FDF798F904206946B5
:1035C0008DE8F1000548FDF791F907B0F0BD000066
:1035D00000700052D444025800080258000C0258EF
:1035E0002DE9F04F87B0994617460D460446FDF782
:1035F000ADFA06903DB194F83400012807D0A06BD5
:1036000040F000500DE0A06B40F0006009E0626DFA
:10361000002007EB0901A063914204D9A06B40F0A0
:103620000070A063A8E0032184F834102168C86208
:10363000E16B012900D07F024FF0020ACDE903A01F
:1036400090264FF0FF324FEA492305908DE84C0059
:1036500080462068694601F0A6F92068B9F1010F9B
:103660004FF00106C16841F04001C16006D9C4F8BD
:1036700030A03946206801F03FF804E0266339465F
:10368000206801F053F8DFF814A150B12368C3F8A3
:1036900038A0A16B0143A16384F83460C4F8308082
:1036A0006AE0DDF804B01FE0406B000414D5BBF104
:1036B000200F11D30027206801F0CCFA020A2870ED
:1036C000010C6A70030EA9707F1CEB70082F05F1C6
:1036D0000405F0D3ABF1200BFDF738FA0699411A37
:1036E0001098814221D200B32068416B11F4957F7C
:1036F000DAD0C16821F04001C1602068416BC90582
:1037000022D5B9F1010F1FD9E16B03291CD001F0BB
:10371000D3F8C8B12368C3F838A0A26B0243A263F0
:1037200084F83460C4F8308026E02268C2F838A0FB
:10373000A06B40F00040A06384F83460C4F830808F
:10374000032007B0BDE8F08F2068416B090706D55C
:10375000C0F838A0A16B404641F0080108E0416B79
:1037600089070BD5C0F838A0A16B404641F0020193
:10377000A16384F8346020630120E2E7416B89068D
:1037800006D5C0F838A0A16B404641F02001EFE714
:103790000349816384F834600020D2E7FF0FE01F03
:1037A0003A0F00182DE9F04F89B09A4616460D469B
:1037B0000446FDF7CBF906903DB194F8340001289A
:1037C00007D0A06B40F000500DE0A06B40F000600F
:1037D00009E0626D002006EB0A01A063914204D962
:1037E000A06B40F00070A063B2E0032184F83410B5
:1037F0002168C862E16B012900D076024FF0FF31E9
:103800004FEA4A22059090230490CDE90230CDE999
:10381000001280462068694601F0C5F82068C1683A
:10382000BAF1010F41F04002C26006D920202063A6
:103830002068314601F083F805E0102020632068FD
:10384000314601F096F8DFF830B106004FF001097B
:103850000AD02368C3F838B0A06B3043A06384F863
:103860003490C4F8308073E00198089027E0406BF2
:1038700040041CD50898202819D3002728780790E1
:10388000697840EA01200790A97840EA0140079052
:10389000E9782D1D40EA01600790206807A901F032
:1038A000F1F97F1C082FE9D3089820380890FDF71C
:1038B0004DF90699411A1298814221D200B320682D
:1038C000416B11F48D7FD2D0C16821F04001C160FD
:1038D0002068416BC90521D5BAF1010F1ED9E16BF2
:1038E00003291BD000F0E8FFC0B12568C5F838B047
:1038F000A16B0143A16384F83490C4F8308027E0C1
:103900002368C3F838B0A26B3243A26384F83490C2
:10391000C4F83080032009B0BDE8F08F2068416B07
:10392000090707D54946C0F838B0A26B404642F0B7
:10393000080209E0416B89070CD54946C0F838B048
:10394000A26B404642F00202A26384F83410206366
:103950000120E0E7416BC90607D54946C0F838B0F9
:10396000A26B404642F01002EEE7044A826384F8FC
:1039700034900020CFE70000FF0FE01F3A0F00183F
:10398000401EB0F1807F10B501D3012010BD4FF073
:10399000E02460610F21601702F01BFF0020A0618E
:1039A0000721216110BD30B590F87C10012918D095
:1039B000012280F87C202421C0F8801000222024DD
:1039C00050F8601B0B680D6823F0005325F00105CB
:1039D0000D60426050F8601C0B6004620277104674
:1039E00030BD022030BD70B5044690F87C0001283F
:1039F0001DD0012284F87C202420C4F88000206897
:103A00000568026822F0010202602068826822F0E4
:103A100060620A438260204601F0A2FC22682021F5
:103A200000201560C4F8801084F87C0070BD02206E
:103A300070BD70B5044690F87C0001281DD00122AD
:103A400084F87C202420C4F880002068056802687F
:103A500022F0010202602068826822F060420A437C
:103A60008260204601F07CFC226820210020156045
:103A7000C4F8801084F87C0070BD022070BD10B5C1
:103A8000040003D0D4F8800010B107E0012010BD7D
:103A9000002084F87C00204600F026F82420C4F89A
:103AA00080002068016821F001010160204601F0DA
:103AB0001DFD0128EBD0A06A10B1204601F082FC68
:103AC0002068416821F4904141602068816821F0BC
:103AD0002A0181602068016841F0010101602046EF
:103AE000BDE8104001F0D2BC10B586B004461421E8
:103AF0006846FCF784FD13492068884220D11248AB
:103B0000016841F010010160006800F010000590AC
:103B10000D481038016841F0010101600068072379
:103B2000022200F00100059000204FF4C0610091D6
:103B30006946CDE90120CDE903030448FCF7D6FE30
:103B400006B010BD00100140F044025800000258B9
:103B5000FEE700000449054810B5FCF791FE024954
:103B6000891E487010BD000007000024D47E0008A4
:103B700070B586B014216846FCF741FD26480168FF
:103B800041F004010160016801F004010591016840
:103B900041F080010160016801F080010591016838
:103BA00041F002010160016801F002010591016824
:103BB00041F010010160016801F0100105910168F8
:103BC00041F008010160016801F0080105910168F8
:103BD00041F00101016000684FF400550F4E0022D2
:103BE00000F00100294605903046FCF7A3FF0024B1
:103BF000009501206946CDE9010430460394FCF7A5
:103C000075FE0221A80000900548CDE901416946F2
:103C1000FCF76CFE06B070BDE04402580008025884
:103C2000001002580A480122F0B4084E2023102444
:103C300040C01625002180E83C00C0E904128161E3
:103C4000C161001FF0BCFDF775BC000000500052C0
:103C5000D4090024084800214FF4804210B5054CD7
:103C60000123C0E90041C0E902120161C0E9051366
:103C700010BD0000007000523400002418480021DC
:103C800010B5164C0C224FF4E1330460C0E9013149
:103C9000C160C0E904128161C16101624162816257
:103CA000FFF7EDFE08B1FCF7E9FD0D480021FFF735
:103CB000C0FE08B1FCF7E2FD09480021FFF793FEC2
:103CC00008B1FCF7DBFD0648FFF76DFE002803D0C6
:103CD000BDE81040FCF7D2BD10BD0000001001404F
:103CE000B4000024FEE7FEE70148FDF7C3B800007A
:103CF000A00500242DE9F041044600690D46202767
:103D0000236801284FF4004604F5717203EB451156
:103D1000D3F840C0D1F8080B09D0DFF89CE0F44597
:103D20003AD1020433D500BFC1F8086B40E0234B01
:103D30005FEA007E04D59C453AD90004F4D437E00C
:103D40005FEA806E02D5C1F8087B31E010F0280FE1
:103D50002ED19C4501D90004E6D4D1F8103BC5EB27
:103D6000C50004EB8000C3F31203D0F80412A1EBEA
:103D70000303C0F81432D0F808321944C0F808120E
:103D800095B9D4F8100278B9206801210AE08006BC
:103D90000AD5C1F8087B07E035B9D4F8100218B984
:103DA0000021184602F0A8FA2046E9B2FCF778FF95
:103DB0000020BDE8F08100000A31544F0A30544F12
:103DC0002DE9F84F0E4605688146C1EBC60100EBB0
:103DD0008104D4E914203C34904202D90120BDE88A
:103DE000F88FA168101A814200D20846C01C05EB6A
:103DF000461887081BE000BFA268A0EB010A5245E5
:103E000000D2924699F810100AF1030000911FFAAF
:103E10008AF3E16887082846F2B202F0C7FCE1683D
:103E200001EB0A00E060A16901EB0A00A061D8F88B
:103E3000180980B2B84205D3D4E90501814201D204
:103E40000028D9D1D4E90501884208D8D5F834181A
:103E5000012006F00F0290408143C5F8341800207D
:103E6000BDE770472DE9F0434B6A4FF040652BB139
:103E7000AA4203D004688B6A5B1E23618B69002B06
:103E800068D00C6AB4B303688C68DC61CC69FCB19F
:103E9000D1E90B38D1F824C04E6B8F8A43EA08036E
:103EA00046EA0C0633430E6A43EA8743D1E9037CB2
:103EB00043EA0C0333438E693B430F682343046892
:103EC00033433B4365E0006849688161BDE8F083A6
:103ED000D1E90B364F6A4C6B8D8A33433C430E69F4
:103EE00023430C6A43EA85438D69334309682343BE
:103EF0002B4362E0FFE7CC69B4F1000918D0D1E9A7
:103F00000B484F6A4E6BB1F814C044EA08043E43B4
:103F10000F683443CE6844EA8C44344344EA0904CD
:103F20001C4303683C431443AA425C61CBD1CDE7F8
:103F3000D1E90B464F6A4D6BB1F814C034433D4391
:103F400000682C43096844EA8C441C430C43144326
:103F50004461BBE70B6AABB303688C68DC61CC6976
:103F6000E4B1D1E90B38D1F824C04E6B8F8A43EA13
:103F7000080346EA0C0633430E6A43EA8743D1E955
:103F8000037C43EA0C0333438E693B4323430468B9
:103F900033431343AA42636195D197E7D1E90B36C6
:103FA0004F6A4C6B8D8A33433C430E6923430C6A42
:103FB00043EA854389693343234300680B43134332
:103FC000436183E7FFE7CC6984B1D1E90B384F6ADD
:103FD0004E6BB1F814C043EA08033E433343CE6846
:103FE00043EA8C43334323430468D2E74C6A002CF2
:103FF0009DD0D1E90B368F8A4D6B01683343254341
:104000002B4343EA8740104348615FE730B595B0E2
:104010000020012110240C900B020D9305230E901B
:104020000A0610928D050190CDE906530F9001AA62
:10403000129041F2883313901490CDE90410CDE929
:104040000214054807A9FDF7DBF9002801D06FF03D
:10405000020015B030BD0000D409002410B58EB0A8
:1040600000214FF48074069462010891D8240B91CA
:104070000C91D3100D910591CDE900400991079362
:10408000039200F0BDF818B16FF001000EB010BD42
:10409000084841F288326946FDF708FA10B16FF01E
:1040A0000300F3E7FFF7B2FF0028EFD06FF0020044
:1040B000ECE70000D409002410B5FFF7B3FD00F0D1
:1040C0003BF800F00BF80449884201D1002010BDF4
:1040D0004FF0FF3010BD00001740EF0010B590B05A
:1040E0004FF4807300205C010693190403940322AB
:1040F00008909F230C90009341F288340B900D9010
:1041000007900590CDE909120A4822466946FDF755
:10411000CDF908480EA92246FDF7E6FA9DF83820A9
:104120009DF839009DF83A1010B0120442EA0020C0
:10413000084310BDD409002470B58EB041F2883414
:1041400000204FF4807166220890CDE9061000929D
:1041500022460B9069460C900D90099005900E48F0
:10416000FDF7A4F94FF0FF3560B9FFF74FFF6FF08F
:10417000020670B999200090074822466946FDF76B
:1041800095F910B128460EB070BDFFF73FFF00282B
:10419000F9D03046F7E70000D40900242DE9F041BA
:1041A000CBB2C3F58074944200D914460D468F18E3
:1041B00006464FF4807800BF00F022F818B16FF087
:1041C0000100BDE8F081A2B22946304600F04EF869
:1041D00010B16FF00400F4E7FFF718FF10B16FF0B3
:1041E0000200EEE7254405F58070B842264401D967
:1041F0007C1B00E04446BD42DED30020E1E7000026
:10420000F0B595B041F2883500242A464FF480700D
:1042100006210E94CDE90C040B94134811941294CA
:1042200013940F94069106A9FDF740F910B1A01E52
:1042300015B0F0BD02200090012143051022052693
:104240000696CDE90221CDE90443C7050190CDE9E9
:104250000F71054806A92B466A46FDF7D1F80028DC
:10426000E6D06FF00200E3E7D409002470B58EB009
:1042700004464FF4807000234501039586000690A4
:1042800008934FF040700C9332250B930D930796D3
:104290000593CDE90902CDE90051FFF7B1FF18B14F
:1042A0006FF001000EB070BD41F288360B48324607
:1042B0006946FDF7FBF86FF0040528B90748324658
:1042C0002146FDF771FA08B12846EBE7FFF79EFE9D
:1042D0000028E7D06FF00200E4E70000D4090024D2
:1042E0002DE9F041984616460F460446069D08E023
:1042F000681C06D0FCF72AFCA0EB0800A8420AD8EC
:104300004DB120688068384000D00120B042EFD124
:104310000020BDE8F081042084F84100606C40F08A
:10432000010060640120F4E72DE9F047454D0446A3
:1043300089464FF0000A2868C04380070AD0414EE2
:10434000283E306820F080603060FCF7FFFB0746B5
:10435000B04608E00120BDE8F08700BFFCF7F6FB9F
:10436000C01B022867D8D8F800000001F6D42068E6
:1043700029684FF4FE0721F47C313E0241EA003007
:104380002860207AA389B4F804C040022D4D2D493D
:104390005B1E227CACF1010C1035091DA0F50070EC
:1043A00080B2521ECCF3080C07EA034340EA0C002B
:1043B000184306EA0262104328600868626920F028
:1043C000C000104308600A68A06922F0200202437E
:1043D0000A60281D0A6822F010020A6002684FF67F
:1043E000F873E4699A4342EAC40202600868B9F1CA
:1043F000000F40F010020A6011D00868B9F1010FF7
:1044000011D040F400100860D8F80000444640F095
:104410008060C8F80000FCF799FB05460DE00868CD
:1044200040F40020EFE740F48010ECE7FCF78EFB4F
:10443000401B022801D903208DE720680001F5D533
:10444000504688E7284402582DE9F047454D044678
:1044500089464FF0000A2868C04380070AD0414EC1
:10446000283E306820F080503060FCF76FFB074634
:10447000B04608E00120BDE8F08700BFFCF766FB0E
:10448000C01B022867D8D8F800008000F6D4208826
:1044900029684FF4FE0721F07C713E0241EA00508A
:1044A0002860207AA389B4F804C040022D4D2D491C
:1044B0005B1E227CACF1010C1835091DA0F50070C3
:1044C00080B2521ECCF3080C07EA034340EA0C000A
:1044D000184306EA0262104328600868626920F403
:1044E0004060104308600A68A06922F40072024329
:1044F0000A60281D0A6822F480720A6002684FF67A
:10450000F873E4699A4342EAC40202600868B9F1A8
:10451000000F40F480720A6011D00868B9F1010FF1
:1045200011D040F080700860D8F80000444640F098
:104530008050C8F80000FCF709FB05460DE008684C
:1045400040F48000EFE740F40000ECE7FCF7FEFAEF
:10455000401B022801D903208DE720688000F5D593
:10456000504688E72844025830B585B004463720C5
:104570004FF480720DF1080CCDE90010002369465C
:10458000150120468CE82C0000F068FB372141F231
:104590008832204600F01AFA05B030BD30B585B03B
:1045A000044629204FF480720DF1080CCDE900106B
:1045B00000236946150120468CE82C0000F04EFBD4
:1045C000204600F0BFFA05B030BD30B504461020DB
:1045D00085B00DF1080C02010502CDE900100023A1
:1045E00069468CE82C00204600F038FB102141F28F
:1045F0008832204600F0EAF905B030BD30B585B00C
:10460000044606204FF480720DF1080CCDE900102D
:1046100000236946150120468CE82C0000F01EFBA3
:10462000062141F28832204600F0D0F905B030BDB5
:1046300030B585B00546002469464FF4805000949B
:1046400001940294CDE90340284600F007FB0B4A91
:104650004FF4FA5041F288311268B2FBF0F048434F
:10466000401E03D24FF0004005B030BD696B090613
:10467000F6D503492046A963F6E700001800002498
:10468000C500200030B50821044685B04FF4D57030
:1046900000254A014B0204938DE827006946204615
:1046A00000F0DCFA134A4FF4FA5041F288311268F4
:1046B000B2FBF0F04843401E03D24FF0004005B07B
:1046C00030BD616B11F0450FF5D08904F3D4606BF8
:1046D000400701D5042003E0606BC00702D0012031
:1046E000A063ECE7606B400601D54020A06328463C
:1046F000E5E700001800002430B585B0044612201C
:104700004FF480720DF1080CCDE9001000236946CA
:10471000150120468CE82C0000F0A0FA122141F28D
:104720008832204600F052F905B030BD30B585B072
:10473000044611204FF480720DF1080CCDE90010F1
:1047400000236946150120468CE82C0000F086FA0B
:10475000112141F28832204600F038F905B030BD11
:1047600030B585B004464FF480710DF1040C07207C
:10477000009200230D018CE82B006946204600F0D2
:104780006DFA072141F28832204600F01FF905B08A
:1047900030BD10B586B00446002102204FF44072AF
:1047A000C3020493CDE90010CDE9022169462046F9
:1047B00000F054FA204600F09BF906B010BD30B569
:1047C00085B0044609200DF1080C0023CDE9001046
:1047D0004FF4407269464FF4805520468CE82C0017
:1047E00000F03CFA204600F083F905B030BD10B56A
:1047F00086B00446002133204FF48072CDE90221B7
:10480000CDE90010130169462046049300F026FA12
:10481000332141F28832204600F0D8F806B010BDAE
:1048200030B585B004460D204FF480720DF1080CB0
:10483000CDE9001000236946150120468CE82C00C4
:1048400000F00CFA0D2141F28832204600F0BEF84B
:1048500005B030BD30B585B00C46002105460320BB
:104860004FF48072CDE90221CDE9001013016946B1
:104870002846049300F0F2F903212246284600F06E
:1048800085F905B030BD10B586B0044600210D2075
:104890004FF48072CDE90221CDE900101301694681
:1048A0002046049300F0DAF90D2141F288322046C7
:1048B00000F08CF806B010BD10B586B004464FF479
:1048C000807200200C2113018DE80700CDE903035D
:1048D000E06840F08000E060E06820F04000E060C8
:1048E0006946204600F0BAF9074A0C21204600F03C
:1048F0006DF8E168B0F1007F21F08001E16000D146
:10490000002006B010BD000000E1F50510B586B02E
:10491000044600210B204FF48072CDE90221CDE93D
:104920000010130169462046049300F097F90B210B
:1049300041F28832204600F049F806B010BD30B58B
:1049400085B0044619204FF480720DF1080CCDE9B2
:10495000001000236946150120468CE82C0000F069
:104960007DF9192141F28832204600F02FF805B078
:1049700030BD30B585B0044618204FF480720DF17B
:10498000080CCDE9001000236946150120468CE88B
:104990002C0000F063F9182141F28832204600F023
:1049A00015F805B030BD70B50A6842624A68826287
:1049B000C46AD1E90225D1E9043624F0FF012A4373
:1049C00033431A431143C162002070BD30B5464DD8
:1049D0004FF4FA53434C2D68B5FBF3F353435B1E7E
:1049E00002D24FF0004030BD426B2242F7D0920419
:1049F000F5D4426B520703D504218163084630BDCC
:104A0000426BD20702D00121816306E0354A803231
:104A100082630269D2B28A4201D0012030BD0021F6
:104A200000F0FEF83149084201D1002030BD0028D5
:104A300002DA4FF0007030BD410001D5402030BD9A
:104A4000810001D5802030BDC10002D54FF48070B7
:104A500030BD010102D54FF4007030BD410102D5D7
:104A60004FF4806030BDC10102D54FF4006030BD0D
:104A7000010202D54FF4805030BD410202D54FF4FF
:104A8000005030BD810202D54FF4804030BDC102DC
:104A900002D54FF4004030BD410302D54FF4003041
:104AA00030BD810302D54FF4802030BDC10302D553
:104AB0004FF4002030BD010402D54FF4801030BD0A
:104AC000410402D54FF4001030BD810402D54FF4EB
:104AD000800030BD000702D54FF4000030BD4FF418
:104AE000803030BD450020001800002408E0FFFDA4
:104AF000124B4FF4FA5141F288321B68B3FBF1F1CB
:104B00005143491E02D24FF000407047426B12F0F1
:104B1000450FF6D09204F4D4416B490703D5042124
:104B2000816308467047416BC90703D00121816347
:104B3000084670470249816300207047180000242E
:104B4000C50020000F4B4FF4FA5141F288321B6828
:104B5000B3FBF1F15143491E02D24FF000407047C0
:104B6000426B12F0450FF6D09204F4D4416B490722
:104B700003D50421816308467047034981630020FF
:104B80007047000018000024C500200030B5204DFB
:104B90004FF4FA5341F288342D68B5FBF3F36343C5
:104BA0005B1E02D24FF0004030BD446B14F0450F45
:104BB000F6D0A404F4D4436B5B0703D504218163CE
:104BC000084630BD436BDB0702D00121816303E05F
:104BD0000369DBB28B4201D0012030BD0D498163F6
:104BE000002100F01DF810F4604F04D0410406D5F8
:104BF0004FF4005030BD000C1080002030BD000488
:104C000002D54FF4805030BD4FF4803030BD0000ED
:104C100018000024C5002000006800F00300704761
:104C2000084440697047000030B511434268DDE92F
:104C300003542B43034D194321432A400A43426046
:104C4000002030BD002CC0FF016841F0030101606D
:104C500000207047D0F880007047000070B5084D04
:104C60000A688260C368D1E90126D1E903412B407B
:104C700032430C4322431343C360002070BD000045
:104C8000C0E0FEFF0968C0F88010002070470000F7
:104C900010B5064C01202070FBF79CFD18B9207858
:104CA00020F001002070207810BD000004000024D6
:104CB0002DE9F04F87B00D460446FBF747FF00266D
:104CC000069020680821B3463746FFF77EFC00288F
:104CD00033D1B4F8481020680904FFF745FC0028D8
:104CE0002BD1431E4FF008094FF0020A4FF0300C51
:104CF0004FF00108CDF80CA08DE80812CDE904684A
:104D000020686946FFF74FFE2068FFF770FD002816
:104D100013D140F22A582068416B11EA080F06D1DE
:104D2000416B090315D4BBF1000F09D011E0416BB1
:104D3000090717D5C0F83890082007B0BDE8F08FF4
:104D4000FFF788FF06462068FFF784FF07464FF00D
:104D5000010BFBF7FBFE0699401A401CDBD14FF01C
:104D60000040EAE7416B890703D5C0F838A002206C
:104D7000E3E7416B890603D5202181630846DCE720
:104D8000034A39BA33BA82630020C5E90013D4E775
:104D90003A0F001810B58CB004460120ADF82C0075
:104DA0002068FFF739FF002853D0E06B032841D07B
:104DB0002068FFF7EEFC002849D120680021FFF7AA
:104DC0002FFF206704212068FFF72AFF6067082172
:104DD0002068FFF725FFA0670C212068FFF720FF60
:104DE000E16BE067032925D020680BA9FFF732FDAE
:104DF00000282CD1E06B03281CD0BDF82C10A16436
:104E000020680904FFF7DBFC002820D1206800217E
:104E1000FFF706FF206604212068FFF701FF6066A8
:104E200008212068FFF7FCFEA0660C212068FFF730
:104E3000F7FEE06604212068FFF7F2FE000D6946E8
:104E400060642046FEF77EF930B14FF080500CB020
:104E500010BD4FF08060FAE7B4F848000023020468
:104E60002068FFF77DFCF2E72DE9F84F00260446A5
:104E7000354637460096FBF769FE80462068FFF707
:104E8000D7FB002867D12068FFF7FCFB4FF0010932
:104E90004FF6FF7A48B126642068FFF7C9FB002867
:104EA00059D1206C012802D01CE0C4F840900021A8
:104EB0002068FFF759FBE0BB14E020680021FFF7F2
:104EC00053FB002847D120685946FFF767FB80BB9A
:104ED00020680021FFF7A4FEC70F05460098401C7C
:104EE000009003E0DFF8C0B056460098B04201D20F
:104EF000002FE2D0B0424FF0807749D2680051D500
:104F0000A169C4F83C9002294CD1E8014AD50802B5
:104F1000E0652068016841F0080101602068FFF742
:104F2000F5FC002817D1FD012068406B400108D432
:104F300000E00EE0FBF70AFEA0EB0800401CF3D1F6
:104F400028E021684FF0806088632068406BC002D1
:104F500003D44FF08050BDE8F88F0120FEF7F0F841
:104F60002068016841F00401016005E0FBF7EEFDF7
:104F7000A0EB0800401C0DD02068406B8001F5D5E7
:104F800021684FF0007088632068416BC90203D527
:104F90003846E0E72846DEE713224FF0FF31026093
:104FA000206881630020D6E7000010C12DE9F041A0
:104FB00086B00D460446FBF7C9FD00210746206870
:104FC000FFF72EFE800104D54FF4006006B0BDE867
:104FD000F08120684021FFF7F8FAC0B9B4F8481012
:104FE00020680904FFF7C0FA88B940214FF0FF306C
:104FF00060224FF0010C022300268DE84F1020683C
:105000006946FFF7D0FC2068FFF73DFC98B1A16B23
:10501000A163DBE7406B000407D500262068FFF79B
:1050200019FE761C082E01C5F8D3FBF78FFDC01BB7
:10503000401C02D127E04FF000482068416B11F47A
:10504000957FE7D0416B090701D50820BEE7416B8A
:10505000890701D50220B9E7406B80060AD52020D8
:10506000B4E700BFFFF7F6FD01C5FBF76FFDC01BFE
:10507000401C08D02068416BC904F3D401460348A2
:1050800088630020A2E74046A0E700003A0F00181E
:1050900070B5064C054601202070FBF7A7FB18B938
:1050A0002846FFF7F5FD2070207870BD040000242D
:1050B000144810B58AB014460078C00702D0032007
:1050C0000AB010BD39B1012907D002290BD003293C
:1050D00010D00420F4E70020F2E76846FBF774FBE9
:1050E000069900200CE06846FBF76EFB079900204C
:1050F0002180E5E76846FBF767FB07990020490A2E
:105100002160DDE70400002470B501241D46164629
:105110000846A31E2A463146FBF78EFB28B900BF7E
:10512000FBF758FB0028FBD10024204670BDFFF799
:10513000AFBD000070B501241D4616460846A31EEB
:105140002A463146FBF788FB28B900BFFBF742FB34
:105150000028FBD10024204670BD704701784078BC
:1051600041EA00207047FBF7F7BC00002DE9F0434F
:10517000CBB04C212FA8FBF742FA202142A8FBF725
:105180003EFABC216846FBF73AFA0220FCF706F922
:10519000364800243649026842F440420260026800
:1051A0000A6842F001020A60096801F001014A91AF
:1051B00001688904FCD52F4802250168EF03082601
:1051C0004FF0050821F003014FF0C009891C4FF092
:1051D000010C016039A8389580E820033C952FA880
:1051E0003D953E95CDE93F644194CDE92FC7FDF74C
:1051F0008BFC08B172B6FEE740203F210301CDE9E8
:1052000045600322CDE9470342AB499042A883E8B9
:1052100016000421FDF768FA08B172B6FEE701A98D
:10522000154A19200092B42381E829002022CDF8E4
:1052300028900426CDE90840CDE90642CDE904587E
:10524000CDE90B56CDE90D5410040F94CDE912476A
:1052500010941E9421906846FCF7E8FD08B172B6E0
:10526000FEE7FCF7C5F84BB0BDE8F08318480258DC
:105270002C04005828440258010005022E48F0B5BD
:105280002E4A016841F470010160106800F00F00BF
:10529000072804D2106820F00F00C01D10602849B4
:1052A0000020274C10340B68264D43F001030B609F
:1052B00020600B682B400B60136803F00F03072B73
:1052C00004D9136823F00F03DB1D13601C4C1E4A26
:1052D00018341E4B261D371D2060194C1C4D2834D8
:1052E0003060261D3860371D23603B1D35601C1D56
:1052F0003A60251D2E1D1860331D22602860326023
:1053000018600A680E4B134C22F4802260330A6046
:10531000186020686FF30F00B0F1005F03D20E49F0
:105320000120C1F8080143F2D2000C49024B4A03A4
:10533000803B08601A60F0BD88ED00E0002000525C
:10534000004402587FEDF6EA8002010100020202E9
:105350000000FF010010005C00800051004000527E
:105360003FB514A1D1E9002314A1CDE90023D1E96F
:105370000021CDE90221416EB9B1016802AC8A6811
:105380008968C2F34262490F1DF80150615C2D012A
:10539000B5FBF1F1A0F86A101DF80210A25C09013A
:1053A000B1FBF2F1A0F868103FBD0121A0F86A102E
:1053B000F8E70000010101030701000008040204EE
:1053C0000801010190F82810C90706D00168C36AD6
:1053D0004A6822F400321A434A6090F8281089077C
:1053E00006D50168036B4A6822F480321A434A608A
:1053F00090F82810490706D50168436B4A6822F4E3
:1054000080221A434A6090F82810090706D50168DF
:10541000836B4A6822F400421A434A6090F82810CD
:10542000C90606D50168C36B8A6822F480521A4304
:105430008A6090F82810890606D50168036C8A688E
:1054400022F400521A438A6090F82810490611D5B8
:105450000168436C4A6822F480121A434A60416C26
:10546000B1F5801F06D10168836C4A6822F4C0023E
:105470001A434A6090F82810090606D50168C26CE4
:10548000486820F40020104348607047F8B50026B3
:105490000446C0F88860FBF759FB054620686FF0AA
:1054A0007E470068000708D500222B464FF4001104
:1054B0002046009700F0F2F960B9206800684007C4
:1054C0000AD500222B464FF480012046009700F0B9
:1054D000E5F908B10320F8BD2020C4F8800084F865
:1054E0007C60C4F884000020F8BD00002DE9F04382
:1054F00004468068D94F87B02268D4E90465E3691F
:10550000616E304316681D432843D54B0025014387
:105510003E400E4316602068E268416821F4405125
:10552000114341602268A1699A4201D0206A014377
:105530009668DFF830C3CC4FCC4806EA0C060E4321
:1055400096602168666ACA6A22F00F023243CA6214
:105550002268BA420ED1006800F03800182873D0D3
:1055600047DCB8B3082879D010286FD178E0282814
:105570007ED17BE0BE498A4209D1006800F0070075
:10558000062875D2DFE800F0546A6C6E7072B94973
:105590008A4209D1006800F00700062868D2DFE8D7
:1055A00000F0475D5F616365B3498A4209D10068D5
:1055B00000F0070006285BD2DFE800F03A505254B2
:1055C0005658AE498A420BD1006800F00700062801
:1055D0004ED200E010E0DFE800F02B4143454749A0
:1055E000A7498A420AD1006800F03800182839D04B
:1055F000B7DD2028BBD13CE001203AE0A1498A4236
:1056000009D1006800F00700062831D2DFE800F079
:105610001026282A2C2E9C498A420BD1006800F0C3
:105620000700062824D2DFE800F003191B1D1F2104
:1056300000201EE09A421BD18C48001D006800F03B
:105640000700062814D202E00CE007E010E0DFE8D3
:1056500000F0030507090B0D02200AE0042008E012
:10566000082006E0102004E0202002E0402000E0B6
:1056700080208649DFF818829A42864A4FF4004318
:105680004FEA21174FF000064ED110281AD006DC41
:10569000022809D004280BD008287DD10DE020284D
:1056A0003ED0402878D13DE0FCF7DAF8014610E022
:1056B0006846FCF789F901990BE003A8FCF726FA84
:1056C000049906E01068800604D51068C0F3C10094
:1056D000C140C1B3606A676838F8102007EB470320
:1056E000B1FBF2F0834257D8B0EB073F54D8002308
:1056F00008461946FAF744FE0902020241EA10611F
:1057000070084FEA370010183A4671410023FAF743
:1057100037FE614AA0F5407191423DD821684CE0C6
:105720003946D7E71946D5E7D4F81CC04FF6EF79CC
:105730009C4552D108281AD006DC60B101280DD052
:10574000042829D10EE039E0102815D0202840D0B7
:1057500040287CD13FE0FDF717F901E0FDF726F97D
:10576000014610E06846FCF72FF901990BE003A809
:10577000FCF7CCF9049906E01068800604D510689F
:10578000C0F3C100C140C9B1636A606838F8133022
:10579000B1FBF3F1490000E059E001EB5001B1FB2E
:1057A000F0F080B2A0F11001494550D84FF6F073E7
:1057B0002168C0F3420218401043C8600120A4F8D9
:1057C0006A00A4F868002846E666266707B0BDE8C8
:1057D000F0833946D8E71946D6E7082819D005DC02
:1057E00058B101280CD0042831D10DE0102815D073
:1057F00020282ED040282AD12DE0FDF7C5F801E061
:10580000FDF7D4F8014610E06846FCF7DDF8019991
:105810000BE003A8FCF77AF9049906E0106880060B
:1058200005D51068C0F3C100C1400029C6D0636A25
:10583000606838F81330B1FBF3F101EB5001B1FBB4
:10584000F0F080B2A0F1100149457FF667AF012565
:10585000B4E73946EBE71946E9E70000F369FFCF03
:10586000000C0058FFF4FF1100100140544402588E
:105870000044004000480040004C00400050004000
:105880000014014000780040007C00400090D003EC
:10589000E87E000800440258FFFC0F002DE9F047A5
:1058A0009A4617460E460446089D4FF000094FF0F1
:1058B000200839E0681C37D0FBF748F9A0EB0A0054
:1058C000A84222D80DB32068016849072CD5C069C9
:1058D000C043000528D423684FF400611962216891
:1058E0000B6823F4D0730B6021688B6823F00103ED
:1058F0008B60C4F88080C4F88480C4F8888000BFBE
:10590000032084F87C90BDE8F08721680B6823F4BD
:10591000D0730B6021688B6823F001038B60C4F89F
:105920008080C4F88480EBE72068C06936EA000014
:1059300004D00020B842BDD00020E4E70120F9E700
:1059400010B5D0F8B8220AB152689047002010BDB7
:1059500013460A46002110B500F07BF9002010BD67
:1059600013460A46002110B500F007FA002010BDCA
:1059700010B58021044600F0EEF92046BDE8104045
:10598000002100F0E8B90521002310B51A46C0F83F
:105990009412194600F05DF9002010BD10B5826127
:1059A0000223C0F894321346C2610A46002100F077
:1059B000E4F9002010BD0421002310B51A46C0F8F8
:1059C0009412194600F0D9F9002010BDF8B504462C
:1059D0000D460020ADF800004888010A08295FD272
:1059E000DFE801F05E0409175E5E3C45D4F8B412AE
:1059F000207C0A6819E0207C02260028D4F8B8022E
:105A000005D0C16A684688470146467039E0816A18
:105A1000F8E7C0B2062843D2DFE800F0030A10140A
:105A2000181CD4F8B402426805E0694690471CE0AF
:105A3000D4F8B402826892B3207CF6E7D4F8B402BA
:105A4000C268F8E7D4F8B4020269F4E7D4F8B40203
:105A50004269F0E7D4F8B4028269ECE7207CF0B93F
:105A6000D4F8B802416B68468847014609E0207CBB
:105A7000A8B9D4F8B802016B6846884701460720E8
:105A80004870EA888AB1BDF8000040B1824200D96E
:105A900002462046ADF80020FFF780FFF8BDFFE783
:105AA00029462046FFF764FFF8E72046FFF783FF0B
:105AB000F4E701004FF0000004D0012901D00229D1
:105AC00001D0032070470120704710B5D0F8C40200
:105AD000FBF7F4F8BDE81040FFF7EBBF70B51646D2
