:0200000490006A
:1000000090130524B9030090CF490090A3420090BB
:10001000CD490090510800905D75009000000000EF
:10002000000000000000000000000000955A009051
:10003000D1080090000000004B4B0090A15A0090A6
:10004000D3030090D3030090D3030090D303009018
:10005000D3030090D3030090D3030090D303009008
:10006000D3030090D3030090D3030090D3030090F8
:10007000D3030090D3030090D3030090D3030090E8
:10008000D3030090D3030090D3030090D3030090D8
:10009000D3030090D3030090D3030090D3030090C8
:1000A000D3030090D3030090D3030090D3030090B8
:1000B000615C0090D3030090D3030090D3030090C1
:1000C000D3030090D3030090D3030090D303009098
:1000D000D3030090D3030090D3030090D303009088
:1000E000D3030090D303009000000000D3030090DE
:1000F000D3030090D3030090D3030090D303009068
:10010000D3030090D3030090D3030090D303009057
:10011000D3030090D3030090D3030090D303009047
:10012000D3030090D3030090D3030090D303009037
:10013000D3030090D3030090D3030090D303009027
:1001400000000000000000000000000000000000AF
:10015000D3030090D3030090D3030090D303009007
:10016000D3030090D3030090D3030090D3030090F7
:10017000D3030090D3030090D3030090D3030090E7
:10018000D3030090D3030090D3030090D3030090D7
:10019000D3030090D3030090D3030090D3030090C7
:1001A000D3030090D3030090D3030090D3030090B7
:1001B000D3030090D3030090D3030090D3030090A7
:1001C000D3030090D3030090D3030090D303009097
:1001D000D3030090D1490090D3030090D303009043
:1001E000D3030090D3030090D3030090D303009077
:1001F000D3030090D3030090D3030090D303009067
:10020000D3030090D3030090D3030090D303009056
:10021000D3030090D3030090D3030090D303009046
:10022000D3030090D3030090D3030090000000009C
:10023000D3030090D303009000000000D30300908C
:10024000D3030090D3030090D3030090D303009016
:10025000D3030090D3030090D3030090D303009006
:10026000D3030090D3030090D3030090D3030090F6
:10027000D3030090D3030090D3030090000000004C
:10028000D3030090D3030090D3030090000000003C
:1002900000000000D303009000F002F800F062F8C4
:1002A0000AA090E8000C82448344AAF10107DA45D1
:1002B00001D100F057F8AFF2090EBAE80F0013F0C1
:1002C000010F18BFFB1A43F001031847D473000055
:1002D000F47300000A444FF0000C10F8013B13F0D7
:1002E000070408BF10F8014B1D1108BF10F8015B8F
:1002F000641E05D010F8016B641E01F8016BF9D182
:1003000013F0080F1EBF10F8014BAD1C0C1B09D1D8
:100310006D1E58BF01F801CBFAD505E014F8016B4A
:1003200001F8016B6D1EF9D59142D6D370470000DC
:100330000023002400250026103A28BF78C1FBD8EE
:10034000520728BF30C148BF0B6070471FB507F088
:100350008FF99DE8030000F03BF900F0B8F81FBDED
:1003600010B510BD00F090F91146FFF7EFFF07F050
:1003700011F900F0AEF903B4FFF7F2FF03BC00F08F
:10038000DFF900000B49D1F800C04A685CF8043B73
:100390001068184442F8040B8C4528BFA1F1DC0C0E
:1003A0008A4228BFA1F1DC02C1F800C04A6020F0F7
:1003B0000040704728CD0424094880470948004779
:1003C000FEE7FEE7FEE7FEE7FEE7FEE7FEE7FEE705
:1003D000FEE7FEE704480549054A064B7047000062
:1003E000C15B00909902009090CD042490130524E5
:1003F00090EF042490EF042470B5064600F0CCF88A
:10040000056806F10B0020F00704B4429CBF0020F1
:1004100070BD2B466A68BAB11068A04210D304F1CF
:10042000080188423CBF5068586007D351681019D2
:1004300041601168091B016058601460101D70BD97
:1004400013465268002AE7D12146284600F0ACF84E
:100450000028DED170BD70B50446051F00F09CF881
:100460000068002C14BF446870BD002C18BFAC425B
:100470003CBF20466468F8D301680A18AA4218BF36
:10048000456003D12A680546114401602868411976
:10049000A1421CBF6C6070BD61686960216808443E
:1004A000286070BD0B4910B5A1F17C020A4CC2E96D
:1004B0003712372106E000EB104342F82130074B9A
:1004C00000FB03400B1EA1F10101F4DC10BD012073
:1004D000E8E70000C8CC0424E119D666CD0D010080
:1004E00010B5203AC0F00B80B1E81850203AA0E8CF
:1004F0001850B1E81850A0E81850BFF4F5AF5FEA03
:10050000027C24BFB1E81850A0E8185044BF18C9B5
:1005100018C0BDE810405FEA827C24BF51F8043B5C
:1005200040F8043B08BF7047D20728BF31F8023BB0
:1005300048BF11F8012B28BF20F8023B48BF00F844
:10054000012B70474FF0000200B5134694469646C3
:10055000203922BFA0E80C50A0E80C50B1F12001D6
:10056000BFF4F7AF090728BFA0E80C5048BF0CC084
:100570005DF804EB890028BF40F8042B08BF7047E2
:1005800048BF20F8022B11F0804F18BF00F8012B54
:1005900070477047704770470048704738CD042453
:1005A000704770477047704738B504460A460020C8
:1005B0006946AFF30080002808BF38BD02460099A5
:1005C000204600F03FF8012038BD012000F054B86B
:1005D000F8B5AFF30080054600200C46102000BFA0
:1005E0000646A819A0420DD9324669460020AFF34D
:1005F0000080070008BF00F03FF80098A04218BF35
:100600000546C419FFF7C8FF05600746F01D20F036
:1006100007004619284600F00AF8B44208BFF8BDA2
:10062000A21B31463868BDE8F84000F00BB8002145
:100630000160C0E901107047102070470048704702
:1006400030CD0424034640688C46002818BF8842F9
:100650003CBF03464068F8D318681844884207D066
:100660000CF1030020F00700001D411A521A014648
:10067000081D0A60FFF7EFBE10B500F039F8BDE8BD
:10068000104000F02FB870477546FFF7D7FFAE4611
:1006900005006946534620F00700854618B020B58E
:1006A000FFF798FEBDE820404FF000064FF000072E
:1006B0004FF000084FF0000B21F00701AC46ACE80A
:1006C000C009ACE8C009ACE8C009ACE8C0098D4677
:1006D000704710B50446AFF300802046BDE81040D7
:1006E000FFF749BE002801D000F02AB8704700008B
:1006F00010B5012805D0002103A000F027F8012043
:1007000010BD09A1F8E7000053494752544D454D2B
:100710003A204F7574206F662068656170206D65A2
:100720006D6F7279000000003A2048656170206D9D
:10073000656D6F727920636F727275707465640095
:1007400001491820ABBEFEE72600020070B5054641
:100750000C460A2000E06D1C00F011F835B1287835
:100760000028F8D102E0641C00F009F814B12078E8
:100770000028F8D1BDE870400A20AFF3008008B52A
:1007800069468DF800000320ABBE08BD03484FF456
:10079000004110B500F0ECF9012010BD0010025826
:1007A0000146014802F01CBE04020024044810B5B2
:1007B00002F028FE042801D0012010BD002010BD49
:1007C0000402002410B500F015F8012801D0022021
:1007D00010BD074802F08AFE040006D104484FF419
:1007E000804102F085FC00B10124204610BD0000CC
:1007F0000402002408B501208DF80000FFF7C6FFB1
:1008000010B900208DF800009DF8000008BD000020
:1008100038B50024009313460A460146034802F007
:100820004FFF00B10124204638BD0000040200241F
:1008300038B50024009313460A460146034803F0E6
:1008400021F800B10124204638BD00000402002434
:10085000FEE7002070470020704700000549002295
:10086000054810B505F0A2FB0449034805F098FBC4
:10087000002010BD2810002458030024280800245C
:100880000F4A10B50868116808440E49B0F5006FAA
:1008900010600FD28B1EC35C0D2B0BD04B1EC35CA4
:1008A0000A2B07D00144084805F07AFB064805F0FA
:1008B0005CFB03E00124546000230B54002010BDB6
:1008C0005800002428080024580300240020704702
:1008D000704772B6FEE70022AFF300800E4B70B592
:1008E00005465C7A0120002C14D15E7A03F10800E1
:1008F0009C555E7A03EB860675605D7A2A54587AB9
:10090000421C5A723A232F22303008704B70204616
:100910008A70CC7070BD0000301C002470B5044695
:1009200000F03EF90546601C02D0044800780444FB
:1009300000F036F9401BA042FAD370BD74000024C9
:100940002DE9FC4F01257E4C00234FF0030A4FF0A8
:10095000B04E4FF00F0BEBE005FA03F637403A00CC
:1009600077D04F68012F05D0022F03D0112F01D06F
:10097000122F1AD187684FEA4308D1F80CC00AFA3F
:1009800008F927EA09070CFA08FC4CEA070CC0F83A
:1009900008C0476891F804C0B743CCF3001C0CFAB8
:1009A00003FC4CEA070CC0F804C0C6684FEA430CCD
:1009B000D1F80880E1460AFA0CF7BE43019708FA1D
:1009C00009F848EA0608C0F80C804E68022E01D0EB
:1009D000122E12D1DE084FEA437C00EB8606009609
:1009E0000F69366A4FEADC6C0BFA0CF807FA0CF761
:1009F00026EA08063743009E37620E790768DDF85D
:100A000004C006F0030606FA09F627EA0C073E437F
:100A100006604E68F6001CD54A4E376847F002075C
:100A2000376036689F0706F00206009623F003063B
:100A300006F1B046B1463F0FD6F80864DFF80881EA
:100A40000BFA07FC404526EA0C0603D14FF0000CD8
:100A500041E06CE0DFF8F4C0604502D14FF0010CDA
:100A600039E0DFF8ECC0604502D14FF0020C32E013
:100A7000DFF8E0C0604502D14FF0030C2BE0DFF857
:100A8000D8C0604502D14FF0040C24E0DFF8CCC0A0
:100A9000604502D14FF0050C1DE0DFF8C4C0604591
:100AA00002D14FF0060C16E0DFF8B8C0604502D165
:100AB0004FF0070C0FE0DFF8B0C0604502D14FF0F7
:100AC000080C08E0DFF8A4C0604502D14FF0090C23
:100AD00001E04FF00A0C0CFA07FC4CEA060CC9F8CE
:100AE00008C426684F6826EA0206FF0300D51643AD
:100AF000266066684F6826EA0206BF0300D51643E3
:100B00006660D1F804C07646DEF800705FEACC2C4F
:100B100027EA020700D517433760D1F804C0776889
:100B20005FEA8C2C27EA020700D5174377605B1C2D
:100B30000A681746DA407FF40FAFBDE8FC8F00006B
:100B400080000058F4440258000002580004025883
:100B500000080258000C02580010025800140258F5
:100B600000180258001C02580020025800240258A5
:100B70000069084000D001207047426931EA020252
:100B800000D10904816170470AB18161704709048D
:100B9000FBE7000001480068000C70470010005C93
:100BA00001488068704700007400002430B590F858
:100BB0004120202A24D190F84020012A20D001236E
:100BC00080F84030242280F841202023002402684D
:100BD000156825F0010515600268156825F4805533
:100BE0001560026815680D43156001680A6842F0D7
:100BF00001020A6080F8413080F84040002030BD9A
:100C0000022030BD30B590F84120202A22D190F842
:100C10004020012A1ED0012380F84030242280F891
:100C20004120202400250268136823F0010313608B
:100C30000268136823F4706343EA012111600168BC
:100C40000A6842F001020A6080F8414080F8405092
:100C5000002030BD022030BD074908B50A6842F0C7
:100C600002020A60096801F00201009103490A6862
:100C700002430A6008BD0000F4440258040400580E
:100C800070B5040004D094F84100002510B106E0CE
:100C9000012070BD204684F8405000F04DF824201B
:100CA00084F841002068016821F001010160D4E965
:100CB000001020F0706008612068816821F4004114
:100CC0008160E06821680128A06806D040F40440F3
:100CD0008860E068022803D006E040F40040F7E7AF
:100CE00021684FF40060486020212068114A436861
:100CF000134343602068C26822F40042C26054F883
:100D0000106B0DCC104340EA0320F06054F81C3CFB
:100D1000D4E900021043186054F81C0D026842F038
:100D200001020260656484F84110256384F8425032
:100D3000002070BD0080000210B586B0044614216A
:100D40006846FFF7FFFB13492068884220D112480C
:100D5000016841F00201016000680423122200F0E2
:100D60000200059000204FF4406100916946CDE9F2
:100D70000120CDE903030948FFF7E2FD06480830EA
:100D8000016841F480010160006800F48000059072
:100D900006B010BD00580040E0440258000402585C
:100DA0000248816802781144816070477400002411
:100DB000032010B500F086F801F028FE0F4A104914
:100DC00014681368C4F3032203F00F038A5CC95C40
:100DD00002F01F0201F01F01D0400A4A20FA01F17F
:100DE000116009490860002000F010F808B10120E6
:100DF00010BD00F02BF8002010BD00001844025870
:100E000090760090840000248000002470B50D4D81
:100E100004462878A0B14FF47A71B1FBF0F00A498A
:100E20000968B1FBF0F003F00AF848B9102C07D2BA
:100E300000222146501E00F025F800206C6070BD95
:100E4000012070BD7400002480000024054808B50E
:100E5000016841F002010160006800F002000090AA
:100E600008BD0000F4440258002809DB410900F0E5
:100E70001F028900012001F1E0219040C1F800012A
:100E8000704700000E4BF0B41B680D46C3F30223FD
:100E9000C3F10706042E00D90426191D072901D223
:100EA000002300E0DB1E012404FA06F19C40491EE9
:100EB0002940641E994014402143F0BC06F04FBB0A
:100EC0000CED00E0064900F0070210B54FF6FF04F4
:100ED0000868044B204040EA02201843086010BD17
:100EE0000CED00E00000FA0501680123C0F8FC33B6
:100EF000002280F8F4238869044A40F00060886189
:100F0000486D104348650020704700000300001042
:100F100070470068416200207047F0B503685D6A61
:100F200039B19F6A4C1E00204FF4827605EB1745BD
:100F30000BE045EA0240986210E0471C06EB800097
:100F400053F800C0F8B205EB1C45A042F5D34FF4AE
:100F5000807000EB810045EA02421A500020F0BD8B
:100F6000D0F8040405F0AABAC1EBC10200EB82027A
:100F7000D0F80404926C05F015BAC1EBC10200EB85
:100F80008202D0F80404D2F8082205F060BAD0F842
:100F9000040405F095BA01F00F020B0670B5C2EB20
:100FA000C20104464FF001004FF0000504EB81013F
:100FB00003D581F83D003C3103E081F8FD5101F596
:100FC000FE710A7094F8BC23012A08D084F8BC038F
:100FD000206805F011FE002084F8BC5370BD02208B
:100FE00070BD70B54268044601F00F00904201D90F
:100FF000012070BD01F00F024FF000050B06C2EB9F
:10100000C2014FF0010204EB810103D581F83D20BC
:101010003C3103E081F8FD5101F5FE718D700870DF
:1010200094F8BC03012808D084F8BC23206805F09C
:10103000DDFF002084F8BC5370BD022070BD01F0BC
:101040000F01C1EBC10100EB8100D0F81402704721
:101050002DE9F04101F00F0604460D064FF00100A6
:10106000C6EBC6014FF0000504EB810103D581F802
:101070003D003C3103E081F8FD5101F5FE714F78F0
:101080008A60CB700E7007B1CE80022B00D10D713B
:1010900094F8BC23012A09D084F8BC03206805F029
:1010A00005FD284684F8BC53BDE8F0810220FBE72B
:1010B00070B501F00F050C460026C5EBC50100EB2D
:1010C0008101C1F80822C1E9843681F8FD6181F807
:1010D000FC5101F5FE710369012B00D10A61220761
:1010E000027C006803D005F0D9FF002070BD05F038
:1010F000C3FEFAE770B50D464168044605F00F00DF
:10110000884201D9012070BD29064FF000064FF03A
:10111000010207D5C0EBC00104EB810181F83D203D
:101120003C3107E0C5EBC50104EB810181F8FD61AD
:1011300001F5FE718A70087094F8BC03012807D08D
:1011400084F8BC23206805F07DFF280702D007E063
:10115000022070BD217C04F57172206805F01AFF31
:10116000002084F8BC6370BD2DE9F04101F00F054B
:101170000C460026C5EBC501012700EB81018A64FE
:10118000C1E9143681F83D7001F83C5F0369012B19
:1011900000D10A612207027C006804D005F07EFFBE
:1011A0000020BDE8F08105F067FEF9E72DE9FC5F5E
:1011B00005680446284606F09AF800287ED1206883
:1011C00006F0C1F8002879D0206806F0BCF8800746
:1011D00004D52068416901F002014161206806F0F0
:1011E000B2F8C10604F57170009034D520688169A9
:1011F00021F0100181612F6A07F00F01C7F343400E
:10120000C1EBC101022804EB810606F5FE7602D08F
:10121000062811D01AE047F6F070074216D0C7F33F
:101220000A12F1681746284606F091F8F168B0698D
:101230003944F160384408E000990822284606F055
:1012400086F8B069C7F30A110844B0612068816963
:1012500041F010018161206806F075F800034FF03D
:1012600001094FF0080B5BD52068002606F04AF80C
:10127000DFF8A8A3074651E0F8074DD02068F1B287
:1012800006F059F88046C00707D005EB4611C1F8B3
:10129000089B3146204603F0A1FB5FEA087022D587
:1012A00005EB4611C1F808BB2068016C00EB461045
:1012B00001915145D0F8081B07D900E0ABE10904C2
:1012C00003D54FF40041C0F8081B204600F098FAFF
:1012D0000198504507D92069012804D120680121CF
:1012E000009A05F057FE5FEAC86004D505EB461189
:1012F0001020C1F8080B5FEA886004D505EB4610A2
:101300002021C0F8081B5FEA884005D505EB46118F
:101310004FF40050C1F8080B7F08761C002FABD1AA
:10132000206806F010F840034FF0000A5CD52068F2
:1013300005F0E1FF0026074654E0F80750D020688A
:10134000F1B205F0E6FF8046C00723D0D5F8342877
:1013500006F00F0C05EB461309FA0CF08243C5F8B2
:101360003428C3F80899206901280FD1C6EBC600BC
:1013700004EB8000D0E911121144816436B9206D6C
:1013800020B920680121009A05F004FE2046F1B240
:10139000FFF7EAFD5FEA087003D505EB4611C1F8D7
:1013A00008B95FEAC86004D505EB46111020C1F802
:1013B00008095FEA486004D505EB46114020C1F8F2
:1013C00008095FEA887004D505EB46110220C1F8D0
:1013D00008095FEA086003D53146204603F064FB44
:1013E0007F08761C002FA8D1206805F0ACFF0028EC
:1013F00011DAD5F8040820F00100C5F8040894F8C3
:10140000F403012839D0204600F0DEF92068416954
:1014100001F000414161206805F095FF00050BD502
:10142000D5F80808C00702D0204600F011FA20685D
:10143000416901F400614161206805F084FF000109
:101440000AD52068416901F00061416194F8F40314
:10145000D0B1204600F0FCF9206805F074FFC0040C
:1014600076D5D5F8040820F00100C5F804082068F6
:10147000102105F01DFF002135E00021204684F8F1
:10148000F4A3FFF745FDC1E784F8F4932068406DAD
:101490000121C0F38300C4F8F8032046FFF738FDAC
:1014A000DAE700BF05EB41104FF67F32C0F808299C
:1014B000D0F8003923F40013C0F80039D0F800390F
:1014C00043F00063C0F80039C0F8082BD0F8002BB7
:1014D00022F40012C0F8002BD0F8002B42F000627A
:1014E000C0F8002B491C60688842DBD8D5F81C087E
:1014F00040F00110C5F81C08206B60B1D5F88408D5
:1015000040F00B00C5F88408D5F8440840F00B0003
:10151000C5F844080CE0D5F8140842F22B01084342
:10152000C5F81408D5F8100840F00B00C5F81008ED
:10153000D5F8000820F4FE60C5F80008217C20687A
:10154000009A05F027FD2068416901F4805141614E
:10155000206805F0F8FE800417D5206805F0E6FA4B
:10156000206805F0B7FEE06001F02EFA0146207B0E
:101570002368C2B2184605F021FF204600F00EF99C
:101580002068416901F400514161206805F0DBFEEB
:10159000000707D5204600F01BF92068416901F0DB
:1015A00008014161206805F0CEFEC00208D5002187
:1015B000204600F035F82068416901F4801141614E
:1015C000206805F0C0FE800208D50021204600F00A
:1015D0002BF82068416901F400114161206805F091
:1015E000B2FE400007D52046FFF7BAFC20684169EB
:1015F00001F080414161206805F0A5FE40070AD551
:1016000020684568680702D52046FFF7C0FC2168BE
:10161000486828434860BDE8FC9F00000A30544FEA
:10162000D0F8040404F0A0BFD0F8040404F09EBF76
:101630002DE9F04104008AB005D094F8BD030025DF
:10164000266820B108E001200AB0BDE8F0812046FC
:1016500084F8BC5300F066F8032084F8BD03F06BF7
:10166000C00500D42561206805F000FC04F11001DC
:10167000684628228846FEF733FF94E80F0005F0FD
:1016800063FA0227D8BB2068002105F06EFE002017
:10169000012610E0C0EBC001421C04EB810181F87F
:1016A0003D6081F83F504D648D640D6581F83C00CC
:1016B000A1F84200D0B261688142EBD8002011E06D
:1016C000C0EBC001421C04EB810181F8FD5181F89F
:1016D000FF51C1F80452C1F80852C1F8105281F804
:1016E000FC01D0B261688142EAD8282241466846AE
:1016F000FEF7F6FE94E80F0005F0FCFA10B184F84E
:10170000BD73A0E7606A84F8385084F8BD6301288F
:1017100002D12046FFF7E8FB206805F0DFFA002041
:1017200092E7000010B586B0044614216846FEF723
:1017300009FF17492068884228D11648016841F0FE
:101740000101016000680A23022200F001000590F7
:1017500000204FF4C05100916946CDE90120CDE948
:1017600003030D48FFF7ECF80A480838016841F018
:101770000061016000680022114600F000600590E1
:101780006520FFF77FFB6520FFF76EFB06B010BDFD
:1017900000000840E04402580000025870B50446BA
:1017A000C068012570B1022801D0FFF792F8D4F883
:1017B0000404294604F030FFD4F80404BDE8704066
:1017C00004F0EBBE0025F2E7D0F8040404F00EBFED
:1017D000D0F8040404F014BF10B5044690F8BC031C
:1017E00001280BD0012084F8381084F8BC0320684D
:1017F00005F0D2FD002084F8BC0310BD022010BD0E
:10180000D0F8042400F57171104604F011BF10B532
:1018100090F8BC1304460068012906D0A26A012191
:1018200084F8BC13012A02D008E0022010BDA1698F
:10183000012903D0816B41F480318163206805F078
:1018400041FA206805F01EFD002084F8BC0310BD9D
:1018500010B50446D0F8040404F02AFF2068D0F83C
:10186000001E41F00101C0F8001E206A002804D0CB
:101870000248016841F00601016010BD10ED00E072
:10188000134970B50A68D243520705D5096801F0BB
:101890000701814213D118E00A6822F007020243CF
:1018A0000A60FFF77DF90A4D4FF47A760446083D49
:1018B00007E000BFFFF774F9001BB04201D9012017
:1018C00070BD2868C0438004F4D4002070BD0000BF
:1018D0000C4802580248016841F08071016070476D
:1018E0000C48025810B501F06FF805490968054A1F
:1018F000C1F30211515C01F01F01C84010BD00008E
:101900002044025890760090494930B5484C0B1D50
:101910000A680C3409681D68246802F0030305F0A6
:101920000102C1F30511C4F3CC04002914FB02F237
:1019300000EE102AF8EE400A75D03F4A9FED3D1A9E
:10194000B7EE000A6BB1DFED3D1A012B01D0022B7F
:1019500064D002EE101A1168F8EE422A81EEA22A33
:1019600021E0334C283C23689B0612D5344B246875
:1019700001EE901A1168C4F3C104F8EE612AE34045
:1019800001EE903AC1F30801F8EE611A81EEA22A45
:101990000BE001EE901ADFED2B2A00BFF8EE611A82
:1019A000116882EEA12AC1F3080101EE901A1168B4
:1019B000F8EE611A40EE811A71EE800A62EE200A9A
:1019C000C1F3462101EE101AB8EE411A31EE001AA9
:1019D000C0EE811ABCEEE11A80ED001A1168C1F365
:1019E000064101EE101AB8EE411A31EE001AC0EEAF
:1019F000811ABCEEE11A80ED011A1168C1F306618B
:101A000001EE101AB8EE411A31EE000A80EE801A8B
:101A1000BCEEC10A80ED020A30BD04E001EE901A6E
:101A2000DFED092ABAE70021016041608160F3E738
:101A30002844025800000039304402580024744AF7
:101A40000090D0030024744C20BCBE4B494930B5F3
:101A5000484C0B1D0A68143409681D68246802F09C
:101A60000303C5F30012C1F30531C4F3CC0400290C
:101A700014FB02F200EE102AF8EE400A75D03F4A3D
:101A80009FED3D1AB7EE000A6BB1DFED3D1A012B59
:101A900001D0022B64D002EE101A1168F8EE422A2F
:101AA00081EEA22A21E0334C283C23689B0612D504
:101AB000344B246801EE901A1168C4F3C104F8EEA7
:101AC000612AE34001EE903AC1F30801F8EE611A91
:101AD00081EEA22A0BE001EE901ADFED2B2A00BF67
:101AE000F8EE611A116882EEA12AC1F3080101EE35
:101AF000901A1168F8EE611A40EE811A71EE800AB0
:101B000062EE200AC1F3462101EE101AB8EE411A26
:101B100031EE001AC0EE811ABCEEE11A80ED001A17
:101B20001168C1F3064101EE101AB8EE411A31EE08
:101B3000001AC0EE811ABCEEE11A80ED011A11689C
:101B4000C1F3066101EE101AB8EE411A31EE000A37
:101B500080EE801ABCEEC10A80ED020A30BD04E0BE
:101B600001EE901ADFED092ABAE700210160416019
:101B70008160F3E7284402580000003938440258D5
:101B80000024744A0090D0030024744C20BCBE4B47
:101B9000494930B5484C0B1D0A681C3409681D685A
:101BA000246802F00303C5F30022C1F30551C4F316
:101BB000CC04002914FB02F200EE102AF8EE400AD1
:101BC00075D03F4A9FED3D1AB7EE000A6BB1DFEDCD
:101BD0003D1A012B01D0022B64D002EE101A1168BD
:101BE000F8EE422A81EEA22A21E0334C283C2368F9
:101BF0009B0612D5344B246801EE901A1168C4F389
:101C0000C104F8EE612AE34001EE903AC1F3080105
:101C1000F8EE611A81EEA22A0BE001EE901ADFEDD8
:101C20002B2A00BFF8EE611A116882EEA12AC1F3D7
:101C3000080101EE901A1168F8EE611A40EE811A5F
:101C400071EE800A62EE200AC1F3462101EE101AFD
:101C5000B8EE411A31EE001AC0EE811ABCEEE11A5C
:101C600080ED001A1168C1F3064101EE101AB8EEBA
:101C7000411A31EE001AC0EE811ABCEEE11A80ED75
:101C8000011A1168C1F3066101EE101AB8EE411A8B
:101C900031EE000A80EE801ABCEEC10A80ED020A25
:101CA00030BD04E001EE901ADFED092ABAE7002109
:101CB000016041608160F3E7284402580000003968
:101CC000404402580024744A0090D0030024744C0D
:101CD00020BCBE4B2DE9F0474FF480760146B04260
:101CE0006F48DFF8B8818AB06E4B4FF080576E4D69
:101CF000A8F104044FEA20124FF0005C29D1D8F873
:101D0000001001F0070105291FD2DFE801F0030AE6
:101D10000F20140006A8FFF7F7FD07980AB0BDE8EA
:101D2000F0876846FFF792FE0098F7E703A8FFF7F1
:101D30002FFF0398F2E7216811F04051EED0B9422D
:101D400075D11046EAE71846E8E70020E6E728469E
:101D5000E4E7B1F5007F19D0544EB1F5806F26D07D
:101D6000B1F5006F37D04FF4805949454FF4804AA0
:101D70004BD1D8F8001001F4E041B1F5005FD5D0A7
:101D80003DDC0029C6D04945DFD1CAE7D8F80010AC
:101D900001F4E0718029C9D004DC0029BAD04029BF
:101DA000D3D1BEE7C029D2D0B142CED1C3E731688A
:101DB00001F46001B1F5800FB8D005DC0029A9D08D
:101DC000B1F5001FC1D1ACE7B1F5C00FBFD0B1F57F
:101DD000000FBAD1AFE7316801F0E061B1F1007FE7
:101DE000A4D005DC002995D0B1F1807FADD198E772
:101DF000B1F1407FABD0B1F1806FA6D19BE7B1F5D7
:101E0000405FA4D05145A0D195E7B1F5002F4FF424
:101E100080350DD0A9421DD1206810F48030B1D09A
:101E2000A84292D16846FFF711FE029876E70EE0CD
:101E3000316811F44031A8D0A94203D0B1F5003F78
:101E400083D178E703A8FFF7A3FE059866E761450D
:101E50009AD178E7514597D1316801F0E041B1F16D
:101E6000405FE3D009DC81B1B94211D061458BD12B
:101E700003A8FFF78DFE049850E7B1F1804F3FF4BF
:101E800060AFB1F1A04F8BD15DE7FFF72BFD45E7C8
:101E90006846FFF7DBFD019840E700005044025818
:101EA0000090D00340787D010080BB005844025868
:101EB0002DE9FC5F044650F8241B002500902E46B7
:101EC0000801FE4FDFF8F8831DD5606E50B1B0F504
:101ED000801F0CD0B0F5001F0ED0B0F5401F1DD0F4
:101EE00001250FE0386840F40030386016E0022128
:101EF000201D02F02BFE03E00098022102F0B6FE46
:101F000005000BD02E462088C00523D5606D05281E
:101F10001ED2DFE800F00C11161B1B00626ED8F811
:101F2000001021F440111143C8F80010EBE73868A5
:101F300040F40030386009E00021201D02F006FE68
:101F400003E00098002102F091FE05466DB100E02B
:101F500001252E462088800528D5A06D80281ED01A
:101F60000CDC90B140280ED114E0626DD8F800105E
:101F700021F007011143C8F80010EBE7C02813D087
:101F8000B0F5807F10D001250FE0386840F40030B4
:101F9000386009E00021201D02F0D8FD03E0009820
:101FA000002102F063FE054695B12E462088DFF839
:101FB0001093400509F108092CD5D4F8A400B0F518
:101FC000800F20D00DDCA0B1B0F5001F0FD115E0BF
:101FD000A26DD8F8001021F4E0711143C8F8001088
:101FE000E4E7B0F5C00F13D0B0F5000F10D0012515
:101FF0000FE0386840F40030386009E00021201D0F
:1020000002F0A4FD03E00098002102F02FFE054637
:1020100075B12E46208800052DD5D4F8A800B0F162
:10202000007F21D00EDCA8B1B0F1807F10D116E086
:10203000D4F8A420D9F8001021F460011143C9F8A4
:102040000010E7E7B0F1407F13D0B0F1806F10D0FF
:1020500001250FE0386840F40030386009E00021C5
:10206000201D02F073FD03E00098002102F0FEFD48
:1020700005466DB12E46206880011FD5A06CD8B1F1
:1020800010280FD0202812D0302815D0012514E0B8
:10209000D4F8A820D9F8001021F0E0611143C9F864
:1020A0000010E8E7386840F40030386004E00221AE
:1020B000201D02F04BFD05466DB12E462088C00460
:1020C0002BD5E06DB0F5005F20D00DDCA0B1B0F5F0
:1020D000805F0FD115E07A48A26C001F016821F0E3
:1020E000300111430160E9E7B0F5405F13D0B0F56E
:1020F000804F10D001250FE0386840F40030386080
:1021000009E00021201D02F021FD03E000980021DC
:1021100002F0ACFD054685B12E462088800429D505
:10212000206EB0F5403F23D010DC08B3B0F5803FFF
:1021300014D0B0F5003F0FD115E0E26DD8F80010D3
:1021400021F4E0411143C8F80010E6E7B0F5802F14
:102150000ED0B0F5A02F0BD001250AE00121201DE3
:1021600002F0F4FC03E00098012102F07FFD054637
:102170008DB12E46208840042AD5D4F8AC00B0F1A9
:10218000405F23D010DC08B3B0F1805F14D0B0F111
:10219000005F0FD115E0226ED8F8001021F4E02185
:1021A0001143C8F80010E5E7B0F1804F0ED0B0F150
:1021B000A04F0BD001250AE00121201D02F0C6FC32
:1021C00003E00098012102F051FD05466DB12E4655
:1021D000208800041FD5E06ED8B1B0F1805F0ED02A
:1021E000B0F1005F10D0012514E0D4F8AC20D9F88C
:1021F000001021F0E0411143C9F80010E8E7386809
:1022000040F40030386004E00121201D02F09EFC03
:1022100005466DB12E462068C0011ED5606CD0B158
:1022200001280ED0022811D0032814D0012513E074
:10223000E26ED8F8001021F040511143C8F80010A8
:10224000E9E7386840F40030386004E00221201DDE
:1022500002F07CFC054685B12E462068DFF85CB0B4
:102260004002ABF11C0B57D51648016841F4807150
:102270000160FEF795FC82460EE01148626C001F7B
:10228000016821F0030111430160E6E7FEF788FCD5
:10229000A0EB0A0064283DD80A480068C005F5D5BF
:1022A0007DBBDFF81CA0B4F8B0100AF1200ADAF800
:1022B000000001F4407100F4407005E02C44025825
:1022C0005044025800480258884211D0DAF80010F1
:1022D000DAF8002021F4407142F48032CAF800207C
:1022E000DAF8002022F48032CAF80020CAF8001080
:1022F000D4F8B000B0F5807F21D1FEF751FC0190F9
:1023000019E008E0FEF74CFC0199411A41F28830CF
:10231000814210D903252E462078DFF830A4C0076B
:102320003DD0A06F182838D026DC80B3082829D0EB
:10233000102825D12CE0DAF800008007E2D5D4F887
:10234000B010C1F30120032858460DD0016821F4D4
:102350007C510160B4F8B020DAF80010C2F30B022F
:102360001143CAF80010D7E7F94A036802EA1112CC
:1023700023F47C511143ECE720280ED028280CD000
:1023800001250BE00121201D02F0E0FB04E004E048
:102390000098012102F06AFC05465DB12E462078C6
:1023A00080071ED5606F062819D2DFE800F0160CF2
:1023B00011161616A26FDAF8001021F03801114339
:1023C000CAF80010EBE70121201D02F0BFFB03E07B
:1023D0000098012102F04AFC054675B100E0012594
:1023E0002E46207840071FD5D4F89000062819D231
:1023F000DFE800F0160C11161616626FDAF80010FE
:1024000021F007011143CAF80010EAE70121201D5D
:1024100002F09CFB03E00098012102F027FC054636
:102420009DB100E001252E46207880062BD5D4F8FA
:102430008C00B0F1405F24D011DC10B3B0F1805FAC
:1024400015D0B0F1005F10D116E0D4F89020D9F883
:10245000001021F007011143C9F80010E4E7B0F1C2
:10246000804F0ED0B0F1A04F0BD001250AE0002123
:10247000201D02F06BFB03E00098022102F0F6FB46
:1024800005468DB12E46207840062BD5D4F898000D
:10249000B0F5406F24D011DC10B3B0F5806F15D0CB
:1024A000B0F5006F10D116E0D4F88C20DAF80010E7
:1024B00021F0E0411143CAF80010E4E7B0F5805F75
:1024C0000ED0B0F5A05F0BD001250AE00021201D41
:1024D00002F03CFB03E00098022102F0C7FB054636
:1024E0008DB12E46207800062BD5D4F89C00B0F58F
:1024F000C04F24D011DC10B3B0F5005F15D0B0F59B
:10250000804F10D116E0D4F89820D9F8001021F4AB
:10251000E0511143C9F80010E4E7B0F5004F0ED0C8
:10252000B0F5204F0BD001250AE00021201D02F05C
:102530000DFB03E00098022102F098FB05464DB127
:102540002E46207800071ED5D4F88000B0F5805FB5
:102550000AD00FE0D4F89C20D9F8001021F4604193
:102560001143C9F80010ECE70098022102F07EFB4D
:1025700000B10126D4F88020DAF8001021F440518F
:102580001143CAF800102078C00613D5D4F894007F
:10259000B0F5807F05D10098022102F067FB00B101
:1025A0000126D4F89420D9F8001021F44071114389
:1025B000C9F800102068000316D5D4F8A00038B17F
:1025C000B0F5803F09D0B0F5003F0BD001250AE0FF
:1025D0000021201D02F0BAFA03E00098022102F067
:1025E00045FB054685B12E462068400322D5D4F828
:1025F0008400B0F5801F11D0B0F5001F13D0B0F5E6
:10260000401F15D0012514E0D4F8A020D9F80010FF
:1026100021F440311143C9F80010E5E7386840F46F
:102620000030386004E00098012102F01FFB0546ED
:1026300055B12E462068C0031CD5E06C70B1B0F5D2
:10264000803F10D0012514E0D4F88420DAF800107F
:1026500021F440111143CAF80010EBE7386840F448
:102660000030386004E00221201D02F06FFA0546B8
:10267000CDB12E462068800005D50098022102F0D9
:10268000F5FA00B10126206880031BD5E06FB8B1D0
:10269000B0F5807F10D0B0F5007F11D0B0F5407F4D
:1026A0000ED001250DE02948E26C0838016821F4BC
:1026B000803111430160DDE7386840F40030386054
:1026C000F5B32E462068C00207D5226FD8F8001057
:1026D00021F000411143C8F800102068C00008D55F
:1026E000D4F8B420DBF8001021F480411143CBF87A
:1026F00000102068800207D5A26ED8F8001021F0E3
:1027000080711143C8F80010206840000CD5DBF838
:10271000001021F40041CBF80010DBF80010D4F8D1
:10272000B8201143CBF800102068002807DA0748CA
:10273000226D0838016821F040511143016000E02A
:1027400008E086B10120BDE8FC9F00005444025817
:10275000CFFFFF00E26FDAF8001021F4407111435F
:10276000CAF80010AEE70020EDE700002DE9F05FA9
:1027700004000F467ED0DFF83882D8F8000000F061
:102780000F00B8420CD2D8F8001021F00F013943E5
:10279000C8F80010D8F8000000F00F00B84269D166
:1027A0002078844D40070AD52069296801F070011E
:1027B000884204D9296821F07001014329602078FA
:1027C0007C4E361D00070AD56069316801F0700142
:1027D000884204D9316821F07001014331602078CA
:1027E000C0060AD5A069316801F4E061884204D9C5
:1027F000316821F4E061014331602078DFF8B4B141
:1028000080060BF1080B0CD5E1695846DBF8002077
:1028100002F07002914204D9026822F070020A4369
:102820000260207880070AD5E068296801F00F016E
:10283000884204D9296821F00F01014329602078DA
:10284000C0073ED05B49A2682868183920F4706040
:10285000104328606068022818D0032819D009683E
:10286000012819D0490700294ADADFF848A1AAF15E
:10287000080A00E044E0DAF8002022F007020243F0
:10288000CAF80020FEF78CF9814612E00968890336
:10289000E9E709688901E6E7C905E4E7FEF780F999
:1028A000A0EB090141F28830814202D90320BDE842
:1028B000F09F6168DAF8000000F03800B0EBC10F5B
:1028C000ECD1207880070AD5E068296801F00F0173
:1028D000884204D2296821F00F0101432960D8F809
:1028E0000010404601F00F01B9420BD9016821F0F8
:1028F0000F0139430160006800F00F00B84201D0B9
:102900000120D4E7207840070AD52069296801F022
:102910007001884204D2296821F0700101432960C6
:10292000207800070AD56069316801F0700188429B
:1029300004D2316821F07001014331602078C00673
:102940000AD5A069316801F4E061884204D2316897
:1029500021F4E06101433160207880060CD5E16903
:102960005846DBF8002002F07002914204D202685F
:1029700022F070020A43026000F048F80E492A680B
:102980002B68C2F3032203F00F038A5CC95C02F0D8
:102990001F0201F01F01D040084A20FA01F1116026
:1029A0000749086007480068BDE8F05FFEF72EBAE7
:1029B00000200052184402589076009084000024B1
:1029C000800000247800002430B500F01FF80B4A86
:1029D0000B490C4B15681468C5F3032204F00F046F
:1029E0008A5C095D02F01F0201F01F01D040064A17
:1029F00020FA01F119601060084630BD18440258F1
:102A0000907600908400002480000024454970B531
:102A100045480968434B103B11F0380208D00111BA
:102A2000082A03D0102A0BD0182A0BD0084670BDF4
:102A300019688906FBD51968C1F3C101C84070BD8A
:102A40003A4870BD3749374D18310C1D24350A6896
:102A5000096826682D6802F0030406F00102C1F33C
:102A60000511C5F3CC0515FB02F200EE102AB8EEF5
:102A7000400AE9B32F4ADFED2E0AB7EE001A6CB117
:102A8000DFED2D1A012C01D0022C43D002EE101ADA
:102A90001068F8EE422A81EEA22A1EE01C68A40605
:102AA00011D51B6801EE901A1168C3F3C103F8EE4B
:102AB000612AD84001EE900AC1F30800F8EE611ACD
:102AC00081EEA22A0BE001EE901ADFED1C2A00BF76
:102AD000F8EE611A106882EEA12AC0F3080001EE38
:102AE000900AF8EE611A40EE201A31EE810A00E0F9
:102AF00015E022EE000A1068C0F34620401C00EEEC
:102B0000900AF8EE600A80EE201ABCEEC10A10EEC0
:102B1000100A70BD01EE901ADFED092AD8E70020F7
:102B200070BD0000104402580090D00340787D0131
:102B300000000039304402580024744A0024744CC8
:102B400020BCBE4B2DE9F05F04007CD0FF4F207805
:102B5000FE4D1837DFF8F493103DC00748D0D9F880
:102B60000000396800F03800102815D0182803D16B
:102B700001F0030002280FD06068B0F5803F12D04A
:102B800010B1B0F5A02F18D0286820F4803028604C
:102B9000286820F4802009E02868800328D5606830
:102BA0000028D2D024E0286840F480302860606893
:102BB00088B1FDF7F5FF064609E0286840F480205B
:102BC0002860F0E7FDF7ECFF801B64287ED82868BA
:102BD0008003F7D50CE0FDF7E3FF064605E000BFF4
:102BE000FDF7DEFF801B6428F0D828688003F7D447
:102BF000207841F20308D54E0C3E800753D5D9F812
:102C00000000396810F038000ED0182801D188076C
:102C10000AD0E068A8B3296821F0190101432960AE
:102C2000FDF7BEFF82461BE02868400702D5E0683A
:102C300000288AD0FDF7AEFF40451BD82069402808
:102C400012D0316800E0CCE021F47C3141EA003060
:102C5000306028E0FDF7A4FFA0EB0A000228B5D8F9
:102C600028684007F6D5E5E7306820F47C3040F46A
:102C70000030EDE7207C316821F0FE4141EA006040
:102C8000E6E7FFE7286820F001002860FDF788FFED
:102C9000824605E0FDF784FFA0EB0A00022895D8E4
:102CA00028684007F6D42078C0065FD5D9F8000020
:102CB000DFF898B2396800F03800ABF1040B08284F
:102CC00012D0182805D101F0030000E0EAE0012845
:102CD0000AD0E0690028286838D040F080002860D9
:102CE000FDF75EFF824623E02868C00523D5E06932
:102CF000802876D11FE0206A202821D0316821F079
:102D0000F84141EA8060306030E000BF94F8201064
:102D1000DBF8002022F07C5242EA0161CBF800107F
:102D200024E000BFFDF73CFFA0EB0A00022896D884
:102D30002868C005F6D5FDF72DFF4045E6D8DAE74F
:102D4000306820F0F84040F08040DCE720F0800060
:102D50002860FDF725FF064605E000BFFDF720FFD0
:102D6000801B02289BD82868C005F7D4207800076C
:102D700029D576486169643000298046016811D000
:102D800041F001010160FDF70BFF064605E000BFC1
:102D9000FDF706FF801B0228C9D8D8F8000080077D
:102DA000F6D510E021F001010160FDF7F9FE0646BD
:102DB00005E000BFFDF7F4FE801B022872D8D8F8AA
:102DC00000008007F6D42078800623D5A06900286B
:102DD000286810D040F480502860FDF7E1FE0646D8
:102DE00005E02CE1FDF7DCFE801B02285AD828689C
:102DF0008004F7D50EE020F480502860FDF7D0FE67
:102E0000064604E0FDF7CCFE801B02284AD828685D
:102E10008004F7D4207840074FD5DFF83481D8F804
:102E2000001041F48071C8F80010FDF7B9FE0646A5
:102E300005E000BFFDF7B4FE801B642832D8D8F847
:102E40000000C005F6D5414EA068603601280AD0C2
:102E500008B1052813D0306820F0010030603068D8
:102E600020F0040002E0306840F001003060A0680B
:102E700041F2883A90B1FDF793FE80460AE030684F
:102E800040F004003060EEE7FDF78AFEA0EB080199
:102E9000514507D830688007F6D50EE0FDF780FE73
:102EA000804607E084E000BFFDF77AFEA0EB080152
:102EB00051457DD830688007F6D4606AF0B3DFF8FA
:102EC0008C80D9F8001008F12008C1F3C201032951
:102ED0006FD00228286820F08070286003D0FDF7AA
:102EE0005FFE044680E0FDF75BFE064605E000BF9E
:102EF000FDF756FE801B022873D828688001F7D49E
:102F0000E26A40F2F331386854F8283F884340EAD7
:102F1000021018433860217B4FF4FE0C22894FF0D9
:102F2000FE47208A4902267D521E401EA1F50071EF
:102F300089B20CEA0040C2F3080200E081E01143CC
:102F4000761E0143014807EA066203E01044025876
:102F5000004802581C3011433B4AC8F80010016871
:102F600021F00101016011684FF6F876236AB14340
:102F700041EAC30111600168A26921F00C0111430B
:102F800001600168E26921F00201114301600168FA
:102F900041F480310160016841F400310160016851
:102FA00041F480210160016841F00101016001E00C
:102FB00017E01DE0286840F080702860FDF7F0FD04
:102FC000044604E0FDF7ECFD001B022809D8286840
:102FD0008001F7D535E000BFFDF7E2FD001B0228B8
:102FE00002D90320BDE8F09F28688001F4D428E0CE
:102FF00039680128D8F8000021D0A26A01F0030343
:1030000093421CD1E26AC1F305118A4217D1216BA8
:10301000C0F30802491E8A4211D1616BC0F34622F7
:10302000491E91420BD1A16BC0F30642491E914249
:1030300005D1E16BC0F30660491E814201D0012039
:10304000D0E70020CEE70000344402582DE9F041DB
:1030500004002AD0607A4FF0000820B9204684F896
:10306000088000F031F8022666720427D4E90002D5
:10307000016821F02001114301602068016841F0DE
:103080000401016020684068C043400601D46772B3
:103090000BE0FDF785FD05460AE000BFFDF780FD6A
:1030A000401B022804D96772E6600120BDE8F08168
:1030B00020684068C0434007F0D501216172C4F820
:1030C0000C800020F2E7000008B50068064988423D
:1030D00008D10648016841F040010160006800F035
:1030E0004000009008BD000000180248DC4402586F
:1030F0002DE9FE430446C06B0E46032184F83410CC
:10310000002703285ED0B6F5004F5BD0B6F5804FA0
:103110004FF000004FF400654FF0806804D01EB3FC
:10312000A06B40F0006043E00090002101908146D8
:10313000206802F087F9800113D46946204602F026
:10314000C9F905000DD1019840032FD5B4F84810F6
:103150002068090401F01AFE050002D1206802214E
:103160001EE0A06B284323E00090002101908146DF
:10317000206802F067F98001F3D46946204602F026
:10318000A9F90500EDD10198C0030FD5B4F8481096
:103190002068090401F0FAFD0500E2D12068002151
:1031A00001F03EFE0500DCD14D46DAE74546D8E7A2
:1031B000A063A06B4FF40078184D38B12068012748
:1031C000856318E0A06B40F08050F1E7D4E904C0BB
:1031D000D4E901123346042806D2E66D464503D0F1
:1031E000B6F5807F18D00420CDF800C0CDE9010AE3
:1031F000206802F02BF92068414601F0F8FD28B163
:10320000216801278D63A16B0143A163012084F82C
:1032100034003846BDE8FE830220E5E7FF0FE01FDB
:1032200070470000F0B5026E920F0A70026EC2F392
:1032300083624A70026EC2F301628A70026E120CDF
:10324000CA70B0F86020120A0A7190F860204A71C2
:10325000426E120DCA80426EC2F303420A72B0F887
:103260006420C2F3C0324A72B0F86420C2F38032E4
:103270008A72B0F86420C2F34032CA72B0F8642097
:103280000026C2F300320A734E730122C36B4FF45F
:10329000007463B1012B3AD0036850499963816B84
:1032A00041F08051816380F834200120F0BDB0F8F6
:1032B0006430856E9B051B0D43EA95730B61836E2D
:1032C000C3F3C2630B75836EC3F302634B75836EE6
:1032D000C3F342538B75836EC3F38243CB75836E06
:1032E000C3F3C2330B760D696D1CC5640B7E03F00E
:1032F00007039B1C9D40C5640B7A846503F00F0394
:1033000002FA03F35F0A7D43C0E914350EE090F83A
:103310006450836EAD06AD0A45EA13430B610B6939
:103320005B1C9B02C364C0E914438465B0F8683039
:10333000C3F380334B76B0F86830C3F3C6138B7693
:1033400090F8683003F07F03CB76C36EDB0F0B770A
:10335000C36EC3F341734B77C36EC3F382638B7742
:10336000C36EC3F38353CB77C36EC3F3405381F86B
:10337000203081F82160C36EC3F3004381F822300E
:10338000B0F86C30C3F3C03381F82330B0F86C3040
:10339000C3F3803381F82430B0F86C30C3F340338A
:1033A00081F82530B0F86C30C3F3003381F8263053
:1033B000B0F86C30C3F3812381F82730B0F86C305B
:1033C000C3F3012381F8283090F86C00C0F3460065
:1033D00081F8290081F82A200020F0BDFF0FE01FAE
:1033E000C26B0A60026C4A60426C8A60826CCA607E
:1033F000C26C0A61026D4A61426D8A61806DC8616A
:103400000020704770B5B0F84810002504460068E9
:10341000090401F017FE18B1A16B0143A16304E098
:103420002068002102F00EF80546C5F3432070BD68
:103430002DE9F04190B00C4600260546694602F0A1
:10344000C7F9294F4FF0010840B12A680126976358
:10345000AA6B0243AA6385F8348035E000994FF4E3
:103460007F40C1F3811121700099C1F34011617057
:10347000009900EA112242EA11616180019909BABA
:103480006160029921720299090A61720299C1F37D
:103490000351A172DDE9022100EA1240C9B20843DA
:1034A000A0810398C0F38520A0730398C0F3012086
:1034B000E0730398C0F303102074039800F00F002A
:1034C00060740498000EA07428684FF4007101F035
:1034D0008EFC28B12A6801269763A86385F834809A
:1034E00010B03046BDE8F081FF0FE01FF0B50400DA
:1034F00085B024D094F83400002538B9A069257728
:1035000008B90220A061204600F096F8032084F854
:103510003400204600F03CF888B969462046FFF7A1
:1035200087FF60B99DF81010E26B9DF81100012A29
:1035300008D0E5652046E168FFF7DAFD58B10120C3
:1035400005B0F0BD014302D04FF4007001E04FF42C
:103550008070E065EEE7FDF723FB0127064604E0F7
:10356000FDF71EFB801B401C0AD02046FFF74AFFD8
:103570000428F5D1A563256384F834700020DFE7C3
:103580004FF00040A06384F834700320D8E70000B7
:10359000FEB5002504464FF48030FEF79BFB234A1E
:1035A0000646A169B0FBF2F7022904D12068016840
:1035B00041F01001016000952B46CDE901742068AF
:1035C0002A46294601F042FF206801F04FFF7800AB
:1035D000B6FBF0F020B11649B1FBF0F0401C00E062
:1035E0000220FDF79BF9204602F050F84FF001054C
:1035F00030B100BF84F83450A16B0143A16313E0E4
:10360000204601F0D9FF0028F4D120684FF4007162
:1036100001F0EDFB002808D0226806499163A16BF8
:103620000143A16384F834500120FEBD00350C0035
:1036300010210100FF0FE01FF0B587B004461421F0
:103640006846FCF77FFF1A49206888422DD1194847
:10365000016841F480310160006800F48030059019
:1036600014480C30016841F004010160016801F068
:1036700004010591016841F008010160006802241D
:103680000025694600F00800059003260C274FF43A
:10369000F8508DE8F1000848FDF752F9042069461A
:1036A0008DE8F1000548FDF74BF907B0F0BD0000CB
:1036B00000700052D444025800080258000C02580E
:1036C0002DE9F04F87B0994617460D460446FDF7A1
:1036D00067FA06903DB194F83400012807D0A06B3A
:1036E00040F000500DE0A06B40F0006009E0626D1A
:1036F000002007EB0901A063914204D9A06B40F0C0
:103700000070A063A8E0032184F834102168C86227
:10371000E16B012900D07F024FF0020ACDE903A03E
:1037200090264FF0FF324FEA492305908DE84C0078
:1037300080462068694601F048FD2068B9F1010F14
:103740004FF00106C16841F04001C16006D9C4F8DC
:1037500030A03946206801F0E1FB04E026633946D9
:10376000206801F0F5FBDFF814A150B12368C3F81D
:1037700038A0A16B0143A16384F83460C4F83080A1
:103780006AE0DDF804B01FE0406B000414D5BBF123
:10379000200F11D30027206801F06EFE020A287066
:1037A000010C6A70030EA9707F1CEB70082F05F1E5
:1037B0000405F0D3ABF1200BFDF7F2F90699411A9D
:1037C0001098814221D200B32068416B11F4957F9B
:1037D000DAD0C16821F04001C1602068416BC905A1
:1037E00022D5B9F1010F1FD9E16B03291CD001F0DB
:1037F00075FCC8B12368C3F838A0A26B0243A2636A
:1038000084F83460C4F8308026E02268C2F838A01A
:10381000A06B40F00040A06384F83460C4F83080AE
:10382000032007B0BDE8F08F2068416B090706D57B
:10383000C0F838A0A16B404641F0080108E0416B98
:1038400089070BD5C0F838A0A16B404641F00201B2
:10385000A16384F8346020630120E2E7416B8906AC
:1038600006D5C0F838A0A16B404641F02001EFE733
:103870000349816384F834600020D2E7FF0FE01F22
:103880003A0F00182DE9F04F89B09A4616460D46BA
:103890000446FDF785F906903DB194F834000128FF
:1038A00007D0A06B40F000500DE0A06B40F000602E
:1038B00009E0626D002006EB0A01A063914204D981
:1038C000A06B40F00070A063B2E0032184F83410D4
:1038D0002168C862E16B012900D076024FF0FF3108
:1038E0004FEA4A22059090230490CDE90230CDE9B9
:1038F000001280462068694601F067FC2068C168B4
:10390000BAF1010F41F04002C26006D920202063C5
:103910002068314601F025FC05E010202063206876
:10392000314601F038FCDFF830B106004FF00109F4
:103930000AD02368C3F838B0A06B3043A06384F882
:103940003490C4F8308073E00198089027E0406B11
:1039500040041CD50898202819D300272878079000
:10396000697840EA01200790A97840EA0140079071
:10397000E9782D1D40EA01600790206807A901F051
:1039800093FD7F1C082FE9D3089820380890FDF795
:1039900007F90699411A1298814221D200B3206892
:1039A000416B11F48D7FD2D0C16821F04001C1601C
:1039B0002068416BC90521D5BAF1010F1ED9E16B11
:1039C00003291BD001F08AFBC0B12568C5F838B0C7
:1039D000A16B0143A16384F83490C4F8308027E0E0
:1039E0002368C3F838B0A26B3243A26384F83490E2
:1039F000C4F83080032009B0BDE8F08F2068416B27
:103A0000090707D54946C0F838B0A26B404642F0D6
:103A1000080209E0416B89070CD54946C0F838B067
:103A2000A26B404642F00202A26384F83410206385
:103A30000120E0E7416BC90607D54946C0F838B018
:103A4000A26B404642F01002EEE7044A826384F81B
:103A500034900020CFE70000FF0FE01F3A0F00185E
:103A60002DE9F047040029D04A4A4FF000092068A8
:103A7000494B4A4D9042C4F8289006D0984204D051
:103A8000A84202D0E1680F2918D8E1684FF0010A76
:103A9000E76B0831C9080AEB57167143904205D00D
:103AA000984203D0A84201D0082907D8904203D0F9
:103AB000984201D0A84204D1102902D90120BDE8C2
:103AC000F08794F8810020B9204684F8809000F0B7
:103AD00067F8022084F881002068016821F0010164
:103AE0000160A069B0F1806F0AD16068B0F5800F05
:103AF00006D1A06B20B92068016841F480510160B3
:103B0000A56AE0692368E16B2843E2680843104333
:103B10009860D4E90D02D4E905C1636A25691843A8
:103B2000D4F820800A43266810432843A56DD4E9C1
:103B30000172D4E9123140EA0C0040EA080038432F
:103B40000843104318432843F060606868B9206850
:103B5000816821F4C05141F400618160206881686E
:103B600021F4C06141F4806181602068016D21F021
:103B7000010101656068400206D52068626DC16878
:103B800021F000411143C160C4F8849084F881A001
:103B9000002094E70030014000380040003C004025
:103BA00010B586B0044614216846FCF7CBFC1349D7
:103BB000206888421FD11248016841F48051016099
:103BC000006800F4805005900D481038016841F0FD
:103BD0000101016000680523E02100F0010005906B
:103BE0000020009102226946CDE90120CDE90303BE
:103BF0000448FCF7A5FE06B010BD000000300140EF
:103C0000F0440258000002582DE9FC5F04460068A9
:103C100017468A4600211D4694F8802000F1200BAB
:103C20000191012A0DD04FF0010884F88080FCF743
:103C3000B7FF814694F881000026012804D00220B5
:103C40001EE00220BDE8FC9FBAF1000F17D0B7B10B
:103C5000A1680320C4F85CA0A4F8607084F8810017
:103C6000C4F88460A4F862706666A4F86860A4F87A
:103C70006A60B1F5C02F6667266704D008E00120AE
:103C800084F88060DEE72068016841F4006101602B
:103C9000206841686FF30F01394341602068016873
:103CA00041F0010101606068B0F5800F04D1206827
:103CB000016841F400710160E0680F281AD82CE017
:103CC0002068416989070BD5E16D09680162E06DE3
:103CD000001DE065B4F86200401EA4F8620009E02F
:103CE000FCF75EFFA0EB0900A84202D3681C01D0DC
:103CF00005E025B1B4F862000028E1D183E0204658
:103D000001F03DFED4F8841084F8806041F48071A5
:103D1000C4F8841084F881808DE007282CD86EE0E8
:103D20002068416989071CD5B4F8621001290BD9B4
:103D3000E16B49B1E16D09680162E06D001DE0656C
:103D4000B4F86200801E09E0E06D0188ABF8001055
:103D5000E06D801CE065B4F86200401EA4F86200CB
:103D60000AE0FCF71DFFA0EB0900A84202D3681C83
:103D700002D0C4E7002DC2D0B4F862000028CFD131
:103D800041E02068416989072ED5B4F86210032903
:103D90000CD9E16B402909D9E16D09680162E06D38
:103DA000001DE065B4F86200001F1AE0B4F862106C
:103DB00001290CD9E16B51B1E06D0188ABF800101D
:103DC000E06D801CE065B4F86200801E09E0E16DE2
:103DD000097880F82010E06D401CE065B4F86200BE
:103DE000401EA4F862000AE0FCF7DAFEA0EB09002E
:103DF000A84202D3681C02D081E7002DB9D0B4F8E4
:103E000062000028BDD100224B46082120460095C3
:103E100001F013FE28B1D4F8840040F02000C4F86B
:103E20008400204601F0ABFD84F88180D4F8840042
:103E300084F8806008B1012004E7019802E7401E81
:103E4000B0F1807F10B501D3012010BD4FF0E02408
:103E500060610F21601703F082FB0020A061072141
:103E6000216110BD7047704770470000F0B590F8B1
:103E70003C20012A38D01D4E012480F83C4002220B
:103E800080F83D2002681A4D5368B242D2F808C04B
:103E900001D0AA4203D14F6823F470033B430F685B
:103EA00023F070031F4357600268B24210D0B2F192
:103EB000804F0DD00F4B9A420AD00F4B9A4207D039
:103EC0000E4B9A4204D0AA4202D00D4B9A4204D122
:103ED00089682CF0800319439160002180F83D40EF
:103EE00080F83C100846F0BD0220F0BD0000014003
:103EF000000401400004004000080040000C0040A5
:103F00000018004010B5040003D094F83D0010B133
:103F100007E0012010BD002084F83C00204600F09E
:103F200023F8022084F83D002068211D01F09EFE48
:103F3000012084F8480084F83E0084F83F0084F8AB
:103F4000400084F8410084F8420084F8430084F87B
:103F5000440084F8450084F8460084F8470084F85B
:103F60003D00002010BD000008B50068B0F1804F92
:103F700012D10A48016841F0010101600068002285
:103F8000114600F0010000901C20FCF77BFFBDE80B
:103F900008401C20FCF768BF08BD0000E844025838
:103FA00090F83D10012901D0012070470B4A0221F1
:103FB00080F83D100168CB6843F00103CB600068D6
:103FC00081681140062906D0B1F5803F03D0016811
:103FD00041F001010160002070470000070001006E
:103FE00070B5044690F83C00012814D0394B0125E7
:103FF00084F83C50022084F83D0022689068184004
:1040000020F47F4090600868702828D010DC10F001
:104010000F0F03D04BE04FF0020070BD4FEA2012AB
:10402000072A44D2DFE802F05151515149323A0097
:10403000B0F1101F49D009DCB0F5805F37D0B0F582
:10404000005F17D0B0F5801F31D13EE0A0F58011A0
:1040500020393AD0102938D0202928D135E04A68B3
:104060002068D1E9021301F063FE2068816841F005
:10407000770109E04A682068D1E9021301F058FE8F
:104080002068816841F48041816010E0CA68496815
:10409000206801F061FE2068502106E0CA68496886
:1040A000206801F06AFE2068602101F04BFE0020CC
:1040B00084F83D5084F83C0070BDCA6849682068A7
:1040C00001F04AFE20684021EFE7226801461046D1
:1040D000EBE7000088FFCEFF704770B5044600682C
:1040E00000250169C943890715D4C168C9438907F7
:1040F00011D4EA1E026101212177206880698007BE
:10410000204602D0FFF7E8FF04E000F0A7F82046C1
:1041100000F0A5F8257720680169C943490717D43D
:10412000C168C943490713D402216FF00402026138
:1041300021772068806910F4407F204602D0FFF785
:10414000CBFF04E000F08AF8204600F088F82577DD
:1041500020680169C943090716D4C168C943090722
:1041600012D404216FF00802026121772068C0692F
:104170008007204602D0FFF7AFFF04E000F06EF8A2
:10418000204600F06CF8257720680169C943C9060C
:1041900017D4C168C943C90613D408216FF01002AF
:1041A000026121772068C06910F4407F204602D068
:1041B000FFF792FF04E000F051F8204600F04FF8BE
:1041C000257720680169C943C90708D1C168C94377
:1041D000C90704D1891E0161204600F041F820681A
:1041E0000169C943090609D4C168C943090605D450
:1041F0006FF0800101612046FFF735FE20680169FC
:10420000C943C90509D4C168C943090605D46FF477
:10421000807101612046FFF725FE20680169C943CE
:10422000490609D4C168C943490605D46FF0400165
:104230000161204600F034F820680169C94389060D
:104240000BD4C168C943890607D46FF0200101610E
:104250002046BDE87040FFF707BE70BD704770474D
:104260000C49884215D10C494868401C4860B0F59B
:104270007A7F01D1002048604FF4FA71B0FBF1F26F
:1042800001FB1200002804D104484FF40051FCF750
:1042900074BC70470C0300249C01002400080258E1
:1042A0007047FEE7F0B500230A251C463026372765
:1042B00011E000BFB5EB107F02D906EB107C01E0E6
:1042C00007EB107C01F813C001EB430C00015B1CF1
:1042D0008CF80140DBB29342ECD3F0BDF0B40E4D4C
:1042E0000021040AA5F59622C6B22B886D880DE040
:1042F000002008E001FB0307401C02EB470C02F81A
:1043000017408CF801608342F4D8491C8D42EFD8E5
:10431000F0BC03F0D9B800003CCC042410B500F088
:1043200031F9CF2000F08EF9002000F06FF9C9209C
:1043300000F06CF9302000F069F9ED2000F082F90E
:10434000642000F063F9032000F060F9122000F00F
:104350005DF9812000F05AF9E82000F073F985201A
:1043600000F054F9102000F051F97A2000F04EF9D5
:10437000CB2000F067F9392000F048F92C2000F03C
:1043800045F9002000F042F9342000F03FF9022006
:1043900000F03CF9F72000F055F9202000F036F944
:1043A000EA2000F04FF9002000F030F9002000F082
:1043B0002DF9C02000F046F91B2000F027F9C1209C
:1043C00000F040F9002000F021F9C52000F03AF992
:1043D000302000F01BF9302000F018F9C72000F061
:1043E00031F9B72000F012F9362000F02BF908203F
:1043F00000F00CF93A2000F025F9552000F006F9FC
:10440000B12000F01FF9002000F000F91A2000F0A0
:10441000FDF8B62000F016F90A2000F0F7F8A22007
:1044200000F0F4F8F22000F00DF9002000F0EEF8B2
:10443000262000F007F9012000F0E8F8E02000F065
:1044400001F90F2000F0E2F82A2000F0DFF8282020
:1044500000F0DCF8082000F0D9F80E2000F0D6F8C3
:10446000082000F0D3F8542000F0D0F8A92000F084
:10447000CDF8432000F0CAF80A2000F0C7F80F205A
:1044800000F0C4F8002000F0C1F8002000F0BEF8F1
:10449000002000F0BBF8002000F0B8F8E12000F0A8
:1044A000D1F8002000F0B2F8152000F0AFF8172086
:1044B00000F0ACF8072000F0A9F8112000F0A6F8F1
:1044C000062000F0A3F82B2000F0A0F8562000F002
:1044D0009DF83C2000F09AF8052000F097F8102095
:1044E00000F094F80F2000F091F83F2000F08EF8D3
:1044F0003F2000F08BF80F2000F088F82B2000F010
:10450000A1F8002000F082F8002000F07FF80120E0
:1045100000F07CF83F2000F079F82A2000F092F8B3
:10452000002000F073F8002000F070F8002000F088
:104530006DF8EF2000F06AF8112000F083F8782081
:10454000FCF7ECF9292000F07DF80D4A0020FF214E
:104550004FF496331154401C9842FBDB012000F0CD
:104560009DF84FF6FF742046FFF7B8FE4FF47840F1
:10457000FFF7B4FE2046BDE81040FFF7AFBE0000D5
:104580003C1C002410B5094C002210212046FCF7E9
:10459000FBFA6420FCF7C2F9012220461021FCF747
:1045A000F3FABDE810403220FCF7B8B90008025811
:1045B0002DE9F041DFF850801C4615460E460746AF
:1045C00098F80A0000F03EF8380A00F01FF8F8B238
:1045D00000F01CF8280A00F019F8E8B200F016F80C
:1045E00098F80C0000F02EF8300A00F00FF8F0B246
:1045F00000F00CF8200A00F009F8E0B200F006F82C
:10460000BDE8F04100F03AB83CCC042470B50B4C46
:104610000022102105462046FCF7B6FA0848012280
:104620002021FCF7B1FA284601F028FA2046BDE81F
:10463000704001221021FCF7A7BA000000000258C8
:104640000008025870B50B4C002210210546204688
:10465000FCF79AFA084800222021FCF795FA284630
:1046600001F00CFA2046BDE8704001221021FCF751
:104670008BBA000000000258000802580148007A76
:10468000FFF7E0BF3CCC042410B50C46FFF7DAFF7F
:10469000E0B2BDE81040FFF7B9BF000013492B237B
:1046A00030B42A242C224C818B814FF4A0730A81D0
:1046B0004FF0F00260B101280ED0022810D003287C
:1046C00012D10B804A80A82130BC3620FFF7DCBF16
:1046D0000A804B800821F7E70B804A806821F3E7C6
:1046E0000A804B80C821EFE730BC70473CCC0424E3
:1046F0000449054810B5FCF7EEF80249891E4870D8
:1047000010BD0000030000247C7600902DE9F041EC
:1047100086B014216846FBF715FF3948016841F05F
:1047200004010160016801F004010591016841F094
:1047300080010160016801F080010591016841F08C
:1047400001010160016801F001010591016841F07A
:1047500010010160016801F010010591016841F04C
:1047600002010160016801F002010591016841F058
:104770000801016000680022224F42F2300100F07F
:10478000080005903846FCF7FFF9DFF87C8000222E
:1047900010214046FCF7F8F901256946002468031A
:1047A00000903846CDE901540394FCF7C9F803267C
:1047B00069461020CDE90005CDE902464046FCF7E8
:1047C000BFF830206946CDE90005CDE902463846FC
:1047D000FCF7B6F802256946A8038DE831000B48BE
:1047E000FCF7AEF8072170020090CDE90154CDE945
:1047F000034169464046FCF7A3F806B0BDE8F081E6
:10480000E044025800080258000002580010025804
:104810001448002110B5124C0123134A0460C0E96A
:104820000121C0E9033141618161C1610162FCF78D
:1048300027FA08B1FCF74DF80A480021FCF7B6F951
:1048400008B1FCF746F807480021FCF7DBF908B18E
:10485000FCF73FF8BDE810400220FCF7FDB900006E
:1048600000580040A40100244F17500008480022BF
:10487000064910B5C0E90012FEF7E8FB002803D096
:10488000BDE81040FCF725B810BD00000018024834
:10489000F0010024084800214FF4804210B5054C77
:1048A0000123C0E90041C0E902120161C0E905131A
:1048B00010BD0000007000520402002470B51448BE
:1048C00007224FF48004114D00212301C0E9021298
:1048D00001611A01C0E90513C1610162416281628F
:1048E000C162C0E90D21C163016441648164C16496
:1048F000016541658165C0E90054FFF7B1F8002802
:1049000003D0BDE87040FBF7E4BF70BD003001404C
:104910008402002410B588B01648002440F2E73322
:10492000EF2200944FF08041019402940394049488
:104930000594069480E81600C0E903348461FFF70B
:10494000E1FA08B1FBF7C5FF4FF480500090094829
:104950006946FFF745FB08B1FBF7BBFF054804A913
:1049600004940694FFF782FA002801D0FBF7B1FF08
:1049700008B010BD0C03002410490022104810B5E7
:1049800001F0E4FC08B1FBF7A4FF0E490C4801F06C
:10499000B6FE08B1FBF79DFF0B49094801F0F9FA93
:1049A00008B1FBF796FF064801F022FF08B1FBF7BC
:1049B00090FFBDE81040FCF78DBF00000800002408
:1049C000580300246401002460000024FEE7FEE791
:1049D0000148FCF7EBBB0000281800242DE9F0414A
:1049E000044600690D462027236801284FF400463D
:1049F00004F5717203EB4511D3F840C0D1F8080BF0
:104A000009D0DFF89CE0F4453AD1020433D500BF69
:104A1000C1F8086B40E0234B5FEA007E04D59C455B
:104A20003AD90004F4D437E05FEA806E02D5C1F8C9
:104A3000087B31E010F0280F2ED19C4501D90004ED
:104A4000E6D4D1F8103BC5EBC50004EB8000C3F3FE
:104A50001203D0F80412A1EB0303C0F81432D0F80B
:104A600008321944C0F8081295B9D4F8100278B980
:104A7000206801210AE080060AD5C1F8087B07E01A
:104A800035B9D4F8100218B90021184602F082FA9C
:104A90002046E9B2FCF771FA0020BDE8F081000081
:104AA0000A31544F0A30544F2DE9F84F0E4605682D
:104AB0008146C1EBC60100EB8104D4E914203C34EB
:104AC000904202D90120BDE8F88FA168101A8142F6
:104AD00000D20846C01C05EB461887081BE000BF43
:104AE000A268A0EB010A524500D2924699F8101034
:104AF0000AF1030000911FFA8AF3E168870828464B
:104B0000F2B202F0CFFCE16801EB0A00E060A169BB
:104B100001EB0A00A061D8F8180980B2B84205D3A9
:104B2000D4E90501814201D20028D9D1D4E9050197
:104B3000884208D8D5F83418012006F00F029040BA
:104B40008143C5F834180020BDE770472DE9F047D0
:104B5000454D044689464FF0000A2868C043800747
:104B60000AD0414E283E306820F080603060FCF76B
:104B700017F80746B04608E00120BDE8F08700BFFF
:104B8000FCF70EF8C01B022867D8D8F80000000117
:104B9000F6D4206829684FF4FE0721F47C313E02E8
:104BA00041EA00302860207AA389B4F804C04002AA
:104BB0002D4D2D495B1E227CACF1010C1035091DD9
:104BC000A0F5007080B2521ECCF3080C07EA034334
:104BD00040EA0C00184306EA0262104328600868A5
:104BE000626920F0C000104308600A68A06922F0E2
:104BF000200202430A60281D0A6822F010020A609F
:104C000002684FF6F873E4699A4342EAC40202600C
:104C10000868B9F1000F40F010020A6011D008686E
:104C2000B9F1010F11D040F400100860D8F800006D
:104C3000444640F08060C8F80000FBF7B1FF05462D
:104C40000DE0086840F40020EFE740F48010ECE746
:104C5000FBF7A6FF401B022801D903208DE720683F
:104C60000001F5D5504688E7284402582DE9F04761
:104C7000454D044689464FF0000A2868C043800726
:104C80000AD0414E283E306820F080503060FBF75B
:104C900087FF0746B04608E00120BDE8F08700BF67
:104CA000FBF77EFFC01B022867D8D8F80000800001
:104CB000F6D4208829684FF4FE0721F07C713E026B
:104CC00041EA00502860207AA389B4F804C0400269
:104CD0002D4D2D495B1E227CACF1010C1835091DB0
:104CE000A0F5007080B2521ECCF3080C07EA034313
:104CF00040EA0C00184306EA026210432860086884
:104D0000626920F44060104308600A68A06922F4D8
:104D1000007202430A60281D0A6822F480720A6049
:104D200002684FF6F873E4699A4342EAC4020260EB
:104D30000868B9F1000F40F480720A6011D0086869
:104D4000B9F1010F11D040F080700860D8F8000070
:104D5000444640F08050C8F80000FBF721FF0546AC
:104D60000DE0086840F48000EFE740F40000ECE755
:104D7000FBF716FF401B022801D903208DE72068AE
:104D80008000F5D5504688E72844025830B585B0F4
:104D9000044637204FF480720DF1080CCDE9001065
:104DA00000236946150120468CE82C0000F068FBC2
:104DB000372141F28832204600F01AFA05B030BDA2
:104DC00030B585B0044629204FF480720DF1080CEF
:104DD000CDE9001000236946150120468CE82C001F
:104DE00000F04EFB204600F0BFFA05B030BD30B5F4
:104DF0000446102085B00DF1080C02010502CDE932
:104E00000010002369468CE82C00204600F038FB97
:104E1000102141F28832204600F0EAF905B030BD99
:104E200030B585B0044606204FF480720DF1080CB1
:104E3000CDE9001000236946150120468CE82C00BE
:104E400000F01EFB062141F28832204600F0D0F926
:104E500005B030BD30B585B00546002469464FF435
:104E60008050009401940294CDE90340284600F05C
:104E700007FB0B4A4FF4FA5041F288311268B2FB3B
:104E8000F0F04843401E03D24FF0004005B030BD63
:104E9000696B0906F6D503492046A963F6E70000C9
:104EA00080000024C500200030B50821044685B0EC
:104EB0004FF4D57000254A014B0204938DE827007A
:104EC0006946204600F0DCFA134A4FF4FA5041F2EA
:104ED00088311268B2FBF0F04843401E03D24FF015
:104EE000004005B030BD616B11F0450FF5D089046D
:104EF000F3D4606B400701D5042003E0606BC0076A
:104F000002D00120A063ECE7606B400601D5402091
:104F1000A0632846E5E700008000002430B585B096
:104F2000044612204FF480720DF1080CCDE90010F8
:104F300000236946150120468CE82C0000F0A0FAF9
:104F4000122141F28832204600F052F905B030BDFE
:104F500030B585B0044611204FF480720DF1080C75
:104F6000CDE9001000236946150120468CE82C008D
:104F700000F086FA112141F28832204600F038F91B
:104F800005B030BD30B585B004464FF480710DF1E9
:104F9000040C0720009200230D018CE82B006946C9
:104FA000204600F06DFA072141F28832204600F0D9
:104FB0001FF905B030BD10B586B0044600210220AF
:104FC0004FF44072C3020493CDE90010CDE90221F1
:104FD0006946204600F054FA204600F09BF906B0DE
:104FE00010BD30B585B0044609200DF1080C002332
:104FF000CDE900104FF4407269464FF480552046C9
:105000008CE82C0000F03CFA204600F083F905B053
:1050100030BD10B586B00446002133204FF48072B5
:10502000CDE90221CDE90010130169462046049321
:1050300000F026FA332141F28832204600F0D8F8F9
:1050400006B010BD30B585B004460D204FF4807217
:105050000DF1080CCDE9001000236946150120462A
:105060008CE82C0000F00CFA0D2141F28832204629
:1050700000F0BEF805B030BD30B585B00C4600215B
:10508000054603204FF48072CDE90221CDE90010DE
:10509000130169462846049300F0F2F903212246E1
:1050A000284600F085F905B030BD10B586B004463D
:1050B00000210D204FF48072CDE90221CDE90010CE
:1050C000130169462046049300F0DAF90D2141F2FC
:1050D0008832204600F08CF806B010BD10B586B0BE
:1050E00004464FF4807200200C2113018DE8070064
:1050F000CDE90303E06840F08000E060E06820F064
:105100004000E0606946204600F0BAF9074A0C21E9
:10511000204600F06DF8E168B0F1007F21F08001D9
:10512000E16000D1002006B010BD000000E1F505EF
:1051300010B586B0044600210B204FF48072CDE9F3
:105140000221CDE90010130169462046049300F0C6
:1051500097F90B2141F28832204600F049F806B059
:1051600010BD30B585B0044619204FF480720DF1A2
:10517000080CCDE9001000236946150120468CE893
:105180002C0000F07DF9192141F28832204600F010
:105190002FF805B030BD30B585B0044618204FF467
:1051A00080720DF1080CCDE900100023694615014D
:1051B00020468CE82C0000F063F9182141F2883277
:1051C000204600F015F805B030BD70B50A6842629F
:1051D0004A688262C46AD1E90225D1E9043624F022
:1051E000FF012A4333431A431143C162002070BDBB
:1051F00030B5464D4FF4FA53434C2D68B5FBF3F3ED
:1052000053435B1E02D24FF0004030BD426B22423E
:10521000F7D09204F5D4426B520703D50421816381
:10522000084630BD426BD20702D00121816306E0FF
:10523000354A803282630269D2B28A4201D00120AB
:1052400030BD002100F0FEF83149084201D10020B4
:1052500030BD002802DA4FF0007030BD410001D5AA
:10526000402030BD810001D5802030BDC10002D575
:105270004FF4807030BD010102D54FF4007030BD95
:10528000410102D54FF4806030BDC10102D54FF419
:10529000006030BD010202D54FF4805030BD4102A4
:1052A00002D54FF4005030BD810202D54FF480404A
:1052B00030BDC10202D54FF4004030BD410302D5DC
:1052C0004FF4003030BD810302D54FF4802030BD53
:1052D000C10302D54FF4002030BD010402D54FF4C4
:1052E000801030BD410402D54FF4001030BD810460
:1052F00002D54FF4800030BD000702D54FF4000006
:1053000030BD4FF4803030BD4500200080000024C7
:1053100008E0FFFD124B4FF4FA5141F288321B684E
:10532000B3FBF1F15143491E02D24FF000407047E8
:10533000426B12F0450FF6D09204F4D4416B49074A
:1053400003D50421816308467047416BC90703D028
:10535000012181630846704702498163002070473C
:1053600080000024C50020000F4B4FF4FA5141F299
:1053700088321B68B3FBF1F15143491E02D24FF052
:1053800000407047426B12F0450FF6D09204F4D4FF
:10539000416B490703D504218163084670470349DF
:1053A000816300207047000080000024C5002000B9
:1053B00030B5204D4FF4FA5341F288342D68B5FBD7
:1053C000F3F363435B1E02D24FF0004030BD446BE9
:1053D00014F0450FF6D0A404F4D4436B5B0703D557
:1053E00004218163084630BD436BDB0702D00121F5
:1053F000816303E00369DBB28B4201D0012030BD41
:105400000D498163002100F01DF810F4604F04D0B5
:10541000410406D54FF4005030BD000C1080002030
:1054200030BD000402D54FF4805030BD4FF48030C1
:1054300030BD000080000024C5002000006800F09E
:1054400003007047084440697047000030B51143BD
:105450004268DDE903542B43034D194321432A409D
:105460000A434260002030BD002CC0FF016841F0BB
:105470000301016000207047D0F8800070470000F1
:1054800070B5084D0A688260C368D1E90126D1E988
:1054900003412B4032430C4322431343C36000209B
:1054A00070BD0000C0E0FEFF0968C0F88010002059
:1054B0007047000010B5064C01202070FBF776F90C
:1054C00018B9207820F001002070207810BD00006D
:1054D000000000242DE9F04F87B00D460446FBF78D
:1054E0005FFB0026069020680821B3463746FFF789
:1054F0007EFC002833D1B4F8481020680904FFF777
:1055000045FC00282BD1431E4FF008094FF0020A3A
:105510004FF0300C4FF00108CDF80CA08DE80812C8
:10552000CDE9046820686946FFF74FFE2068FFF761
:1055300070FD002813D140F22A582068416B11EA0F
:10554000080F06D1416B090315D4BBF1000F09D038
:1055500011E0416B090717D5C0F83890082007B053
:10556000BDE8F08FFFF788FF06462068FFF784FF4D
:1055700007464FF0010BFBF713FB0699401A401C3E
:10558000DBD14FF00040EAE7416B890703D5C0F853
:1055900038A00220E3E7416B890603D5202181630F
:1055A0000846DCE7034A39BA33BA82630020C5E90A
:1055B0000013D4E73A0F001810B58CB00446012050
:1055C000ADF82C002068FFF739FF002853D0E06BBE
:1055D000032841D02068FFF7EEFC002849D120685D
:1055E0000021FFF72FFF206704212068FFF72AFF23
:1055F000606708212068FFF725FFA0670C2120685D
:10560000FFF720FFE16BE067032925D020680BA995
:10561000FFF732FD00282CD1E06B03281CD0BDF829
:105620002C10A16420680904FFF7DBFC002820D1BE
:1056300020680021FFF706FF206604212068FFF79D
:1056400001FF606608212068FFF7FCFEA0660C21C0
:105650002068FFF7F7FEE06604212068FFF7F2FEFE
:10566000000D694660642046FDF7DCFD30B14FF067
:1056700080500CB010BD4FF08060FAE7B4F84800DD
:10568000002302042068FFF77DFCF2E72DE9F84FC4
:1056900000260446354637460096FBF781FA8046D9
:1056A0002068FFF7D7FB002867D12068FFF7FCFBD5
:1056B0004FF001094FF6FF7A48B126642068FFF7E2
:1056C000C9FB002859D1206C012802D01CE0C4F885
:1056D000409000212068FFF759FBE0BB14E02068F0
:1056E0000021FFF753FB002847D120685946FFF7F8
:1056F00067FB80BB20680021FFF7A4FEC70F0546AB
:105700000098401C009003E0DFF8C0B056460098B7
:10571000B04201D2002FE2D0B0424FF0807749D2A0
:10572000680051D5A169C4F83C9002294CD1E80128
:105730004AD50802E0652068016841F0080101606F
:105740002068FFF7F5FC002817D1FD012068406BA9
:10575000400108D400E00EE0FBF722FAA0EB0800BD
:10576000401CF3D128E021684FF0806088632068F6
:10577000406BC00203D44FF08050BDE8F88F012089
:10578000FDF74EFD2068016841F00401016005E06D
:10579000FBF706FAA0EB0800401C0DD02068406B18
:1057A0008001F5D521684FF0007088632068416B57
:1057B000C90203D53846E0E72846DEE713224FF05A
:1057C000FF310260206881630020D6E7000010C12D
:1057D0002DE9F04186B00D460446FBF7E1F90021C2
:1057E00007462068FFF72EFE800104D54FF40060C5
:1057F00006B0BDE8F08120684021FFF7F8FAC0B993
:10580000B4F8481020680904FFF7C0FA88B94021AD
:105810004FF0FF3060224FF0010C022300268DE88C
:105820004F1020686946FFF7D0FC2068FFF73DFC69
:1058300098B1A16BA163DBE7406B000407D500269C
:105840002068FFF719FE761C082E01C5F8D3FBF778
:10585000A7F9C01B401C02D127E04FF00048206888
:10586000416B11F4957FE7D0416B090701D5082002
:10587000BEE7416B890701D50220B9E7406B80067E
:105880000AD52020B4E700BFFFF7F6FD01C5FBF7FE
:1058900087F9C01B401C08D02068416BC904F3D4B1
:1058A0000146034888630020A2E74046A0E70000C5
:1058B0003A0F001870B5064C054601202070FAF723
:1058C00081FF18B92846FFF7F5FD2070207870BDDC
:1058D00000000024144810B58AB014460078C007B0
:1058E00002D003200AB010BD39B1012907D0022926
:1058F0000BD0032910D00420F4E70020F2E768461B
:10590000FAF74EFF069900200CE06846FAF748FFC8
:10591000079900202180E5E76846FAF741FF0799DB
:105920000020490A2160DDE70000002470B5012451
:105930001D4616460846A31E2A463146FAF768FF5A
:1059400028B900BFFAF732FF0028FBD10024204617
:1059500070BDFFF7AFBD000070B501241D461646AF
:105960000846A31E2A463146FAF762FF28B900BF4F
:10597000FAF71CFF0028FBD10024204670BD10B5AB
:10598000026840F26F335169946944F008049461ED
:105990000268946944F0100494610268146824F069
:1059A00001041460026814699C43146102689368DE
:1059B00023F44043936090F88120042A0CD08A0697
:1059C0000AD5D0F8842042F08002C0F88420026812
:1059D000936943F02003936190F88120032A0CD04F
:1059E0004A060AD5D0F8842042F00402C0F8842088
:1059F0000268936943F0400393618A050AD5D0F8A1
:105A0000842042F00102C0F884200268936943F4C4
:105A100000739361C9050AD5D0F8841041F00801DC
:105A2000C0F8841001688A6942F480728A6100219A
:105A3000A0F86210A0F86A1010BD2DE9F041984658
:105A400016460D460746069C09E0FBF7A9F8A0EBB1
:105A50000800A04202D3601C01D00BE054B13868AA
:105A6000406935EA000007D00020B042EDD00020A8
:105A7000BDE8F0810320FBE70120F6E701B504480B
:105A800001224FF47A736946FEF7BEF808BD0000A4
:105A90008402002470470178407841EA0020704772
:105AA000FBF77EB92DE9F047CCB04C212FA8FAF7CF
:105AB00049FD202142A8FAF745FDBC216846FAF7C6
:105AC00041FD0220FBF7DCFE394800243949026819
:105AD00042F44042026002680A6842F001020A6031
