:0200000490006A
:10000000F8550024B1020090733B00900337009034
:10001000713B0090FD040090C17100900000000051
:1000200000000000000000000000000021540090CB
:10003000FF04009000000000EF3C00902D54009061
:10004000CB020090CB020090CB020090CB0200903C
:10005000CB020090CB020090CB020090CB0200902C
:10006000CB020090CB020090CB020090CB0200901C
:10007000CB020090CB020090CB020090CB0200900C
:10008000CB020090CB020090CB020090CB020090FC
:10009000CB020090CB020090CB020090CB020090EC
:1000A000CB020090CB020090CB020090CB020090DC
:1000B000CB020090CB020090CB020090CB020090CC
:1000C000CB020090CB020090CB020090CB020090BC
:1000D000CB020090CB020090CB020090CB020090AC
:1000E000CB020090CB02009000000000CB020090F9
:1000F000CB020090CB020090CB020090CB0200908C
:10010000CB020090CB020090CB020090CB0200907B
:10011000CB020090CB020090CB020090CB0200906B
:10012000CB020090CB020090CB020090CB0200905B
:10013000CB020090CB020090CB020090CB0200904B
:1001400000000000000000000000000000000000AF
:10015000CB020090CB020090CB020090CB0200902B
:10016000CB020090CB020090CB020090CB0200901B
:10017000CB020090CB020090CB020090CB0200900B
:10018000CB020090CB020090CB020090CB020090FB
:10019000CB020090CB020090CB020090CB020090EB
:1001A000CB020090CB020090CB020090CB020090DB
:1001B000CB020090CB020090CB020090CB020090CB
:1001C000CB020090CB020090CB020090CB020090BB
:1001D000CB020090753B0090CB020090CB020090C8
:1001E000CB020090CB020090CB020090CB0200909B
:1001F000CB020090CB020090CB020090CB0200908B
:10020000CB020090CB020090CB020090CB0200907A
:10021000CB020090CB020090CB020090CB0200906A
:10022000CB020090CB020090CB02009000000000B7
:10023000CB020090CB02009000000000CB020090A7
:10024000CB020090CB020090CB020090CB0200903A
:10025000CB020090CB020090CB020090CB0200902A
:10026000CB020090CB020090CB020090CB0200901A
:10027000CB020090CB020090CB0200900000000067
:10028000CB020090CB020090CB0200900000000057
:1002900000000000CB020090DFF810D000F08EF8D4
:1002A00000480047B1760090AFF30080F855002475
:1002B0000648804706480047FEE7FEE7FEE7FEE700
:1002C000FEE7FEE7FEE7FEE7FEE7FEE741550090AA
:1002D000990200902DE9F05F0546002092469B466A
:1002E00088460646814640241BE02846414647464C
:1002F000224600F053F853465A46C01A914110D393
:1003000011461846224600F03AF82D1A67EB01080C
:100310004F4622460120002100F031F817EB00097A
:100320004E41201EA4F10104DFDC484631462A4636
:100330004346BDE8F09F40EA01039B0703D009E074
:1003400008C9121F08C0042AFAD203E011F8013BC1
:1003500000F8013B521EF9D27047D2B201E000F81A
:10036000012B491EFBD270470022F6E710B5134659
:100370000A4604461946FFF7F0FF204610BD202A22
:1003800004DB203A00FA02F1002070479140C2F1EC
:10039000200320FA03F3194390407047202A04DB1E
:1003A000203A21FA02F00021704721FA02F3D040EE
:1003B000C2F120029140084319467047064C074D90
:1003C00006E0E06840F0010394E807009847103425
:1003D000AC42F6D3FFF764FFE8780090087900900C
:1003E00070B58C1810F8015B15F0070301D110F8F7
:1003F000013B2A1106D110F8012B03E010F8016B24
:1004000001F8016B5B1EF9D12B0705D40023521EA6
:100410000DD401F8013BFAE710F8013BCB1A921C0E
:1004200003E013F8015B01F8015B521EF9D5A1420C
:10043000D8D3002070BD000003484FF4004110B530
:1004400000F0AEF9012010BD00100258014601482D
:1004500002F0D0BC88010024044810B502F0DCFC96
:10046000042801D0012010BD002010BD8801002407
:1004700010B500F015F8012801D0022010BD074882
:1004800002F03EFD040006D104484FF4804102F022
:1004900039FB00B10124204610BD00008801002472
:1004A00008B501208DF80000FFF7C6FF10B9002045
:1004B0008DF800009DF8000008BD000038B500244C
:1004C000009313460A460146034802F003FE00B1BA
:1004D0000124204638BD00008801002438B50024DE
:1004E000009313460A460146034802F0D5FE00B1C8
:1004F0000124204638BD000088010024FEE7704733
:1005000072B6FEE7002200F001B800000E4B70B595
:1005100005465C7A0120002C14D15E7A03F10800B4
:100520009C555E7A03EB860675605D7A2A54587A8C
:10053000421C5A723A232F22303008704B702046EA
:100540008A70CC7070BD0000EC0F002470B50446BA
:1005500000F03EF90546601C02D0044800780444CF
:1005600000F036F9401BA042FAD370BD7800002499
:100570002DE9FC4F01257E4C00234FF0030A4FF07C
:10058000B04E4FF00F0BEBE005FA03F637403A00A0
:1005900077D04F68012F05D0022F03D0112F01D043
:1005A000122F1AD187684FEA4308D1F80CC00AFA13
:1005B00008F927EA09070CFA08FC4CEA070CC0F80E
:1005C00008C0476891F804C0B743CCF3001C0CFA8C
:1005D00003FC4CEA070CC0F804C0C6684FEA430CA1
:1005E000D1F80880E1460AFA0CF7BE43019708FAF1
:1005F00009F848EA0608C0F80C804E68022E01D0BF
:10060000122E12D1DE084FEA437C00EB86060096DC
:100610000F69366A4FEADC6C0BFA0CF807FA0CF734
:1006200026EA08063743009E37620E790768DDF830
:1006300004C006F0030606FA09F627EA0C073E4353
:1006400006604E68F6001CD54A4E376847F0020730
:10065000376036689F0706F00206009623F003060F
:1006600006F1B046B1463F0FD6F80864DFF80881BE
:100670000BFA07FC404526EA0C0603D14FF0000CAC
:1006800041E06CE0DFF8F4C0604502D14FF0010CAE
:1006900039E0DFF8ECC0604502D14FF0020C32E0E7
:1006A000DFF8E0C0604502D14FF0030C2BE0DFF82B
:1006B000D8C0604502D14FF0040C24E0DFF8CCC074
:1006C000604502D14FF0050C1DE0DFF8C4C0604565
:1006D00002D14FF0060C16E0DFF8B8C0604502D139
:1006E0004FF0070C0FE0DFF8B0C0604502D14FF0CB
:1006F000080C08E0DFF8A4C0604502D14FF0090CF7
:1007000001E04FF00A0C0CFA07FC4CEA060CC9F8A1
:1007100008C426684F6826EA0206FF0300D5164380
:10072000266066684F6826EA0206BF0300D51643B6
:100730006660D1F804C07646DEF800705FEACC2C23
:1007400027EA020700D517433760D1F804C077685D
:100750005FEA8C2C27EA020700D5174377605B1C01
:100760000A681746DA407FF40FAFBDE8FC8F00003F
:1007700080000058F4440258000002580004025857
:1007800000080258000C02580010025800140258C9
:1007900000180258001C0258002002580024025879
:1007A0000069084000D001207047426931EA020226
:1007B00000D10904816170470AB181617047090461
:1007C000FBE7000001480068000C70470010005C67
:1007D0000148806870470000780000240248816862
:1007E000027811448160704778000024032010B51E
:1007F00000F086F801F066FE0F4A1049146813688D
:10080000C4F3032203F00F038A5CC95C02F01F02E9
:1008100001F01F01D0400A4A20FA01F11160094994
:100820000860002000F010F808B1012010BD00F0B1
:100830002BF8002010BD000018440258D878009012
:10084000880000248400002470B50D4D04462878EB
:10085000A0B14FF47A71B1FBF0F00A490968B1FB1D
:10086000F0F002F007FE48B9102C07D20022214612
:10087000501E00F025F800206C6070BD012070BD96
:100880007800002484000024054808B5016841F080
:1008900002010160006800F00200009008BD000045
:1008A000F4440258002809DB410900F01F028900C6
:1008B000012001F1E0219040C1F8000170470000E3
:1008C0000E4BF0B41B680D46C3F30223C3F10706B9
:1008D000042E00D90426191D072901D2002300E0A7
:1008E000DB1E012404FA06F19C40491E2940641EC7
:1008F000994014402143F0BC06F06CBC0CED00E0C4
:10090000064900F0070210B54FF6FF040868044BD3
:10091000204040EA02201843086010BD0CED00E0C2
:100920000000FA0501680123C0F8FC33002280F8BA
:10093000F4238869044A40F000608861486D1043E0
:1009400048650020704700000300001070470068F1
:10095000416200207047F0B503685D6A39B19F6A53
:100960004C1E00204FF4827605EB17450BE045EA5C
:100970000240986210E0471C06EB800053F800C06C
:10098000F8B205EB1C45A042F5D34FF4807000EBA4
:10099000810045EA02421A500020F0BDD0F804045C
:1009A00005F024BBC1EBC10200EB8202D0F80404C5
:1009B000926C05F08FBAC1EBC10200EB8202D0F855
:1009C0000404D2F8082205F0DABAD0F8040405F0DD
:1009D0000FBB01F00F020B0670B5C2EBC20104465B
:1009E0004FF001004FF0000504EB810103D581F8C1
:1009F0003D003C3103E081F8FD5101F5FE710A70C4
:100A000094F8BC23012A08D084F8BC03206805F0C0
:100A10006FFF002084F8BC5370BD022070BD70B51C
:100A20004268044601F00F00904201D9012070BDD8
:100A300001F00F024FF000050B06C2EBC2014FF0B0
:100A4000010204EB810103D581F83D203C3103E034
:100A500081F8FD5101F5FE718D70087094F8BC03AA
:100A6000012808D084F8BC23206806F03BF9002058
:100A700084F8BC5370BD022070BD10B5044690F8D8
:100A8000BC0301280AD0012084F8BC0320680A06B0
:100A900006D501F00F0106F087FA03E0022010BD31
:100AA00006F072FA002084F8BC0310BD01F00F01BB
:100AB000C1EBC10100EB8100D0F8140270472DE9B1
:100AC000F04101F00F0604460D064FF00100C6EBA1
:100AD000C6014FF0000504EB810103D581F83D000C
:100AE0003C3103E081F8FD5101F5FE714F788A60D9
:100AF000CB700E7007B1CE80022B00D10D7194F82F
:100B0000BC23012A09D084F8BC03206805F04AFE02
:100B1000284684F8BC53BDE8F0810220FBE770B59D
:100B200001F00F050C460026C5EBC50100EB810165
:100B3000C1F80822C1E9843681F8FD6181F8FC51D1
:100B400001F5FE710369012B00D10A612207027CC5
:100B5000006803D006F01EF9002070BD06F008F80A
:100B6000FAE770B50D464168044605F00F0088426B
:100B700001D9012070BD29064FF000064FF0010297
:100B800007D5C0EBC00104EB810181F83D203C3169
:100B900007E0C5EBC50104EB810181F8FD6101F5BA
:100BA000FE718A70087094F8BC03012807D084F89D
:100BB000BC23206806F0C2F8280702D007E0022014
:100BC00070BD217C04F57172206806F05FF800208A
:100BD00084F8BC6370BD2DE9F04101F00F050C46AF
:100BE0000026C5EBC501012700EB81018A64C1E93C
:100BF000143681F83D7001F83C5F0369012B00D188
:100C00000A612207027C006804D006F0C3F80020C5
:100C1000BDE8F08105F0ACFFF9E700002DE9FC5FCD
:100C200005680446284606F0DEF900287ED12068D3
:100C300006F005FA002879D0206806F000FA80074F
:100C400004D52068416901F002014161206806F085
:100C5000F6F9C10604F57170009034D520688169F9
:100C600021F0100181612F6A07F00F01C7F34340A3
:100C7000C1EBC101022804EB810606F5FE7602D025
:100C8000062811D01AE047F6F070074216D0C7F3D5
:100C90000A12F1681746284606F0D5F9F168B069DE
:100CA0003944F160384408E000990822284606F0EB
:100CB000CAF9B069C7F30A110844B06120688169B4
:100CC00041F010018161206806F0B9F900034FF08E
:100CD00001094FF0080B5BD52068002606F08EF95D
:100CE000DFF8A8A3074651E0F8074DD02068F1B21D
:100CF00006F09DF98046C00707D005EB4611C1F804
:100D0000089B3146204602F03BFF5FEA087022D57F
:100D100005EB4611C1F808BB2068016C00EB4610DA
:100D200001915145D0F8081B07D900E0ABE1090457
:100D300003D54FF40041C0F8081B204600F098FA94
:100D40000198504507D92069012804D12068012164
:100D5000009A05F09BFF5FEAC86004D505EB4611D9
:100D60001020C1F8080B5FEA886004D505EB461037
:100D70002021C0F8081B5FEA884005D505EB461125
:100D80004FF40050C1F8080B7F08761C002FABD140
:100D9000206806F054F940034FF0000A5CD5206843
:100DA00006F025F90026074654E0F80750D02068E1
:100DB000F1B206F02AF98046C00723D0D5F83428CE
:100DC00006F00F0C05EB461309FA0CF08243C5F848
:100DD0003428C3F80899206901280FD1C6EBC60052
:100DE00004EB8000D0E911121144816436B9206D02
:100DF00020B920680121009A05F048FF2046F1B291
:100E0000FFF7D0FD5FEA087003D505EB4611C1F886
:100E100008B95FEAC86004D505EB46111020C1F897
:100E200008095FEA486004D505EB46114020C1F887
:100E300008095FEA887004D505EB46110220C1F865
:100E400008095FEA086003D53146204602F0FEFE3D
:100E50007F08761C002FA8D1206806F0F0F8002843
:100E600011DAD5F8040820F00100C5F8040894F858
:100E7000F403012839D0204600F0DEF920684169EA
:100E800001F000414161206806F0D9F800050BD55A
:100E9000D5F80808C00702D0204600F011FA2068F3
:100EA000416901F400614161206806F0C8F8000161
:100EB0000AD52068416901F00061416194F8F403AA
:100EC000D0B1204600F0FCF9206806F0B8F8C00464
:100ED00076D5D5F8040820F00100C5F8040820688C
:100EE000102106F061F8002135E00021204684F849
:100EF000F4A3FFF72BFDC1E784F8F4932068406D5D
:100F00000121C0F38300C4F8F8032046FFF71EFD5B
:100F1000DAE700BF05EB41104FF67F32C0F8082931
:100F2000D0F8003923F40013C0F80039D0F80039A4
:100F300043F00063C0F80039C0F8082BD0F8002B4C
:100F400022F40012C0F8002BD0F8002B42F000620F
:100F5000C0F8002B491C60688842DBD8D5F81C0813
:100F600040F00110C5F81C08206B60B1D5F884086A
:100F700040F00B00C5F88408D5F8440840F00B0099
:100F8000C5F844080CE0D5F8140842F22B010843D8
:100F9000C5F81408D5F8100840F00B00C5F8100883
:100FA000D5F8000820F4FE60C5F80008217C206810
:100FB000009A05F06BFE2068416901F4805141619F
:100FC000206806F03CF8800417D5206805F02AFC5C
:100FD000206805F0FBFFE06001F02EFA0146207B5F
:100FE0002368C2B2184606F065F8204600F00EF9F4
:100FF0002068416901F400514161206806F01FF842
:10100000000707D5204600F01BF92068416901F070
:1010100008014161206806F012F8C00208D50021DD
:10102000204600F035F82068416901F480114161E3
:10103000206806F004F8800208D50021204600F060
:101040002BF82068416901F400114161206805F026
:10105000F6FF400007D52046FFF7A0FC2068416955
:1010600001F080414161206805F0E9FF40070AD5A1
:1010700020684568680702D52046FFF7A6FC21686E
:10108000486828434860BDE8FC9F00000A30544F80
:10109000D0F8040405F008B8D0F8040405F006B848
:1010A0002DE9F04104008AB005D094F8BD03002575
:1010B000266820B108E001200AB0BDE8F081204692
:1010C00084F8BC5300F066F8032084F8BD03F06B8D
:1010D000C00500D42561206805F044FD04F110012D
:1010E000684628228846FFF726F994E80F0005F0A5
:1010F000A7FB0227D8BB2068002105F0B2FF002023
:10110000012610E0C0EBC001421C04EB810181F814
:101110003D6081F83F504D648D640D6581F83C0061
:10112000A1F84200D0B261688142EBD8002011E002
:10113000C0EBC001421C04EB810181F8FD5181F834
:10114000FF51C1F80452C1F80852C1F8105281F899
:10115000FC01D0B261688142EAD828224146684643
:10116000FFF7E9F894E80F0005F040FC10B184F8AF
:10117000BD73A0E7606A84F8385084F8BD63012825
:1011800002D12046FFF7CEFB206805F023FC0020AB
:1011900092E7000010B586B0044614216846FFF7B8
:1011A000E3F817492068884228D11648016841F0C1
:1011B0000101016000680A23022200F0010005908D
:1011C00000204FF4C05100916946CDE90120CDE9DE
:1011D00003030D48FFF7CCF90A480838016841F0CD
:1011E0000061016000680022114600F00060059077
:1011F0006520FFF765FB6520FFF754FB06B010BDC7
:1012000000000840E04402580000025870B504464F
:10121000C068012570B1022801D0FFF771F9D4F838
:101220000404294604F098FFD4F80404BDE8704093
:1012300004F053BF0025F2E7D0F8040404F076BFB1
:10124000D0F8040404F07CBF10B5044690F8BC0349
:1012500001280BD0012084F8381084F8BC032068E2
:1012600005F016FF002084F8BC0310BD022010BD5D
:10127000D0F8042400F57171104604F079BF10B560
:1012800090F8BC1304460068012906D0A26A012127
:1012900084F8BC13012A02D008E0022010BDA16925
:1012A000012903D0816B41F480318163206805F00E
:1012B00085FB206805F062FE002084F8BC0310BDA9
:1012C00010B50446D0F8040404F092FF2068D0F86A
:1012D000001E41F00101C0F8001E206A002804D061
:1012E0000248016841F00601016010BD10ED00E008
:1012F000134970B50A68D243520705D5096801F051
:101300000701814213D118E00A6822F00702024364
:101310000A60FFF75DFA0A4D4FF47A760446083DFD
:1013200007E000BFFFF754FA001BB04201D90120CB
:1013300070BD2868C0438004F4D4002070BD000054
:101340000C4802580248016841F080710160704702
:101350000C48025810B501F06FF805490968054AB4
:10136000C1F30211515C01F01F01C84010BD000023
:1013700020440258D8780090494930B5484C0B1D9C
:101380000A680C3409681D68246802F0030305F03C
:101390000102C1F30511C4F3CC04002914FB02F2CD
:1013A00000EE102AF8EE400A75D03F4A9FED3D1A34
:1013B000B7EE000A6BB1DFED3D1A012B01D0022B15
:1013C00064D002EE101A1168F8EE422A81EEA22AC9
:1013D00021E0334C283C23689B0612D5344B24680B
:1013E00001EE901A1168C4F3C104F8EE612AE340DB
:1013F00001EE903AC1F30801F8EE611A81EEA22ADB
:101400000BE001EE901ADFED2B2A00BFF8EE611A17
:10141000116882EEA12AC1F3080101EE901A116849
:10142000F8EE611A40EE811A71EE800A62EE200A2F
:10143000C1F3462101EE101AB8EE411A31EE001A3E
:10144000C0EE811ABCEEE11A80ED001A1168C1F3FA
:10145000064101EE101AB8EE411A31EE001AC0EE44
:10146000811ABCEEE11A80ED011A1168C1F3066120
:1014700001EE101AB8EE411A31EE000A80EE801A21
:10148000BCEEC10A80ED020A30BD04E001EE901A04
:10149000DFED092ABAE70021016041608160F3E7CE
:1014A0002844025800000039304402580024744A8D
:1014B0000090D0030024744C20BCBE4B494930B589
:1014C000484C0B1D0A68143409681D68246802F032
:1014D0000303C5F30012C1F30531C4F3CC040029A2
:1014E00014FB02F200EE102AF8EE400A75D03F4AD3
:1014F0009FED3D1AB7EE000A6BB1DFED3D1A012BEF
:1015000001D0022B64D002EE101A1168F8EE422AC4
:1015100081EEA22A21E0334C283C23689B0612D599
:10152000344B246801EE901A1168C4F3C104F8EE3C
:10153000612AE34001EE903AC1F30801F8EE611A26
:1015400081EEA22A0BE001EE901ADFED2B2A00BFFC
:10155000F8EE611A116882EEA12AC1F3080101EECA
:10156000901A1168F8EE611A40EE811A71EE800A45
:1015700062EE200AC1F3462101EE101AB8EE411ABC
:1015800031EE001AC0EE811ABCEEE11A80ED001AAD
:101590001168C1F3064101EE101AB8EE411A31EE9E
:1015A000001AC0EE811ABCEEE11A80ED011A116832
:1015B000C1F3066101EE101AB8EE411A31EE000ACD
:1015C00080EE801ABCEEC10A80ED020A30BD04E054
:1015D00001EE901ADFED092ABAE7002101604160AF
:1015E0008160F3E72844025800000039384402586B
:1015F0000024744A0090D0030024744C20BCBE4BDD
:10160000494930B5484C0B1D0A681C3409681D68EF
:10161000246802F00303C5F30022C1F30551C4F3AB
:10162000CC04002914FB02F200EE102AF8EE400A66
:1016300075D03F4A9FED3D1AB7EE000A6BB1DFED62
:101640003D1A012B01D0022B64D002EE101A116852
:10165000F8EE422A81EEA22A21E0334C283C23688E
:101660009B0612D5344B246801EE901A1168C4F31E
:10167000C104F8EE612AE34001EE903AC1F308019B
:10168000F8EE611A81EEA22A0BE001EE901ADFED6E
:101690002B2A00BFF8EE611A116882EEA12AC1F36D
:1016A000080101EE901A1168F8EE611A40EE811AF5
:1016B00071EE800A62EE200AC1F3462101EE101A93
:1016C000B8EE411A31EE001AC0EE811ABCEEE11AF2
:1016D00080ED001A1168C1F3064101EE101AB8EE50
:1016E000411A31EE001AC0EE811ABCEEE11A80ED0B
:1016F000011A1168C1F3066101EE101AB8EE411A21
:1017000031EE000A80EE801ABCEEC10A80ED020ABA
:1017100030BD04E001EE901ADFED092ABAE700219E
:10172000016041608160F3E72844025800000039FD
:10173000404402580024744A0090D0030024744CA2
:1017400020BCBE4B2DE9F0474FF480760146B042F5
:101750006F48DFF8B8818AB06E4B4FF080576E4DFE
:10176000A8F104044FEA20124FF0005C29D1D8F808
:10177000001001F0070105291FD2DFE801F0030A7C
:101780000F20140006A8FFF7F7FD07980AB0BDE880
:10179000F0876846FFF792FE0098F7E703A8FFF787
:1017A0002FFF0398F2E7216811F04051EED0B942C3
:1017B00075D11046EAE71846E8E70020E6E7284634
:1017C000E4E7B1F5007F19D0544EB1F5806F26D013
:1017D000B1F5006F37D04FF4805949454FF4804A36
:1017E0004BD1D8F8001001F4E041B1F5005FD5D03D
:1017F0003DDC0029C6D04945DFD1CAE7D8F8001042
:1018000001F4E0718029C9D004DC0029BAD0402954
:10181000D3D1BEE7C029D2D0B142CED1C3E731681F
:1018200001F46001B1F5800FB8D005DC0029A9D022
:10183000B1F5001FC1D1ACE7B1F5C00FBFD0B1F514
:10184000000FBAD1AFE7316801F0E061B1F1007F7C
:10185000A4D005DC002995D0B1F1807FADD198E707
:10186000B1F1407FABD0B1F1806FA6D19BE7B1F56C
:10187000405FA4D05145A0D195E7B1F5002F4FF4BA
:1018800080350DD0A9421DD1206810F48030B1D030
:10189000A84292D16846FFF711FE029876E70EE063
:1018A000316811F44031A8D0A94203D0B1F5003F0E
:1018B00083D178E703A8FFF7A3FE059866E76145A3
:1018C0009AD178E7514597D1316801F0E041B1F103
:1018D000405FE3D009DC81B1B94211D061458BD1C1
:1018E00003A8FFF78DFE049850E7B1F1804F3FF455
:1018F00060AFB1F1A04F8BD15DE7FFF72BFD45E75E
:101900006846FFF7DBFD019840E7000050440258AD
:101910000090D00340787D010080BB0058440258FD
:101920002DE9FC5F044650F8241B002500902E464C
:101930000801FE4FDFF8F8831DD5606E50B1B0F599
:10194000801F0CD0B0F5001F0ED0B0F5401F1DD089
:1019500001250FE0386840F40030386016E00221BD
:10196000201D02F0C5F903E00098022102F050FAB0
:1019700005000BD02E462088C00523D5606D0528B4
:101980001ED2DFE800F00C11161B1B00626ED8F8A7
:10199000001021F440111143C8F80010EBE738683B
:1019A00040F40030386009E00021201D02F0A0F969
:1019B00003E00098002102F02BFA05466DB100E02B
:1019C00001252E462088800528D5A06D80281ED0B0
:1019D0000CDC90B140280ED114E0626DD8F80010F4
:1019E00021F007011143C8F80010EBE7C02813D01D
:1019F000B0F5807F10D001250FE0386840F400304A
:101A0000386009E00021201D02F072F903E000981F
:101A1000002102F0FDF9054695B12E462088DFF839
:101A20001093400509F108092CD5D4F8A400B0F5AD
:101A3000800F20D00DDCA0B1B0F5001F0FD115E054
:101A4000A26DD8F8001021F4E0711143C8F800101D
:101A5000E4E7B0F5C00F13D0B0F5000F10D00125AA
:101A60000FE0386840F40030386009E00021201DA4
:101A700002F03EF903E00098002102F0C9F90546A2
:101A800075B12E46208800052DD5D4F8A800B0F1F8
:101A9000007F21D00EDCA8B1B0F1807F10D116E01C
:101AA000D4F8A420D9F8001021F460011143C9F83A
:101AB0000010E7E7B0F1407F13D0B0F1806F10D095
:101AC00001250FE0386840F40030386009E000215B
:101AD000201D02F00DF903E00098002102F098F9B2
:101AE00005466DB12E46206880011FD5A06CD8B187
:101AF00010280FD0202812D0302815D0012514E04E
:101B0000D4F8A820D9F8001021F0E0611143C9F8F9
:101B10000010E8E7386840F40030386004E0022143
:101B2000201D02F0E5F805466DB12E462088C00460
:101B30002BD5E06DB0F5005F20D00DDCA0B1B0F585
:101B4000805F0FD115E07A48A26C001F016821F078
:101B5000300111430160E9E7B0F5405F13D0B0F503
:101B6000804F10D001250FE0386840F40030386015
:101B700009E00021201D02F0BBF803E000980021DD
:101B800002F046F9054685B12E462088800429D505
:101B9000206EB0F5403F23D010DC08B3B0F5803F95
:101BA00014D0B0F5003F0FD115E0E26DD8F8001069
:101BB00021F4E0411143C8F80010E6E7B0F5802FAA
:101BC0000ED0B0F5A02F0BD001250AE00121201D79
:101BD00002F08EF803E00098012102F019F90546A1
:101BE0008DB12E46208840042AD5D4F8AC00B0F13F
:101BF000405F23D010DC08B3B0F1805F14D0B0F1A7
:101C0000005F0FD115E0226ED8F8001021F4E0211A
:101C10001143C8F80010E5E7B0F1804F0ED0B0F1E5
:101C2000A04F0BD001250AE00121201D02F060F831
:101C300003E00098012102F0EBF805466DB12E4655
:101C4000208800041FD5E06ED8B1B0F1805F0ED0BF
:101C5000B0F1005F10D0012514E0D4F8AC20D9F821
:101C6000001021F0E0411143C9F80010E8E738689E
:101C700040F40030386004E00121201D02F038F803
:101C800005466DB12E462068C0011ED5606CD0B1EE
:101C900001280ED0022811D0032814D0012513E00A
:101CA000E26ED8F8001021F040511143C8F800103E
:101CB000E9E7386840F40030386004E00221201D74
:101CC00002F016F8054685B12E462068DFF85CB0B4
:101CD0004002ABF11C0B57D51648016841F48071E6
:101CE0000160FEF775FD82460EE01148626C001F30
:101CF000016821F0030111430160E6E7FEF768FD8A
:101D0000A0EB0A0064283DD80A480068C005F5D554
:101D10007DBBDFF81CA0B4F8B0100AF1200ADAF895
:101D2000000001F4407100F4407005E02C440258BA
:101D30005044025800480258884211D0DAF8001086
:101D4000DAF8002021F4407142F48032CAF8002011
:101D5000DAF8002022F48032CAF80020CAF8001015
:101D6000D4F8B000B0F5807F21D1FEF731FD0190AD
:101D700019E008E0FEF72CFD0199411A41F2883084
:101D8000814210D903252E462078DFF830A4C00701
:101D90003DD0A06F182838D026DC80B3082829D081
:101DA000102825D12CE0DAF800008007E2D5D4F81D
:101DB000B010C1F30120032858460DD0016821F46A
:101DC0007C510160B4F8B020DAF80010C2F30B02C5
:101DD0001143CAF80010D7E7F94A036802EA111262
:101DE00023F47C511143ECE720280ED028280CD096
:101DF00001250BE00121201D01F07AFF04E004E041
:101E00000098012102F004F805465DB12E462078C5
:101E100080071ED5606F062819D2DFE800F0160C87
:101E200011161616A26FDAF8001021F038011143CE
:101E3000CAF80010EBE70121201D01F059FF03E073
:101E40000098012101F0E4FF054675B100E001258D
:101E50002E46207840071FD5D4F89000062819D2C6
:101E6000DFE800F0160C11161616626FDAF8001093
:101E700021F007011143CAF80010EAE70121201DF3
:101E800001F036FF03E00098012101F0C1FF054693
:101E90009DB100E001252E46207880062BD5D4F890
:101EA0008C00B0F1405F24D011DC10B3B0F1805F42
:101EB00015D0B0F1005F10D116E0D4F89020D9F819
:101EC000001021F007011143C9F80010E4E7B0F158
:101ED000804F0ED0B0F1A04F0BD001250AE00021B9
:101EE000201D01F005FF03E00098022101F090FFA2
:101EF00005468DB12E46207840062BD5D4F89800A3
:101F0000B0F5406F24D011DC10B3B0F5806F15D060
:101F1000B0F5006F10D116E0D4F88C20DAF800107C
:101F200021F0E0411143CAF80010E4E7B0F5805F0A
:101F30000ED0B0F5A05F0BD001250AE00021201DD6
:101F400001F0D6FE03E00098022101F061FF054692
:101F50008DB12E46207800062BD5D4F89C00B0F524
:101F6000C04F24D011DC10B3B0F5005F15D0B0F530
:101F7000804F10D116E0D4F89820D9F8001021F441
:101F8000E0511143C9F80010E4E7B0F5004F0ED05E
:101F9000B0F5204F0BD001250AE00021201D01F0F3
:101FA000A7FE03E00098022101F032FF05464DB183
:101FB0002E46207800071ED5D4F88000B0F5805F4B
:101FC0000AD00FE0D4F89C20D9F8001021F4604129
:101FD0001143C9F80010ECE70098022101F018FF46
:101FE00000B10126D4F88020DAF8001021F4405125
:101FF0001143CAF800102078C00613D5D4F8940015
:10200000B0F5807F05D10098022101F001FF00B1F9
:102010000126D4F89420D9F8001021F4407111431E
:10202000C9F800102068000316D5D4F8A00038B114
:10203000B0F5803F09D0B0F5003F0BD001250AE094
:102040000021201D01F054FE03E00098022101F060
:10205000DFFE054685B12E462068400322D5D4F820
:102060008400B0F5801F11D0B0F5001F13D0B0F57B
:10207000401F15D0012514E0D4F8A020D9F8001095
:1020800021F440311143C9F80010E5E7386840F405
:102090000030386004E00098012101F0B9FE0546E7
:1020A00055B12E462068C0031CD5E06C70B1B0F568
:1020B000803F10D0012514E0D4F88420DAF8001015
:1020C00021F440111143CAF80010EBE7386840F4DE
:1020D0000030386004E00221201D01F009FE0546B1
:1020E000CDB12E462068800005D50098022101F070
:1020F0008FFE00B10126206880031BD5E06FB8B1C8
:10210000B0F5807F10D0B0F5007F11D0B0F5407FE2
:102110000ED001250DE02948E26C0838016821F451
:10212000803111430160DDE7386840F400303860E9
:10213000F5B32E462068C00207D5226FD8F80010EC
:1021400021F000411143C8F800102068C00008D5F4
:10215000D4F8B420DBF8001021F480411143CBF80F
:1021600000102068800207D5A26ED8F8001021F078
:1021700080711143C8F80010206840000CD5DBF8CE
:10218000001021F40041CBF80010DBF80010D4F867
:10219000B8201143CBF800102068002807DA074860
:1021A000226D0838016821F040511143016000E0C0
:1021B00008E086B10120BDE8FC9F000054440258AD
:1021C000CFFFFF00E26FDAF8001021F440711143F5
:1021D000CAF80010AEE70020EDE700002DE9F05F3F
:1021E00004000F467ED0DFF83882D8F8000000F0F7
:1021F0000F00B8420CD2D8F8001021F00F0139437B
:10220000C8F80010D8F8000000F00F00B84269D1FB
:102210002078844D40070AD52069296801F07001B3
:10222000884204D9296821F070010143296020788F
:102230007C4E361D00070AD56069316801F07001D7
:10224000884204D9316821F070010143316020785F
:10225000C0060AD5A069316801F4E061884204D95A
:10226000316821F4E061014331602078DFF8B4B1D6
:1022700080060BF1080B0CD5E1695846DBF800200D
:1022800002F07002914204D9026822F070020A43FF
:102290000260207880070AD5E068296801F00F0104
:1022A000884204D9296821F00F0101432960207870
:1022B000C0073ED05B49A2682868183920F47060D6
:1022C000104328606068022818D0032819D00968D4
:1022D000012819D0490700294ADADFF848A1AAF1F4
:1022E000080A00E044E0DAF8002022F00702024386
:1022F000CAF80020FEF76CFA814612E009688903EB
:10230000E9E709688901E6E7C905E4E7FEF760FA4D
:10231000A0EB090141F28830814202D90320BDE8D7
:10232000F09F6168DAF8000000F03800B0EBC10FF0
:10233000ECD1207880070AD5E068296801F00F0108
:10234000884204D2296821F00F0101432960D8F89E
:102350000010404601F00F01B9420BD9016821F08D
:102360000F0139430160006800F00F00B84201D04E
:102370000120D4E7207840070AD52069296801F0B8
:102380007001884204D2296821F07001014329605C
:10239000207800070AD56069316801F07001884231
:1023A00004D2316821F07001014331602078C00609
:1023B0000AD5A069316801F4E061884204D231682D
:1023C00021F4E06101433160207880060CD5E16999
:1023D0005846DBF8002002F07002914204D20268F5
:1023E00022F070020A43026000F06CF80E492A687D
:1023F0002B68C2F3032203F00F038A5CC95C02F06E
:102400001F0201F01F01D040084A20FA01F11160BB
:102410000749086007480068BDE8F05FFEF714BA96
:102420000020005218440258D878009088000024F8
:10243000840000247C00002430B500F043F80B4AEF
:102440000B490C4B15681468C5F3032204F00F0404
:102450008A5C095D02F01F0201F01F01D040064AAC
:1024600020FA01F119601060084630BD1844025886
:10247000D8780090880000248400002400B5FFF77D
:10248000DBFF05490968054AC1F30211515C01F0FF
:102490001F01C84000BD00001C440258D8780090BD
:1024A00000B5FFF7C9FF05490968054AC1F30221D4
:1024B000515C01F01F01C84000BD00001C440258DF
:1024C000D8780090454970B545480968434B103BA2
:1024D00011F0380208D00111082A03D0102A0BD0BD
:1024E000182A0BD0084670BD19688906FBD51968F3
:1024F000C1F3C101C84070BD3A4870BD3749374D7E
:1025000018310C1D24350A68096826682D6802F008
:10251000030406F00102C1F30511C5F3CC0515FB58
:1025200002F200EE102AB8EE400AE9B32F4ADFEDBE
:102530002E0AB7EE001A6CB1DFED2D1A012C01D076
:10254000022C43D002EE101A1068F8EE422A81EEF7
:10255000A22A1EE01C68A40611D51B6801EE901A81
:102560001168C3F3C103F8EE612AD84001EE900A66
:10257000C1F30800F8EE611A81EEA22A0BE001EE29
:10258000901ADFED1C2A00BFF8EE611A106882EE87
:10259000A12AC0F3080001EE900AF8EE611A40EE9D
:1025A000201A31EE810A00E015E022EE000A1068E0
:1025B000C0F34620401C00EE900AF8EE600A80EE60
:1025C000201ABCEEC10A10EE100A70BD01EE901A7E
:1025D000DFED092AD8E7002070BD00001044025842
:1025E0000090D00340787D0100000039304402584B
:1025F0000024744A0024744C20BCBE4B2DE9F05FCB
:1026000004007CD0FF4F2078FE4D1837DFF8F4939C
:10261000103DC00748D0D9F80000396800F03800F4
:10262000102815D0182803D101F0030002280FD07C
:102630006068B0F5803F12D010B1B0F5A02F18D06F
:10264000286820F480302860286820F4802009E081
:102650002868800328D560680028D2D024E0286844
:1026600040F480302860606888B1FEF7B1F8064613
:1026700009E0286840F480202860F0E7FEF7A8F819
:10268000801B64287ED828688003F7D50CE0FEF70D
:102690009FF8064605E000BFFEF79AF8801B642805
:1026A000F0D828688003F7D4207841F20308D54E8B
:1026B0000C3E800753D5D9F80000396810F0380077
:1026C0000ED0182801D188070AD0E068A8B329687D
:1026D00021F0190101432960FEF77AF882461BE0D8
:1026E0002868400702D5E06800288AD0FEF76AF81B
:1026F00040451BD82069402812D0316800E0CCE06A
:1027000021F47C3141EA0030306028E0FEF760F8C7
:10271000A0EB0A000228B5D828684007F6D5E5E7FF
:10272000306820F47C3040F40030EDE7207C3168E4
:1027300021F0FE4141EA0060E6E7FFE7286820F06B
:1027400001002860FEF744F8824605E0FEF740F8F5
:10275000A0EB0A00022895D828684007F6D4207814
:10276000C0065FD5D9F80000DFF898B2396800F0EC
:102770003800ABF1040B082812D0182805D101F05D
:10278000030000E0EAE001280AD0E0690028286898
:1027900038D040F080002860FEF71AF8824623E027
:1027A0002868C00523D5E069802876D11FE0206A1B
:1027B000202821D0316821F0F84141EA8060306062
:1027C00030E000BF94F82010DBF8002022F07C52AB
:1027D00042EA0161CBF8001024E000BFFDF7F8FFEA
:1027E000A0EB0A00022896D82868C005F6D5FDF7A8
:1027F000E9FF4045E6D8DAE7306820F0F84040F0DD
:102800008040DCE720F080002860FDF7E1FF06460D
:1028100005E000BFFDF7DCFF801B02289BD828687D
:10282000C005F7D42078000729D57648616964305F
:1028300000298046016811D041F001010160FDF7D7
:10284000C7FF064605E000BFFDF7C2FF801B022858
:10285000C9D8D8F800008007F6D510E021F00101B2
:102860000160FDF7B5FF064605E000BFFDF7B0FFCC
:10287000801B022872D8D8F800008007F6D4207890
:10288000800623D5A0690028286810D040F4805025
:102890002860FDF79DFF064605E02CE1FDF798FF57
:1028A000801B02285AD828688004F7D50EE020F44F
:1028B00080502860FDF78CFF064604E0FDF788FF96
:1028C000801B02284AD828688004F7D42078400763
:1028D0004FD5DFF83481D8F8001041F48071C8F882
:1028E0000010FDF775FF064605E000BFFDF770FF1D
:1028F000801B642832D8D8F80000C005F6D5414EB8
:10290000A068603601280AD008B1052813D03068C5
:1029100020F001003060306820F0040002E03068F0
:1029200040F001003060A06841F2883A90B1FDF7B4
:102930004FFF80460AE0306840F004003060EEE768
:10294000FDF746FFA0EB0801514507D83068800726
:10295000F6D50EE0FDF73CFF804607E084E000BFBF
:10296000FDF736FFA0EB080151457DD830688007A0
:10297000F6D4606AF0B3DFF88C80D9F8001008F163
:102980002008C1F3C20103296FD00228286820F073
:102990008070286003D0FDF71BFF044680E0FDF740
:1029A00017FF064605E000BFFDF712FF801B022857
:1029B00073D828688001F7D4E26A40F2F3313868AE
:1029C00054F8283F884340EA021018433860217BBE
:1029D0004FF4FE0C22894FF0FE47208A4902267DE3
:1029E000521E401EA1F5007189B20CEA0040C2F3EC
:1029F000080200E081E01143761E0143014807EA26
:102A0000066203E010440258004802581C3011438B
:102A10003B4AC8F80010016821F00101016011680B
:102A20004FF6F876236AB14341EAC30111600168A9
:102A3000A26921F00C01114301600168E26921F0F3
:102A4000020111430160016841F4803101600168B5
:102A500041F400310160016841F4802101600168A6
:102A600041F00101016001E017E01DE0286840F03D
:102A700080702860FDF7ACFE044604E0FDF7A8FE78
:102A8000001B022809D828688001F7D535E000BF6F
:102A9000FDF79EFE001B022802D90320BDE8F09F2F
:102AA00028688001F4D428E039680128D8F80000AB
:102AB00021D0A26A01F0030393421CD1E26AC1F360
:102AC00005118A4217D1216BC0F30802491E8A42C0
:102AD00011D1616BC0F34622491E91420BD1A16B0B
:102AE000C0F30642491E914205D1E16BC0F3066076
:102AF000491E814201D00120D0E70020CEE700002E
:102B0000344402582DE9FE430446C06B0E460321AF
:102B100084F83410002703285ED0B6F5004F5BD050
:102B2000B6F5804F4FF000004FF400654FF080681D
:102B300004D01EB3A06B40F0006043E00090002181
:102B400001908146206802F09BF9800113D4694608
:102B5000204602F0DDF905000DD1019840032FD584
:102B6000B4F848102068090401F02EFE050002D1D7
:102B7000206802211EE0A06B284323E00090002182
:102B800001908146206802F07BF98001F3D4694608
:102B9000204602F0BDF90500EDD10198C0030FD524
:102BA000B4F848102068090401F00EFE0500E2D1D7
:102BB0002068002101F052FE0500DCD14D46DAE725
:102BC0004546D8E7A063A06B4FF40078184D38B1A4
:102BD00020680127856318E0A06B40F08050F1E782
:102BE000D4E904C0D4E901123346042806D2E66DC4
:102BF000464503D0B6F5807F18D00420CDF800C03C
:102C0000CDE9010A206802F03FF92068414601F051
:102C10000CFE28B1216801278D63A16B0143A163DC
:102C2000012084F834003846BDE8FE830220E5E741
:102C3000FF0FE01F70470000F0B5026E920F0A70A0
:102C4000026EC2F383624A70026EC2F301628A703E
:102C5000026E120CCA70B0F86020120A0A7190F865
:102C600060204A71426E120DCA80426EC2F3034266
:102C70000A72B0F86420C2F3C0324A72B0F864201D
:102C8000C2F380328A72B0F86420C2F34032CA7252
:102C9000B0F864200026C2F300320A734E7301229A
:102CA000C36B4FF4007463B1012B3AD003685049F1
:102CB0009963816B41F08051816380F83420012059
:102CC000F0BDB0F86430856E9B051B0D43EA95732B
:102CD0000B61836EC3F3C2630B75836EC3F3026330
:102CE0004B75836EC3F342538B75836EC3F382437C
:102CF000CB75836EC3F3C2330B760D696D1CC5644F
:102D00000B7E03F007039B1C9D40C5640B7A846512
:102D100003F00F0302FA03F35F0A7D43C0E91435A1
:102D20000EE090F86450836EAD06AD0A45EA134399
:102D30000B610B695B1C9B02C364C0E9144384658F
:102D4000B0F86830C3F380334B76B0F86830C3F323
:102D5000C6138B7690F8683003F07F03CB76C36E92
:102D6000DB0F0B77C36EC3F341734B77C36EC3F3B3
:102D700082638B77C36EC3F38353CB77C36EC3F386
:102D8000405381F8203081F82160C36EC3F30043C3
:102D900081F82230B0F86C30C3F3C03381F82330AF
:102DA000B0F86C30C3F3803381F82430B0F86C3065
:102DB000C3F3403381F82530B0F86C30C3F30033EF
:102DC00081F82630B0F86C30C3F3812381F82730C6
:102DD000B0F86C30C3F3012381F8283090F86C0010
:102DE000C0F3460081F8290081F82A200020F0BDB8
:102DF000FF0FE01FC26B0A60026C4A60426C8A607F
:102E0000826CCA60C26C0A61026D4A61426D8A615D
:102E1000806DC8610020704770B5B0F8481000257B
:102E200004460068090401F02BFE18B1A16B0143B0
:102E3000A16304E02068002102F022F80546C5F3F2
:102E4000432070BD2DE9F04190B00C4600260546A8
:102E5000694602F0DBF9294F4FF0010840B12A68BA
:102E600001269763AA6B0243AA6385F8348035E094
:102E700000994FF47F40C1F3811121700099C1F393
:102E800040116170009900EA112242EA11616180EB
:102E9000019909BA6160029921720299090A617265
:102EA0000299C1F30351A172DDE9022100EA124047
:102EB000C9B20843A0810398C0F38520A07303988A
:102EC000C0F30120E0730398C0F30310207403984B
:102ED00000F00F0060740498000EA07428684FF48E
:102EE000007101F0A2FC28B12A6801269763A8634B
:102EF00085F8348010B03046BDE8F081FF0FE01F48
:102F0000F0B5040085B024D094F83400002538B919
:102F1000A069257708B90220A061204600F096F844
:102F2000032084F83400204600F03CF888B9694654
:102F30002046FFF787FF60B99DF81010E26B9DF8FF
:102F40001100012A08D0E5652046E168FFF7DAFDA7
:102F500058B1012005B0F0BD014302D04FF400701C
:102F600001E04FF48070E065EEE7FDF731FC0127EA
:102F7000064604E0FDF72CFC801B401C0AD02046CE
:102F8000FFF74AFF0428F5D1A563256384F8347060
:102F90000020DFE74FF00040A06384F83470032086
:102FA000D8E70000FEB5002504464FF48030FEF758
:102FB000C9FB234A0646A169B0FBF2F7022904D1F6
:102FC0002068016841F01001016000952B46CDE9B1
:102FD000017420682A46294601F056FF206801F056
:102FE00063FF7800B6FBF0F020B11649B1FBF0F0BA
:102FF000401C00E00220FDF7A9FA204602F064F828
:103000004FF0010530B100BF84F83450A16B01438B
:10301000A16313E0204601F0EDFF0028F4D1206801
:103020004FF4007101F001FC002808D02268064925
:103030009163A16B0143A16384F834500120FEBD6C
:1030400000350C0010210100FF0FE01FF0B587B024
:10305000044614216846FDF787F91A49206888421A
:103060002DD11948016841F480310160006800F4F5
:103070008030059014480C30016841F00401016073
:10308000016801F004010591016841F00801016047
:10309000006802240025694600F008000590032618
:1030A0000C274FF4F8508DE8F1000848FDF760FA5E
:1030B000042069468DE8F1000548FDF759FA07B08C
:1030C000F0BD000000700052D444025800080258BD
:1030D000000C02582DE9F04F87B0994617460D466F
:1030E0000446FDF775FB06903DB194F834000128C5
:1030F00007D0A06B40F000500DE0A06B40F00060E6
:1031000009E0626D002007EB0901A063914204D938
:10311000A06B40F00070A063A8E0032184F8341095
:103120002168C862E16B012900D07F024FF0020ADA
:10313000CDE903A090264FF0FF324FEA49230590D6
:103140008DE84C0080462068694601F05CFD2068EF
:10315000B9F1010F4FF00106C16841F04001C160B3
:1031600006D9C4F830A03946206801F0F5FB04E028
:1031700026633946206801F009FCDFF814A150B13C
:103180002368C3F838A0A16B0143A16384F83460BD
:10319000C4F830806AE0DDF804B01FE0406B000442
:1031A00014D5BBF1200F11D30027206801F082FE57
:1031B000020A2870010C6A70030EA9707F1CEB7064
:1031C000082F05F10405F0D3ABF1200BFDF700FB50
:1031D0000699411A1098814221D200B32068416BB0
:1031E00011F4957FDAD0C16821F04001C1602068F8
:1031F000416BC90522D5B9F1010F1FD9E16B032934
:103200001CD001F089FCC8B12368C3F838A0A26BB8
:103210000243A26384F83460C4F8308026E0226858
:10322000C2F838A0A06B40F00040A06384F834607E
:10323000C4F83080032007B0BDE8F08F2068416BF0
:10324000090706D5C0F838A0A16B404641F0080137
:1032500008E0416B89070BD5C0F838A0A16B404648
:1032600041F00201A16384F8346020630120E2E7A9
:10327000416B890606D5C0F838A0A16B404641F0E5
:103280002001EFE70349816384F834600020D2E72E
:10329000FF0FE01F3A0F00182DE9F04F89B09A4652
:1032A00016460D460446FDF793FA06903DB194F894
:1032B0003400012807D0A06B40F000500DE0A06B57
:1032C00040F0006009E0626D002006EB0A01A06397
:1032D000914204D9A06B40F00070A063B2E00321DA
:1032E00084F834102168C862E16B012900D07602AD
:1032F0004FF0FF314FEA4A22059090230490CDE928
:103300000230CDE9001280462068694601F07BFC5E
:103310002068C168BAF1010F41F04002C26006D9CD
:10332000202020632068314601F039FC05E01020A0
:1033300020632068314601F04CFCDFF830B1060014
:103340004FF001090AD02368C3F838B0A06B3043AE
:10335000A06384F83490C4F8308073E0019808903A
:1033600027E0406B40041CD50898202819D300277B
:1033700028780790697840EA01200790A97840EA08
:1033800001400790E9782D1D40EA01600790206810
:1033900007A901F0A7FD7F1C082FE9D30898203862
:1033A0000890FDF715FA0699411A1298814221D228
:1033B00000B32068416B11F48D7FD2D0C16821F039
:1033C0004001C1602068416BC90521D5BAF1010FE8
:1033D0001ED9E16B03291BD001F09EFBC0B125680B
:1033E000C5F838B0A16B0143A16384F83490C4F8E8
:1033F000308027E02368C3F838B0A26B3243A26361
:1034000084F83490C4F83080032009B0BDE8F08F10
:103410002068416B090707D54946C0F838B0A26B50
:10342000404642F0080209E0416B89070CD5494645
:10343000C0F838B0A26B404642F00202A26384F8A2
:10344000341020630120E0E7416BC90607D54946E7
:10345000C0F838B0A26B404642F01002EEE7044AD2
:10346000826384F834900020CFE70000FF0FE01F54
:103470003A0F0018401EB0F1807F10B501D3012033
:1034800010BD4FF0E02460610F21601703F0A2FE31
:103490000020A0610721216110BD30B590F87C109B
:1034A000012918D0012280F87C202421C0F8801046
:1034B0000022202450F8601B0B680D6823F0005395
:1034C00025F001050D60426050F8601C0B6004623D
:1034D0000277104630BD022030BD70B5044690F82A
:1034E0007C0001281DD0012284F87C202420C4F80F
:1034F000800020680568026822F0010202602068EE
:10350000826822F060620A438260204602F068F816
:103510002268202100201560C4F8801084F87C0007
:1035200070BD022070BD70B5044690F87C00012883
:103530001DD0012284F87C202420C4F8800020685B
:103540000568026822F0010202602068826822F0A9
:1035500060420A438260204602F042F8226820213D
:1035600000201560C4F8801084F87C0070BD022033
:1035700070BD10B5040003D0D4F8800010B107E08E
:10358000012010BD002084F87C00204600F026F8C1
:103590002420C4F880002068016821F00101016046
:1035A000204602F0E3F80128EBD0A06A10B12046D3
:1035B00002F048F82068416821F490414160206899
:1035C000816821F02A0181602068016841F00101D1
:1035D00001602046BDE8104002F098B810B586B0F2
:1035E000044614216846FCF7BFFE13492068884250
:1035F00020D11248016841F010010160006800F01C
:10360000100005900D481038016841F0010101607B
:1036100000680723022200F00100059000204FF40B
:10362000C06100916946CDE90120CDE9030304485A
:10363000FCF79EFF06B010BD00100140F044025898
:10364000000002582DE9F8430446D0F880001F46D8
:1036500016460D46202852D1DDB1D6B194F87C0033
:1036600001284CD0012084F87C0021224FF0000872
:10367000C4F88880C4F880201834FDF7A9F8814682
:1036800054F8100CA687E687183CB0F5805F03D08D
:1036900004E00120BDE8F883206920B12E46002512
:1036A00084F87C8010E00026FAE78021204602F0B2
:1036B00035FAB8B9C6B116F8010B21688862B4F8BA
:1036C0005600401EA4F85600B4F856004B464FF082
:1036D000000200970028E8D14FF04001204602F098
:1036E0001DFA38B10320D5E735F8020B2168C0F385
:1036F0000800E3E72020C4F880000020CAE7022089
:10370000C8E7FEE7F0B500230A251C463026372718
:1037100011E000BFB5EB107F02D906EB107C01E091
:1037200007EB107C01F813C001EB430C00015B1C9C
:103730008CF80140DBB29342ECD3F0BD70B5D0F809
:10374000BC42054694F81C0240B9D4F8180228B1CE
:10375000607A18B90121284602F038FD81212846F7
:1037600002F034FD607A022809D18121284602F056
:103770002DFD2846BDE87040012102F027BD70BD37
:103780002DE9F041D0F8BC4205460121D4F81402DD
:10379000C4F83402D4F81802C4F83802284602F0FB
:1037A0003DFC1F280DD12949D4F81002884208D1C8
:1037B00094F81D12012904D894F81E0208B11028AB
:1037C00009D994F81D1220230522284600F000FF95
:1037D0000220607209E004F21F22284600F0F2FB8A
:1037E0000028207A08DA052804D02846BDE8F041F0
:1037F000FFF7A4BF012121E0022824D0012822D014
:10380000032820D0E668C6B1D5F8BC1204F1100236
:103810002846D1F81832B34200D33346D1F8385293
:10382000002781F83C7204240C72AD1BC1F8385299
:10383000BDE8F041812102F0E4BC00212846BDE84A
:10384000F04100F09DB8BDE8F081000055534243BF
:1038500010B50446D0F8BC02407A022809D0090607
:1038600011D501280FD02046BDE81040012100F0FD
:1038700087B88121204602F0A9FC2046BDE810400F
:10388000012102F0A3BC10BD10B5D0F8BC22044643
:10389000107A022805D0032801D0042810D1002175
:1038A00009E092F81D1202F21F22204600F08AFB66
:1038B000002805DA01212046BDE8104000F060B87C
:1038C00010BD10B5D0F8BC220446107A80B1012892
:1038D00013D192F81D1202F21F22204600F072FB53
:1038E00000280ADA2046BDE81040012100F048B85F
:1038F0002046BDE81040FFF743BF10BDD0F8BC0222
:1039000000210172704770B5D0F8BC420021054615
:103910002172617284F8611284F8601284F8621274
:10392000D0F8C0020168002088470121284602F033
:103930006CFB8121284602F068FB04F504722846DE
:10394000BDE870401F23012102F0BEBB70B50546E3
:1039500000210120D5F8BC422172812160722846E5
:1039600002F0A6FA0121284602F0A2FA04F5047238
:103970002846BDE870401F23012102F0A5BB0000CE
:1039800070B505460C4A00200D23D5F8BC42C4F89A
:10399000302204F50C7284F83C12812120722846F2
:1039A00002F02FFC04F504722846BDE870401F2386
:1039B000012102F089BB00005553425304490548D8
:1039C00010B5FCF79FFD0249891E487010BD00002C
:1039D000030000248878009070B586B014216846F2
:1039E000FCF7C2FC2648016841F00401016001684F
:1039F00001F004010591016841F080010160016856
:103A000001F080010591016841F010010160016839
:103A100001F010010591016841F0010101600168A8
:103A200001F001010591016841F0080101600168A0
:103A300001F008010591016841F002010160006890
:103A40004FF400550F4E002200F002002946059069
:103A50003046FCF7B1FE0024009501206946CDE90F
:103A6000010430460394FCF783FD0221A800009076
:103A70000548CDE901416946FCF77AFD06B070BD05
:103A8000E04402580008025800100258084800217B
:103A90004FF4804210B5054C0123C0E90041C0E954
:103AA00002120161C0E9051310BD00000070005250
:103AB000880100241848002110B5164C0C224FF440
:103AC000E1330460C0E90131C160C0E904128161E1
:103AD000C161016241628162FFF74BFD08B1FCF7F1
:103AE0000FFD0D480021FFF71EFD08B1FCF708FD92
:103AF00009480021FFF7F1FC08B1FCF701FD064879
:103B0000FFF7CBFC002803D0BDE81040FCF7F8BC61
:103B100010BD0000001001400802002410490022DE
:103B2000104810B502F0AAF908B1FCF7E9FC0E49FB
:103B30000C4802F060FC08B1FCF7E2FC0B490948B4
:103B400002F0D5FB08B1FCF7DBFC064802F0CCFC28
:103B500008B1FCF7D5FCBDE81040FDF7F3BB000051
:103B600008000024F40600249800002458000024D3
:103B7000FEE7FEE70148FDF751B80000C40B002442
:103B80002DE9F041044600690D46202723680128ED
:103B90004FF4004604F5717203EB4511D3F840C0B1
:103BA000D1F8080B09D0DFF89CE0F4453AD10204C3
:103BB00033D500BFC1F8086B40E0234B5FEA007EBD
:103BC00004D59C453AD90004F4D437E05FEA806E0E
:103BD00002D5C1F8087B31E010F0280F2ED19C45AA
:103BE00001D90004E6D4D1F8103BC5EBC50004EBC5
:103BF0008000C3F31203D0F80412A1EB0303C0F852
:103C00001432D0F808321944C0F8081295B9D4F823
:103C1000100278B9206801210AE080060AD5C1F8AF
:103C2000087B07E035B9D4F8100218B9002118460E
:103C300003F02CF82046E9B2FCF7BDFE0020BDE8F9
:103C4000F08100000A31544F0A30544F2DE9F84FEB
:103C50000E4605688146C1EBC60100EB8104D4E93C
:103C600014203C34904202D90120BDE8F88FA168AD
:103C7000101A814200D20846C01C05EB461887087E
:103C80001BE000BFA268A0EB010A524500D2924699
:103C900099F810100AF1030000911FFA8AF3E16805
:103CA00087082846F2B203F079FAE16801EB0A00CE
:103CB000E060A16901EB0A00A061D8F8180980B2A0
:103CC000B84205D3D4E90501814201D20028D9D1F7
:103CD000D4E90501884208D8D5F83418012006F047
:103CE0000F0290408143C5F834180020BDE77047AB
:103CF0002DE9F047454D044689464FF0000A2868F3
:103D0000C04380070AD0414E283E306820F08060D2
:103D10003060FCF75DFD0746B04608E00120BDE8D5
:103D2000F08700BFFCF754FDC01B022867D8D8F805
:103D300000000001F6D4206829684FF4FE0721F442
:103D40007C313E0241EA00302860207AA389B4F831
:103D500004C040022D4D2D495B1E227CACF1010CAC
:103D60001035091DA0F5007080B2521ECCF3080C6E
:103D700007EA034340EA0C00184306EA02621043D4
:103D800028600868626920F0C000104308600A6873
:103D9000A06922F0200202430A60281D0A6822F06E
:103DA00010020A6002684FF6F873E4699A4342EA27
:103DB000C40202600868B9F1000F40F010020A6006
:103DC00011D00868B9F1010F11D040F4001008605B
:103DD000D8F80000444640F08060C8F80000FCF7C6
:103DE000F7FC05460DE0086840F40020EFE740F4DA
:103DF0008010ECE7FCF7ECFC401B022801D9032003
:103E00008DE720680001F5D5504688E72844025820
:103E10002DE9F047454D044689464FF0000A2868D1
:103E2000C04380070AD0414E283E306820F08050C1
:103E30003060FCF7CDFC0746B04608E00120BDE845
:103E4000F08700BFFCF7C4FCC01B022867D8D8F875
:103E500000008000F6D4208829684FF4FE0721F086
:103E60007C713E0241EA00502860207AA389B4F8B0
:103E700004C040022D4D2D495B1E227CACF1010C8B
:103E80001835091DA0F5007080B2521ECCF3080C45
:103E900007EA034340EA0C00184306EA02621043B3
:103EA00028600868626920F44060104308600A686E
:103EB000A06922F4007202430A60281D0A6822F4F5
:103EC00080720A6002684FF6F873E4699A4342EA26
:103ED000C40202600868B9F1000F40F480720A6001
:103EE00011D00868B9F1010F11D040F0807008605E
:103EF000D8F80000444640F08050C8F80000FCF7B5
:103F000067FC05460DE0086840F48000EFE740F4E8
:103F10000000ECE7FCF75CFC401B022801D9032001
:103F20008DE720688000F5D5504688E72844025880
:103F300000B51344D0F8BC22D2F86822934206D9C7
:103F40002123052200F044FB4FF0FF3000BD00208C
:103F500000BD000070B50446D0F8BC024FF0FF353C
:103F6000D0F818327BB15378DB0716D0917871B155
:103F700080290FD090F81D1224230522204600F03E
:103F800027FB284670BD90F81D122023F5E70B494A
:103F900006220FE00A4908220CE0D4F8C04201EBE7
:103FA000C1011379E26902EB81010A79521D934242
:103FB00000D81A4600F02DFB002070BD3A01002405
:103FC000400100242DE9F04713780025D0F8BC42C9
:103FD0004FF0FF36252B4FF002086FD00FDC1A2B65
:103FE0007AD005DC23B3032B46D0122B17D147E040
:103FF0001B2B49D01E2B66D0232B10D185E05A2BCA
:1040000078D006DC282B70D02A2B6FD02F2B06D12E
:1040100097E09E2B6BD0A82B6AD0AA2B69D02023C7
:10402000052200F0D5FA304684F80980BDE8F08713
:104030000746D4F81802884628B1202394F81D12A8
:104040000522384634E094F862024FF00509022850
:104050000FD0D7F8C00281684046884738B33A236A
:1040600041460222384600F0B3FA304684F8089000
:10407000DCE73A230222F5E7BDE8F04700F06ABA30
:10408000BDE8F047FFF766BF94F86232012B04D118
:10409000137903F00303022B56D0117901F00300CA
:1040A00001280DD0022806D0C843800708D010E0B0
:1040B00000F08EFA51E084F862820AE029E00BE019
:1040C00084F8625205E010790028F9D0012084F8C4
:1040D00062022846E560A9E71179172220461729D0
:1040E00000D80A461E490CE004E01AE021E014E082
:1040F0001BE022E0117A1B2220461B2900D80A4629
:10410000184900F086FA284690E7BDE8F04700F02D
:10411000EAB9BDE8F04700F06CB9BDE8F04700F03F
:1041200097B9BDE8F04700F0B5B8BDE8F04700F03A
:1041300006B9BDE8F04700F078BABDE8F04700F0F6
:10414000D7BA5278920702D524230522B0E7D4E9E2
:104150009B23FFF7EDFE0028BBDA304666E7000040
:10416000480100245F0100242DE9F041D0F8BC4251
:1041700006460F464FF40071B4F86402D4F870524A
:1041800045438D4200D30D46D4F86C22B5FBF0F0C8
:1041900004F11001884683B2D6F8C002D0F810C0EE
:1041A0003846E047002809DA112339460422304610
:1041B00000F00EFA4FF0FF30BDE8F08181212B4670
:1041C0004246304602F01DF8B4F86402D4F83832A2
:1041D000B5FBF0F6B5FBF0F0D4E99B125B1BC4F81D
:1041E00038323144101AC4E99B1001D103202072E7
:1041F0000020E1E72DE9F047D0F8BC4207464FF434
:1042000000758846B4F86402D4F870624643AE4242
:1042100000D32E46D4F86C22B6FBF0F004F1100166
:10422000894683B2D7F8C002D0F814C04046E047B0
:10423000002809DA032341460422384600F0C8F971
:104240004FF0FF30BDE8F087B4F86402D4F83812BC
:10425000B6FBF0F2B6FBF0F8D4E99B3CA1EB06010B
:10426000C4F8381204F50E741A44BCEB0803C4E910
:104270000D230AD04343AB4200D32B464A460121CB
:10428000384601F021FF0020DCE700213846FFF727
:1042900077FBF8E72DE9F041D0F8BC420646154619
:1042A0008846207A88BB94F81C024FF0FF3700063E
:1042B00035D594F86202022809D0D6F8C002816888
:1042C0004046884748B13A234146022201E03A235A
:1042D0000222304600F07CF914E0688829796B7975
:1042E00040BA000440EA012241461A43C4F86C2255
:1042F000B5F8070043BA3046C4F87032FFF718FE2D
:10430000002803DA3846BDE8F0810FE0B4F8641203
:10431000D4F87002D4F818224843904204D02023E5
:1043200094F81D120522D4E7022020724FF4007089
:104330004146E0603046BDE8F041FFF715BF2DE98A
:10434000F041D0F8BC42064615468846207AB0BBFC
:1043500094F81C024FF0FF3700063AD594F8620239
:10436000022809D0D6F8C00281684046884748B183
:104370003A234146022201E03A230222304600F06D
:1043800027F919E068882A79697940BA000440EA77
:1043900002220A43C4F86C22E888297A6D7A40BA6E
:1043A000000440EA012341462B433046C4F87032F2
:1043B000FFF7BEFD002803DA3846BDE8F0810FE0C4
:1043C000B4F86412D4F87002D4F81822484390422A
:1043D00004D0202394F81D120522CFE7022020727A
:1043E0004FF400704146E0603046BDE8F041FFF711
:1043F000BBBE70B505460E46D5E9AF4004F519724F
:10440000111D436830469847C8B994F862020228E3
:1044100015D0B4F864120823D4F868020022E360CF
:1044200022750B0A6275401EA375E175020E227497
:10443000010C6174030AA374E074002070BD3A2378
:1044400031460222284600F0C3F84FF0FF3070BD1D
:104450002DE9F041064615460F46D6E9AF4004F572
:104460001972111D43683846984778B994F862026A
:1044700002280BD06A8900212B7B08466E7B52BA3A
:10448000120442EA03223243E2600EE03A23394644
:104490000222304600F09CF84FF0FF30BDE8F0817A
:1044A000421C20440174D0B2E2688242F8D8D4F8A9
:1044B0006802401E020E2275030C6375060AA6757B
:1044C000E07521766176B4F86402010AA176E0769F
:1044D0006989287B6A7B49BA090441EA00201043B4
:1044E000E0600020DAE77CB505460E4601A96A4681
:1044F000D5E9AF4043683046984710BB94F8620254
:1045000002281ED0002001462318421C90B20C281D
:104510001974F9D30820E074019802222276401E13
:104520006176020E2275030C6375010AA175E075B0
:104530000C22BDF80000E260010AA176E0760020BE
:104540007CBD3A2331460222284600F041F84FF064
:10455000FF307CBD70B5D0F8BC12D1F8183223B34F
:10456000002004460D18431CD8B212282C74F9D32D
:1045700091F86002702691F861520C230E74A842E3
:10458000CB751DD001EBC003401CC0B293F8405264
:1045900004288D7493F8445203F510730D775B79FA
:1045A0004B7781F8600209D00AE091F81D122023B0
:1045B000052200F00DF84FF0FF3070BD81F8604229
:1045C0001220C8601079122800D8C860002070BD81
:1045D00010B5D0F8BC02002190F8614200EBC40491
:1045E00084F8402290F8612200EBC20282F8443243
:1045F00090F8612200EBC20282F8451290F8612225
:10460000521CD2B280F86122042A01D180F86112D2
:1046100010BD10B5C26004E0521E92B284188B5CCB
:104620002374002AF8D1002010BD2DE9F041D0F804
:10463000BC42064615468846207A20B13046BDE881
:10464000F041FFF7D7BDD4F818024FF0FF3788B319
:1046500094F81C02000637D4D6F8C00281684046A0
:10466000884728B13A230AE03046FFF7B1FF1EE041
:10467000D6F8C002C1684046884718B12723414692
:104680000222F1E769882A79687949BA090441EA7E
:10469000022241460243C4F86C22B5F8070043BA2F
:1046A0003046C4F87032FFF743FC002803DA38467E
:1046B000BDE8F08108E0B4F86412D4F87032D4F8A0
:1046C00018024B43984204D0202394F81D1205226F
:1046D000CAE74FF40070834200D3034601202072E2
:1046E00004F110020146304601F0EEFC0020DFE745
:1046F0002DE9F047D0F8BC42064615468946207A97
:1047000020B13046BDE8F047FFF774BDD4F8180279
:104710004FF0FF3818B194F81C02000607D594F842
:104720001D12202305223046FFF752FF31E0D6F854
:10473000C0028168484688474FF0050708B13A2310
:1047400006E0D6F8C002C1684846884738B127233A
:10475000494602223046FFF73BFF277219E06A887C
:104760002879697952BA120442EA00220A43C4F84D
:104770006C22E988287A6D7A49BA090441EA002353
:1047800049462B433046C4F87032FFF7D1FB00286E
:1047900002DA4046BDE8F087B4F86412D4F870320B
:1047A000D4F818024B439842B9D14FF400708342B9
:1047B00000D303460120207204F110020146304666
:1047C00001F082FC0020E5E730B585B004463720D3
:1047D0004FF480720DF1080CCDE9001000236946FA
:1047E000150120468CE82C0000F068FB372141F2CF
:1047F0008832204600F01AFA05B030BD30B585B0D9
:10480000044629204FF480720DF1080CCDE9001008
:1048100000236946150120468CE82C0000F04EFB71
:10482000204600F0BFFA05B030BD30B50446102078
:1048300085B00DF1080C02010502CDE9001000233E
:1048400069468CE82C00204600F038FB102141F22C
:104850008832204600F0EAF905B030BD30B585B0A9
:10486000044606204FF480720DF1080CCDE90010CB
:1048700000236946150120468CE82C0000F01EFB41
:10488000062141F28832204600F0D0F905B030BD53
:1048900030B585B00546002469464FF48050009439
:1048A00001940294CDE90340284600F007FB0B4A2F
:1048B0004FF4FA5041F288311268B2FBF0F04843ED
:1048C000401E03D24FF0004005B030BD696B0906B1
:1048D000F6D503492046A963F6E7000084000024CA
:1048E000C500200030B50821044685B04FF4D570CE
:1048F00000254A014B0204938DE8270069462046B3
:1049000000F0DCFA134A4FF4FA5041F28831126891
:10491000B2FBF0F04843401E03D24FF0004005B018
:1049200030BD616B11F0450FF5D08904F3D4606B95
:10493000400701D5042003E0606BC00702D00120CE
:10494000A063ECE7606B400601D54020A0632846D9
:10495000E5E700008400002430B585B0044612204D
:104960004FF480720DF1080CCDE900100023694668
:10497000150120468CE82C0000F0A0FA122141F22B
:104980008832204600F052F905B030BD30B585B010
:10499000044611204FF480720DF1080CCDE900108F
:1049A00000236946150120468CE82C0000F086FAA9
:1049B000112141F28832204600F038F905B030BDAF
:1049C00030B585B004464FF480710DF1040C07201A
:1049D000009200230D018CE82B006946204600F070
:1049E0006DFA072141F28832204600F01FF905B028
:1049F00030BD10B586B00446002102204FF440724D
:104A0000C3020493CDE90010CDE902216946204696
:104A100000F054FA204600F09BF906B010BD30B506
:104A200085B0044609200DF1080C0023CDE90010E3
:104A30004FF4407269464FF4805520468CE82C00B4
:104A400000F03CFA204600F083F905B030BD10B507
:104A500086B00446002133204FF48072CDE9022154
:104A6000CDE90010130169462046049300F026FAB0
:104A7000332141F28832204600F0D8F806B010BD4C
:104A800030B585B004460D204FF480720DF1080C4E
:104A9000CDE9001000236946150120468CE82C0062
:104AA00000F00CFA0D2141F28832204600F0BEF8E9
:104AB00005B030BD30B585B00C4600210546032059
:104AC0004FF48072CDE90221CDE90010130169464F
:104AD0002846049300F0F2F903212246284600F00C
:104AE00085F905B030BD10B586B0044600210D2013
:104AF0004FF48072CDE90221CDE90010130169461F
:104B00002046049300F0DAF90D2141F28832204664
:104B100000F08CF806B010BD10B586B004464FF416
:104B2000807200200C2113018DE80700CDE90303FA
:104B3000E06840F08000E060E06820F04000E06065
:104B40006946204600F0BAF9074A0C21204600F0D9
:104B50006DF8E168B0F1007F21F08001E16000D1E3
:104B6000002006B010BD000000E1F50510B586B0CC
:104B7000044600210B204FF48072CDE90221CDE9DB
:104B80000010130169462046049300F097F90B21A9
:104B900041F28832204600F049F806B010BD30B529
:104BA00085B0044619204FF480720DF1080CCDE950
:104BB000001000236946150120468CE82C0000F007
:104BC0007DF9192141F28832204600F02FF805B016
:104BD00030BD30B585B0044618204FF480720DF119
:104BE000080CCDE9001000236946150120468CE829
:104BF0002C0000F063F9182141F28832204600F0C1
:104C000015F805B030BD70B50A6842624A68826224
:104C1000C46AD1E90225D1E9043624F0FF012A4310
:104C200033431A431143C162002070BD30B5464D75
:104C30004FF4FA53434C2D68B5FBF3F353435B1E1B
:104C400002D24FF0004030BD426B2242F7D09204B6
:104C5000F5D4426B520703D504218163084630BD69
:104C6000426BD20702D00121816306E0354A8032CF
:104C700082630269D2B28A4201D0012030BD002194
:104C800000F0FEF83149084201D1002030BD002873
:104C900002DA4FF0007030BD410001D5402030BD38
:104CA000810001D5802030BDC10002D54FF4807055
:104CB00030BD010102D54FF4007030BD410102D575
:104CC0004FF4806030BDC10102D54FF4006030BDAB
:104CD000010202D54FF4805030BD410202D54FF49D
:104CE000005030BD810202D54FF4804030BDC1027A
:104CF00002D54FF4004030BD410302D54FF40030DF
:104D000030BD810302D54FF4802030BDC10302D5F0
:104D10004FF4002030BD010402D54FF4801030BDA7
:104D2000410402D54FF4001030BD810402D54FF488
:104D3000800030BD000702D54FF4000030BD4FF4B5
:104D4000803030BD450020008400002408E0FFFDD5
:104D5000124B4FF4FA5141F288321B68B3FBF1F168
:104D60005143491E02D24FF000407047426B12F08F
:104D7000450FF6D09204F4D4416B490703D50421C2
:104D8000816308467047416BC90703D001218163E5
:104D90000846704702498163002070478400002460
:104DA000C50020000F4B4FF4FA5141F288321B68C6
:104DB000B3FBF1F15143491E02D24FF0004070475E
:104DC000426B12F0450FF6D09204F4D4416B4907C0
:104DD00003D504218163084670470349816300209D
:104DE0007047000084000024C500200030B5204D2D
:104DF0004FF4FA5341F288342D68B5FBF3F3634363
:104E00005B1E02D24FF0004030BD446B14F0450FE2
:104E1000F6D0A404F4D4436B5B0703D5042181636B
:104E2000084630BD436BDB0702D00121816303E0FC
:104E30000369DBB28B4201D0012030BD0D49816393
:104E4000002100F01DF810F4604F04D0410406D595
:104E50004FF4005030BD000C1080002030BD000425
:104E600002D54FF4805030BD4FF4803030BD00008B
:104E700084000024C5002000006800F00300704793
:104E8000084440697047000030B511434268DDE9CD
:104E900003542B43034D194321432A400A434260E4
:104EA000002030BD002CC0FF016841F0030101600B
:104EB00000207047D0F880007047000070B5084DA2
:104EC0000A688260C368D1E90126D1E903412B4019
:104ED00032430C4322431343C360002070BD0000E3
:104EE000C0E0FEFF0968C0F8801000207047000095
:104EF00010B5064C01202070FBF7AEFA18B92078E7
:104F000020F001002070207810BD00000000002477
:104F10002DE9F04F87B00D460446FBF759FC0026FB
:104F2000069020680821B3463746FFF77EFC00282C
:104F300033D1B4F8481020680904FFF745FC002875
:104F40002BD1431E4FF008094FF0020A4FF0300CEE
:104F50004FF00108CDF80CA08DE80812CDE90468E7
:104F600020686946FFF74FFE2068FFF770FD0028B4
:104F700013D140F22A582068416B11EA080F06D17C
:104F8000416B090315D4BBF1000F09D011E0416B4F
:104F9000090717D5C0F83890082007B0BDE8F08F92
:104FA000FFF788FF06462068FFF784FF07464FF0AB
:104FB000010BFBF70DFC0699401A401CDBD14FF0AA
:104FC0000040EAE7416B890703D5C0F838A002200A
:104FD000E3E7416B890603D5202181630846DCE7BE
:104FE000034A39BA33BA82630020C5E90013D4E713
:104FF0003A0F001810B58CB004460120ADF82C0013
:105000002068FFF739FF002853D0E06B032841D018
:105010002068FFF7EEFC002849D120680021FFF747
:105020002FFF206704212068FFF72AFF606708210F
:105030002068FFF725FFA0670C212068FFF720FFFD
:10504000E16BE067032925D020680BA9FFF732FD4B
:1050500000282CD1E06B03281CD0BDF82C10A164D3
:1050600020680904FFF7DBFC002820D1206800211C
:10507000FFF706FF206604212068FFF701FF606646
:1050800008212068FFF7FCFEA0660C212068FFF7CE
:10509000F7FEE06604212068FFF7F2FE000D694686
:1050A00060642046FDF7C8FD30B14FF080500CB071
:1050B00010BD4FF08060FAE7B4F848000023020406
:1050C0002068FFF77DFCF2E72DE9F84F0026044643
:1050D000354637460096FBF77BFB80462068FFF796
:1050E000D7FB002867D12068FFF7FCFB4FF00109D0
:1050F0004FF6FF7A48B126642068FFF7C9FB002805
:1051000059D1206C012802D01CE0C4F84090002145
:105110002068FFF759FBE0BB14E020680021FFF78F
:1051200053FB002847D120685946FFF767FB80BB37
:1051300020680021FFF7A4FEC70F05460098401C19
:10514000009003E0DFF8C0B056460098B04201D2AC
:10515000002FE2D0B0424FF0807749D2680051D59D
:10516000A169C4F83C9002294CD1E8014AD5080253
:10517000E0652068016841F0080101602068FFF7E0
:10518000F5FC002817D1FD012068406B400108D4D0
:1051900000E00EE0FBF71CFBA0EB0800401CF3D185
:1051A00028E021684FF0806088632068406BC0026F
:1051B00003D44FF08050BDE8F88F0120FDF73AFD91
:1051C0002068016841F00401016005E0FBF700FB85
:1051D000A0EB0800401C0DD02068406B8001F5D585
:1051E00021684FF0007088632068416BC90203D5C5
:1051F0003846E0E72846DEE713224FF0FF31026031
:10520000206881630020D6E7000010C12DE9F0413D
:1052100086B00D460446FBF7DBFA002107462068FE
:10522000FFF72EFE800104D54FF4006006B0BDE804
:10523000F08120684021FFF7F8FAC0B9B4F84810AF
:1052400020680904FFF7C0FA88B940214FF0FF3009
:1052500060224FF0010C022300268DE84F102068D9
:105260006946FFF7D0FC2068FFF73DFC98B1A16BC1
:10527000A163DBE7406B000407D500262068FFF739
:1052800019FE761C082E01C5F8D3FBF7A1FAC01B46
:10529000401C02D127E04FF000482068416B11F418
:1052A000957FE7D0416B090701D50820BEE7416B28
:1052B000890701D50220B9E7406B80060AD5202076
:1052C000B4E700BFFFF7F6FD01C5FBF781FAC01B8D
:1052D000401C08D02068416BC904F3D40146034840
:1052E00088630020A2E74046A0E700003A0F0018BC
:1052F00070B5064C054601202070FBF7B9F818B9C7
:105300002846FFF7F5FD2070207870BD00000024CE
:10531000144810B58AB014460078C00702D00320A4
:105320000AB010BD39B1012907D002290BD00329D9
:1053300010D00420F4E70020F2E76846FBF786F877
:10534000069900200CE06846FBF780F807990020DA
:105350002180E5E76846FBF779F807990020490ABC
:105360002160DDE70000002470B501241D461646CB
:105370000846A31E2A463146FBF7A0F828B900BF0D
:10538000FBF76AF80028FBD10024204670BDFFF728
:10539000AFBD000070B501241D4616460846A31E89
:1053A0002A463146FBF79AF828B900BFFBF754F8B4
:1053B0000028FBD10024204670BD000030B589B024
:1053C000064814460D466946FDF714FD049828600A
:1053D0000598208009B0002030BD0000880100241D
:1053E0000020704700207047002070470020704761
:1053F00008B54FF6FF7000900248FDF76BFE0020E5
:1054000008BD00008801002408B54FF6FF70009029
:105410000248FDF741FF002008BD0000880100247C
:1054200070470178407841EA00207047FBF7D6B911
:105430002DE9F043CBB04C212FA8FAF795FF20219E
:1054400042A8FAF791FFBC216846FAF78DFF0220C7
:10545000FBF74EFF364800243649026842F44042CA
:10546000026002680A6842F001020A60096801F0FD
:1054700001014A9101688904FCD52F480225016881
:10548000EF0308264FF0050821F003014FF0C00993
:10549000891C4FF0010C016039A8389580E8200381
:1054A0003C952FA83D953E95CDE93F644194CDE9CB
:1054B0002FC7FDF7A3F808B172B6FEE740203F21E1
:1054C0000301CDE945600322CDE9470342AB499092
:1054D00042A883E816000421FCF780FE08B172B6EA
:1054E000FEE701A9154A19200092B42381E829009A
:1054F0002022CDF828900426CDE90840CDE90642C7
:10550000CDE90458CDE90B56CDE90D5410040F94A4
:10551000109413971E9421906846FCF701FA08B185
:1055200072B6FEE7FBF70EFF4BB0BDE8F08300005C
:10553000184802582C04005828440258010005005D
:10554000224A30B5224914680020214B44F47004EB
:10555000146010330A681F4D42F001020A6018609F
:105560000A681B4B2A400A6018331C1D251D184A67
:10557000186028322060131D28601C1D251D106036
:105580002A1D1860131D20601C1D2860251D106039
:105590001860206028600A680D4B0F4C22F48022AE
:1055A00060330A60186020686FF30F00B0F1005F8D
:1055B00003D20A490120C1F808014FF01042034804
:1055C000803801060160026030BD000088ED00E017
:1055D000004402587FEDF6EA0010005C00800051A4
:1055E0003FB514A1D1E9002314A1CDE90023D1E9ED
:1055F0000021CDE90221416EB9B1016802AC8A688F
:105600008968C2F34262490F1DF80150615C2D01A7
:10561000B5FBF1F1A0F86A101DF80210A25C0901B7
:10562000B1FBF2F1A0F868103FBD0121A0F86A10AB
:10563000F8E700000101010307010000080402046B
:105640000801010190F82810C90706D00168C36A53
:105650004A6822F400321A434A6090F828108907F9
:1056600006D50168036B4A6822F480321A434A6007
:1056700090F82810490706D50168436B4A6822F460
:1056800080221A434A6090F82810090706D501685D
:10569000836B4A6822F400421A434A6090F828104B
:1056A000C90606D50168C36B8A6822F480521A4382
:1056B0008A6090F82810890606D50168036C8A680C
:1056C00022F400521A438A6090F82810490611D536
:1056D0000168436C4A6822F480121A434A60416CA4
:1056E000B1F5801F06D10168836C4A6822F4C002BC
:1056F0001A434A6090F82810090606D50168C26C62
:10570000486820F40020104348607047F8B5002630
:105710000446C0F88860FBF75BF8054620686FF028
:105720007E470068000708D500222B464FF4001181
:105730002046009700F0F2F960B920680068400741
:105740000AD500222B464FF480012046009700F036
:10575000E5F908B10320F8BD2020C4F8800084F8E2
:105760007C60C4F884000020F8BD00002DE9F043FF
:1057700004468068D94F87B02268D4E90465E3699C
:10578000616E304316681D432843D54B0025014305
:105790003E400E4316602068E268416821F44051A3
:1057A000114341602268A1699A4201D0206A0143F5
:1057B0009668DFF830C3CC4FCC4806EA0C060E439F
:1057C00096602168666ACA6A22F00F023243CA6292
:1057D0002268BA420ED1006800F03800182873D051
:1057E00047DCB8B3082879D010286FD178E0282892
:1057F0007ED17BE0BE498A4209D1006800F00700F3
:10580000062875D2DFE800F0546A6C6E7072B949F0
:105810008A4209D1006800F00700062868D2DFE854
:1058200000F0475D5F616365B3498A4209D1006852
:1058300000F0070006285BD2DFE800F03A5052542F
:105840005658AE498A420BD1006800F0070006287E
:105850004ED200E010E0DFE800F02B41434547491D
:10586000A7498A420AD1006800F03800182839D0C8
:10587000B7DD2028BBD13CE001203AE0A1498A42B3
:1058800009D1006800F00700062831D2DFE800F0F7
:105890001026282A2C2E9C498A420BD1006800F041
:1058A0000700062824D2DFE800F003191B1D1F2182
:1058B00000201EE09A421BD18C48001D006800F0B9
:1058C0000700062814D202E00CE007E010E0DFE851
:1058D00000F0030507090B0D02200AE0042008E090
:1058E000082006E0102004E0202002E0402000E034
:1058F00080208649DFF818829A42864A4FF4004396
:105900004FEA21174FF000064ED110281AD006DCBE
:10591000022809D004280BD008287DD10DE02028CA
:105920003ED0402878D13DE0FBF714FD014610E061
:105930006846FBF7C3FD01990BE003A8FBF760FE87
:10594000049906E01068800604D51068C0F3C10011
:10595000C140C1B3606A676838F8102007EB47039D
:10596000B1FBF2F0834257D8B0EB073F54D8002385
:1059700008461946FAF7AEFC0902020241EA106134
:1059800070084FEA370010183A4671410023FAF7C1
:10599000A1FC614AA0F5407191423DD821684CE0DC
:1059A0003946D7E71946D5E7D4F81CC04FF6EF794A
:1059B0009C4552D108281AD006DC60B101280DD0D0
:1059C000042829D10EE039E0102815D0202840D035
:1059D00040287CD13FE0FCF751FD01E0FCF760FD81
:1059E000014610E06846FBF769FD01990BE003A84A
:1059F000FBF706FE049906E01068800604D51068DF
:105A0000C0F3C100C140C9B1636A606838F813309F
:105A1000B1FBF3F1490000E059E001EB5001B1FBAB
:105A2000F0F080B2A0F11001494550D84FF6F07364
:105A30002168C0F3420218401043C8600120A4F856
:105A40006A00A4F868002846E666266707B0BDE845
:105A5000F0833946D8E71946D6E7082819D005DC7F
:105A600058B101280CD0042831D10DE0102815D0F0
:105A700020282ED040282AD12DE0FCF7FFFC01E0A1
:105A8000FCF70EFD014610E06846FBF717FD019993
:105A90000BE003A8FBF7B4FD049906E0106880064C
:105AA00005D51068C0F3C100C1400029C6D0636AA3
:105AB000606838F81330B1FBF3F101EB5001B1FB32
:105AC000F0F080B2A0F1100149457FF667AF0125E3
:105AD000B4E73946EBE71946E9E70000F369FFCF81
