:0200000490006A
:10000000580A06240D050090AB660090C75D00906D
:10001000A9660090852200908D920090000000005B
:1000200000000000000000000000000049040090F3
:100030006523009000000000A50400907B770090ED
:1000400027050090270500902705009027050090C0
:1000500027050090270500902705009027050090B0
:1000600027050090270500902705009027050090A0
:100070002705009027050090270500902705009090
:100080002705009027050090270500902705009080
:100090002705009027050090270500902705009070
:1000A000270500904D7900902705009027050090C6
:1000B00059790090270500902705009027050090AA
:1000C0002705009027050090270500902705009040
:1000D0002705009027050090270500902705009030
:1000E00027050090270500900000000027050090DC
:1000F0002705009027050090270500902705009010
:1001000027050090270500902705009027050090FF
:1001100027050090270500902705009027050090EF
:1001200027050090270500902705009027050090DF
:1001300027050090270500902705009027050090CF
:1001400000000000000000000000000000000000AF
:1001500027050090270500902705009027050090AF
:10016000270500902705009027050090270500909F
:10017000270500902705009027050090270500908F
:10018000270500902705009027050090270500907F
:10019000270500902705009027050090270500906F
:1001A000270500902705009027050090270500905F
:1001B000270500902705009027050090270500904F
:1001C000270500902705009027050090270500903F
:1001D00027050090AD660090270500902705009048
:1001E000270500902705009027050090270500901F
:1001F000270500902705009027050090270500900F
:1002000027050090270500902705009027050090FE
:1002100027050090270500902705009027050090EE
:10022000270500902705009027050090000000009A
:10023000270500902705009000000000270500908A
:1002400027050090270500902705009027050090BE
:1002500027050090270500902705009027050090AE
:10026000270500902705009027050090270500909E
:10027000270500902705009027050090000000004A
:10028000270500902705009027050090000000003A
:10029000000000002705009000F002F800F0C4F80C
:1002A0000AA090E8000C82448344AAF10107DA45D1
:1002B00001D100F0B9F8AFF2090EBAE80F0013F05F
:1002C000010F18BFFB1A43F001031847F8B00000F4
:1002D00038B100000A444FF0000C10F8013B13F055
:1002E000070408BF10F8014B1D1108BF10F8015B8F
:1002F000641E05D010F8016B641E01F8016BF9D182
:1003000013F0080F1EBF10F8014BAD1C0C1B09D1D8
:100310006D1E58BF01F801CBFAD505E014F8016B4A
:1003200001F8016B6D1EF9D59142D6D370470000DC
:10033000103A24BF78C878C1FAD8520724BF30C811
:1003400030C144BF04680C607047000000230024E3
:1003500000250026103A28BF78C1FBD8520728BFD5
:1003600030C148BF0B6070476E2900F02D847029A2
:1003700000F08D8566290AF05C8265290AF05982B1
:1003800067290AF0568261290AF0558203681B0A20
:1003900028BF41F08001692900F08881642900F0BC
:1003A0008581752900F082816F2900F01A857829EE
:1003B00000F05985E92900F0B584E42900F0B28401
:1003C000F52900F0AF84EF2900F01785F82900F037
:1003D00058850368DB0928BF41F08001632900F0DC
:1003E0003684732900F03B84E32901F07781F329F7
:1003F00001F07C81002070471FB50AF015FA9DE8D6
:10040000030000F019FB01F0CBF9040000200021EB
:100410000AF0F4F9401C6060002000210AF0D8F9CD
:10042000E0601FBD10B510BD01F08CF91146FFF75B
:10043000E3FF08F0C7FF01F069FA03B4FFF7F2FF2A
:1004400003BC01F099FA00002D4B19680868B0E868
:10045000F04F80F30988BFF36F8F4FF0000080F3F7
:10046000118870470000000008480068006880F3A9
:1004700008884FF0000080F3148862B661B6BFF3BD
:100480004F8FBFF36F8F00DF00BF00BF08ED00E0AC
:10049000DFF80C00016841F470010160704700BF93
:1004A00088ED00E0EFF30980BFF36F8F144B1A68FB
:1004B0001EF0100F08BF20ED108A20E9F04F1060E9
:1004C00009B44FF0400072B680F31188BFF34F8F2C
:1004D000BFF36F8F62B609F0DDFD4FF0000080F3CF
:1004E000118809BC19680868B0E8F04F1EF0100FB9
:1004F00008BFB0EC108A80F30988BFF36F8F704794
:1005000064010020EFF30580704700000948804730
:1005100009480047FEE7FEE7FEE7FEE7FEE7FEE7E5
:10052000FEE7FEE7FEE7FEE704480549054A064BFD
:1005300070470000AD7800909902009058C40524DF
:10054000580A062458E6052458E6052470B50646E0
:1005500000F056FA056806F10B0020F00704B442DB
:100560009CBF002070BD2B466A68BAB11068A042DB
:1005700010D304F1080188423CBF5068586007D38B
:100580005168101941601168091B016058601460BE
:10059000101D70BD13465268002AE7D12146284637
:1005A00000F036FA0028DED170BD70B50446051F94
:1005B00000F026FA0068002C14BF446870BD002CBF
:1005C00018BFAC423CBF20466468F8D301680A18E3
:1005D000AA4218BF456003D12A680546114401604C
:1005E00028684119A1421CBF6C6070BD61686960D8
:1005F00021680844286070BD7CB51D4616460C0075
:10060000009001D02044401E074B7B442A46694697
:100610000190304600F0F1FA05461CB10020694611
:1006200000F0FEFA28467CBD1D0600000FB41CB584
:10063000084B06AA7B4469460090059800F0DDFA55
:1006400004460020694600F0EBFA20461CBC5DF829
:1006500014FB0000E905000070B50C460546012AB0
:1006600005D02878800600D5EA69002302E001233E
:1006700005E05B1C934202D2E05C0028F9D1A86936
:10068000E618C01AA861286A18442862284600F0B3
:1006900009FA04E0D5E9012114F8010B9047B442AE
:1006A000F8D3284600F014FA70BD00002DE9F0419F
:1006B0000646002410687529314616A510D000F0B2
:1006C00018FA002802DA404213A507E031688A07C9
:1006D00001D512A502E0490704D511A5012401E0C6
:1006E00000F010FA00210A2206F1240709E0B0FB0D
:1006F000F2FCB0FBF2F302FB1C00303078541846D9
:10070000491C0028F3D123462A463046BDE8F04173
:1007100000F001BA000000002D0000002B000000D6
:10072000200000002DE9F05F894604464FF0000AE2
:10073000DFF874B1FB44C0F820A02046E168884788
:10074000002874D0252806D0D4E901219047206ADA
:10075000401C2062F1E700265F462046E16888479A
:100760002028054607DB312D05D2781910F8200C1A
:1007700008B10643F1E7B00701D526F00406C4F836
:100780001CA00027C4F818A02A2D09D0284608F07C
:10079000A7FD38B304EB8708303DC8F8185019E0BE
:1007A00059F8041B204604EB87029161E1688847F1
:1007B000012F054618D1E069002820DA26F020062E
:1007C0001DE0D8F8180000EB800005EB4000303841
:1007D000C8F818002046E1688847054608F080FD03
:1007E0000028EED1012F0AD02E2D08D12046E16835
:1007F00088477F1C0546022F46F02006C4DBA0690F
:10080000002803DA404246F00106A061F00701D05B
:1008100026F010066C2D0BD0682D09D04C2D39D048
:100820006A2D35D0742D35D07A2D33D016E038E0CE
:10083000E1682F4620468847B842054609D16C2F0B
:1008400026D04FF48060E16806432046884705467D
:1008500004E06C2F1AD04FF4807006430DB3A5F15D
:100860004100192802D8203546F400664A46294638
:10087000204626604E46FFF777FD80B101280BD059
:10088000F61D26F0070000F1080956E74020E4E7CE
:100890008020D8E70020D6E706F104094DE7284676
:1008A00052E7206ABDE8F09F8CAB0000032A40F2BB
:1008B000308010F0030C00F0158011F8013BBCF102
:1008C000020F624498BF11F801CB00F8013B38BF1A
:1008D00011F8013BA2F1040298BF00F801CB38BF28
:1008E00000F8013B11F0030300F02580083AC0F046
:1008F000088051F8043B083A51F804CBA0E80810EE
:10090000F5E7121D5CBF51F8043B40F8043BAFF320
:100910000080D20724BF11F8013B11F801CB48BF7A
:1009200011F8012B24BF00F8013B00F801CB48BFB0
:1009300000F8012B704710B5203AC0F00B80B1E8E9
:100940001850203AA0E81850B1E81850A0E8185004
:10095000BFF4F5AF5FEA027C24BFB1E81850A0E80D
:10096000185044BF18C918C0BDE810405FEA827C27
:1009700024BF51F8043B40F8043B08BF7047D2073E
:1009800028BF31F8023B48BF11F8012B28BF20F8DF
:10099000023B48BF00F8012B704702F0FF0343EA17
:1009A000032242EA024200F07FBA4FF0000200B593
:1009B000134694469646203922BFA0E80C50A0E882
:1009C0000C50B1F12001BFF4F7AF090728BFA0E830
:1009D0000C5048BF0CC05DF804EB890028BF40F8FC
:1009E000042B08BF704748BF20F8022B11F0804F3E
:1009F00018BF00F8012B7047704770477047000020
:100A000000487047FCC30524704770477047704723
:100A100038B504460A4600206946AFF30080002836
:100A200008BF38BD02460099204600F061FA012057
:100A300038BD012000F07EBEF8B5AFF3008005465A
:100A400000200C46102000BF0646A819A0420DD970
:100A5000324669460020AFF30080070008BF00F06F
:100A600069FE0098A04218BF0546C419FFF7C8FFE9
:100A700005600746F01D20F007004619284600F0E3
:100A80000AF8B44208BFF8BDA21B31463868BDE879
:100A9000F84000F02DBA00210160C0E90110704754
:100AA0001020704770B5044685690068C10601D5FD
:100AB000302600E02026C00707D070BDD4E9012110
:100AC00030469047206A401C20626D1EF6D570BDEE
:100AD00070B5044685690078C00707D170BDD4E9B8
:100AE000012120209047206A401C20626D1EF6D50F
:100AF00070BD09684A0501D540B27047C905FCD5EB
:100B000000B2704709684A0501D5C0B27047C905EF
:100B1000FCD580B270472DE9F0470D4699469246C4
:100B2000044600F124080168880604D5E06921F034
:100B30001001216000E00120A84201DD471B00E018
:100B40000027A1697A1902EB0900081AA061207830
:100B5000C00602D42046FFF7A5FF002608E0D4E92E
:100B600001211AF806009047206A401C761C20627A
:100B70004E45F4DB2078C0060AD52046FFF792FFE9
:100B800006E0D4E9012130209047206A401C206211
:100B9000381EA7F10107F4DC07E0D4E9012118F8B9
:100BA00005009047206A401C2062281EA5F101051F
:100BB000F3DC2046FFF78CFF2078000602D50220E8
:100BC000BDE8F0870120FBE711680268006A530561
:100BD00001D508700AE0D30501D5088006E01306A8
:100BE00003D5C217C1E9000200E008600120704788
:100BF00001694A1C02610878704700B58FB0CDE9E1
:100C000001310021059105497944CDE903101146D0
:100C10006846FFF787FD0FB000BD0000E5FFFFFF4E
:100C20000A6802F8010B0A607047D1E900239A4272
:100C300002D2531C0B601070704710B5436913B19A
:100C4000AFF3008001E0FFF707FD012010BD12782F
:100C500000F124010A7000224A700122EDE71168B8
:100C60004FF0FF32E9E700002DE9FF5F15468A46A5
:100C70000446DFF8AC80F8440027D8E900103E466F
:100C8000CDE9001010E03AF816106A4602A800F00C
:100C900031FD411C07D02178890603D5E269391856
:100CA00091420DD80744761C2078800602D5E06971
:100CB000B84205DDAE42E6DB3AF816000028E2D184
:100CC000A069C01BA0612046FFF7ECFED8E9001028
:100CD000CDE90010002017E03AF818106A4602A883
:100CE00000F008FDB0F1FF3F81460BD000250DF16B
:100CF000080B05E0D4E901211BF8050090476D1CA5
:100D00004D45F7D308F10100B0428046E4DB206A8C
:100D1000384420622046FFF7DBFEBDE8FF9F00005D
:100D20005EA600002DE9F0418046D21D22F00702A8
:100D30000025D2E90002F52915A614D0011E72F192
:100D4000000106DA0023D0EB030063EB020211A6D8
:100D500008E0D8F800108B0701D50FA602E049077C
:100D600001D50EA601251146002408F1240704E050
:100D700000F0D8F830323A55641C50EA0102F7D13D
:100D80002B46324621464046BDE8F041FFF7C3BE40
:100D9000000000002D0000002B00000020000000DB
:100DA00030B4002100F1240408E002F00705D20865
:100DB000303542EA4372DB086554491C52EA0305A8
:100DC000F3D10468002310A2250707D5A40600D498
:100DD00021B1C46901230DA2641EC46130BCFFF7B8
:100DE0009ABE10B5044621461068FFF78BFE0246F6
:100DF0002046BDE810400023D2E7D21D22F00701B3
:100E0000D1E90023CCE70000000000003000000022
:100E1000F0B40D460188090502D5214C7C4402E05E
:100E20001F4C7C440E34002100F1240608E002F03F
:100E30000F071209E75D42EA03721B097754491C48
:100E400052EA0307F3D102780023120704D5702D6C
:100E500006D009B1022311342246F0BCFFF75BBE75
:100E600001231034F8E770B504460D46214610689A
:100E7000FFF748FE024629462046BDE870400023A1
:100E8000C6E7D21D22F00703D3E90023C0E70368B9
:100E9000126843F0200303600823C3610023B7E70F
:100EA000C0A400004FF000020429C0F0128010F02E
:100EB000030C3FF47CADCCF1040CBCF1020F18BF65
:100EC00000F8012BA8BF20F8022BA1EB0C01FFF7C3
:100ED0006EBD5FEAC17C24BF00F8012B00F8012B36
:100EE00048BF00F8012B704700487047F4C3052441
:100EF000034640688C46002818BF88423CBF034622
:100F00004068F8D318681844884207D00CF10300F1
:100F100020F00700001D411A521A0146081D0A6000
:100F2000FFF743BB30B5B0F10A024FEA900E71F102
:100F300000034EEA817EB0EB0E0061EB91014FEAB7
:100F4000101E4EEA017E10EB0E0041EB11114FEA2C
:100F5000102E4EEA016E10EB0E0041EB11214FEA0C
:100F6000104E4EEA014E10EB0E0041EB11414018BD
:100F700041F100014FEAD00040EA41704FEAD1014F
:100F800010EB80054FEA810444EA907444EB0104BD
:100F90006D1944EB0404521BA3414FF0000348BFFA
:100FA0000A3200D530BD401C41F1000130BD704710
:100FB0002DE9FF4F0C461E464FF0FF378BB0D2E9AC
:100FC0000001DDF860800A908A46C1F30A5505B930
:100FD0003D46002108464FF00000BAF1000F00F432
:100FE000400005DA00EB80004FF4400101EA5000B8
:100FF0004FEA9059B9F1010F00DDB9460A9850EA5D
:101000004A000ED044F61050A5F2FF3545432F1488
:10101000B8F1000F1ED07542291E1EDDC9F1000275
:101020001CE0B8F1010F4FF0000001D0302103E0C7
:10103000F24305E02154401CB042FBDB3046002265
:10104000002121540B99C1F80880C1E900200FB09C
:10105000BDE8F08FBD1B6D1CDEE74A4600DA694231
:1010600006A800F0E1FB06AB93E8070003AB83E8BA
:10107000070050460A9900F0DAFC8DE80700A0F559
:1010800000501F3800900398002D0ADD42F21F0126
:101090004A460844002303A90390684600F043FF32
:1010A00009E0A0F500504A461F38002303A9039029
:1010B000684600F04DFF8DE807000004000C03D0E7
:1010C0004FF0FF30410800E01046B8F1000F03D0A8
:1010D0000022009215461EE0751E05D4FFF722FF80
:1010E000303262556D1EF9D5B3460122084302D055
:1010F00000227F1C04E02078302801D100227F1ECE
:10110000002A099784D01DE0112D07DAFFF70AFFA6
:10111000303262556D1C50EA0102F5D1084302D00D
:101120000098C8B10EE00021681E05E0235C625CF7
:1011300063542254401E491C8142F7DBAB46A81B76
:10114000401E0990002004F80B000B98099AC0F883
:101150000880C0E9002B7AE711264FF0000857E716
:101160002DE9F04F88460446D21D22F0070191B0C8
:10117000D1E90001CDE90A0108F089F802460B988F
:10118000C00F01D02D2007E02068810701D52B205A
:1011900002E0202101EAC000032A099001D0072AB9
:1011A00005DB03464146204600F0FEFA0BE12078BD
:1011B000800601D5E06900E00620B8F1650F8146A0
:1011C00006D0B8F1660F18D0B8F1670F70D131E0D2
:1011D0000020B9F1110F009001DB112301E009F1AA
:1011E00001030AAA01A90CA8FFF7E2FEDDE90C70D1
:1011F000002609F10105834647E001204B46009097
:101200004FF000470AAA01A90CA8FFF7D1FEDDE9BB
:101210000DB00C995D46002610B909F101000D18BA
:10122000B9EB050003D4C0F1FF3609F10105A5EBC8
:1012300009002BE0B9F1010F01DA4FF0010900209C
:10124000B9F1110F0090484601DD112300E003467B
:101250000AAA01A90CA8FFF7ABFEDDE90C704D4608
:1012600000268346207800070AD4AB4500DA5D46A5
:1012700001A8012D04DD411911F8011C302907D006
:101280004F4502DA17F1040F04DA012082460FE01D
:101290006D1EEEE7002F02DCED1B3E4403E0781CE0
:1012A000A84200DD7D1CB81B00F1010A4FF0004789
:1012B0002078000703D4AA4501DB4FF0FF3A002154
:1012C000B7F1004F0DF143088DF8431024D00220F0
:1012D0002B23002F01DA7F422D230A21021EA0F1C9
:1012E000010000DC5FB197FBF1FC97FBF1F201FB21
:1012F0001C7C17460CF1300C08F801CDEEE7A8F184
:10130000010003702188090501D5452100E0652110
:10131000A0F1010800F8011C09980FA9A1EB08072A
:10132000FF1D00B10120411901EBEA70A1693844A9
:10133000081A401EA0612078C00602D42046FFF79C
:10134000B1FB099828B1D4E901219047206A401CDB
:1013500020622078C00622D52046FFF7A3FB1EE0BE
:10136000002E04DBB34502DD01A8805D00E03020E3
:10137000D4E901219047206A401C2062761CAAF122
:1013800001005FEA000A0AD100F00AFAC0680168A9
:10139000405CD4E901219047206A401C2062281E4D
:1013A000A5F10105DCDC07E0D4E9012118F8010B07
:1013B0009047206A401C2062381EA7F10107F3DC29
:1013C0002046FFF785FB032011B041E62DE9F04FE1
:1013D00004460D46D21D22F0070089B0D0E90097DF
:1013E0004846394607F053FF0246F80F01D02D2337
:1013F00007E02068810701D52B2302E0202101EAC4
:10140000C0038DF820300BB1012000E00020032A3A
:10141000824601D0072A04DB2946204600F0C4F9A1
:101420003FE12078800601D40D2500E0E569C7F38F
:101430000A560D2D49DA00214FEA175B08464FF096
:101440000000002F00F4400007DA00EB80004FF4AA
:10145000400100EBD07001EA60008115012901DD37
:101460004FF0FF3100224FEA850CBCF1180F06D374
:101470001346ACF118004FF08052C24003E04FF425
:10148000801323FA0CF30CF10C0CBCF1200F04D3E5
:10149000ACF1200C09FA0CF001E007FA0CF000297D
:1014A0004FF0004801DD18B90FE00ED140450CD3D4
:1014B00019EB02095F4121B9404502D19F4329EA56
:1014C0000209BBEB175F00D0761C2088000502D50F
:1014D0007B48784402E07A487844193808AA3023D7
:1014E00002F80A30037C0AF10101002E0AF1020A17
:1014F00053546A4602DC4FF0300101E04FF03101F5
:101500004FF001088DF8001002D0A6F2FF3603E07C
:1015100059EA470100D06B4E002D02DC2178090703
:1015200004D54FF002082E218DF80110C446002189
:101530000BE0C7F303433F01C35C491C6D1E02F877
:101540000830052908F1010801DA002DF1DC00213D
:101550000CE000EB1973491C1B786D1E082902F87A
:1015600008304FEA091908F1010801DA002DF0DC12
:1015700021688B0602D516E0A8F10108E04505DDDB
:1015800002EB080313F8013C302BF5D0B8F1000F43
:1015900009DD02EB080313F8013C2E2B03D10907E8
:1015A00001D4A8F10108002D05DD3E2102F8081044
:1015B0006D1E08F10108407C002E02F8080008F1B9
:1015C000010804DA2D20764202F8080002E02B2000
:1015D00002F808000A214FF47A70864208F10108E7
:1015E0000BDB96FBF0F3303302F8083096FBF0F398
:1015F00008F1010800FB136601E0642E0CDB642097
:1016000096FBF0F3303302F8083096FBF0F308F164
:10161000010800FB136601E00A2E06DB96FBF1F0E1
:10162000303002F8080008F1010896FBF1F001FBE8
:101630001060303002F80800A16908F1010808EBD9
:10164000050202EB0A00081AA0612078C00602D445
:101650002046FFF727FA216A08AE01EB0A00206254
:1016600004E0D4E9012116F8010B9047BAF1010A10
:10167000F7D22078C00602D52046FFF713FA6E464F
:1016800009E016F8010B3E280FD0D4E9012190475C
:10169000206A401C2062B8F10108F2D22046FFF710
:1016A00017FA09B00320BDE8F08F206A28442062B1
:1016B00003E0D4E90121302090476D1EEBD3F8E719
:1016C000459E000002FCFFFF10B5436913B1AFF364
:1016D000008001E0FFF7C8FA012010BD128800F178
:1016E000240182840022C2840122EDE711684FF0B8
:1016F000FF32E9E770B516460C46054600F048F89B
:10170000036893F80101012806D0FF2C0FD8185D5B
:1017100068B101202C7070BDD3F807013246214614
:1017200003F2071303442846BDE8704018474FF002
:10173000FF3070BD10B500F0F7F8BDE8104000F0C4
:10174000EEB870477546FFF7CFFBAE460500694619
:10175000534620F00700854618B020B5FEF7E4FE9A
:10176000BDE820404FF000064FF000074FF00008A2
:101770004FF0000B21F00701AC46ACE8C009ACE823
:10178000C009ACE8C009ACE8C0098D46704700004C
:1017900010B500F005F8001D10BD00BF61900000FD
:1017A0000048704714C405242DE9F0411F46044643
:1017B00003260168072A01F4006004DB08B116A5BE
:1017C00005E016A503E008B115A500E015A521F078
:1017D00010002060A069C01EA0610FB1401EA06172
:1017E0002046FFF75FF94FB1D4E901213846904711
:1017F000206A401C2062C01C206206E0206AFAE7D2
:10180000D4E9012115F8010B9047761EF8D2204645
:10181000FFF75EF9BDE8F0814E414E006E616E004B
:10182000494E4600696E66002DE9F047814616462E
:101830008AB0354878440DC88DE80D0032487844A8
:10184000801C03AC0DC884E80D0041F69B300844B1
:10185000372190FBF1F290FBF1F5A5F1800501FB3A
:1018600012041B3C02D56442012000E00020DFF896
:1018700098A080460027FA44AAF1BE0A0EE0E007CD
:101880000AD03246684607EB470101230AEB810183
:1018900000F05EFB8DE8070064107F1C002CEED189
:1018A000194F7F44AE3F19E0E80715D007EB04104D
:1018B0000DF1180A90E80E008AE80E00C068F042A8
:1018C00001D1981908903246012306A903A800F017
:1018D0003FFB03AB83E807006D10641C002DE3D1D0
:1018E0004FF0010332466946B8F1000F03A802D059
:1018F00000F019FB01E000F02BFBC9E90001C9F879
:1019000008200AB0BDE8F087749B000010B50446BB
:10191000AFF300802046BDE81040FEF78EBD0028E2
:1019200001D000F029B8704710B5012805D000217A
:1019300003A000F027F8012010BD09A1F8E700007E
:1019400053494752544D454D3A204F7574206F66A8
:101950002068656170206D656D6F72790000000010
:101960003A2048656170206D656D6F727920636FF4
:10197000727275707465640001491820ABBEFEE791
:101980002600020070B505460C460A2000E06D1CDA
:1019900000F046F835B128780028F8D102E0641C40
:1019A00000F03EF814B120780028F8D1BDE870406E
:1019B0000A2000F035B800004FF0013C50F8042B2D
:1019C00051F8043B9A4215D1A2EB0C03934313EA5E
:1019D000CC130BD150F8042B51F8043B9A4209D197
:1019E000A2EB0C03934313EACC13E7D04FF00000B3
:1019F000704700BFD01A01BAB1FA81F101F01801A5
:101A000022FA01F0CB40C1F12001DBB2C0B2C01A12
:101A10002CFA01F3D11A914311EAC311E6D17047B0
:101A200008B569468DF800000320ABBE08BD5FEA2B
:101A3000400C08BF91F0000F4FEA8C234FEAC122FF
:101A400043EA51514FEA1C5018BF00F5F0404FEAED
:101A5000300018BF41F000415FEA6C5C00F0298063
:101A6000BCF1FF3F08BF40F080407047130C06BF39
:101A700012044FF0100C4FF0000C130E04BF1202B2
:101A80000CF1080C130F04BF12010CF1040C930F9E
:101A900004BF92000CF1020CD30F04BF52000CF1F2
:101AA000010C11464FF00002A0F11F00A0EB0C004A
:101AB000704711F0004F08BF704731F000413FF40C
:101AC000D5AF0B0C06BF09044FF0100C4FF0000C03
:101AD0000B0E04BF09020CF1080C0B0F04BF090127
:101AE0000CF1040C8B0F04BF89000CF1020CCB0F1E
:101AF00004BF49000CF1010CCCF12003A0EB0C0059
:101B000022FA03F302FA0CF241EA030100F10100A8
:101B1000704720F07F4C80EA030023F07F47ACEB56
:101B2000070303F57C5300F0004003F1FF032DE9A8
:101B300080494FEA154B09B44FEA144325EA0B4E8E
:101B400024EA03480FF2042606EB132749083E78DF
:101B50005FEA320203FB0667C7F5000707FB06F6DC
:101B60004FEA54374FEAD64606F1020607FB066CE9
:101B7000CCF1005C4FEA1C472CEA074C07FB06F44B
:101B80000CFB06F504EB15464FEA961634BF002011
:101B90004FF000404FEAD13706FB07FC4FEA1C4CE0
:101BA0000CFB0BF7D21B03FB0CF761EB07010CFBE3
:101BB0000EF7B0EB074072EB17420CFB08F734BF8F
:101BC000A2EB0742B2EB074261EB17414FEA0C442C
:101BD0004FEA910706FB07FC4FEA1C4C0CFB0BF786
:101BE000B0EBC74072EB573203FB0CF734BFA2EBEC
:101BF000C742B2EBC74261EB57310CFB0EF7B0EBBB
:101C0000C70072EB57720CFB08F734BFA2EBC70298
:101C1000B2EBC70261EB5771039F4FEA816141EA62
:101C2000921104EBCC044FEAD1374FEA826206FBF3
:101C300007FC42EA90124FEA80604FEA1C4C0CFB12
:101C40000BF7D21B03FB0CF761EB07010CFB0EF744
:101C5000B0EB074072EB17420CFB08F734BFA2EB66
:101C60000742B2EB074261EB17414FEA8C554FEA4E
:101C7000910704EB9C2406FB07FC4FEA1C4C0CFB71
:101C80000BF7B0EBC74072EB573203FB0CF734BFD6
:101C9000A2EBC742B2EBC74261EB57310CFB0EF728
:101CA000B0EBC70072EB57720CFB08F734BFA2EB26
:101CB000C702B2EBC70261EB577115EB4C254FEA37
:101CC000816141EA92114FEA82624FEAD13742EADA
:101CD000901206FB07FC44F100044FEA80604FEAD3
:101CE0001C4C0CFB0BF7D21B03FB0CF761EB070141
:101CF0000CFB0EF7B0EB074072EB17420CFB08F73A
:101D000034BFA2EB0742B2EB074261EB174115EB80
:101D10001C154FEA813141EA92414FEA823242EA90
:101D200090424FEA80304FEA0C7644F1000448EAD2
:101D300003434EEA0B484FF0000EB2EB080C71EB78
:101D4000030724BF624639464EEB0E0E4FF0000BE0
:101D50000018524149414BEB0B0BB2EB080C71EBF5
:101D600003077BF1000B24BF624639464EEB0E0E93
:101D70004FF0000B0018524149414BEB0B0BB2EBFB
:101D8000080C71EB03077BF1000B24BF6246394658
:101D90004EEB0E0E51EA020718BF46F0010616EB95
:101DA0000E7655F1000254F1000103D5BDE889011A
:101DB000BDE80088BDE88901BDE80048B619524178
:101DC00041EB0101A3F10103704780807F7E7D7CA0
:101DD0007B7A7978777676757473727171706F6EBD
:101DE0006E6D6C6C6B6A6A69686867666665646468
:101DF000636362616160605F5F5E5E5D5D5C5C5BF2
:101E00005B5A5A5959585857575656555555545460
:101E1000535352525251515050504F4F4F4E4E4DBE
:101E20004D4D4C4C4C4B4B4B4A4A4A49494948480A
:101E3000484747474746464645454544444444434A
:101E400043434342424242414141002B9C4630D4ED
:101E500077002BD01CB54FEA370703B44FF01000C2
:101E60004FF01001BAF1000F06D0BCF1000FDCBF3B
:101E700040F0080040F008014FF000000FBCBDE842
:101E800010400BF1010BBBF1010F08BF5FEA170710
:101E900022BF12F1010211F101014FF0004143F1A3
:101EA000000300F0004043EA00007047F9D35708F0
:101EB000D0E746EA064613F1400F4FEA16461FDD0B
:101EC00013F1200FDFBF16430A46002120335B4287
:101ED000BED0C3F1200746EA064602FA07F74FEAEA
:101EE000164646EA0706C3F1200722FA03F201FA72
:101EF00007F721FA03F14FF0000342EA0702A7E7D0
:101F000046EA020646EA06464FEA164646EA010651
:101F1000BCBF46EA0646360C4FF000034FF0000205
:101F20004FF0000194E72DE9804C9A46934670B437
:101F300091E8380007C831EA400C48BF34EA430C46
:101F400003D5FFF7E6FDFFF780FFF0BCBDE8008C8E
:101F50002DE9804C9A46934670B491E8380007C842
:101F600010F0804F08BF13F0804F03D100F005F848
:101F7000FFF76BFFF0BCBDE8008C20F07F4780EAE4
:101F8000030023F07F4C07EB0C03A3F57C5300F018
:101F90000040A3F1FE0392F0000F00F0B38095F033
:101FA000000F00F077802DE901494FEA11404FEA18
:101FB000144621EA004800FB06FC24EA064708FB19
:101FC00006F607FB08F800FB07F718EB06484CEB92
:101FD000164C4FEA124B18EB07484FEA15464CEBEC
:101FE000174022EA0B4E0BFB06FC25EA06470EFBC8
:101FF00006F607FB0EFE0BFB07F71EEB064E4CEB3F
:10200000164C4FF000061EEB074E4CEB174B18EB2F
:102010000B0840F1000018EB0E0B58EB000840F1E4
:1020200000008F1A4FF000013CBFC943661B14BF6C
:10203000B5EB040C00213CBFC943F61B4FEA174423
:102040004EEA8E0E27EA04454FEA1C4704FB07625E
:102050002CEA074C05FB07F70CFB05F604FB0CFC10
:1020600016EB074642EB174216EB0C4642EB1C42BE
:102070001BEB060658EB0202414146EA9E0601D5DB
:10208000BDE80189B619524141EB0101A3F10103F9
:10209000BDE801894FEA14454FEA114724EA054695
:1020A00021EA074C05FB07F406FB07F70CFB06F1DA
:1020B00005FB0CFC11EB074144EB17444FEA1247B8
:1020C00011EB0C4144EB1C4422EA074C05FB07F2E0
:1020D00006FB07F70CFB06F605FB0CFC16EB0746A8
:1020E00042EB174216EB0C4642EB1C456A1854F1C2
:1020F000000148BF7047B619524141EB0101A3F1FD
:102100000103704795F0000F37D04FEA11424FEAB4
:10211000144721EA024624EA074C02FB07F106FBBA
:1021200007F70CFB06F402FB0CFC14EB074441EB35
:1021300017414FEA154714EB0C4441EB1C4125EACB
:10214000074C02FB07F506FB07F70CFB06F602FB44
:102150000CFC16EB074645EB174516EB0C4645EB1A
:102160001C42121951F1000148BF7047B619524183
:1021700041EB0101A3F1010370474FEA14454FEA17
:10218000114724EA054621EA074C05FB07F106FB47
:1021900007F70CFB06F24FF0000605FB0CFC12EBF8
:1021A000074241EB174112EB0C4251EB1C4148BF77
:1021B0007047921841EB0101A3F101037047000041
:1021C00003484FF4004110B500F01CFA012010BD87
:1021D000001002580146014802F0AEBEA4010020E2
:1021E000044810B502F0BAFE042801D0012010BD49
:1021F000002010BDA401002010B500F015F8012842
:1022000001D0022010BD074802F01CFF040006D1D7
:1022100004484FF4804102F017FD00B1012420462C
:1022200010BD0000A401002008B501208DF80000B9
:10223000FFF7C6FF10B900208DF800009DF80000E0
:1022400008BD000038B50024009313460A46014635
:10225000034802F0E1FF00B10124204638BD000030
:10226000A401002038B50024009313460A46014615
:10227000034803F0B3F800B10124204638BD000044
:10228000A4010020FEE700207047002070470000F6
:1022900005490022054810B505F004FD044903482E
:1022A00005F0FAFC002010BDBC0B002470020020D9
:1022B000BC0300240F4A10B50868116808440E4991
:1022C000B0F5006F10600FD28B1EC35C0D2B0BD0CE
:1022D0004B1EC35C0A2B07D00144084805F0DCFC08
:1022E000064805F0BEFC03E00124546000230B54B3
:1022F000002010BD58000020BC0300247002002004
:10230000002070472DE9F0410E46074600F092F993
:1023100005461348D0F8BC42D4F8140220B100F0AE
:1023200089F9401B0A2812D80D483246394605F073
:10233000B9FC0B4805F017FD064600F07BF9054691
:1023400008E000BF00F076F9401B0A2802D90120FE
:10235000BDE8F081D4F814020028F3D13046F7E745
:1023600070020020704772B6FEE70022AFF30080D3
:102370000E4B70B505465C7A0120002C14D15E7AB4
:1023800003F108009C555E7A03EB860675605D7A62
:102390002A54587A421C5A723A232F22303008703D
:1023A0004B7020468A70CC7070BD00004809002038
:1023B00070B5044600F03EF90546601C02D00448A2
:1023C0000078044400F036F9401BA042FAD370BDF7
:1023D000740000202DE9FC4F01257E4C00234FF0B6
:1023E000030A4FF0B04E4FF00F0BEBE005FA03F687
:1023F00037403A0077D04F68012F05D0022F03D025
:10240000112F01D0122F1AD187684FEA4308D1F853
:102410000CC00AFA08F927EA09070CFA08FC4CEA8A
:10242000070CC0F808C0476891F804C0B743CCF364
:10243000001C0CFA03FC4CEA070CC0F804C0C66888
:102440004FEA430CD1F80880E1460AFA0CF7BE4384
:10245000019708FA09F848EA0608C0F80C804E68A7
:10246000022E01D0122E12D1DE084FEA437C00EB7F
:10247000860600960F69366A4FEADC6C0BFA0CF898
:1024800007FA0CF726EA08063743009E37620E79F2
:102490000768DDF804C006F0030606FA09F627EA25
:1024A0000C073E4306604E68F6001CD54A4E37685E
:1024B00047F00207376036689F0706F0020600966D
:1024C00023F0030606F1B046B1463F0FD6F8086484
:1024D000DFF808810BFA07FC404526EA0C0603D119
:1024E0004FF0000C41E06CE0DFF8F4C0604502D131
:1024F0004FF0010C39E0DFF8ECC0604502D14FF03D
:10250000020C32E0DFF8E0C0604502D14FF0030C6E
:102510002BE0DFF8D8C0604502D14FF0040C24E076
:10252000DFF8CCC0604502D14FF0050C1DE0DFF8AC
:10253000C4C0604502D14FF0060C16E0DFF8B8C009
:10254000604502D14FF0070C0FE0DFF8B0C06045E6
:1025500002D14FF0080C08E0DFF8A4C0604502D1BA
:102560004FF0090C01E04FF00A0C0CFA07FC4CEAA2
:10257000060CC9F808C426684F6826EA0206FF035D
:1025800000D51643266066684F6826EA0206BF0338
:1025900000D516436660D1F804C07646DEF80070B8
:1025A0005FEACC2C27EA020700D517433760D1F841
:1025B00004C077685FEA8C2C27EA020700D517432E
:1025C00077605B1C0A681746DA407FF40FAFBDE8FE
:1025D000FC8F000080000058F444025800000258AC
:1025E0000004025800080258000C0258001002585B
:1025F0000014025800180258001C0258002002580B
:10260000002402580069084000D001207047426948
:1026100031EA020200D10904816170470AB1816187
:1026200070470904FBE7000001480068000C704790
:102630000010005C014880687047000074000020B2
:1026400030B590F84120202A24D190F84020012A6A
:1026500020D0012380F84030242280F8412020231C
:1026600000240268156825F00105156002681568E8
:1026700025F480551560026815680D4315600168E2
:102680000A6842F001020A6080F8413080F8404058
:10269000002030BD022030BD30B590F84120202A06
:1026A00022D190F84020012A1ED0012380F840302A
:1026B000242280F84120202400250268136823F09A
:1026C000010313600268136823F4706343EA012175
:1026D000116001680A6842F001020A6080F8414016
:1026E00080F84050002030BD022030BD074908B5B9
:1026F0000A6842F002020A60096801F002010091D2
:1027000003490A6802430A6008BD0000F444025805
:102710000404005870B5040004D094F8410000256A
:1027200010B106E0012070BD204684F8405000F052
:102730004DF8242084F841002068016821F001014F
:102740000160D4E9001020F07060086120688168A1
:1027500021F400418160E06821680128A06806D06A
:1027600040F404408860E068022803D006E040F4AA
:102770000040F7E721684FF400604860202120689E
:10278000114A4368134343602068C26822F4004240
:10279000C26054F8106B0DCC104340EA0320F06087
:1027A00054F81C3CD4E900021043186054F81C0D86
:1027B000026842F001020260656484F841102563FA
:1027C00084F84250002070BD0080000210B586B031
:1027D000044614216846FEF7E8F813492068884249
:1027E00020D11248016841F0020101600068042311
:1027F000122200F00200059000204FF44061009189
:102800006946CDE90120CDE903030948FFF7E2FD60
:1028100006480830016841F480010160006800F456
:102820008000059006B010BD00580040E0440258FA
:1028300000040258024881680278114481607047A0
:1028400074000020032010B500F0A8F801F08AFE03
:102850000F4A104914681368C4F3032203F00F03EE
:102860008A5CC95C02F01F0201F01F01D0400A4AD5
:1028700020FA01F1116009490860002000F010F809
:1028800008B1012010BD00F04DF8002010BD00007F
:102890001844025850A800900800002404000024A6
:1028A00010B5102804468AB02AD200220146192009
:1028B00000F054F8192000F043F81548046015485A
:1028C000016841F001010160006808A900F0010001
:1028D0000990684601F0E4FD01F032FE0E49400027
:1028E00000220E4CB0FBF1F10D4840F2E7330460DA
:1028F000C0E90332491EC0E9011203F09BF810B190
:1029000001200AB010BD064803F0E2F8F9E7000024
:1029100078000020F044025840420F0000000140BF
:1029200070010024054808B5016841F0020101600A
:10293000006800F00200009008BD0000F444025856
:10294000002809DB410900F01F028900012001F184
:10295000E0219040C1F80001704700000E4BF0B438
:102960001B680D46C3F30223C3F10706042E00D9EA
:102970000426191D072901D2002300E0DB1E0124D3
:1029800004FA06F19C40491E2940641E99401440F7
:102990002143F0BC06F093BC0CED00E0064900F0CA
:1029A000070210B54FF6FF040868044B204040EAC8
:1029B00002201843086010BD0CED00E00000FA058D
:1029C00001680123C0F8FC33002280F8F4238869F1
:1029D000044A40F000608861486D1043486500205B
:1029E000704700000300001070470068416200203B
:1029F0007047F0B503685D6A39B19F6A4C1E0020CC
:102A00004FF4827605EB17450BE045EA02409862E9
:102A100010E0471C06EB800053F800C0F8B205EB4D
:102A20001C45A042F5D34FF4807000EB810045EACD
:102A300002421A500020F0BDD0F8040405F0D6BBC5
:102A4000C1EBC10200EB8202D0F80404926C05F0E5
:102A500041BBC1EBC10200EB8202D0F80404D2F802
:102A6000082205F08CBBD0F8040405F0C1BB01F0CE
:102A70000F020B0670B5C2EBC20104464FF0010015
:102A80004FF0000504EB810103D581F83D003C3196
:102A900003E081F8FD5101F5FE710A7094F8BC2342
:102AA000012A08D084F8BC03206805F03DFF00200F
:102AB00084F8BC5370BD022070BD70B542680446F6
:102AC00001F00F00904201D9012070BD01F00F020A
:102AD0004FF000050B06C2EBC2014FF0010204EB00
:102AE000810103D581F83D203C3103E081F8FD519F
:102AF00001F5FE718D70087094F8BC03012808D0B0
:102B000084F8BC23206806F009F9002084F8BC533F
:102B100070BD022070BD01F00F01C1EBC10100EBDF
:102B20008100D0F8140270472DE9F04101F00F0642
:102B300004460D064FF00100C6EBC6014FF000053C
:102B400004EB810103D581F83D003C3103E081F8BD
:102B5000FD5101F5FE714F788A60CB700E7007B1A0
:102B6000CE80022B00D10D7194F8BC23012A09D02C
:102B700084F8BC03206805F031FE284684F8BC5375
:102B8000BDE8F0810220FBE770B501F00F050C46AF
:102B90000026C5EBC50100EB8101C1F80822C1E99F
:102BA000843681F8FD6181F8FC5101F5FE710369FD
:102BB000012B00D10A612207027C006803D006F0D5
:102BC00005F9002070BD05F0EFFFFAE770B50D467E
:102BD0004168044605F00F00884201D9012070BD0C
:102BE00029064FF000064FF0010207D5C0EBC001E7
:102BF00004EB810181F83D203C3107E0C5EBC501C4
:102C000004EB810181F8FD6101F5FE718A700870A5
:102C100094F8BC03012807D084F8BC23206806F090
:102C2000A9F8280702D007E0022070BD217C04F536
:102C30007172206806F046F8002084F8BC6370BD0D
:102C40002DE9F04101F00F050C460026C5EBC5014A
:102C5000012700EB81018A64C1E9143681F83D70D7
:102C600001F83C5F0369012B00D10A612207027C55
:102C7000006804D006F0AAF80020BDE8F08105F055
:102C800093FFF9E72DE9FC5F05680446284606F046
:102C9000C6F900287ED1206806F0EDF9002879D029
:102CA000206806F0E8F9800704D52068416901F042
:102CB00002014161206806F0DEF9C10604F5717079
:102CC000009034D52068816921F0100181612F6A5C
:102CD00007F00F01C7F34340C1EBC101022804EB29
:102CE000810606F5FE7602D0062811D01AE047F6D6
:102CF000F070074216D0C7F30A12F168174628464B
:102D000006F0BDF9F168B0693944F160384408E073
:102D100000990822284606F0B2F9B069C7F30A11F3
:102D20000844B0612068816941F010018161206828
:102D300006F0A1F900034FF001094FF0080B5BD535
:102D40002068002606F076F9DFF8A8A3074651E0D0
:102D5000F8074DD02068F1B206F085F98046C0072B
:102D600007D005EB4611C1F8089B3146204603F019
:102D7000A3FC5FEA087022D505EB4611C1F808BB39
:102D80002068016C00EB461001915145D0F8081BFA
:102D900007D900E0ABE1090403D54FF40041C0F8C6
:102DA000081B204600F098FA0198504507D9206981
:102DB000012804D120680121009A05F083FF5FEA11
:102DC000C86004D505EB46111020C1F8080B5FEA76
:102DD000886004D505EB46102021C0F8081B5FEA87
:102DE000884005D505EB46114FF40050C1F8080B9B
:102DF0007F08761C002FABD1206806F03CF9400319
:102E00004FF0000A5CD5206806F00DF90026074651
:102E100054E0F80750D02068F1B206F012F980466D
:102E2000C00723D0D5F8342806F00F0C05EB461365
:102E300009FA0CF08243C5F83428C3F808992069D0
:102E400001280FD1C6EBC60004EB8000D0E91112B7
:102E50001144816436B9206D20B920680121009A9F
:102E600005F030FF2046F1B2FFF7EAFD5FEA087097
:102E700003D505EB4611C1F808B95FEAC86004D56F
:102E800005EB46111020C1F808095FEA486004D537
:102E900005EB46114020C1F808095FEA887004D5A7
:102EA00005EB46110220C1F808095FEA086003D566
:102EB0003146204603F066FC7F08761C002FA8D11F
:102EC000206806F0D8F8002811DAD5F8040820F0B8
:102ED0000100C5F8040894F8F403012839D020460D
:102EE00000F0DEF92068416901F00041416120688D
:102EF00006F0C1F800050BD5D5F80808C00702D0C8
:102F0000204600F011FA2068416901F40061416136
:102F1000206806F0B0F800010AD52068416901F088
:102F20000061416194F8F403D0B1204600F0FCF94F
:102F3000206806F0A0F8C00476D5D5F8040820F083
:102F40000100C5F804082068102106F049F80021A6
:102F500035E00021204684F8F4A3FFF745FDC1E7E2
:102F600084F8F4932068406D0121C0F38300C4F815
:102F7000F8032046FFF738FDDAE700BF05EB411004
:102F80004FF67F32C0F80829D0F8003923F4001337
:102F9000C0F80039D0F8003943F00063C0F80039B8
:102FA000C0F8082BD0F8002B22F40012C0F8002B38
:102FB000D0F8002B42F00062C0F8002B491C60687A
:102FC0008842DBD8D5F81C0840F00110C5F81C0871
:102FD000206B60B1D5F8840840F00B00C5F8840878
:102FE000D5F8440840F00B00C5F844080CE0D5F8CB
:102FF000140842F22B010843C5F81408D5F810084C
:1030000040F00B00C5F81008D5F8000820F4FE6069
:10301000C5F80008217C2068009A05F053FE20685E
:10302000416901F480514161206806F024F8800470
:1030300017D5206805F012FC206805F0E3FFE0607A
:1030400001F05CFA0146207B2368C2B2184606F004
:103050004DF8204600F00EF92068416901F4005156
:103060004161206806F007F8000707D5204600F008
:103070001BF92068416901F008014161206805F0F1
:10308000FAFFC00208D50021204600F035F820687C
:10309000416901F480114161206805F0ECFF800274
:1030A00008D50021204600F02BF82068416901F482
:1030B00000114161206805F0DEFF400007D5204681
:1030C000FFF7BAFC2068416901F080414161206846
:1030D00005F0D1FF40070AD520684568680702D58A
:1030E0002046FFF7C0FC2168486828434860BDE8D7
:1030F000FC9F00000A30544FD0F8040405F0CCB80F
:10310000D0F8040405F0CAB82DE9F04104008AB0F3
:1031100005D094F8BD030025266820B108E0012001
:103120000AB0BDE8F081204684F8BC5300F066F890
:10313000032084F8BD03F06BC00500D4256120682E
:1031400005F02CFD04F11001684628228846FDF7A1
:10315000F2FB94E80F0005F08FFB0227D8BB206834
:10316000002105F09AFF0020012610E0C0EBC0010D
:10317000421C04EB810181F83D6081F83F504D64B1
:103180008D640D6581F83C00A1F84200D0B2616801
:103190008142EBD8002011E0C0EBC001421C04EBDF
:1031A000810181F8FD5181F8FF51C1F80452C1F845
:1031B0000852C1F8105281F8FC01D0B26168814216
:1031C000EAD8282241466846FDF7B5FB94E80F008F
:1031D00005F028FC10B184F8BD73A0E7606A84F89C
:1031E000385084F8BD63012802D12046FFF7E8FB80
:1031F000206805F00BFC002092E7000010B586B0B7
:10320000044614216846FDF7D0FB17492068884220
:1032100028D11648016841F00101016000680A23C5
:10322000022200F00100059000204FF4C0510091EF
:103230006946CDE90120CDE903030D48FFF7CAF83F
:103240000A480838016841F0006101600068002206
:10325000114600F0006005906520FFF77FFB6520B8
:10326000FFF76EFB06B010BD00000840E0440258B6
:103270000000025870B50446C068012570B10228EC
:1032800001D0FFF770F8D4F80404294605F05CF883
:10329000D4F80404BDE8704005F017B80025F2E743
:1032A000D0F8040405F03AB8D0F8040405F040B8AA
:1032B00010B5044690F8BC0301280BD0012084F817
:1032C000381084F8BC03206805F0FEFE002084F866
:1032D000BC0310BD022010BDD0F8042400F57171AC
:1032E000104605F03DB810B590F8BC1304460068D0
:1032F000012906D0A26A012184F8BC13012A02D058
:1033000008E0022010BDA169012903D0816B41F4BE
:1033100080318163206805F06DFB206805F04AFE6E
:10332000002084F8BC0310BD10B50446D0F8040496
:1033300005F056F82068D0F8001E41F00101C0F8F1
:10334000001E206A002804D00248016841F00601EE
:10335000016010BD10ED00E0134970B50A68D2435A
:10336000520705D5096801F00701814213D118E021
:103370000A6822F0070202430A60FFF75BF90A4D70
:103380004FF47A760446083D07E000BFFFF752F994
:10339000001BB04201D9012070BD2868C0438004E1
:1033A000F4D4002070BD00000C48025802480168A7
:1033B00041F08071016070470C48025810B501F06F
:1033C0009DF805490968054AC1F30211515C01F0F5
:1033D0001F01C84010BD00002044025850A80090B2
:1033E000494930B5484C0B1D0A680C3409681D6802
:1033F000246802F0030305F00102C1F30511C4F3D0
:10340000CC04002914FB02F200EE102AF8EE400A68
:1034100075D03F4A9FED3D1AB7EE000A6BB1DFED64
:103420003D1A012B01D0022B64D002EE101A116854
:10343000F8EE422A81EEA22A21E0334C283C236890
:103440009B0612D5344B246801EE901A1168C4F320
:10345000C104F8EE612AE34001EE903AC1F308019D
:10346000F8EE611A81EEA22A0BE001EE901ADFED70
:103470002B2A00BFF8EE611A116882EEA12AC1F36F
:10348000080101EE901A1168F8EE611A40EE811AF7
:1034900071EE800A62EE200AC1F3462101EE101A95
:1034A000B8EE411A31EE001AC0EE811ABCEEE11AF4
:1034B00080ED001A1168C1F3064101EE101AB8EE52
:1034C000411A31EE001AC0EE811ABCEEE11A80ED0D
:1034D000011A1168C1F3066101EE101AB8EE411A23
:1034E00031EE000A80EE801ABCEEC10A80ED020ABD
:1034F00030BD04E001EE901ADFED092ABAE70021A1
:10350000016041608160F3E72844025800000039FF
:10351000304402580024744A0090D0030024744CB4
:1035200020BCBE4B494930B5484C0B1D0A681434C9
:1035300009681D68246802F00303C5F30012C1F393
:103540000531C4F3CC04002914FB02F200EE102A6A
:10355000F8EE400A75D03F4A9FED3D1AB7EE000ADB
:103560006BB1DFED3D1A012B01D0022B64D002EECE
:10357000101A1168F8EE422A81EEA22A21E0334C9B
:10358000283C23689B0612D5344B246801EE901A20
:103590001168C4F3C104F8EE612AE34001EE903AE9
:1035A000C1F30801F8EE611A81EEA22A0BE001EEE8
:1035B000901ADFED2B2A00BFF8EE611A116882EE37
:1035C000A12AC1F3080101EE901A1168F8EE611A00
:1035D00040EE811A71EE800A62EE200AC1F34621A4
:1035E00001EE101AB8EE411A31EE001AC0EE811A3F
:1035F000BCEEE11A80ED001A1168C1F3064101EE3C
:10360000101AB8EE411A31EE001AC0EE811ABCEE63
:10361000E11A80ED011A1168C1F3066101EE101A7A
:10362000B8EE411A31EE000A80EE801ABCEEC10AF3
:1036300080ED020A30BD04E001EE901ADFED092AA8
:10364000BAE70021016041608160F3E72844025835
:1036500000000039384402580024744A0090D00316
:103660000024744C20BCBE4B494930B5484C0B1D5E
:103670000A681C3409681D68246802F00303C5F356
:103680000022C1F30551C4F3CC04002914FB02F25B
:1036900000EE102AF8EE400A75D03F4A9FED3D1A21
:1036A000B7EE000A6BB1DFED3D1A012B01D0022B02
:1036B00064D002EE101A1168F8EE422A81EEA22AB6
:1036C00021E0334C283C23689B0612D5344B2468F8
:1036D00001EE901A1168C4F3C104F8EE612AE340C8
:1036E00001EE903AC1F30801F8EE611A81EEA22AC8
:1036F0000BE001EE901ADFED2B2A00BFF8EE611A05
:10370000116882EEA12AC1F3080101EE901A116836
:10371000F8EE611A40EE811A71EE800A62EE200A1C
:10372000C1F3462101EE101AB8EE411A31EE001A2B
:10373000C0EE811ABCEEE11A80ED001A1168C1F3E7
:10374000064101EE101AB8EE411A31EE001AC0EE31
:10375000811ABCEEE11A80ED011A1168C1F306610D
:1037600001EE101AB8EE411A31EE000A80EE801A0E
:10377000BCEEC10A80ED020A30BD04E001EE901AF1
:10378000DFED092ABAE70021016041608160F3E7BB
:103790002844025800000039404402580024744A6A
:1037A0000090D0030024744C20BCBE4B2DE9F047A0
:1037B0004FF480760146B0426F48DFF8B8818AB096
:1037C0006E4B4FF080576E4DA8F104044FEA201263
:1037D0004FF0005C29D1D8F8001001F0070105294D
:1037E0001FD2DFE801F0030A0F20140006A8FFF73C
:1037F000F7FD07980AB0BDE8F0876846FFF792FE2C
:103800000098F7E703A8FFF72FFF0398F2E7216876
:1038100011F04051EED0B94275D11046EAE7184692
:10382000E8E70020E6E72846E4E7B1F5007F19D095
:10383000544EB1F5806F26D0B1F5006F37D04FF4FC
:10384000805949454FF4804A4BD1D8F8001001F413
:10385000E041B1F5005FD5D03DDC0029C6D0494537
:10386000DFD1CAE7D8F8001001F4E0718029C9D08F
:1038700004DC0029BAD04029D3D1BEE7C029D2D078
:10388000B142CED1C3E7316801F46001B1F5800FD8
:10389000B8D005DC0029A9D0B1F5001FC1D1ACE733
:1038A000B1F5C00FBFD0B1F5000FBAD1AFE73168A5
:1038B00001F0E061B1F1007FA4D005DC002995D0D2
:1038C000B1F1807FADD198E7B1F1407FABD0B1F1DC
:1038D000806FA6D19BE7B1F5405FA4D05145A0D140
:1038E00095E7B1F5002F4FF480350DD0A9421DD1D9
:1038F000206810F48030B1D0A84292D16846FFF71A
:1039000011FE029876E70EE0316811F44031A8D03C
:10391000A94203D0B1F5003F83D178E703A8FFF7B0
:10392000A3FE059866E761459AD178E7514597D19E
:10393000316801F0E041B1F1405FE3D009DC81B1D1
:10394000B94211D061458BD103A8FFF78DFE0498D1
:1039500050E7B1F1804F3FF460AFB1F1A04F8BD190
:103960005DE7FFF72BFD45E76846FFF7DBFD0198B4
:1039700040E70000504402580090D00340787D0199
:103980000080BB00584402582DE9FC5F044650F803
:10399000241B002500902E460801FE4FDFF8F88317
:1039A0001DD5606E50B1B0F5801F0CD0B0F5001F72
:1039B0000ED0B0F5401F1DD001250FE0386840F44F
:1039C0000030386016E00221201D02F02DFF03E0D8
:1039D0000098022102F0B8FF05000BD02E46208887
:1039E000C00523D5606D05281ED2DFE800F00C115C
:1039F000161B1B00626ED8F8001021F44011114311
:103A0000C8F80010EBE7386840F40030386009E08F
:103A10000021201D02F008FF03E00098002102F0C1
:103A200093FF05466DB100E001252E4620888005F4
:103A300028D5A06D80281ED00CDC90B140280ED176
:103A400014E0626DD8F8001021F007011143C8F8A6
:103A50000010EBE7C02813D0B0F5807F10D001250F
:103A60000FE0386840F40030386009E00021201D84
:103A700002F0DAFE03E00098002102F065FF05463F
:103A800095B12E462088DFF81093400509F108090A
:103A90002CD5D4F8A400B0F5800F20D00DDCA0B157
:103AA000B0F5001F0FD115E0A26DD8F8001021F479
:103AB000E0711143C8F80010E4E7B0F5C00F13D06F
:103AC000B0F5000F10D001250FE0386840F4003049
:103AD000386009E00021201D02F0A6FE03E00098F6
:103AE000002102F031FF054675B12E462088000501
:103AF0002DD5D4F8A800B0F1007F21D00EDCA8B1FC
:103B0000B0F1807F10D116E0D4F8A420D9F80010CD
:103B100021F460011143C9F80010E7E7B0F1407FDC
:103B200013D0B0F1806F10D001250FE0386840F459
:103B30000030386009E00021201D02F075FE03E02E
:103B40000098002102F000FF05466DB12E46206866
:103B500080011FD5A06CD8B110280FD0202812D01A
:103B6000302815D0012514E0D4F8A820D9F8001089
:103B700021F0E0611143C9F80010E8E7386840F42B
:103B80000030386004E00221201D02F04DFE0546A1
:103B90006DB12E462088C0042BD5E06DB0F5005FD6
:103BA00020D00DDCA0B1B0F5805F0FD115E07A48D0
:103BB000A26C001F016821F0300111430160E9E7A8
:103BC000B0F5405F13D0B0F5804F10D001250FE065
:103BD000386840F40030386009E00021201D02F010
:103BE00023FE03E00098002102F0AEFE054685B1F9
:103BF0002E462088800429D5206EB0F5403F23D082
:103C000010DC08B3B0F5803F14D0B0F5003F0FD101
:103C100015E0E26DD8F8001021F4E0411143C8F836
:103C20000010E6E7B0F5802F0ED0B0F5A02F0BD036
:103C300001250AE00121201D02F0F6FD03E00098B5
:103C4000012102F081FE05468DB12E4620884004F8
:103C50002AD5D4F8AC00B0F1405F23D010DC08B313
:103C6000B0F1805F14D0B0F1005F0FD115E0226E8B
:103C7000D8F8001021F4E0211143C8F80010E5E75E
:103C8000B0F1804F0ED0B0F1A04F0BD001250AE06B
:103C90000121201D02F0C8FD03E00098012102F07F
:103CA00053FE05466DB12E46208800041FD5E06EF8
:103CB000D8B1B0F1805F0ED0B0F1005F10D0012517
:103CC00014E0D4F8AC20D9F8001021F0E041114301
:103CD000C9F80010E8E7386840F40030386004E0C4
:103CE0000121201D02F0A0FD05466DB12E46206881
:103CF000C0011ED5606CD0B101280ED0022811D0B1
:103D0000032814D0012513E0E26ED8F8001021F04A
:103D100040511143C8F80010E9E7386840F400301A
:103D2000386004E00221201D02F07EFD054685B1C9
:103D30002E462068DFF85CB04002ABF11C0B57D573
:103D40001648016841F480710160FEF773FC8246F9
:103D50000EE01148626C001F016821F0030111435D
:103D60000160E6E7FEF766FCA0EB0A0064283DD898
:103D70000A480068C005F5D57DBBDFF81CA0B4F883
:103D8000B0100AF1200ADAF8000001F4407100F4E2
:103D9000407005E02C440258504402580048025834
:103DA000884211D0DAF80010DAF8002021F44071CE
:103DB00042F48032CAF80020DAF8002022F480327F
:103DC000CAF80020CAF80010D4F8B000B0F5807F1F
:103DD00021D1FEF72FFC019019E008E0FEF72AFC44
:103DE0000199411A41F28830814210D903252E46AB
:103DF0002078DFF830A4C0073DD0A06F182838D055
:103E000026DC80B3082829D0102825D12CE0DAF848
:103E100000008007E2D5D4F8B010C1F301200328D8
:103E200058460DD0016821F47C510160B4F8B020EF
:103E3000DAF80010C2F30B021143CAF80010D7E7FA
:103E4000F94A036802EA111223F47C511143ECE7AA
:103E500020280ED028280CD001250BE00121201DA0
:103E600002F0E2FC04E004E00098012102F06CFDA5
:103E700005465DB12E46207880071ED5606F062866
:103E800019D2DFE800F0160C11161616A26FDAF838
:103E9000001021F038011143CAF80010EBE70121AE
:103EA000201D02F0C1FC03E00098012102F04CFD4E
:103EB000054675B100E001252E46207840071FD544
:103EC000D4F89000062819D2DFE800F0160C11167D
:103ED0001616626FDAF8001021F007011143CAF8D4
:103EE0000010EAE70121201D02F09EFC03E000988B
:103EF000012102F029FD05469DB100E001252E4675
:103F0000207880062BD5D4F88C00B0F1405F24D007
:103F100011DC10B3B0F1805F15D0B0F1005F10D1AB
:103F200016E0D4F89020D9F8001021F007011143D1
:103F3000C9F80010E4E7B0F1804F0ED0B0F1A04F07
:103F40000BD001250AE00021201D02F06DFC03E0EA
:103F50000098022102F0F8FC05468DB12E4620782B
:103F600040062BD5D4F89800B0F5406F24D011DC72
:103F700010B3B0F5806F15D0B0F5006F10D116E01A
:103F8000D4F88C20DAF8001021F0E0411143CAF88F
:103F90000010E4E7B0F5805F0ED0B0F5A05F0BD065
:103FA00001250AE00021201D02F03EFC03E00098FC
:103FB000022102F0C9FC05468DB12E46207800068C
:103FC0002BD5D4F89C00B0F5C04F24D011DC10B331
:103FD000B0F5005F15D0B0F5804F10D116E0D4F8E1
:103FE0009820D9F8001021F4E0511143C9F80010CD
:103FF000E4E7B0F5004F0ED0B0F5204F0BD001250F
:104000000AE00021201D02F00FFC03E000980221CD
:1040100002F09AFC05464DB12E46207800071ED5C9
:10402000D4F88000B0F5805F0AD00FE0D4F89C206F
:10403000D9F8001021F460411143C9F80010ECE7F1
:104040000098022102F080FC00B10126D4F8802003
:10405000DAF8001021F440511143CAF8001020781A
:10406000C00613D5D4F89400B0F5807F05D1009830
:10407000022102F069FC00B10126D4F89420D9F89D
:10408000001021F440711143C9F8001020680003AA
:1040900016D5D4F8A00038B1B0F5803F09D0B0F5FE
:1040A000003F0BD001250AE00021201D02F0BCFBDF
:1040B00003E00098022102F047FC054685B12E4638
:1040C0002068400322D5D4F88400B0F5801F11D0B9
:1040D000B0F5001F13D0B0F5401F15D0012514E036
:1040E000D4F8A020D9F8001021F440311143C9F8C8
:1040F0000010E5E7386840F40030386004E00098CC
:10410000012102F021FC054655B12E462068C0036E
:104110001CD5E06C70B1B0F5803F10D0012514E0E3
:10412000D4F88420DAF8001021F440111143CAF8C1
:104130000010EBE7386840F40030386004E00221FA
:10414000201D02F071FB0546CDB12E46206880008F
:1041500005D50098022102F0F7FB00B10126206886
:1041600080031BD5E06FB8B1B0F5807F10D0B0F5FB
:10417000007F11D0B0F5407F0ED001250DE0294819
:10418000E26C0838016821F4803111430160DDE7F9
:10419000386840F400303860F5B32E462068C0021D
:1041A00007D5226FD8F8001021F000411143C8F85C
:1041B00000102068C00008D5D4F8B420DBF8001047
:1041C00021F480411143CBF800102068800207D50C
:1041D000A26ED8F8001021F080711143C8F80010C9
:1041E000206840000CD5DBF8001021F40041CBF82A
:1041F0000010DBF80010D4F8B8201143CBF8001001
:104200002068002807DA0748226D0838016821F085
:1042100040511143016000E008E086B10120BDE893
:10422000FC9F000054440258CFFFFF00E26FDAF811
:10423000001021F440711143CAF80010AEE70020CD
:10424000EDE700002DE9F05F04000F467ED0DFF8B7
:104250003882D8F8000000F00F00B8420CD2D8F82D
:10426000001021F00F013943C8F80010D8F8000001
:1042700000F00F00B84269D12078844D40070AD57C
:104280002069296801F07001884204D9296821F069
:1042900070010143296020787C4E361D00070AD545
:1042A0006069316801F07001884204D9316821F0F9
:1042B0007001014331602078C0060AD5A0693168D9
:1042C00001F4E061884204D9316821F4E0610143DE
:1042D00031602078DFF8B4B180060BF1080B0CD503
:1042E000E1695846DBF8002002F07002914204D9DF
:1042F000026822F070020A430260207880070AD523
:10430000E068296801F00F01884204D9296821F08A
:104310000F01014329602078C0073ED05B49A268A5
:104320002868183920F470601043286060680228FB
:1043300018D0032819D00968012819D04907002985
:104340004ADADFF848A1AAF1080A00E044E0DAF806
:10435000002022F007020243CAF80020FEF76AF9A3
:10436000814612E009688903E9E709688901E6E7FF
:10437000C905E4E7FEF75EF9A0EB090141F28830D8
:10438000814202D90320BDE8F09F6168DAF800009D
:1043900000F03800B0EBC10FECD1207880070AD5CF
:1043A000E068296801F00F01884204D2296821F0F1
:1043B0000F0101432960D8F80010404601F00F01B9
:1043C000B9420BD9016821F00F013943016000683F
:1043D00000F00F00B84201D00120D4E72078400758
:1043E0000AD52069296801F07001884204D2296841
:1043F00021F0700101432960207800070AD5606927
:10440000316801F07001884204D2316821F07001F6
:10441000014331602078C0060AD5A069316801F4F3
:10442000E061884204D2316821F4E06101433160E7
:10443000207880060CD5E1695846DBF8002002F0B0
:104440007002914204D2026822F070020A430260B4
:1044500000F088F80E492A682B68C2F3032203F0A3
:104460000F038A5CC95C02F01F0201F01F01D040FB
:10447000084A20FA01F111600749086007480068FE
:10448000BDE8F05FFEF70CBA002000521844025855
:1044900050A80090080000240400002478000020A8
:1044A00070B5144C3F220260124A24680832131D72
:1044B000114D04F00704446016681C1D06F4706674
:1044C0008660166806F00F06C660126802F0700279
:1044D00002611A6802F0700242611A6802F4E06236
:1044E0008261226802F07002C261286800F00F0049
:1044F000086070BD104402580020005230B500F032
:1045000031F80B4A0B490C4B15681468C5F30322AC
:1045100004F00F048A5C095D02F01F0201F01F0124
:10452000D040064A20FA01F119601060084630BDFB
:104530001844025850A800900800002404000024E9
:1045400000B5FFF7DBFF05490968054AC1F3022101
:10455000515C01F01F01C84000BD00001C4402581E
:1045600050A80090454970B545480968434B103B39
:1045700011F0380208D00111082A03D0102A0BD0FC
:10458000182A0BD0084670BD19688906FBD5196832
:10459000C1F3C101C84070BD3A4870BD3749374DBD
:1045A00018310C1D24350A68096826682D6802F048
:1045B000030406F00102C1F30511C5F3CC0515FB98
:1045C00002F200EE102AB8EE400AE9B32F4ADFEDFE
:1045D0002E0AB7EE001A6CB1DFED2D1A012C01D0B6
:1045E000022C43D002EE101A1068F8EE422A81EE37
:1045F000A22A1EE01C68A40611D51B6801EE901AC1
:104600001168C3F3C103F8EE612AD84001EE900AA5
:10461000C1F30800F8EE611A81EEA22A0BE001EE68
:10462000901ADFED1C2A00BFF8EE611A106882EEC6
:10463000A12AC0F3080001EE900AF8EE611A40EEDC
:10464000201A31EE810A00E015E022EE000A10681F
:10465000C0F34620401C00EE900AF8EE600A80EE9F
:10466000201ABCEEC10A10EE100A70BD01EE901ABD
:10467000DFED092AD8E7002070BD00001044025881
:104680000090D00340787D0100000039304402588A
:104690000024744A0024744C20BCBE4B2DE9F05F0A
:1046A00004007CD0FF4F2078FE4D1837DFF8F493DC
:1046B000103DC00748D0D9F80000396800F0380034
:1046C000102815D0182803D101F0030002280FD0BC
:1046D0006068B0F5803F12D010B1B0F5A02F18D0AF
:1046E000286820F480302860286820F4802009E0C1
:1046F0002868800328D560680028D2D024E0286884
:1047000040F480302860606888B1FDF793FF06466A
:1047100009E0286840F480202860F0E7FDF78AFF70
:10472000801B64287ED828688003F7D50CE0FDF74D
:1047300081FF064605E000BFFDF77CFF801B642873
:10474000F0D828688003F7D4207841F20308D54ECA
:104750000C3E800753D5D9F80000396810F03800B6
:104760000ED0182801D188070AD0E068A8B32968BC
:1047700021F0190101432960FDF75CFF82461BE02F
:104780002868400702D5E06800288AD0FDF74CFF72
:1047900040451BD82069402812D0316800E0CCE0A9
:1047A00021F47C3141EA0030306028E0FDF742FF1F
:1047B000A0EB0A000228B5D828684007F6D5E5E73F
:1047C000306820F47C3040F40030EDE7207C316824
:1047D00021F0FE4141EA0060E6E7FFE7286820F0AB
:1047E00001002860FDF726FF824605E0FDF722FF65
:1047F000A0EB0A00022895D828684007F6D4207854
:10480000C0065FD5D9F80000DFF898B2396800F02B
:104810003800ABF1040B082812D0182805D101F09C
:10482000030000E0EAE001280AD0E06900282868D7
:1048300038D040F080002860FDF7FCFE824623E07F
:104840002868C00523D5E069802876D11FE0206A5A
:10485000202821D0316821F0F84141EA80603060A1
:1048600030E000BF94F82010DBF8002022F07C52EA
:1048700042EA0161CBF8001024E000BFFDF7DAFE48
:10488000A0EB0A00022896D82868C005F6D5FDF7E7
:10489000CBFE4045E6D8DAE7306820F0F84040F03B
:1048A0008040DCE720F080002860FDF7C3FE06466C
:1048B00005E000BFFDF7BEFE801B02289BD82868DC
:1048C000C005F7D42078000729D57648616964309F
:1048D00000298046016811D041F001010160FDF717
:1048E000A9FE064605E000BFFDF7A4FE801B0228D6
:1048F000C9D8D8F800008007F6D510E021F00101F2
:104900000160FDF797FE064605E000BFFDF792FE49
:10491000801B022872D8D8F800008007F6D42078CF
:10492000800623D5A0690028286810D040F4805064
:104930002860FDF77FFE064605E02CE1FDF77AFED4
:10494000801B02285AD828688004F7D50EE020F48E
:1049500080502860FDF76EFE064604E0FDF76AFE13
:10496000801B02284AD828688004F7D420784007A2
:104970004FD5DFF83481D8F8001041F48071C8F8C1
:104980000010FDF757FE064605E000BFFDF752FE9A
:10499000801B642832D8D8F80000C005F6D5414EF7
:1049A000A068603601280AD008B1052813D0306805
:1049B00020F001003060306820F0040002E0306830
:1049C00040F001003060A06841F2883A90B1FDF7F4
:1049D00031FE80460AE0306840F004003060EEE7C7
:1049E000FDF728FEA0EB0801514507D83068800785
:1049F000F6D50EE0FDF71EFE804607E084E000BF1E
:104A0000FDF718FEA0EB080151457DD830688007FE
:104A1000F6D4606AF0B3DFF88C80D9F8001008F1A2
:104A20002008C1F3C20103296FD00228286820F0B2
:104A30008070286003D0FDF7FDFD044680E0FDF79F
:104A4000F9FD064605E000BFFDF7F4FD801B0228D6
:104A500073D828688001F7D4E26A40F2F3313868ED
:104A600054F8283F884340EA021018433860217BFD
:104A70004FF4FE0C22894FF0FE47208A4902267D22
:104A8000521E401EA1F5007189B20CEA0040C2F32B
:104A9000080200E081E01143761E0143014807EA65
:104AA000066203E010440258004802581C301143CB
:104AB0003B4AC8F80010016821F00101016011684B
:104AC0004FF6F876236AB14341EAC30111600168E9
:104AD000A26921F00C01114301600168E26921F033
:104AE000020111430160016841F4803101600168F5
:104AF00041F400310160016841F4802101600168E6
:104B000041F00101016001E017E01DE0286840F07C
:104B100080702860FDF78EFD044604E0FDF78AFDF5
:104B2000001B022809D828688001F7D535E000BFAE
:104B3000FDF780FD001B022802D90320BDE8F09F8D
:104B400028688001F4D428E039680128D8F80000EA
:104B500021D0A26A01F0030393421CD1E26AC1F39F
:104B600005118A4217D1216BC0F30802491E8A42FF
:104B700011D1616BC0F34622491E91420BD1A16B4A
:104B8000C0F30642491E914205D1E16BC0F30660B5
:104B9000491E814201D00120D0E70020CEE700006D
:104BA000344402582DE9F04104002AD0607A4FF0D5
:104BB000000820B9204684F8088000F031F8022669
:104BC00066720427D4E90002016821F02001114334
:104BD00001602068016841F00401016020684068BC
:104BE000C043400601D467720BE0FDF723FD054684
:104BF0000AE000BFFDF71EFD401B022804D96772C2
:104C0000E6600120BDE8F08120684068C0434007AD
:104C1000F0D501216172C4F80C800020F2E7000099
:104C200008B500680649884208D10648016841F085
:104C300040010160006800F04000009008BD0000E5
:104C400000180248DC4402582DE9FE430446C06BBC
:104C50000E46032184F83410002703285ED0B6F5F1
:104C6000004F5BD0B6F5804F4FF000004FF4006569
:104C70004FF0806804D01EB3A06B40F0006043E0AA
:104C80000090002101908146206802F049FA8001DD
:104C900013D46946204602F08BFA05000DD1019825
:104CA00040032FD5B4F848102068090401F0DCFE59
:104CB000050002D1206802211EE0A06B284323E0FA
:104CC0000090002101908146206802F029FA8001BD
:104CD000F3D46946204602F06BFA0500EDD1019845
:104CE000C0030FD5B4F848102068090401F0BCFED9
:104CF0000500E2D12068002101F000FF0500DCD1B1
:104D00004D46DAE74546D8E7A063A06B4FF400783C
:104D1000184D38B120680127856318E0A06B40F07A
:104D20008050F1E7D4E904C0D4E9011233460428E5
:104D300006D2E66D464503D0B6F5807F18D0042034
:104D4000CDF800C0CDE9010A206802F0EDF9206835
:104D5000414601F0BAFE28B1216801278D63A16B9D
:104D60000143A163012084F834003846BDE8FE8386
:104D70000220E5E7FF0FE01F70470000F0B5026E6C
:104D8000920F0A70026EC2F383624A70026EC2F31F
:104D900001628A70026E120CCA70B0F86020120AAA
:104DA0000A7190F860204A71426E120DCA80426EFC
:104DB000C2F303420A72B0F86420C2F3C0324A72EE
:104DC000B0F86420C2F380328A72B0F86420C2F373
:104DD0004032CA72B0F864200026C2F300320A736F
:104DE0004E730122C36B4FF4007463B1012B3AD0B0
:104DF000036850499963816B41F08051816380F869
:104E000034200120F0BDB0F86430856E9B051B0D89
:104E100043EA95730B61836EC3F3C2630B75836EB4
:104E2000C3F302634B75836EC3F342538B75836E7A
:104E3000C3F38243CB75836EC3F3C2330B760D6924
:104E40006D1CC5640B7E03F007039B1C9D40C5646D
:104E50000B7A846503F00F0302FA03F35F0A7D43C4
:104E6000C0E914350EE090F86450836EAD06AD0ACB
:104E700045EA13430B610B695B1C9B02C364C0E9E9
:104E800014438465B0F86830C3F380334B76B0F8D0
:104E90006830C3F3C6138B7690F8683003F07F0355
:104EA000CB76C36EDB0F0B77C36EC3F341734B77C7
:104EB000C36EC3F382638B77C36EC3F38353CB7725
:104EC000C36EC3F3405381F8203081F82160C36E74
:104ED000C3F3004381F82230B0F86C30C3F3C03321
:104EE00081F82330B0F86C30C3F3803381F824307C
:104EF000B0F86C30C3F3403381F82530B0F86C3033
:104F0000C3F3003381F82630B0F86C30C3F381234B
:104F100081F82730B0F86C30C3F3012381F82830D2
:104F200090F86C00C0F3460081F8290081F82A202F
:104F30000020F0BDFF0FE01FC26B0A60026C4A60E8
:104F4000426C8A60826CCA60C26C0A61026D4A61FE
:104F5000426D8A61806DC8610020704770B5B0F8FD
:104F60004810002504460068090401F0D9FE18B174
:104F7000A16B0143A16304E02068002102F0D0F896
:104F80000546C5F3432070BD2DE9F04190B00C46B5
:104F900000260546694602F089FA294F4FF00108BC
:104FA00040B12A6801269763AA6B0243AA6385F879
:104FB000348035E000994FF47F40C1F381112170B6
:104FC0000099C1F340116170009900EA112242EA90
:104FD00011616180019909BA616002992172029997
:104FE000090A61720299C1F30351A172DDE902213C
:104FF00000EA1240C9B20843A0810398C0F385209B
:10500000A0730398C0F30120E0730398C0F303106A
:105010002074039800F00F0060740498000EA074D0
:1050200028684FF4007101F050FD28B12A6801266C
:105030009763A86385F8348010B03046BDE8F081EE
:10504000FF0FE01FF0B5040085B024D094F83400C1
:10505000002538B9A069257708B90220A06120464B
:1050600000F096F8032084F83400204600F03CF865
:1050700088B969462046FFF787FF60B99DF8101090
:10508000E26B9DF81100012A08D0E5652046E16831
:10509000FFF7DAFD58B1012005B0F0BD014302D0A1
:1050A0004FF4007001E04FF48070E065EEE7FDF72B
:1050B000C1FA0127064604E0FDF7BCFA801B401C3C
:1050C0000AD02046FFF74AFF0428F5D1A5632563DF
:1050D00084F834700020DFE74FF00040A06384F8CC
:1050E00034700320D8E70000FEB5002504464FF4D5
:1050F0008030FEF75BFB234A0646A169B0FBF2F75E
:10510000022904D12068016841F010010160009576
:105110002B46CDE9017420682A46294602F004F89E
:10512000206802F011F87800B6FBF0F020B11649C3
:10513000B1FBF0F0401C00E00220FDF739F92046F9
:1051400002F012F94FF0010530B100BF84F834507D
:10515000A16B0143A16313E0204602F09BF80028F5
:10516000F4D120684FF4007101F0AFFC002808D0A2
:10517000226806499163A16B0143A16384F834500E
:105180000120FEBD00350C0010210100FF0FE01FC3
:10519000F0B587B0044614216846FBF706FC1A49AF
:1051A000206888422DD11948016841F4803101609E
:1051B000006800F48030059014480C30016841F01C
:1051C00004010160016801F004010591016841F0EA
:1051D00008010160006802240025694600F008000B
:1051E000059003260C274FF4F8508DE8F10008488D
:1051F000FDF7F0F8042069468DE8F1000548FDF759
:10520000E9F807B0F0BD000000700052D444025825
:1052100000080258000C02582DE9F04F87B099465B
:1052200017460D460446FDF705FA06903DB194F881
:105230003400012807D0A06B40F000500DE0A06BB7
:1052400040F0006009E0626D002007EB0901A063F7
:10525000914204D9A06B40F00070A063A8E0032144
:1052600084F834102168C862E16B012900D07F0204
:105270004FF0020ACDE903A090264FF0FF324FEA2B
:10528000492305908DE84C0080462068694601F06E
:105290000AFE2068B9F1010F4FF00106C16841F024
:1052A0004001C16006D9C4F830A03946206801F039
:1052B000A3FC04E026633946206801F0B7FCDFF860
:1052C00014A150B12368C3F838A0A16B0143A163B6
:1052D00084F83460C4F830806AE0DDF804B01FE080
:1052E000406B000414D5BBF1200F11D300272068B8
:1052F00001F030FF020A2870010C6A70030EA970D9
:105300007F1CEB70082F05F10405F0D3ABF1200BE7
:10531000FDF790F90699411A1098814221D200B305
:105320002068416B11F4957FDAD0C16821F040010B
:10533000C1602068416BC90522D5B9F1010F1FD9A1
:10534000E16B03291CD001F037FDC8B12368C3F815
:1053500038A0A26B0243A26384F83460C4F83080A2
:1053600026E02268C2F838A0A06B40F00040A0639D
:1053700084F83460C4F83080032007B0BDE8F08FB3
:105380002068416B090706D5C0F838A0A16B4046DC
:1053900041F0080108E0416B89070BD5C0F838A03F
:1053A000A16B404641F00201A16384F834602063A0
:1053B0000120E2E7416B890606D5C0F838A0A16B51
:1053C000404641F02001EFE70349816384F83460EF
:1053D0000020D2E7FF0FE01F3A0F00182DE9F04F31
:1053E00089B09A4616460D460446FDF723F9069005
:1053F0003DB194F83400012807D0A06B40F0005074
:105400000DE0A06B40F0006009E0626D002006EB4B
:105410000A01A063914204D9A06B40F00070A06320
:10542000B2E0032184F834102168C862E16B0129DD
:1054300000D076024FF0FF314FEA4A2205909023C8
:105440000490CDE90230CDE900128046206869461B
:1054500001F029FD2068C168BAF1010F41F0400256
:10546000C26006D9202020632068314601F0E7FCA5
:1054700005E0102020632068314601F0FAFCDFF8D7
:1054800030B106004FF001090AD02368C3F838B0E4
:10549000A06B3043A06384F83490C4F8308073E08C
:1054A0000198089027E0406B40041CD508982028FC
:1054B00019D3002728780790697840EA01200790DF
:1054C000A97840EA01400790E9782D1D40EA016083
:1054D0000790206807A901F055FE7F1C082FE9D32B
:1054E000089820380890FDF7A5F80699411A1298F7
:1054F000814221D200B32068416B11F48D7FD2D05C
:10550000C16821F04001C1602068416BC90521D507
:10551000BAF1010F1ED9E16B03291BD001F04CFC3D
:10552000C0B12568C5F838B0A16B0143A16384F808
:105530003490C4F8308027E02368C3F838B0A26BF9
:105540003243A26384F83490C4F83080032009B059
:10555000BDE8F08F2068416B090707D54946C0F8C0
:1055600038B0A26B404642F0080209E0416B89075F
:105570000CD54946C0F838B0A26B404642F0020252
:10558000A26384F8341020630120E0E7416BC90670
:1055900007D54946C0F838B0A26B404642F0100229
:1055A000EEE7044A826384F834900020CFE70000DD
:1055B000FF0FE01F3A0F00182DE9F047040029D033
:1055C0004A4A4FF000092068494B4A4D9042C4F8BE
:1055D000289006D0984204D0A84202D0E1680F2952
:1055E00018D8E1684FF0010AE76B0831C9080AEBE7
:1055F00057167143904205D0984203D0A84201D07B
:10560000082907D8904203D0984201D0A84204D17B
:10561000102902D90120BDE8F08794F8810020B953
:10562000204684F8809000F067F8022084F881001A
:105630002068016821F001010160A069B0F1806F6C
:105640000AD16068B0F5800F06D1A06B20B9206840
:10565000016841F480510160A56AE0692368E16B4B
:105660002843E268084310439860D4E90D02D4E966
:1056700005C1636A25691843D4F820800A43266867
:1056800010432843A56DD4E90172D4E9123140EAF0
:105690000C0040EA080038430843104318432843ED
:1056A000F060606868B92068816821F4C05141F4F5
:1056B000006181602068816821F4C06141F48061EB
:1056C00081602068016D21F0010101656068400280
:1056D00006D52068626DC16821F000411143C160A8
:1056E000C4F8849084F881A0002094E70030014041
:1056F00000380040003C004010B586B0044614213C
:105700006846FBF752F91349206888421FD11248B6
:10571000016841F480510160006800F480500590F8
:105720000D481038016841F001010160006805234F
:10573000E02100F00100059000200091022269465E
:10574000CDE90120CDE903030448FCF743FE06B090
:1057500010BD000000300140F04402580000025823
:105760002DE9FC5F0446006817468A4600211D4665
:1057700094F8802000F1200B0191012A0DD04FF008
:10578000010884F88080FCF755FF814694F8810079
:105790000026012804D002201EE00220BDE8FC9F64
:1057A000BAF1000F17D0B7B1A1680320C4F85CA00C
:1057B000A4F8607084F88100C4F88460A4F8627072
:1057C0006666A4F86860A4F86A60B1F5C02F6667E1
:1057D000266704D008E0012084F88060DEE72068B6
:1057E000016841F400610160206841686FF30F01B6
:1057F000394341602068016841F00101016060683F
:10580000B0F5800F04D12068016841F40071016097
:10581000E0680F281AD82CE02068416989070BD569
:10582000E16D09680162E06D001DE065B4F8620099
:10583000401EA4F8620009E0FCF7FCFEA0EB0900A2
:10584000A84202D3681C01D005E025B1B4F862007B
:105850000028E1D183E0204601F0FFFED4F8841057
:1058600084F8806041F48071C4F8841084F88180E9
:105870008DE007282CD86EE02068416989071CD587
:10588000B4F8621001290BD9E16B49B1E16D0968E7
:105890000162E06D001DE065B4F86200801E09E061
:1058A000E06D0188ABF80010E06D801CE065B4F895
:1058B0006200401EA4F862000AE0FCF7BBFEA0EB09
:1058C0000900A84202D3681C02D0C4E7002DC2D050
:1058D000B4F862000028CFD141E02068416989070F
:1058E0002ED5B4F8621003290CD9E16B402909D9EF
:1058F000E16D09680162E06D001DE065B4F86200C9
:10590000001F1AE0B4F8621001290CD9E16B51B103
:10591000E06D0188ABF80010E06D801CE065B4F824
:105920006200801E09E0E16D097880F82010E06DCA
:10593000401CE065B4F86200401EA4F862000AE072
:10594000FCF778FEA0EB0900A84202D3681C02D045
:1059500081E7002DB9D0B4F862000028BDD1002243
:105960004B4608212046009501F0D5FE28B1D4F819
:10597000840040F02000C4F88400204601F06DFE51
:1059800084F88180D4F8840084F8806008B1012014
:1059900004E7019802E7704770477047F0B590F848
:1059A0003C20012A38D01D4E012480F83C400222C0
:1059B00080F83D2002681A4D5368B242D2F808C000
:1059C00001D0AA4203D14F6823F470033B430F6810
:1059D00023F070031F4357600268B24210D0B2F147
:1059E000804F0DD00F4B9A420AD00F4B9A4207D0EE
:1059F0000E4B9A4204D0AA4202D00D4B9A4204D1D7
:105A000089682CF0800319439160002180F83D40A3
:105A100080F83C100846F0BD0220F0BD00000140B7
:105A2000000401400004004000080040000C004059
:105A30000018004010B5040003D094F83D0010B1E8
:105A400007E0012010BD002084F83C00204600F053
:105A500023F8022084F83D002068211D01F082FF18
:105A6000012084F8480084F83E0084F83F0084F860
:105A7000400084F8410084F8420084F8430084F830
:105A8000440084F8450084F8460084F8470084F810
:105A90003D00002010BD000008B50068B0F1804F47
:105AA00012D10A48016841F001010160006800223A
:105AB000114600F0010000901C20FCF74FFFBDE8EC
:105AC00008401C20FCF73CBF08BD0000E844025819
:105AD00090F83D10012901D0012070470B4A0221A6
